{
  "address": "0x361E2E17A7a32Da869206f2A372968c142C702bC",
  "abi": [
    {
      "inputs": [
        {
          "internalType": "address",
          "name": "_perpetualMarketCoreAddress",
          "type": "address"
        },
        {
          "internalType": "address",
          "name": "_quoteAsset",
          "type": "address"
        },
        {
          "internalType": "address",
          "name": "_underlyingAsset",
          "type": "address"
        },
        {
          "internalType": "address",
          "name": "_feeRecepient",
          "type": "address"
        },
        {
          "internalType": "address",
          "name": "_vaultNFT",
          "type": "address"
        }
      ],
      "stateMutability": "nonpayable",
      "type": "constructor"
    },
    {
      "anonymous": false,
      "inputs": [
        {
          "indexed": true,
          "internalType": "address",
          "name": "account",
          "type": "address"
        },
        {
          "indexed": false,
          "internalType": "uint256",
          "name": "issued",
          "type": "uint256"
        },
        {
          "indexed": false,
          "internalType": "uint256",
          "name": "amount",
          "type": "uint256"
        }
      ],
      "name": "Deposited",
      "type": "event"
    },
    {
      "anonymous": false,
      "inputs": [
        {
          "indexed": true,
          "internalType": "address",
          "name": "trader",
          "type": "address"
        },
        {
          "indexed": false,
          "internalType": "uint256",
          "name": "vaultId",
          "type": "uint256"
        },
        {
          "indexed": false,
          "internalType": "uint256",
          "name": "amount",
          "type": "uint256"
        }
      ],
      "name": "DepositedToVault",
      "type": "event"
    },
    {
      "anonymous": false,
      "inputs": [
        {
          "indexed": false,
          "internalType": "address",
          "name": "hedger",
          "type": "address"
        },
        {
          "indexed": false,
          "internalType": "bool",
          "name": "isBuyingUnderlying",
          "type": "bool"
        },
        {
          "indexed": false,
          "internalType": "uint256",
          "name": "usdcAmount",
          "type": "uint256"
        },
        {
          "indexed": false,
          "internalType": "uint256",
          "name": "underlyingAmount",
          "type": "uint256"
        }
      ],
      "name": "Hedged",
      "type": "event"
    },
    {
      "anonymous": false,
      "inputs": [
        {
          "indexed": false,
          "internalType": "address",
          "name": "liquidator",
          "type": "address"
        },
        {
          "indexed": true,
          "internalType": "uint256",
          "name": "vaultId",
          "type": "uint256"
        },
        {
          "indexed": false,
          "internalType": "uint256",
          "name": "reward",
          "type": "uint256"
        }
      ],
      "name": "Liquidated",
      "type": "event"
    },
    {
      "anonymous": false,
      "inputs": [
        {
          "indexed": true,
          "internalType": "address",
          "name": "previousOwner",
          "type": "address"
        },
        {
          "indexed": true,
          "internalType": "address",
          "name": "newOwner",
          "type": "address"
        }
      ],
      "name": "OwnershipTransferred",
      "type": "event"
    },
    {
      "anonymous": false,
      "inputs": [],
      "name": "Paused",
      "type": "event"
    },
    {
      "anonymous": false,
      "inputs": [
        {
          "indexed": true,
          "internalType": "address",
          "name": "trader",
          "type": "address"
        },
        {
          "indexed": false,
          "internalType": "uint256",
          "name": "vaultId",
          "type": "uint256"
        },
        {
          "indexed": false,
          "internalType": "uint256",
          "name": "subVaultIndex",
          "type": "uint256"
        },
        {
          "indexed": false,
          "internalType": "uint256",
          "name": "productId",
          "type": "uint256"
        },
        {
          "indexed": false,
          "internalType": "int256",
          "name": "tradeAmount",
          "type": "int256"
        },
        {
          "indexed": false,
          "internalType": "uint256",
          "name": "tradePrice",
          "type": "uint256"
        },
        {
          "indexed": false,
          "internalType": "int256",
          "name": "fundingFeePerPosition",
          "type": "int256"
        },
        {
          "indexed": false,
          "internalType": "int256",
          "name": "deltaUsdcPosition",
          "type": "int256"
        },
        {
          "indexed": false,
          "internalType": "bytes",
          "name": "metadata",
          "type": "bytes"
        }
      ],
      "name": "PositionUpdated",
      "type": "event"
    },
    {
      "anonymous": false,
      "inputs": [
        {
          "indexed": false,
          "internalType": "address",
          "name": "feeRecepient",
          "type": "address"
        }
      ],
      "name": "SetFeeRecepient",
      "type": "event"
    },
    {
      "anonymous": false,
      "inputs": [],
      "name": "UnPaused",
      "type": "event"
    },
    {
      "anonymous": false,
      "inputs": [
        {
          "indexed": true,
          "internalType": "address",
          "name": "account",
          "type": "address"
        },
        {
          "indexed": false,
          "internalType": "uint256",
          "name": "burned",
          "type": "uint256"
        },
        {
          "indexed": false,
          "internalType": "uint256",
          "name": "amount",
          "type": "uint256"
        }
      ],
      "name": "Withdrawn",
      "type": "event"
    },
    {
      "anonymous": false,
      "inputs": [
        {
          "indexed": true,
          "internalType": "address",
          "name": "trader",
          "type": "address"
        },
        {
          "indexed": false,
          "internalType": "uint256",
          "name": "vaultId",
          "type": "uint256"
        },
        {
          "indexed": false,
          "internalType": "uint256",
          "name": "amount",
          "type": "uint256"
        }
      ],
      "name": "WithdrawnFromVault",
      "type": "event"
    },
    {
      "inputs": [
        {
          "internalType": "uint256",
          "name": "_vaultId",
          "type": "uint256"
        },
        {
          "internalType": "int256",
          "name": "_marginToAdd",
          "type": "int256"
        }
      ],
      "name": "addMargin",
      "outputs": [],
      "stateMutability": "nonpayable",
      "type": "function"
    },
    {
      "inputs": [
        {
          "internalType": "uint256",
          "name": "_depositAmount",
          "type": "uint256"
        }
      ],
      "name": "deposit",
      "outputs": [],
      "stateMutability": "nonpayable",
      "type": "function"
    },
    {
      "inputs": [
        {
          "internalType": "bool",
          "name": "_withRebalance",
          "type": "bool"
        }
      ],
      "name": "execHedge",
      "outputs": [
        {
          "internalType": "uint256",
          "name": "amountUsdc",
          "type": "uint256"
        },
        {
          "internalType": "uint256",
          "name": "amountUnderlying",
          "type": "uint256"
        }
      ],
      "stateMutability": "nonpayable",
      "type": "function"
    },
    {
      "inputs": [],
      "name": "feeRecepient",
      "outputs": [
        {
          "internalType": "contract IFeePool",
          "name": "",
          "type": "address"
        }
      ],
      "stateMutability": "view",
      "type": "function"
    },
    {
      "inputs": [
        {
          "internalType": "int256",
          "name": "_deltaLiquidityAmount",
          "type": "int256"
        }
      ],
      "name": "getLPTokenPrice",
      "outputs": [
        {
          "internalType": "uint256",
          "name": "",
          "type": "uint256"
        }
      ],
      "stateMutability": "view",
      "type": "function"
    },
    {
      "inputs": [
        {
          "internalType": "uint256",
          "name": "_vaultId",
          "type": "uint256"
        },
        {
          "internalType": "int128[2]",
          "name": "_tradeAmounts",
          "type": "int128[2]"
        }
      ],
      "name": "getMinCollateralToAddPosition",
      "outputs": [
        {
          "internalType": "int256",
          "name": "minCollateral",
          "type": "int256"
        }
      ],
      "stateMutability": "view",
      "type": "function"
    },
    {
      "inputs": [
        {
          "internalType": "uint256",
          "name": "_vaultId",
          "type": "uint256"
        }
      ],
      "name": "getPositionValueAndMinCollateral",
      "outputs": [
        {
          "internalType": "int256",
          "name": "",
          "type": "int256"
        },
        {
          "internalType": "int256",
          "name": "",
          "type": "int256"
        }
      ],
      "stateMutability": "view",
      "type": "function"
    },
    {
      "inputs": [],
      "name": "getTokenAmountForHedging",
      "outputs": [
        {
          "internalType": "bool",
          "name": "",
          "type": "bool"
        },
        {
          "internalType": "uint256",
          "name": "",
          "type": "uint256"
        },
        {
          "internalType": "uint256",
          "name": "",
          "type": "uint256"
        }
      ],
      "stateMutability": "view",
      "type": "function"
    },
    {
      "inputs": [
        {
          "internalType": "uint256",
          "name": "_productId",
          "type": "uint256"
        },
        {
          "internalType": "int256[2]",
          "name": "_tradeAmounts",
          "type": "int256[2]"
        }
      ],
      "name": "getTradePrice",
      "outputs": [
        {
          "components": [
            {
              "internalType": "int256",
              "name": "tradePrice",
              "type": "int256"
            },
            {
              "internalType": "int256",
              "name": "indexPrice",
              "type": "int256"
            },
            {
              "internalType": "int256",
              "name": "fundingRate",
              "type": "int256"
            },
            {
              "internalType": "int256",
              "name": "tradeFee",
              "type": "int256"
            },
            {
              "internalType": "int256",
              "name": "protocolFee",
              "type": "int256"
            },
            {
              "internalType": "int256",
              "name": "fundingFee",
              "type": "int256"
            },
            {
              "internalType": "uint256",
              "name": "totalValue",
              "type": "uint256"
            },
            {
              "internalType": "uint256",
              "name": "totalFee",
              "type": "uint256"
            }
          ],
          "internalType": "struct IPerpetualMarket.TradeInfo",
          "name": "",
          "type": "tuple"
        }
      ],
      "stateMutability": "view",
      "type": "function"
    },
    {
      "inputs": [
        {
          "internalType": "uint256",
          "name": "_vaultId",
          "type": "uint256"
        }
      ],
      "name": "getTraderVault",
      "outputs": [
        {
          "components": [
            {
              "internalType": "int128",
              "name": "positionUsdc",
              "type": "int128"
            },
            {
              "components": [
                {
                  "internalType": "int128[2]",
                  "name": "positionPerpetuals",
                  "type": "int128[2]"
                },
                {
                  "internalType": "uint128[2]",
                  "name": "entryPrices",
                  "type": "uint128[2]"
                },
                {
                  "internalType": "int256[2]",
                  "name": "entryFundingFee",
                  "type": "int256[2]"
                }
              ],
              "internalType": "struct TraderVaultLib.SubVault[]",
              "name": "subVaults",
              "type": "tuple[]"
            }
          ],
          "internalType": "struct TraderVaultLib.TraderVault",
          "name": "",
          "type": "tuple"
        }
      ],
      "stateMutability": "view",
      "type": "function"
    },
    {
      "inputs": [
        {
          "internalType": "uint256",
          "name": "_vaultId",
          "type": "uint256"
        }
      ],
      "name": "getVaultStatus",
      "outputs": [
        {
          "components": [
            {
              "internalType": "int256",
              "name": "positionValue",
              "type": "int256"
            },
            {
              "internalType": "int256",
              "name": "minCollateral",
              "type": "int256"
            },
            {
              "internalType": "int256[2][]",
              "name": "positionValues",
              "type": "int256[2][]"
            },
            {
              "internalType": "int256[2][]",
              "name": "fundingPaid",
              "type": "int256[2][]"
            },
            {
              "components": [
                {
                  "internalType": "int128",
                  "name": "positionUsdc",
                  "type": "int128"
                },
                {
                  "components": [
                    {
                      "internalType": "int128[2]",
                      "name": "positionPerpetuals",
                      "type": "int128[2]"
                    },
                    {
                      "internalType": "uint128[2]",
                      "name": "entryPrices",
                      "type": "uint128[2]"
                    },
                    {
                      "internalType": "int256[2]",
                      "name": "entryFundingFee",
                      "type": "int256[2]"
                    }
                  ],
                  "internalType": "struct TraderVaultLib.SubVault[]",
                  "name": "subVaults",
                  "type": "tuple[]"
                }
              ],
              "internalType": "struct TraderVaultLib.TraderVault",
              "name": "rawVaultData",
              "type": "tuple"
            }
          ],
          "internalType": "struct IPerpetualMarket.VaultStatus",
          "name": "",
          "type": "tuple"
        }
      ],
      "stateMutability": "view",
      "type": "function"
    },
    {
      "inputs": [],
      "name": "hedger",
      "outputs": [
        {
          "internalType": "address",
          "name": "",
          "type": "address"
        }
      ],
      "stateMutability": "view",
      "type": "function"
    },
    {
      "inputs": [
        {
          "internalType": "uint256",
          "name": "_depositAmount",
          "type": "uint256"
        },
        {
          "internalType": "int256",
          "name": "_initialFundingRate",
          "type": "int256"
        }
      ],
      "name": "initialize",
      "outputs": [],
      "stateMutability": "nonpayable",
      "type": "function"
    },
    {
      "inputs": [],
      "name": "isSystemPaused",
      "outputs": [
        {
          "internalType": "bool",
          "name": "",
          "type": "bool"
        }
      ],
      "stateMutability": "view",
      "type": "function"
    },
    {
      "inputs": [
        {
          "internalType": "uint256",
          "name": "_vaultId",
          "type": "uint256"
        }
      ],
      "name": "liquidateByPool",
      "outputs": [],
      "stateMutability": "nonpayable",
      "type": "function"
    },
    {
      "inputs": [
        {
          "internalType": "uint256",
          "name": "",
          "type": "uint256"
        }
      ],
      "name": "maxPositionsInVault",
      "outputs": [
        {
          "internalType": "uint256",
          "name": "",
          "type": "uint256"
        }
      ],
      "stateMutability": "view",
      "type": "function"
    },
    {
      "inputs": [],
      "name": "owner",
      "outputs": [
        {
          "internalType": "address",
          "name": "",
          "type": "address"
        }
      ],
      "stateMutability": "view",
      "type": "function"
    },
    {
      "inputs": [],
      "name": "pause",
      "outputs": [],
      "stateMutability": "nonpayable",
      "type": "function"
    },
    {
      "inputs": [],
      "name": "quoteAsset",
      "outputs": [
        {
          "internalType": "address",
          "name": "",
          "type": "address"
        }
      ],
      "stateMutability": "view",
      "type": "function"
    },
    {
      "inputs": [],
      "name": "renounceOwnership",
      "outputs": [],
      "stateMutability": "nonpayable",
      "type": "function"
    },
    {
      "inputs": [
        {
          "internalType": "address",
          "name": "_feeRecepient",
          "type": "address"
        }
      ],
      "name": "setFeeRecepient",
      "outputs": [],
      "stateMutability": "nonpayable",
      "type": "function"
    },
    {
      "inputs": [
        {
          "internalType": "address",
          "name": "_hedger",
          "type": "address"
        }
      ],
      "name": "setHedger",
      "outputs": [],
      "stateMutability": "nonpayable",
      "type": "function"
    },
    {
      "inputs": [
        {
          "internalType": "uint256",
          "name": "_maxFutureAmount",
          "type": "uint256"
        },
        {
          "internalType": "uint256",
          "name": "_maxSquaredAmount",
          "type": "uint256"
        }
      ],
      "name": "setMaxAmount",
      "outputs": [],
      "stateMutability": "nonpayable",
      "type": "function"
    },
    {
      "inputs": [
        {
          "components": [
            {
              "internalType": "uint256",
              "name": "vaultId",
              "type": "uint256"
            },
            {
              "components": [
                {
                  "internalType": "uint256",
                  "name": "productId",
                  "type": "uint256"
                },
                {
                  "internalType": "uint256",
                  "name": "subVaultIndex",
                  "type": "uint256"
                },
                {
                  "internalType": "int128",
                  "name": "tradeAmount",
                  "type": "int128"
                },
                {
                  "internalType": "uint256",
                  "name": "limitPrice",
                  "type": "uint256"
                },
                {
                  "internalType": "bytes",
                  "name": "metadata",
                  "type": "bytes"
                }
              ],
              "internalType": "struct IPerpetualMarket.TradeParams[]",
              "name": "trades",
              "type": "tuple[]"
            },
            {
              "internalType": "int256",
              "name": "marginAmount",
              "type": "int256"
            },
            {
              "internalType": "uint256",
              "name": "deadline",
              "type": "uint256"
            }
          ],
          "internalType": "struct IPerpetualMarket.MultiTradeParams",
          "name": "_tradeParams",
          "type": "tuple"
        }
      ],
      "name": "trade",
      "outputs": [],
      "stateMutability": "nonpayable",
      "type": "function"
    },
    {
      "inputs": [
        {
          "internalType": "address",
          "name": "newOwner",
          "type": "address"
        }
      ],
      "name": "transferOwnership",
      "outputs": [],
      "stateMutability": "nonpayable",
      "type": "function"
    },
    {
      "inputs": [],
      "name": "unPause",
      "outputs": [],
      "stateMutability": "nonpayable",
      "type": "function"
    },
    {
      "inputs": [],
      "name": "underlyingAsset",
      "outputs": [
        {
          "internalType": "address",
          "name": "",
          "type": "address"
        }
      ],
      "stateMutability": "view",
      "type": "function"
    },
    {
      "inputs": [
        {
          "internalType": "uint128",
          "name": "_withdrawnAmount",
          "type": "uint128"
        }
      ],
      "name": "withdraw",
      "outputs": [],
      "stateMutability": "nonpayable",
      "type": "function"
    }
  ],
  "transactionHash": "0x259a242f45c9b9a226c5a77ced3013a5c9965eb45cacbabd7502b21710db2b29",
  "args": [
    "0x22ee82a781fA1F0b9EFFF558Bd9811692129F5E9",
    "0xF61Cffd6071a8DB7cD5E8DF1D3A5450D9903cF1c",
    "0x7d43FeaE50F702d1586D5EF14A7b946dbA658869",
    "0xF4C21eA5fa73Ffae3D0d896c983EF761f3970caf",
    "0x20e6395a8345F3699571aa866578f935D49DAf0b"
  ],
  "solcInputHash": "fdc69173cfe6266cad0eeb4bf1474af6",
  "bytecode": "0x60e06040523480156200001157600080fd5b5060405162005a6438038062005a64833981016040819052620000349162000162565b83836001600160a01b0382166200004a57600080fd5b6001600160a01b0381166200005e57600080fd5b6001600160601b0319606092831b8116608052911b1660a05260006200008362000141565b600080546001600160a01b0319166001600160a01b0383169081178255604051929350917f8be0079c531659141344cd1fd0a4f28419497f9722a3daafe3b4186f6b6457e0908290a3506001600160a01b038216620000e157600080fd5b60018054336001600160a01b03199182161790915560609590951b6001600160601b03191660c0526002805486166001600160a01b03938416179055600580549095169116179092555050655af3107a40006003819055600455620001d1565b3390565b80516001600160a01b03811681146200015d57600080fd5b919050565b600080600080600060a086880312156200017a578081fd5b620001858662000145565b9450620001956020870162000145565b9350620001a56040870162000145565b9250620001b56060870162000145565b9150620001c56080870162000145565b90509295509295909350565b60805160601c60a05160601c60c05160601c6157a9620002bb6000398061042952806104b352806106d452806109c05280610eca52806110cd528061125e52806113e6528061149d5280611e035280611e8b52806120aa52806121dc528061226652806124f152806129af5280612bea5280612f8752806133ab528061341e5280613497528061350d52806135b652806136255280613db8525080610e8e528061130f52806136ab528061371b5280614149525080610d705280611f1f52806121475280612302528061283a5280612c6d528061375f52806137da528061380952506157a96000f3fe608060405234801561001057600080fd5b50600436106101c45760003560e01c80638456cb59116100f9578063d392357311610097578063f2fde38b11610071578063f2fde38b146103af578063f7b188a5146103c2578063fb4f84a3146103ca578063fdf262b7146103dd576101c4565b8063d392357314610369578063dae0f6d91461037c578063eea484d81461038f576101c4565b806399be545a116100d357806399be545a1461031d578063a0642dfd14610330578063b6b55f2514610343578063c9d48a9614610356576101c4565b80638456cb59146102f6578063854ad1b7146102fe5780638da5cb5b14610315576101c4565b806349ebb77d116101665780637158da7c116101405780637158da7c146102a557806373f3489e146102ad5780637481a763146102c05780637691c4ac146102e1576101c4565b806349ebb77d1461026a5780636124fa8e1461028a578063715018a61461029d576101c4565b806313b38140116101a257806313b381401461020f5780632188650e1461022f57806324fe71ea1461024257806333a37ffb1461024a576101c4565b806302387a7b146101c957806302755411146101de578063079cff94146101f1575b600080fd5b6101dc6101d7366004614e8f565b6103e5565b005b6101dc6101ec366004614adf565b61059c565b6101f9610620565b6040516102069190615123565b60405180910390f35b61022261021d366004614be8565b61062f565b60405161020691906151ea565b6101dc61023d366004614fb1565b610646565b6101f96106b3565b61025d610258366004614f39565b6106c2565b6040516102069190615373565b61027d610278366004614be8565b61083e565b6040516102069190615480565b6101dc610298366004614fb1565b610c22565b6101dc610de0565b6101f9610e8c565b6102226102bb366004614be8565b610eb0565b6102d36102ce366004614be8565b610f4f565b6040516102069291906151f3565b6102e9611190565b60405161020691906151c7565b6101dc611199565b610306611256565b604051610206939291906151d2565b6101f96113b2565b6101dc61032b366004614be8565b6113c1565b6101dc61033e366004614fb1565b612054565b6101dc610351366004614be8565b6121aa565b6101dc610364366004614cbc565b612365565b6101dc610377366004614adf565b612d3f565b61022261038a366004614eab565b612e0a565b6103a261039d366004614be8565b61303d565b60405161020691906153cc565b6101dc6103bd366004614adf565b6131bf565b6101dc6132c1565b6102d36103d8366004614bb0565b61337a565b6101f96137d8565b60075460ff16156104115760405162461bcd60e51b8152600401610408906152bf565b60405180910390fd5b6000816001600160801b03161161042757600080fd5b7f00000000000000000000000000000000000000000000000000000000000000006001600160a01b0316637d8c26596040518163ffffffff1660e01b8152600401600060405180830381600087803b15801561048257600080fd5b505af1158015610496573d6000803e3d6000fd5b505060405163f3fef3a360e01b8152600092506001600160a01b037f000000000000000000000000000000000000000000000000000000000000000016915063f3fef3a3906104ee903390606487029060040161515d565b602060405180830381600087803b15801561050857600080fd5b505af115801561051c573d6000803e3d6000fd5b505050506040513d601f19601f820116820180604052508101906105409190614c00565b905061055533836001600160801b03166137fc565b336001600160a01b03167f92ccf450a286a957af52509bc1c9939d1a6a481783e142e41e2499f0bb66ebc68284604051610590929190615500565b60405180910390a25050565b6105a4613834565b6001600160a01b03166105b56113b2565b6001600160a01b0316146105fe576040805162461bcd60e51b815260206004820181905260248201526000805160206156b7833981519152604482015290519081900360640190fd5b600180546001600160a01b0319166001600160a01b0392909216919091179055565b6001546001600160a01b031681565b6003816002811061063f57600080fd5b0154905081565b61064e613834565b6001600160a01b031661065f6113b2565b6001600160a01b0316146106a8576040805162461bcd60e51b815260206004820181905260248201526000805160206156b7833981519152604482015290519081900360640190fd5b600391909155600455565b6002546001600160a01b031681565b6106ca61494a565b60008060008060007f00000000000000000000000000000000000000000000000000000000000000006001600160a01b03166333a37ffb89896040518363ffffffff1660e01b81526004016107209291906154ec565b60a06040518083038186803b15801561073857600080fd5b505afa15801561074c573d6000803e3d6000fd5b505050506040513d601f19601f820116820180604052508101906107709190614c18565b945094509450945094506040518061010001604052808681526020018581526020018481526020018381526020018281526020016107c8662386f26fc100006107c2878961383890919063ffffffff16565b906138e8565b81526020016108066305f5e1006108006107f18c8e600281106107e757fe5b60200201516139a0565b6107fa8b6139b7565b90613a0e565b90613a67565b815260200161082e6305f5e1006108006108258c8e600281106107e757fe5b6107fa886139b7565b9052955050505050505b92915050565b61084661498f565b6000828152600660209081526040808320815180830183528154600f90810b810b900b81526001820180548451818702810187019095528085529194929385840193909290879084015b828210156109b2576000848152602090206040805160a0810190915290600484020181606081018260028282826020028201916000905b82829054906101000a9004600f0b600f0b81526020019060100190602082600f010492830192600103820291508084116108c7575050509284525050604080518082019182905260209093019291506001840190600290826000855b82829054906101000a90046001600160801b03166001600160801b031681526020019060100190602082600f010492830192600103820291508084116109235750505092845250506040805180820191829052602090930192915060028481019182845b8154815260200190600101908083116109875750505050508152505081526020019060010190610890565b5050505081525050905060007f00000000000000000000000000000000000000000000000000000000000000006001600160a01b0316631c2f4e976109f684613ace565b6040518263ffffffff1660e01b8152600401610a1291906151b9565b60e06040518083038186803b158015610a2a57600080fd5b505afa158015610a3e573d6000803e3d6000fd5b505050506040513d601f19601f82011682018060405250810190610a629190614e20565b9050600082602001515167ffffffffffffffff81118015610a8257600080fd5b50604051908082528060200260200182016040528015610abc57816020015b610aa96149c3565b815260200190600190039081610aa15790505b509050600083602001515167ffffffffffffffff81118015610add57600080fd5b50604051908082528060200260200182016040528015610b1757816020015b610b046149c3565b815260200190600190039081610afc5790505b50905060005b846020015151811015610bdb5760005b6002811015610bd257610b5886602001518381518110610b4957fe5b60200260200101518287613b04565b848381518110610b6457fe5b60200260200101518260028110610b7757fe5b602002018181525050610ba686602001518381518110610b9357fe5b6020026020010151828760600151613b7c565b838381518110610bb257fe5b60200260200101518260028110610bc557fe5b6020020152600101610b2d565b50600101610b1d565b506040805160a0810190915280610bf28686613bda565b8152602001610c018686613c2e565b8152602001838152602001828152602001858152509450505050505b919050565b600082118015610cb85750600560009054906101000a90046001600160a01b03166001600160a01b03166361b8ce8c6040518163ffffffff1660e01b8152600401602060405180830381600087803b158015610c7d57600080fd5b505af1158015610c91573d6000803e3d6000fd5b505050506040513d601f19601f82011682018060405250810190610cb59190614c00565b82105b610cd45760405162461bcd60e51b8152600401610408906152dc565b60008281526006602052604090207370FCb4e9bCc18bd2736dB3f71Bb23591a9e96f8E906369e2bed090610d09846064613838565b6040518363ffffffff1660e01b8152600401610d269291906151f3565b60006040518083038186803b158015610d3e57600080fd5b505af4158015610d52573d6000803e3d6000fd5b505050506000610d61826139b7565b9050610d986001600160a01b037f000000000000000000000000000000000000000000000000000000000000000016333084613c4e565b336001600160a01b03167ffc3608744ea5805574f007540fe37736bbebd81365de55991f3b17a16295521d8483604051610dd39291906151f3565b60405180910390a2505050565b610de8613834565b6001600160a01b0316610df96113b2565b6001600160a01b031614610e42576040805162461bcd60e51b815260206004820181905260248201526000805160206156b7833981519152604482015290519081900360640190fd5b600080546040516001600160a01b03909116907f8be0079c531659141344cd1fd0a4f28419497f9722a3daafe3b4186f6b6457e0908390a3600080546001600160a01b0319169055565b7f000000000000000000000000000000000000000000000000000000000000000081565b6040516339f9a44f60e11b81526000906001600160a01b037f000000000000000000000000000000000000000000000000000000000000000016906373f3489e90610eff9085906004016151ea565b60206040518083038186803b158015610f1757600080fd5b505afa158015610f2b573d6000803e3d6000fd5b505050506040513d601f19601f820116820180604052508101906108389190614c00565b6000818152600660209081526040808320815180830183528154600f90810b810b900b8152600182018054845181870281018701909552808552869586959394938582019390929091879084015b828210156110bf576000848152602090206040805160a0810190915290600484020181606081018260028282826020028201916000905b82829054906101000a9004600f0b600f0b81526020019060100190602082600f01049283019260010382029150808411610fd4575050509284525050604080518082019182905260209093019291506001840190600290826000855b82829054906101000a90046001600160801b03166001600160801b031681526020019060100190602082600f010492830192600103820291508084116110305750505092845250506040805180820191829052602090930192915060028481019182845b8154815260200190600101908083116110945750505050508152505081526020019060010190610f9d565b5050505081525050905060007f00000000000000000000000000000000000000000000000000000000000000006001600160a01b0316631c2f4e9761110384613ace565b6040518263ffffffff1660e01b815260040161111f91906151b9565b60e06040518083038186803b15801561113757600080fd5b505afa15801561114b573d6000803e3d6000fd5b505050506040513d601f19601f8201168201806040525081019061116f9190614e20565b905061117b8282613bda565b6111858383613c2e565b935093505050915091565b60075460ff1681565b6111a1613834565b6001600160a01b03166111b26113b2565b6001600160a01b0316146111fb576040805162461bcd60e51b815260206004820181905260248201526000805160206156b7833981519152604482015290519081900360640190fd5b60075460ff161561121e5760405162461bcd60e51b8152600401610408906152bf565b6007805460ff191660011790556040517f9e87fac88ff661f02d44f95383c817fece4bce600a3dab7a54406878b965e75290600090a1565b6000806000807f00000000000000000000000000000000000000000000000000000000000000006001600160a01b031663854ad1b76040518163ffffffff1660e01b815260040160806040518083038186803b1580156112b557600080fd5b505afa1580156112c9573d6000803e3d6000fd5b505050506040513d601f19601f820116820180604052508101906112ed9190614c57565b90508060600151606482600001518161130257fe5b046113a6836020015160087f00000000000000000000000000000000000000000000000000000000000000006001600160a01b031663313ce5676040518163ffffffff1660e01b815260040160206040518083038186803b15801561136657600080fd5b505afa15801561137a573d6000803e3d6000fd5b505050506040513d601f19601f8201168201806040525081019061139e9190614fd2565b60ff16613cae565b93509350935050909192565b6000546001600160a01b031690565b60075460ff16156113e45760405162461bcd60e51b8152600401610408906152bf565b7f00000000000000000000000000000000000000000000000000000000000000006001600160a01b0316637d8c26596040518163ffffffff1660e01b8152600401600060405180830381600087803b15801561143f57600080fd5b505af1158015611453573d6000803e3d6000fd5b5050506000828152600660209081526040808320815180830183528154600f90810b810b900b81526001820180548451818702810187019095528085529296506001600160a01b037f00000000000000000000000000000000000000000000000000000000000000001694631c2f4e9794611605948993858401939091908a9084015b828210156115f8576000848152602090206040805160a0810190915290600484020181606081018260028282826020028201916000905b82829054906101000a9004600f0b600f0b81526020019060100190602082600f0104928301926001038202915080841161150d575050509284525050604080518082019182905260209093019291506001840190600290826000855b82829054906101000a90046001600160801b03166001600160801b031681526020019060100190602082600f010492830192600103820291508084116115695750505092845250506040805180820191829052602090930192915060028481019182845b8154815260200190600101908083116115cd57505050505081525050815260200190600101906114d6565b5050505081525050613ace565b6040518263ffffffff1660e01b815260040161162191906151b9565b60e06040518083038186803b15801561163957600080fd5b505afa15801561164d573d6000803e3d6000fd5b505050506040513d601f19601f820116820180604052508101906116719190614e20565b6040805180820182528454600f90810b810b900b815260018501805483516020828102820181019095528181529495506117e6948694889381860193909160009084015b828210156117d7576000848152602090206040805160a0810190915290600484020181606081018260028282826020028201916000905b82829054906101000a9004600f0b600f0b81526020019060100190602082600f010492830192600103820291508084116116ec575050509284525050604080518082019182905260209093019291506001840190600290826000855b82829054906101000a90046001600160801b03166001600160801b031681526020019060100190602082600f010492830192600103820291508084116117485750505092845250506040805180820191829052602090930192915060028481019182845b8154815260200190600101908083116117ac57505050505081525050815260200190600101906116b5565b50505091525090919050613d64565b6118025760405162461bcd60e51b815260040161040890615258565b600061198782846040518060400160405290816000820160009054906101000a9004600f0b600f0b600f0b815260200160018201805480602002602001604051908101604052809291908181526020016000905b82821015611978576000848152602090206040805160a0810190915290600484020181606081018260028282826020028201916000905b82829054906101000a9004600f0b600f0b81526020019060100190602082600f0104928301926001038202915080841161188d575050509284525050604080518082019182905260209093019291506001840190600290826000855b82829054906101000a90046001600160801b03166001600160801b031681526020019060100190602082600f010492830192600103820291508084116118e95750505092845250506040805180820191829052602090930192915060028481019182845b81548152602001906001019080831161194d5750505050508152505081526020019060010190611856565b50505091525090919050613c2e565b9050600081136119a95760405162461bcd60e51b8152600401610408906152f9565b60006119b36149c3565b6119bb6149c3565b6040805180820182528754600f90810b810b900b81526001880180548351602082810282018101909552818152611ca0948b9381860193909160009084015b82821015611b1c576000848152602090206040805160a0810190915290600484020181606081018260028282826020028201916000905b82829054906101000a9004600f0b600f0b81526020019060100190602082600f01049283019260010382029150808411611a31575050509284525050604080518082019182905260209093019291506001840190600290826000855b82829054906101000a90046001600160801b03166001600160801b031681526020019060100190602082600f01049283019260010382029150808411611a8d5750505092845250506040805180820191829052602090930192915060028481019182845b815481526020019060010190808311611af157505050505081525050815260200190600101906119fa565b505050915250506040805180820182528954600f90810b810b900b815260018a0180548351602082810282018101909552818152611c84948d9381860193909160009084015b828210156115f8576000848152602090206040805160a0810190915290600484020181606081018260028282826020028201916000905b82829054906101000a9004600f0b600f0b81526020019060100190602082600f01049283019260010382029150808411611b99575050509284525050604080518082019182905260209093019291506001840190600290826000855b82829054906101000a90046001600160801b03166001600160801b031681526020019060100190602082600f01049283019260010382029150808411611bf55750505092845250506040805180820191829052602090930192915060028481019182845b815481526020019060010190808311611c595750505050508152505081526020019060010190611b62565b6040518060400160405280600081526020016000815250613d85565b9450909250905060005b6001870154811015611d5e5760005b6002811015611d55576000886001018381548110611cd357fe5b90600052602060002090600402016000018260028110611cef57fe5b600291828204019190066010029054906101000a9004600f0b9050611d4c89838c86898760028110611d1d57fe5b6020020151898860028110611d2e57fe5b60200201518760000360405180602001604052806000815250613ec7565b50600101611cb9565b50600101611caa565b505060405163652aa48360e01b8152600091507370FCb4e9bCc18bd2736dB3f71Bb23591a9e96f8E9063652aa48390611da190889087906107d0906004016153df565b60206040518083038186803b158015611db957600080fd5b505af4158015611dcd573d6000803e3d6000fd5b505050506040513d601f19601f82011682018060405250810190611df19190614c00565b6040516328e32c8560e11b81529091507f00000000000000000000000000000000000000000000000000000000000000006001600160a01b0316906351c6590a90611e439060028504906004016151ea565b600060405180830381600087803b158015611e5d57600080fd5b505af1158015611e71573d6000803e3d6000fd5b50505050611e893360c88381611e8357fe5b046137fc565b7f00000000000000000000000000000000000000000000000000000000000000006001600160a01b03166387c3a09a6040518163ffffffff1660e01b8152600401600060405180830381600087803b158015611ee457600080fd5b505af1158015611ef8573d6000803e3d6000fd5b5050505060008211156120125760025460405163095ea7b360e01b81526001600160a01b037f000000000000000000000000000000000000000000000000000000000000000081169263095ea7b392611f5a929190911690869060040161517f565b602060405180830381600087803b158015611f7457600080fd5b505af1158015611f88573d6000803e3d6000fd5b505050506040513d601f19601f82011682018060405250810190611fac9190614bcc565b506002546040516301acfa2360e51b81526001600160a01b039091169063359f446090611fdf903090869060040161517f565b600060405180830381600087803b158015611ff957600080fd5b505af115801561200d573d6000803e3d6000fd5b505050505b857f09c223cfcd8c93e245f558f5f8de755fc0930fd9bc257441155ef5d54a170e0f338360405161204492919061517f565b60405180910390a2505050505050565b60075460ff16156120775760405162461bcd60e51b8152600401610408906152bf565b6000821180156120875750600081135b61209057600080fd5b60405163e7dc45d360e01b81526000906001600160a01b037f0000000000000000000000000000000000000000000000000000000000000000169063e7dc45d3906120e690339060648802908790600401615198565b602060405180830381600087803b15801561210057600080fd5b505af1158015612114573d6000803e3d6000fd5b505050506040513d601f19601f820116820180604052508101906121389190614c00565b905061216f6001600160a01b037f000000000000000000000000000000000000000000000000000000000000000016333086613c4e565b336001600160a01b03167f73a19dd210f1a7f902193214c0ee91dd35ee5b4d920cba8d519eca65a7b488ca8285604051610dd39291906151f3565b60075460ff16156121cd5760405162461bcd60e51b8152600401610408906152bf565b600081116121da57600080fd5b7f00000000000000000000000000000000000000000000000000000000000000006001600160a01b0316637d8c26596040518163ffffffff1660e01b8152600401600060405180830381600087803b15801561223557600080fd5b505af1158015612249573d6000803e3d6000fd5b50506040516311f9fbc960e21b8152600092506001600160a01b037f00000000000000000000000000000000000000000000000000000000000000001691506347e7ef24906122a1903390606487029060040161517f565b602060405180830381600087803b1580156122bb57600080fd5b505af11580156122cf573d6000803e3d6000fd5b505050506040513d601f19601f820116820180604052508101906122f39190614c00565b905061232a6001600160a01b037f000000000000000000000000000000000000000000000000000000000000000016333085613c4e565b336001600160a01b03167f73a19dd210f1a7f902193214c0ee91dd35ee5b4d920cba8d519eca65a7b488ca82846040516105909291906151f3565b60075460ff16156123885760405162461bcd60e51b8152600401610408906152bf565b6060810151158061239d575043816060015110155b6123b95760405162461bcd60e51b81526004016104089061523b565b8051612448576005546040516354ba0f2760e01b81526001600160a01b03909116906354ba0f27906123ef903390600401615123565b602060405180830381600087803b15801561240957600080fd5b505af115801561241d573d6000803e3d6000fd5b505050506040513d601f19601f820116820180604052508101906124419190614c00565b81526124ef565b60055481516040516331a9108f60e11b815233926001600160a01b031691636352211e9161247991906004016151ea565b60206040518083038186803b15801561249157600080fd5b505afa1580156124a5573d6000803e3d6000fd5b505050506040513d601f19601f820116820180604052508101906124c99190614afb565b6001600160a01b0316146124ef5760405162461bcd60e51b81526004016104089061521e565b7f00000000000000000000000000000000000000000000000000000000000000006001600160a01b0316637d8c26596040518163ffffffff1660e01b8152600401600060405180830381600087803b15801561254a57600080fd5b505af115801561255e573d6000803e3d6000fd5b50505050600061256c6149c3565b6125746149c3565b83516000908152600660209081526040808320815180830183528154600f90810b810b900b815260018201805484518187028101870190955280855261270b96929593948685019490939084015b828210156126e4576000848152602090206040805160a0810190915290600484020181606081018260028282826020028201916000905b82829054906101000a9004600f0b600f0b81526020019060100190602082600f010492830192600103820291508084116125f9575050509284525050604080518082019182905260209093019291506001840190600290826000855b82829054906101000a90046001600160801b03166001600160801b031681526020019060100190602082600f010492830192600103820291508084116126555750505092845250506040805180820191829052602090930192915060028481019182845b8154815260200190600101908083116126b957505050505081525050815260200190600101906125c2565b50505050815250506126f98660200151613fc9565b612706876020015161405f565b613d85565b9450909250905060005b8460200151518110156128165761280e60066000876000015181526020019081526020016000208660200151838151811061274c57fe5b60200260200101516000015187600001518860200151858151811061276d57fe5b602002602001015160200151878a60200151878151811061278a57fe5b602002602001015160000151600281106127a057fe5b6020020151878b6020015188815181106127b657fe5b602002602001015160000151600281106127cc57fe5b60200201518b6020015188815181106127e157fe5b6020026020010151604001518c6020015189815181106127fd57fe5b602002602001015160800151613ec7565b600101612715565b50508115905061292d5760025460405163095ea7b360e01b81526001600160a01b037f000000000000000000000000000000000000000000000000000000000000000081169263095ea7b392612875929190911690859060040161517f565b602060405180830381600087803b15801561288f57600080fd5b505af11580156128a3573d6000803e3d6000fd5b505050506040513d601f19601f820116820180604052508101906128c79190614bcc565b506002546040516301acfa2360e51b81526001600160a01b039091169063359f4460906128fa903090859060040161517f565b600060405180830381600087803b15801561291457600080fd5b505af1158015612928573d6000803e3d6000fd5b505050505b8151600090815260066020526040808220908401517370FCb4e9bCc18bd2736dB3f71Bb23591a9e96f8E9163e69e266d91612969906064613838565b86516000908152600660209081526040808320815180830183528154600f90810b810b900b81526001820180548451818702810187019095528085526001600160a01b037f00000000000000000000000000000000000000000000000000000000000000001696631c2f4e9796612b0c969495948682019490939092909184015b828210156115f8576000848152602090206040805160a0810190915290600484020181606081018260028282826020028201916000905b82829054906101000a9004600f0b600f0b81526020019060100190602082600f01049283019260010382029150808411612a21575050509284525050604080518082019182905260209093019291506001840190600290826000855b82829054906101000a90046001600160801b03166001600160801b031681526020019060100190602082600f01049283019260010382029150808411612a7d5750505092845250506040805180820191829052602090930192915060028481019182845b815481526020019060010190808311612ae157505050505081525050815260200190600101906129ea565b6040518263ffffffff1660e01b8152600401612b2891906151b9565b60e06040518083038186803b158015612b4057600080fd5b505afa158015612b54573d6000803e3d6000fd5b505050506040513d601f19601f82011682018060405250810190612b789190614e20565b6040518463ffffffff1660e01b8152600401612b96939291906153f5565b60206040518083038186803b158015612bae57600080fd5b505af4158015612bc2573d6000803e3d6000fd5b505050506040513d601f19601f82011682018060405250810190612be69190614c00565b90507f00000000000000000000000000000000000000000000000000000000000000006001600160a01b03166387c3a09a6040518163ffffffff1660e01b8152600401600060405180830381600087803b158015612c4357600080fd5b505af1158015612c57573d6000803e3d6000fd5b505050506000811315612ce05760648105612c9d7f00000000000000000000000000000000000000000000000000000000000000006001600160a01b0316333084613c4e565b835160405133917ffc3608744ea5805574f007540fe37736bbebd81365de55991f3b17a16295521d91612cd2919085906151f3565b60405180910390a250612d3a565b6000811215612d3a576064600082900304612cfb33826137fc565b835160405133917f41d0e87fb7cc3fb87474e510116fbe22a7658539f639b5de6d9c0bdae606d3eb91612d30919085906151f3565b60405180910390a2505b505050565b612d47613834565b6001600160a01b0316612d586113b2565b6001600160a01b031614612da1576040805162461bcd60e51b815260206004820181905260248201526000805160206156b7833981519152604482015290519081900360640190fd5b6001600160a01b038116612db457600080fd5b600280546001600160a01b0319166001600160a01b0383161790556040517fa10652b59c38f986e02273779b46014194b54d90e963da79e87af931cf6a484890612dff908390615123565b60405180910390a150565b6000828152600660209081526040808320815180830183528154600f90810b810b900b8152600182018054845181870281018701909552808552869592948584019390929190879084015b82821015612f77576000848152602090206040805160a0810190915290600484020181606081018260028282826020028201916000905b82829054906101000a9004600f0b600f0b81526020019060100190602082600f01049283019260010382029150808411612e8c575050509284525050604080518082019182905260209093019291506001840190600290826000855b82829054906101000a90046001600160801b03166001600160801b031681526020019060100190602082600f01049283019260010382029150808411612ee85750505092845250506040805180820191829052602090930192915060028481019182845b815481526020019060010190808311612f4c5750505050508152505081526020019060010190612e55565b50505050815250509050613031837f00000000000000000000000000000000000000000000000000000000000000006001600160a01b0316631c2f4e97612fbd85613ace565b6040518263ffffffff1660e01b8152600401612fd991906151b9565b60e06040518083038186803b158015612ff157600080fd5b505afa158015613005573d6000803e3d6000fd5b505050506040513d601f19601f820116820180604052508101906130299190614e20565b8391906140bb565b60649005949350505050565b6130456149e1565b6000828152600660209081526040808320815180830183528154600f90810b810b900b81526001820180548451818702810187019095528085529195929486810194939192919084015b828210156131b1576000848152602090206040805160a0810190915290600484020181606081018260028282826020028201916000905b82829054906101000a9004600f0b600f0b81526020019060100190602082600f010492830192600103820291508084116130c6575050509284525050604080518082019182905260209093019291506001840190600290826000855b82829054906101000a90046001600160801b03166001600160801b031681526020019060100190602082600f010492830192600103820291508084116131225750505092845250506040805180820191829052602090930192915060028481019182845b815481526020019060010190808311613186575050505050815250508152602001906001019061308f565b505050915250909392505050565b6131c7613834565b6001600160a01b03166131d86113b2565b6001600160a01b031614613221576040805162461bcd60e51b815260206004820181905260248201526000805160206156b7833981519152604482015290519081900360640190fd5b6001600160a01b0381166132665760405162461bcd60e51b81526004018080602001828103825260268152602001806156076026913960400191505060405180910390fd5b600080546040516001600160a01b03808516939216917f8be0079c531659141344cd1fd0a4f28419497f9722a3daafe3b4186f6b6457e091a3600080546001600160a01b0319166001600160a01b0392909216919091179055565b6132c9613834565b6001600160a01b03166132da6113b2565b6001600160a01b031614613323576040805162461bcd60e51b815260206004820181905260248201526000805160206156b7833981519152604482015290519081900360640190fd5b60075460ff166133455760405162461bcd60e51b815260040161040890615201565b6007805460ff191690556040517f472cf038e2a5f33dbaa68760dbf94ab4e159535e6580c0ac63f8202c7c6c0bb290600090a1565b60015460009081906001600160a01b031633146133a95760405162461bcd60e51b815260040161040890615285565b7f00000000000000000000000000000000000000000000000000000000000000006001600160a01b0316637d8c26596040518163ffffffff1660e01b8152600401600060405180830381600087803b15801561340457600080fd5b505af1158015613418573d6000803e3d6000fd5b505050507f00000000000000000000000000000000000000000000000000000000000000006001600160a01b03166387c3a09a6040518163ffffffff1660e01b8152600401600060405180830381600087803b15801561347757600080fd5b505af115801561348b573d6000803e3d6000fd5b505050508215613509577f00000000000000000000000000000000000000000000000000000000000000006001600160a01b0316637d7c2a1c6040518163ffffffff1660e01b8152600401600060405180830381600087803b1580156134f057600080fd5b505af1158015613504573d6000803e3d6000fd5b505050505b60007f00000000000000000000000000000000000000000000000000000000000000006001600160a01b031663854ad1b76040518163ffffffff1660e01b815260040160806040518083038186803b15801561356457600080fd5b505afa158015613578573d6000803e3d6000fd5b505050506040513d601f19601f8201168201806040525081019061359c9190614c57565b60405163128c113f60e01b81529091506001600160a01b037f0000000000000000000000000000000000000000000000000000000000000000169063128c113f906135eb908490600401615346565b600060405180830381600087803b15801561360557600080fd5b505af1158015613619573d6000803e3d6000fd5b505050508315613697577f00000000000000000000000000000000000000000000000000000000000000006001600160a01b0316637d7c2a1c6040518163ffffffff1660e01b8152600401600060405180830381600087803b15801561367e57600080fd5b505af1158015613692573d6000803e3d6000fd5b505050505b8051606490049250613702816020015160087f00000000000000000000000000000000000000000000000000000000000000006001600160a01b031663313ce5676040518163ffffffff1660e01b815260040160206040518083038186803b15801561136657600080fd5b9150806060015115613752576137436001600160a01b037f000000000000000000000000000000000000000000000000000000000000000016333085613c4e565b61374d33846137fc565b613791565b6137876001600160a01b037f000000000000000000000000000000000000000000000000000000000000000016333086613c4e565b613791338361413c565b7f97ecad77f31756d3d2f581bf1acec77dbdb445bf9b69afff2c62d02d4d2547de33826060015185856040516137ca9493929190615137565b60405180910390a150915091565b7f000000000000000000000000000000000000000000000000000000000000000081565b6138306001600160a01b037f000000000000000000000000000000000000000000000000000000000000000016838361416c565b5050565b3390565b60008261384757506000610838565b8260001914801561385b5750600160ff1b82145b156138975760405162461bcd60e51b81526004018080602001828103825260278152602001806156d76027913960400191505060405180910390fd5b828202828482816138a457fe5b05146138e15760405162461bcd60e51b81526004018080602001828103825260278152602001806156d76027913960400191505060405180910390fd5b9392505050565b60008161393c576040805162461bcd60e51b815260206004820181905260248201527f5369676e6564536166654d6174683a206469766973696f6e206279207a65726f604482015290519081900360640190fd5b816000191480156139505750600160ff1b83145b1561398c5760405162461bcd60e51b81526004018080602001828103825260218152602001806156756021913960400191505060405180910390fd5b600082848161399757fe5b05949350505050565b6000808212156139b35781600003610838565b5090565b6000808212156139b3576040805162461bcd60e51b815260206004820181905260248201527f53616665436173743a2076616c7565206d75737420626520706f736974697665604482015290519081900360640190fd5b600082613a1d57506000610838565b82820282848281613a2a57fe5b04146138e15760405162461bcd60e51b81526004018080602001828103825260218152602001806156966021913960400191505060405180910390fd5b6000808211613abd576040805162461bcd60e51b815260206004820152601a60248201527f536166654d6174683a206469766973696f6e206279207a65726f000000000000604482015290519081900360640190fd5b818381613ac657fe5b049392505050565b613ad66149c3565b6000613ae1836141be565b80516000908103600f90810b8552602092830151909103900b9083015250919050565b600080613b6c85600001518560028110613b1a57fe5b6020020151600f0b613b66613b4b88602001518860028110613b3857fe5b60200201516001600160801b03166141ff565b86602001518860028110613b5b57fe5b602002015190614243565b90613838565b6305f5e100900595945050505050565b600080613bbe85600001518560028110613b9257fe5b6020020151600f0b613b66858760028110613ba957fe5b602002015188604001518860028110613b5b57fe5b9050613bd181662386f26fc100006138e8565b95945050505050565b8151600090600f0b815b846020015151811015613c2657613c1c613c1586602001518381518110613c0757fe5b6020026020010151866142a8565b83906142c7565b9150600101613be4565b509392505050565b600080613c3a846141be565b9050613c46818461432c565b949350505050565b604080516001600160a01b0380861660248301528416604482015260648082018490528251808303909101815260849091019091526020810180516001600160e01b03166323b872dd60e01b179052613ca8908590614490565b50505050565b600081831115613d0a57604682840310613cf4576040805162461bcd60e51b8152602060048201526002602482015261269960f11b604482015290519081900360640190fd5b613d0384838503600a0a613a67565b90506138e1565b81831015613d5d57604683830310613d4e576040805162461bcd60e51b8152602060048201526002602482015261269960f11b604482015290519081900360640190fd5b613d0384848403600a0a613a0e565b50826138e1565b600080613d718484613bda565b9050613d7d8484613c2e565b139392505050565b613d8d6149c3565b613d956149c3565b6000613da18686614541565b604051630b818e5960e21b81526001600160a01b037f00000000000000000000000000000000000000000000000000000000000000001690632e06396490613ded9088906004016151b9565b60a060405180830381600087803b158015613e0757600080fd5b505af1158015613e1b573d6000803e3d6000fd5b505050506040513d601f19601f82011682018060405250810190613e3f9190614b17565b875183519396509194509250613e629160009182129187905b60200201516145e8565b613e7e5760405162461bcd60e51b8152600401610408906152a2565b613e9c60008660016020020151138460016020020151866001613e58565b613eb85760405162461bcd60e51b8152600401610408906152a2565b60648104905093509350939050565b81600f0b60001415613ed857613fbf565b60405163a8ffb3b960e01b81526000907370FCb4e9bCc18bd2736dB3f71Bb23591a9e96f8E9063a8ffb3b990613f1c908c908a908d9089908c908c90600401615455565b60206040518083038186803b158015613f3457600080fd5b505af4158015613f48573d6000803e3d6000fd5b505050506040513d601f19601f82011682018060405250810190613f6c9190614c00565b9050336001600160a01b03167fbfb264ae14733b7c7f6701d57d6a0dbaf244d34bf5912958835dccf887b4beea88888b878a8a888a604051613fb5989796959493929190615517565b60405180910390a2505b5050505050505050565b613fd16149c3565b60005b825181101561405957614029838281518110613fec57fe5b602002602001015160400151600f0b8385848151811061400857fe5b6020026020010151600001516002811061401e57fe5b6020020151906142c7565b8284838151811061403657fe5b6020026020010151600001516002811061404c57fe5b6020020152600101613fd4565b50919050565b6140676149c3565b60005b82518110156140595782818151811061407f57fe5b6020026020010151606001518284838151811061409857fe5b602002602001015160000151600281106140ae57fe5b602002015260010161406a565b6000806140c7856141be565b905060005b60028110156141315761410e6141098683600281106140e757fe5b6020020151600f0b8484600281106140fb57fe5b6020020151600f0b906142c7565b614611565b82826002811061411a57fe5b600f92830b90920b602090920201526001016140cc565b50613bd1818461432c565b6138306001600160a01b037f00000000000000000000000000000000000000000000000000000000000000001683835b604080516001600160a01b038416602482015260448082018490528251808303909101815260649091019091526020810180516001600160e01b031663a9059cbb60e01b179052612d3a908490614490565b6141c66149c3565b60005b6002811015614059576141dc8382614672565b8282600281106141e857fe5b600f92830b90920b602090920201526001016141c9565b6000600160ff1b82106139b35760405162461bcd60e51b81526004018080602001828103825260288152602001806156fe6028913960400191505060405180910390fd5b60008183038183128015906142585750838113155b8061426d575060008312801561426d57508381135b6138e15760405162461bcd60e51b81526004018080602001828103825260248152602001806157266024913960400191505060405180910390fd5b60006138e16142bb8484606001516146d3565b6142c585856146fa565b905b60008282018183128015906142dc5750838112155b806142f157506000831280156142f157508381125b6138e15760405162461bcd60e51b81526004018080602001828103825260218152602001806156546021913960400191505060405180910390fd5b6000806143676305f5e1006107c2614356662386f26fc10000876040015160016002811061401e57fe5b86516001600160801b031690613838565b905060006143d26143cd6143a6662386f26fc100006107c261439b662386f26fc100008a6040015160006002811061401e57fe5b8a51600f0b90613838565b6142c568056bc75e2d631000006107c26002613b668c600160200201518a90600f0b613838565b6139a0565b905061440c6144056143cd69d3c21bcecceda10000006107c28960016020020151600f0b613b666002816101f48b613838565b8290614721565b9050600064e8d4a5100061443c836107fa88600001516001600160801b03166101f4613a0e90919063ffffffff16565b8161444357fe5b87519190049150600f0b15158061446057506020860151600f0b15155b801561447057506404a817c80081105b1561447d57506404a817c8005b614486816141ff565b9695505050505050565b60006144e5826040518060400160405280602081526020017f5361666545524332303a206c6f772d6c6576656c2063616c6c206661696c6564815250856001600160a01b031661477b9092919063ffffffff16565b805190915015612d3a5780806020019051602081101561450457600080fd5b5051612d3a5760405162461bcd60e51b815260040180806020018281038252602a81526020018061574a602a913960400191505060405180910390fd5b600061454c836141be565b905060005b6002811015613ca857600061457c84836002811061456b57fe5b60200201518484600281106140fb57fe5b905061459a83836002811061458d57fe5b6020020151600f0b6139a0565b6145a3826139a0565b11156145df57600382600281106145b657fe5b01546145c1826139a0565b11156145df5760405162461bcd60e51b815260040161040890615329565b50600101614551565b6000816145f7575060016138e1565b83156146075750808211156138e1565b50808210156138e1565b60006f7fffffffffffffffffffffffffffffff19821215801561463757506001607f1b82125b6139b35760405162461bcd60e51b815260040180806020018281038252602781526020018061562d6027913960400191505060405180910390fd5b6000805b8360200151518110156146cc576146c26141098560200151838151811061469957fe5b60200260200101516000015185600281106146b057fe5b6020020151600f85810b91900b6142c7565b9150600101614676565b5092915050565b60008060005b6002811015613c26576146f0613c15868387613b7c565b91506001016146d9565b60008060005b6002811015613c2657614717613c15868387613b04565b9150600101614700565b6000828201838110156138e1576040805162461bcd60e51b815260206004820152601b60248201527f536166654d6174683a206164646974696f6e206f766572666c6f770000000000604482015290519081900360640190fd5b6060613c4684846000858561478f856148a0565b6147e0576040805162461bcd60e51b815260206004820152601d60248201527f416464726573733a2063616c6c20746f206e6f6e2d636f6e7472616374000000604482015290519081900360640190fd5b600080866001600160a01b031685876040518082805190602001908083835b6020831061481e5780518252601f1990920191602091820191016147ff565b6001836020036101000a03801982511681845116808217855250505050505090500191505060006040518083038185875af1925050503d8060008114614880576040519150601f19603f3d011682016040523d82523d6000602084013e614885565b606091505b50915091506148958282866148a6565b979650505050505050565b3b151590565b606083156148b55750816138e1565b8251156148c55782518084602001fd5b8160405162461bcd60e51b81526004018080602001828103825283818151815260200191508051906020019080838360005b8381101561490f5781810151838201526020016148f7565b50505050905090810190601f16801561493c5780820380516001836020036101000a031916815260200191505b509250505060405180910390fd5b60405180610100016040528060008152602001600081526020016000815260200160008152602001600081526020016000815260200160008152602001600081525090565b6040518060a00160405280600081526020016000815260200160608152602001606081526020016149be6149e1565b905290565b60405180604001604052806002906020820280368337509192915050565b60408051808201909152600081526060602082015290565b600082601f830112614a09578081fd5b6040516040810181811067ffffffffffffffff82111715614a2657fe5b8060405250808385604086011115614a3c578384fd5b835b6002811015614a5d578151835260209283019290910190600101614a3e565b509195945050505050565b600082601f830112614a78578081fd5b813567ffffffffffffffff811115614a8c57fe5b614a9f601f8201601f19166020016155a7565b818152846020838601011115614ab3578283fd5b816020850160208301379081016020019190915292915050565b8035600f81900b8114610c1d57600080fd5b600060208284031215614af0578081fd5b81356138e1816155cb565b600060208284031215614b0c578081fd5b81516138e1816155cb565b600080600060a08486031215614b2b578182fd5b84601f850112614b39578182fd5b6040516040810181811067ffffffffffffffff82111715614b5657fe5b806040525080856040870188811115614b6d578586fd5b855b6002811015614b8e578251845260209384019390920191600101614b6f565b50839650614b9c89826149f9565b955050505050608084015190509250925092565b600060208284031215614bc1578081fd5b81356138e1816155e3565b600060208284031215614bdd578081fd5b81516138e1816155e3565b600060208284031215614bf9578081fd5b5035919050565b600060208284031215614c11578081fd5b5051919050565b600080600080600060a08688031215614c2f578283fd5b5050835160208501516040860151606087015160809097015192989197509594509092509050565b600060808284031215614c68578081fd5b6040516080810181811067ffffffffffffffff82111715614c8557fe5b80604052508251815260208301516020820152604083015160408201526060830151614cb0816155e3565b60608201529392505050565b60006020808385031215614cce578182fd5b67ffffffffffffffff8084351115614ce4578283fd5b8335840160808187031215614cf7578384fd5b604051608081018181108482111715614d0c57fe5b604052813581528382013583811115614d23578586fd5b8201601f81018813614d33578586fd5b8381351115614d3e57fe5b614d4c8586833502016155a7565b8135815285810190868301885b8435811015614df5578135850160a0818e03601f19011215614d79578a8bfd5b60405160a081018181108b82111715614d8e57fe5b6040908152828c01358252820135818c0152614dac60608301614acd565b6040820152608082013560608201528960a08301351115614dcb578b8cfd5b614ddd8e8c60a0850135850101614a68565b60808201528552509288019290880190600101614d59565b5050808785015250505060408201356040820152606082013560608201528094505050505092915050565b600060e08284031215614e31578081fd5b6040516080810181811067ffffffffffffffff82111715614e4e57fe5b6040528251614e5c816155f1565b8152614e6b84602085016149f9565b6020820152614e7d84606085016149f9565b6040820152614cb08460a085016149f9565b600060208284031215614ea0578081fd5b81356138e1816155f1565b60008060608385031215614ebd578182fd5b82359150602084603f850112614ed1578182fd5b6040516040810181811067ffffffffffffffff82111715614eee57fe5b6040528085830160608701881015614f04578485fd5b845b6002811015614f2a57614f1882614acd565b83529184019190840190600101614f06565b50505080925050509250929050565b60008060608385031215614f4b578182fd5b82359150602084603f850112614f5f578182fd5b6040516040810181811067ffffffffffffffff82111715614f7c57fe5b6040528085830160608701881015614f92578485fd5b845b6002811015614f2a57813583529184019190840190600101614f94565b60008060408385031215614fc3578182fd5b50508035926020909101359150565b600060208284031215614fe3578081fd5b815160ff811681146138e1578182fd5b6000815180845260208085019450808401835b8381101561502c57615019878351615037565b6040969096019590820190600101615006565b509495945050505050565b8060005b6002811015613ca857815184526020938401939091019060010161503b565b600060408084018351600f81810b87526020915081860151848389015283815180865260608a01915084830195508792505b808310156151165785518051838a5b60028110156150ba578251880b8252918801919088019060010161509b565b505050858101518884018a5b60028110156150ec5782516001600160801b0316825291880191908801906001016150c6565b5050508701516150ff6080840182615037565b5060c082019150848601955060018301925061508c565b5098975050505050505050565b6001600160a01b0391909116815260200190565b6001600160a01b0394909416845291151560208401526040830152606082015260800190565b6001600160a01b039290921682526001600160801b0316602082015260400190565b6001600160a01b03929092168252602082015260400190565b6001600160a01b039390931683526020830191909152604082015260600190565b604081016108388284615037565b901515815260200190565b92151583526020830191909152604082015260600190565b90815260200190565b918252602082015260400190565b602080825260039082015262504d3760e81b604082015260600190565b60208082526003908201526228269960e91b604082015260600190565b6020808252600390820152620504d360ec1b604082015260600190565b6020808252601390820152723b30bab63a1034b9903737ba103230b733b2b960691b604082015260600190565b60208082526003908201526214134d60ea1b604082015260600190565b602080825260039082015262504d3160e81b604082015260600190565b60208082526003908201526228269b60e91b604082015260600190565b602080825260039082015262504d3360e81b604082015260600190565b6020808252601690820152757661756c7420686173206e6f20706f736974696f6e7360501b604082015260600190565b602080825260039082015262504d3560e81b604082015260600190565b81518152602080830151908201526040808301519082015260609182015115159181019190915260800190565b600061010082019050825182526020830151602083015260408301516040830152606083015160608301526080830151608083015260a083015160a083015260c083015160c083015260e083015160e083015292915050565b6000602082526138e1602083018461505a565b9283526020830191909152604082015260600190565b838152602080820184905282516001600160801b031660408301528201516101208201906154266060840182615037565b50604083015161543960a0840182615037565b50606083015161544c60e0840182615037565b50949350505050565b95865260208601949094526040850192909252600f0b6060840152608083015260a082015260c00190565b6000602082528251602083015260208301516040830152604083015160a060608401526154b060c0840182614ff3565b90506060840151601f19808584030160808601526154ce8383614ff3565b925060808601519150808584030160a086015250613bd1828261505a565b828152606081016138e16020830184615037565b9182526001600160801b0316602082015260400190565b60006101008a835260208a8185015289604085015288600f0b60608501528760808501528660a08501528560c08501528160e0850152845180838601528392505b8083101561557757858301820151858401610120015291810191615558565b80831115615589578361012082870101525b601f01601f191693909301610120019b9a5050505050505050505050565b60405181810167ffffffffffffffff811182821017156155c357fe5b604052919050565b6001600160a01b03811681146155e057600080fd5b50565b80151581146155e057600080fd5b6001600160801b03811681146155e057600080fdfe4f776e61626c653a206e6577206f776e657220697320746865207a65726f206164647265737353616665436173743a2076616c756520646f65736e27742066697420696e2031323820626974735369676e6564536166654d6174683a206164646974696f6e206f766572666c6f775369676e6564536166654d6174683a206469766973696f6e206f766572666c6f77536166654d6174683a206d756c7469706c69636174696f6e206f766572666c6f774f776e61626c653a2063616c6c6572206973206e6f7420746865206f776e65725369676e6564536166654d6174683a206d756c7469706c69636174696f6e206f766572666c6f7753616665436173743a2076616c756520646f65736e27742066697420696e20616e20696e743235365369676e6564536166654d6174683a207375627472616374696f6e206f766572666c6f775361666545524332303a204552433230206f7065726174696f6e20646964206e6f742073756363656564a2646970667358221220c1ee413b0610428c0a50a32c6650e5a99bdbb652171a053fe0f9e9495e42c1ef64736f6c63430007060033",
  "deployedBytecode": "0x608060405234801561001057600080fd5b50600436106101c45760003560e01c80638456cb59116100f9578063d392357311610097578063f2fde38b11610071578063f2fde38b146103af578063f7b188a5146103c2578063fb4f84a3146103ca578063fdf262b7146103dd576101c4565b8063d392357314610369578063dae0f6d91461037c578063eea484d81461038f576101c4565b806399be545a116100d357806399be545a1461031d578063a0642dfd14610330578063b6b55f2514610343578063c9d48a9614610356576101c4565b80638456cb59146102f6578063854ad1b7146102fe5780638da5cb5b14610315576101c4565b806349ebb77d116101665780637158da7c116101405780637158da7c146102a557806373f3489e146102ad5780637481a763146102c05780637691c4ac146102e1576101c4565b806349ebb77d1461026a5780636124fa8e1461028a578063715018a61461029d576101c4565b806313b38140116101a257806313b381401461020f5780632188650e1461022f57806324fe71ea1461024257806333a37ffb1461024a576101c4565b806302387a7b146101c957806302755411146101de578063079cff94146101f1575b600080fd5b6101dc6101d7366004614e8f565b6103e5565b005b6101dc6101ec366004614adf565b61059c565b6101f9610620565b6040516102069190615123565b60405180910390f35b61022261021d366004614be8565b61062f565b60405161020691906151ea565b6101dc61023d366004614fb1565b610646565b6101f96106b3565b61025d610258366004614f39565b6106c2565b6040516102069190615373565b61027d610278366004614be8565b61083e565b6040516102069190615480565b6101dc610298366004614fb1565b610c22565b6101dc610de0565b6101f9610e8c565b6102226102bb366004614be8565b610eb0565b6102d36102ce366004614be8565b610f4f565b6040516102069291906151f3565b6102e9611190565b60405161020691906151c7565b6101dc611199565b610306611256565b604051610206939291906151d2565b6101f96113b2565b6101dc61032b366004614be8565b6113c1565b6101dc61033e366004614fb1565b612054565b6101dc610351366004614be8565b6121aa565b6101dc610364366004614cbc565b612365565b6101dc610377366004614adf565b612d3f565b61022261038a366004614eab565b612e0a565b6103a261039d366004614be8565b61303d565b60405161020691906153cc565b6101dc6103bd366004614adf565b6131bf565b6101dc6132c1565b6102d36103d8366004614bb0565b61337a565b6101f96137d8565b60075460ff16156104115760405162461bcd60e51b8152600401610408906152bf565b60405180910390fd5b6000816001600160801b03161161042757600080fd5b7f00000000000000000000000000000000000000000000000000000000000000006001600160a01b0316637d8c26596040518163ffffffff1660e01b8152600401600060405180830381600087803b15801561048257600080fd5b505af1158015610496573d6000803e3d6000fd5b505060405163f3fef3a360e01b8152600092506001600160a01b037f000000000000000000000000000000000000000000000000000000000000000016915063f3fef3a3906104ee903390606487029060040161515d565b602060405180830381600087803b15801561050857600080fd5b505af115801561051c573d6000803e3d6000fd5b505050506040513d601f19601f820116820180604052508101906105409190614c00565b905061055533836001600160801b03166137fc565b336001600160a01b03167f92ccf450a286a957af52509bc1c9939d1a6a481783e142e41e2499f0bb66ebc68284604051610590929190615500565b60405180910390a25050565b6105a4613834565b6001600160a01b03166105b56113b2565b6001600160a01b0316146105fe576040805162461bcd60e51b815260206004820181905260248201526000805160206156b7833981519152604482015290519081900360640190fd5b600180546001600160a01b0319166001600160a01b0392909216919091179055565b6001546001600160a01b031681565b6003816002811061063f57600080fd5b0154905081565b61064e613834565b6001600160a01b031661065f6113b2565b6001600160a01b0316146106a8576040805162461bcd60e51b815260206004820181905260248201526000805160206156b7833981519152604482015290519081900360640190fd5b600391909155600455565b6002546001600160a01b031681565b6106ca61494a565b60008060008060007f00000000000000000000000000000000000000000000000000000000000000006001600160a01b03166333a37ffb89896040518363ffffffff1660e01b81526004016107209291906154ec565b60a06040518083038186803b15801561073857600080fd5b505afa15801561074c573d6000803e3d6000fd5b505050506040513d601f19601f820116820180604052508101906107709190614c18565b945094509450945094506040518061010001604052808681526020018581526020018481526020018381526020018281526020016107c8662386f26fc100006107c2878961383890919063ffffffff16565b906138e8565b81526020016108066305f5e1006108006107f18c8e600281106107e757fe5b60200201516139a0565b6107fa8b6139b7565b90613a0e565b90613a67565b815260200161082e6305f5e1006108006108258c8e600281106107e757fe5b6107fa886139b7565b9052955050505050505b92915050565b61084661498f565b6000828152600660209081526040808320815180830183528154600f90810b810b900b81526001820180548451818702810187019095528085529194929385840193909290879084015b828210156109b2576000848152602090206040805160a0810190915290600484020181606081018260028282826020028201916000905b82829054906101000a9004600f0b600f0b81526020019060100190602082600f010492830192600103820291508084116108c7575050509284525050604080518082019182905260209093019291506001840190600290826000855b82829054906101000a90046001600160801b03166001600160801b031681526020019060100190602082600f010492830192600103820291508084116109235750505092845250506040805180820191829052602090930192915060028481019182845b8154815260200190600101908083116109875750505050508152505081526020019060010190610890565b5050505081525050905060007f00000000000000000000000000000000000000000000000000000000000000006001600160a01b0316631c2f4e976109f684613ace565b6040518263ffffffff1660e01b8152600401610a1291906151b9565b60e06040518083038186803b158015610a2a57600080fd5b505afa158015610a3e573d6000803e3d6000fd5b505050506040513d601f19601f82011682018060405250810190610a629190614e20565b9050600082602001515167ffffffffffffffff81118015610a8257600080fd5b50604051908082528060200260200182016040528015610abc57816020015b610aa96149c3565b815260200190600190039081610aa15790505b509050600083602001515167ffffffffffffffff81118015610add57600080fd5b50604051908082528060200260200182016040528015610b1757816020015b610b046149c3565b815260200190600190039081610afc5790505b50905060005b846020015151811015610bdb5760005b6002811015610bd257610b5886602001518381518110610b4957fe5b60200260200101518287613b04565b848381518110610b6457fe5b60200260200101518260028110610b7757fe5b602002018181525050610ba686602001518381518110610b9357fe5b6020026020010151828760600151613b7c565b838381518110610bb257fe5b60200260200101518260028110610bc557fe5b6020020152600101610b2d565b50600101610b1d565b506040805160a0810190915280610bf28686613bda565b8152602001610c018686613c2e565b8152602001838152602001828152602001858152509450505050505b919050565b600082118015610cb85750600560009054906101000a90046001600160a01b03166001600160a01b03166361b8ce8c6040518163ffffffff1660e01b8152600401602060405180830381600087803b158015610c7d57600080fd5b505af1158015610c91573d6000803e3d6000fd5b505050506040513d601f19601f82011682018060405250810190610cb59190614c00565b82105b610cd45760405162461bcd60e51b8152600401610408906152dc565b600082815260066020526040902073__$d529c113b49f05715913138dde996bfccf$__906369e2bed090610d09846064613838565b6040518363ffffffff1660e01b8152600401610d269291906151f3565b60006040518083038186803b158015610d3e57600080fd5b505af4158015610d52573d6000803e3d6000fd5b505050506000610d61826139b7565b9050610d986001600160a01b037f000000000000000000000000000000000000000000000000000000000000000016333084613c4e565b336001600160a01b03167ffc3608744ea5805574f007540fe37736bbebd81365de55991f3b17a16295521d8483604051610dd39291906151f3565b60405180910390a2505050565b610de8613834565b6001600160a01b0316610df96113b2565b6001600160a01b031614610e42576040805162461bcd60e51b815260206004820181905260248201526000805160206156b7833981519152604482015290519081900360640190fd5b600080546040516001600160a01b03909116907f8be0079c531659141344cd1fd0a4f28419497f9722a3daafe3b4186f6b6457e0908390a3600080546001600160a01b0319169055565b7f000000000000000000000000000000000000000000000000000000000000000081565b6040516339f9a44f60e11b81526000906001600160a01b037f000000000000000000000000000000000000000000000000000000000000000016906373f3489e90610eff9085906004016151ea565b60206040518083038186803b158015610f1757600080fd5b505afa158015610f2b573d6000803e3d6000fd5b505050506040513d601f19601f820116820180604052508101906108389190614c00565b6000818152600660209081526040808320815180830183528154600f90810b810b900b8152600182018054845181870281018701909552808552869586959394938582019390929091879084015b828210156110bf576000848152602090206040805160a0810190915290600484020181606081018260028282826020028201916000905b82829054906101000a9004600f0b600f0b81526020019060100190602082600f01049283019260010382029150808411610fd4575050509284525050604080518082019182905260209093019291506001840190600290826000855b82829054906101000a90046001600160801b03166001600160801b031681526020019060100190602082600f010492830192600103820291508084116110305750505092845250506040805180820191829052602090930192915060028481019182845b8154815260200190600101908083116110945750505050508152505081526020019060010190610f9d565b5050505081525050905060007f00000000000000000000000000000000000000000000000000000000000000006001600160a01b0316631c2f4e9761110384613ace565b6040518263ffffffff1660e01b815260040161111f91906151b9565b60e06040518083038186803b15801561113757600080fd5b505afa15801561114b573d6000803e3d6000fd5b505050506040513d601f19601f8201168201806040525081019061116f9190614e20565b905061117b8282613bda565b6111858383613c2e565b935093505050915091565b60075460ff1681565b6111a1613834565b6001600160a01b03166111b26113b2565b6001600160a01b0316146111fb576040805162461bcd60e51b815260206004820181905260248201526000805160206156b7833981519152604482015290519081900360640190fd5b60075460ff161561121e5760405162461bcd60e51b8152600401610408906152bf565b6007805460ff191660011790556040517f9e87fac88ff661f02d44f95383c817fece4bce600a3dab7a54406878b965e75290600090a1565b6000806000807f00000000000000000000000000000000000000000000000000000000000000006001600160a01b031663854ad1b76040518163ffffffff1660e01b815260040160806040518083038186803b1580156112b557600080fd5b505afa1580156112c9573d6000803e3d6000fd5b505050506040513d601f19601f820116820180604052508101906112ed9190614c57565b90508060600151606482600001518161130257fe5b046113a6836020015160087f00000000000000000000000000000000000000000000000000000000000000006001600160a01b031663313ce5676040518163ffffffff1660e01b815260040160206040518083038186803b15801561136657600080fd5b505afa15801561137a573d6000803e3d6000fd5b505050506040513d601f19601f8201168201806040525081019061139e9190614fd2565b60ff16613cae565b93509350935050909192565b6000546001600160a01b031690565b60075460ff16156113e45760405162461bcd60e51b8152600401610408906152bf565b7f00000000000000000000000000000000000000000000000000000000000000006001600160a01b0316637d8c26596040518163ffffffff1660e01b8152600401600060405180830381600087803b15801561143f57600080fd5b505af1158015611453573d6000803e3d6000fd5b5050506000828152600660209081526040808320815180830183528154600f90810b810b900b81526001820180548451818702810187019095528085529296506001600160a01b037f00000000000000000000000000000000000000000000000000000000000000001694631c2f4e9794611605948993858401939091908a9084015b828210156115f8576000848152602090206040805160a0810190915290600484020181606081018260028282826020028201916000905b82829054906101000a9004600f0b600f0b81526020019060100190602082600f0104928301926001038202915080841161150d575050509284525050604080518082019182905260209093019291506001840190600290826000855b82829054906101000a90046001600160801b03166001600160801b031681526020019060100190602082600f010492830192600103820291508084116115695750505092845250506040805180820191829052602090930192915060028481019182845b8154815260200190600101908083116115cd57505050505081525050815260200190600101906114d6565b5050505081525050613ace565b6040518263ffffffff1660e01b815260040161162191906151b9565b60e06040518083038186803b15801561163957600080fd5b505afa15801561164d573d6000803e3d6000fd5b505050506040513d601f19601f820116820180604052508101906116719190614e20565b6040805180820182528454600f90810b810b900b815260018501805483516020828102820181019095528181529495506117e6948694889381860193909160009084015b828210156117d7576000848152602090206040805160a0810190915290600484020181606081018260028282826020028201916000905b82829054906101000a9004600f0b600f0b81526020019060100190602082600f010492830192600103820291508084116116ec575050509284525050604080518082019182905260209093019291506001840190600290826000855b82829054906101000a90046001600160801b03166001600160801b031681526020019060100190602082600f010492830192600103820291508084116117485750505092845250506040805180820191829052602090930192915060028481019182845b8154815260200190600101908083116117ac57505050505081525050815260200190600101906116b5565b50505091525090919050613d64565b6118025760405162461bcd60e51b815260040161040890615258565b600061198782846040518060400160405290816000820160009054906101000a9004600f0b600f0b600f0b815260200160018201805480602002602001604051908101604052809291908181526020016000905b82821015611978576000848152602090206040805160a0810190915290600484020181606081018260028282826020028201916000905b82829054906101000a9004600f0b600f0b81526020019060100190602082600f0104928301926001038202915080841161188d575050509284525050604080518082019182905260209093019291506001840190600290826000855b82829054906101000a90046001600160801b03166001600160801b031681526020019060100190602082600f010492830192600103820291508084116118e95750505092845250506040805180820191829052602090930192915060028481019182845b81548152602001906001019080831161194d5750505050508152505081526020019060010190611856565b50505091525090919050613c2e565b9050600081136119a95760405162461bcd60e51b8152600401610408906152f9565b60006119b36149c3565b6119bb6149c3565b6040805180820182528754600f90810b810b900b81526001880180548351602082810282018101909552818152611ca0948b9381860193909160009084015b82821015611b1c576000848152602090206040805160a0810190915290600484020181606081018260028282826020028201916000905b82829054906101000a9004600f0b600f0b81526020019060100190602082600f01049283019260010382029150808411611a31575050509284525050604080518082019182905260209093019291506001840190600290826000855b82829054906101000a90046001600160801b03166001600160801b031681526020019060100190602082600f01049283019260010382029150808411611a8d5750505092845250506040805180820191829052602090930192915060028481019182845b815481526020019060010190808311611af157505050505081525050815260200190600101906119fa565b505050915250506040805180820182528954600f90810b810b900b815260018a0180548351602082810282018101909552818152611c84948d9381860193909160009084015b828210156115f8576000848152602090206040805160a0810190915290600484020181606081018260028282826020028201916000905b82829054906101000a9004600f0b600f0b81526020019060100190602082600f01049283019260010382029150808411611b99575050509284525050604080518082019182905260209093019291506001840190600290826000855b82829054906101000a90046001600160801b03166001600160801b031681526020019060100190602082600f01049283019260010382029150808411611bf55750505092845250506040805180820191829052602090930192915060028481019182845b815481526020019060010190808311611c595750505050508152505081526020019060010190611b62565b6040518060400160405280600081526020016000815250613d85565b9450909250905060005b6001870154811015611d5e5760005b6002811015611d55576000886001018381548110611cd357fe5b90600052602060002090600402016000018260028110611cef57fe5b600291828204019190066010029054906101000a9004600f0b9050611d4c89838c86898760028110611d1d57fe5b6020020151898860028110611d2e57fe5b60200201518760000360405180602001604052806000815250613ec7565b50600101611cb9565b50600101611caa565b505060405163652aa48360e01b81526000915073__$d529c113b49f05715913138dde996bfccf$__9063652aa48390611da190889087906107d0906004016153df565b60206040518083038186803b158015611db957600080fd5b505af4158015611dcd573d6000803e3d6000fd5b505050506040513d601f19601f82011682018060405250810190611df19190614c00565b6040516328e32c8560e11b81529091507f00000000000000000000000000000000000000000000000000000000000000006001600160a01b0316906351c6590a90611e439060028504906004016151ea565b600060405180830381600087803b158015611e5d57600080fd5b505af1158015611e71573d6000803e3d6000fd5b50505050611e893360c88381611e8357fe5b046137fc565b7f00000000000000000000000000000000000000000000000000000000000000006001600160a01b03166387c3a09a6040518163ffffffff1660e01b8152600401600060405180830381600087803b158015611ee457600080fd5b505af1158015611ef8573d6000803e3d6000fd5b5050505060008211156120125760025460405163095ea7b360e01b81526001600160a01b037f000000000000000000000000000000000000000000000000000000000000000081169263095ea7b392611f5a929190911690869060040161517f565b602060405180830381600087803b158015611f7457600080fd5b505af1158015611f88573d6000803e3d6000fd5b505050506040513d601f19601f82011682018060405250810190611fac9190614bcc565b506002546040516301acfa2360e51b81526001600160a01b039091169063359f446090611fdf903090869060040161517f565b600060405180830381600087803b158015611ff957600080fd5b505af115801561200d573d6000803e3d6000fd5b505050505b857f09c223cfcd8c93e245f558f5f8de755fc0930fd9bc257441155ef5d54a170e0f338360405161204492919061517f565b60405180910390a2505050505050565b60075460ff16156120775760405162461bcd60e51b8152600401610408906152bf565b6000821180156120875750600081135b61209057600080fd5b60405163e7dc45d360e01b81526000906001600160a01b037f0000000000000000000000000000000000000000000000000000000000000000169063e7dc45d3906120e690339060648802908790600401615198565b602060405180830381600087803b15801561210057600080fd5b505af1158015612114573d6000803e3d6000fd5b505050506040513d601f19601f820116820180604052508101906121389190614c00565b905061216f6001600160a01b037f000000000000000000000000000000000000000000000000000000000000000016333086613c4e565b336001600160a01b03167f73a19dd210f1a7f902193214c0ee91dd35ee5b4d920cba8d519eca65a7b488ca8285604051610dd39291906151f3565b60075460ff16156121cd5760405162461bcd60e51b8152600401610408906152bf565b600081116121da57600080fd5b7f00000000000000000000000000000000000000000000000000000000000000006001600160a01b0316637d8c26596040518163ffffffff1660e01b8152600401600060405180830381600087803b15801561223557600080fd5b505af1158015612249573d6000803e3d6000fd5b50506040516311f9fbc960e21b8152600092506001600160a01b037f00000000000000000000000000000000000000000000000000000000000000001691506347e7ef24906122a1903390606487029060040161517f565b602060405180830381600087803b1580156122bb57600080fd5b505af11580156122cf573d6000803e3d6000fd5b505050506040513d601f19601f820116820180604052508101906122f39190614c00565b905061232a6001600160a01b037f000000000000000000000000000000000000000000000000000000000000000016333085613c4e565b336001600160a01b03167f73a19dd210f1a7f902193214c0ee91dd35ee5b4d920cba8d519eca65a7b488ca82846040516105909291906151f3565b60075460ff16156123885760405162461bcd60e51b8152600401610408906152bf565b6060810151158061239d575043816060015110155b6123b95760405162461bcd60e51b81526004016104089061523b565b8051612448576005546040516354ba0f2760e01b81526001600160a01b03909116906354ba0f27906123ef903390600401615123565b602060405180830381600087803b15801561240957600080fd5b505af115801561241d573d6000803e3d6000fd5b505050506040513d601f19601f820116820180604052508101906124419190614c00565b81526124ef565b60055481516040516331a9108f60e11b815233926001600160a01b031691636352211e9161247991906004016151ea565b60206040518083038186803b15801561249157600080fd5b505afa1580156124a5573d6000803e3d6000fd5b505050506040513d601f19601f820116820180604052508101906124c99190614afb565b6001600160a01b0316146124ef5760405162461bcd60e51b81526004016104089061521e565b7f00000000000000000000000000000000000000000000000000000000000000006001600160a01b0316637d8c26596040518163ffffffff1660e01b8152600401600060405180830381600087803b15801561254a57600080fd5b505af115801561255e573d6000803e3d6000fd5b50505050600061256c6149c3565b6125746149c3565b83516000908152600660209081526040808320815180830183528154600f90810b810b900b815260018201805484518187028101870190955280855261270b96929593948685019490939084015b828210156126e4576000848152602090206040805160a0810190915290600484020181606081018260028282826020028201916000905b82829054906101000a9004600f0b600f0b81526020019060100190602082600f010492830192600103820291508084116125f9575050509284525050604080518082019182905260209093019291506001840190600290826000855b82829054906101000a90046001600160801b03166001600160801b031681526020019060100190602082600f010492830192600103820291508084116126555750505092845250506040805180820191829052602090930192915060028481019182845b8154815260200190600101908083116126b957505050505081525050815260200190600101906125c2565b50505050815250506126f98660200151613fc9565b612706876020015161405f565b613d85565b9450909250905060005b8460200151518110156128165761280e60066000876000015181526020019081526020016000208660200151838151811061274c57fe5b60200260200101516000015187600001518860200151858151811061276d57fe5b602002602001015160200151878a60200151878151811061278a57fe5b602002602001015160000151600281106127a057fe5b6020020151878b6020015188815181106127b657fe5b602002602001015160000151600281106127cc57fe5b60200201518b6020015188815181106127e157fe5b6020026020010151604001518c6020015189815181106127fd57fe5b602002602001015160800151613ec7565b600101612715565b50508115905061292d5760025460405163095ea7b360e01b81526001600160a01b037f000000000000000000000000000000000000000000000000000000000000000081169263095ea7b392612875929190911690859060040161517f565b602060405180830381600087803b15801561288f57600080fd5b505af11580156128a3573d6000803e3d6000fd5b505050506040513d601f19601f820116820180604052508101906128c79190614bcc565b506002546040516301acfa2360e51b81526001600160a01b039091169063359f4460906128fa903090859060040161517f565b600060405180830381600087803b15801561291457600080fd5b505af1158015612928573d6000803e3d6000fd5b505050505b81516000908152600660205260408082209084015173__$d529c113b49f05715913138dde996bfccf$__9163e69e266d91612969906064613838565b86516000908152600660209081526040808320815180830183528154600f90810b810b900b81526001820180548451818702810187019095528085526001600160a01b037f00000000000000000000000000000000000000000000000000000000000000001696631c2f4e9796612b0c969495948682019490939092909184015b828210156115f8576000848152602090206040805160a0810190915290600484020181606081018260028282826020028201916000905b82829054906101000a9004600f0b600f0b81526020019060100190602082600f01049283019260010382029150808411612a21575050509284525050604080518082019182905260209093019291506001840190600290826000855b82829054906101000a90046001600160801b03166001600160801b031681526020019060100190602082600f01049283019260010382029150808411612a7d5750505092845250506040805180820191829052602090930192915060028481019182845b815481526020019060010190808311612ae157505050505081525050815260200190600101906129ea565b6040518263ffffffff1660e01b8152600401612b2891906151b9565b60e06040518083038186803b158015612b4057600080fd5b505afa158015612b54573d6000803e3d6000fd5b505050506040513d601f19601f82011682018060405250810190612b789190614e20565b6040518463ffffffff1660e01b8152600401612b96939291906153f5565b60206040518083038186803b158015612bae57600080fd5b505af4158015612bc2573d6000803e3d6000fd5b505050506040513d601f19601f82011682018060405250810190612be69190614c00565b90507f00000000000000000000000000000000000000000000000000000000000000006001600160a01b03166387c3a09a6040518163ffffffff1660e01b8152600401600060405180830381600087803b158015612c4357600080fd5b505af1158015612c57573d6000803e3d6000fd5b505050506000811315612ce05760648105612c9d7f00000000000000000000000000000000000000000000000000000000000000006001600160a01b0316333084613c4e565b835160405133917ffc3608744ea5805574f007540fe37736bbebd81365de55991f3b17a16295521d91612cd2919085906151f3565b60405180910390a250612d3a565b6000811215612d3a576064600082900304612cfb33826137fc565b835160405133917f41d0e87fb7cc3fb87474e510116fbe22a7658539f639b5de6d9c0bdae606d3eb91612d30919085906151f3565b60405180910390a2505b505050565b612d47613834565b6001600160a01b0316612d586113b2565b6001600160a01b031614612da1576040805162461bcd60e51b815260206004820181905260248201526000805160206156b7833981519152604482015290519081900360640190fd5b6001600160a01b038116612db457600080fd5b600280546001600160a01b0319166001600160a01b0383161790556040517fa10652b59c38f986e02273779b46014194b54d90e963da79e87af931cf6a484890612dff908390615123565b60405180910390a150565b6000828152600660209081526040808320815180830183528154600f90810b810b900b8152600182018054845181870281018701909552808552869592948584019390929190879084015b82821015612f77576000848152602090206040805160a0810190915290600484020181606081018260028282826020028201916000905b82829054906101000a9004600f0b600f0b81526020019060100190602082600f01049283019260010382029150808411612e8c575050509284525050604080518082019182905260209093019291506001840190600290826000855b82829054906101000a90046001600160801b03166001600160801b031681526020019060100190602082600f01049283019260010382029150808411612ee85750505092845250506040805180820191829052602090930192915060028481019182845b815481526020019060010190808311612f4c5750505050508152505081526020019060010190612e55565b50505050815250509050613031837f00000000000000000000000000000000000000000000000000000000000000006001600160a01b0316631c2f4e97612fbd85613ace565b6040518263ffffffff1660e01b8152600401612fd991906151b9565b60e06040518083038186803b158015612ff157600080fd5b505afa158015613005573d6000803e3d6000fd5b505050506040513d601f19601f820116820180604052508101906130299190614e20565b8391906140bb565b60649005949350505050565b6130456149e1565b6000828152600660209081526040808320815180830183528154600f90810b810b900b81526001820180548451818702810187019095528085529195929486810194939192919084015b828210156131b1576000848152602090206040805160a0810190915290600484020181606081018260028282826020028201916000905b82829054906101000a9004600f0b600f0b81526020019060100190602082600f010492830192600103820291508084116130c6575050509284525050604080518082019182905260209093019291506001840190600290826000855b82829054906101000a90046001600160801b03166001600160801b031681526020019060100190602082600f010492830192600103820291508084116131225750505092845250506040805180820191829052602090930192915060028481019182845b815481526020019060010190808311613186575050505050815250508152602001906001019061308f565b505050915250909392505050565b6131c7613834565b6001600160a01b03166131d86113b2565b6001600160a01b031614613221576040805162461bcd60e51b815260206004820181905260248201526000805160206156b7833981519152604482015290519081900360640190fd5b6001600160a01b0381166132665760405162461bcd60e51b81526004018080602001828103825260268152602001806156076026913960400191505060405180910390fd5b600080546040516001600160a01b03808516939216917f8be0079c531659141344cd1fd0a4f28419497f9722a3daafe3b4186f6b6457e091a3600080546001600160a01b0319166001600160a01b0392909216919091179055565b6132c9613834565b6001600160a01b03166132da6113b2565b6001600160a01b031614613323576040805162461bcd60e51b815260206004820181905260248201526000805160206156b7833981519152604482015290519081900360640190fd5b60075460ff166133455760405162461bcd60e51b815260040161040890615201565b6007805460ff191690556040517f472cf038e2a5f33dbaa68760dbf94ab4e159535e6580c0ac63f8202c7c6c0bb290600090a1565b60015460009081906001600160a01b031633146133a95760405162461bcd60e51b815260040161040890615285565b7f00000000000000000000000000000000000000000000000000000000000000006001600160a01b0316637d8c26596040518163ffffffff1660e01b8152600401600060405180830381600087803b15801561340457600080fd5b505af1158015613418573d6000803e3d6000fd5b505050507f00000000000000000000000000000000000000000000000000000000000000006001600160a01b03166387c3a09a6040518163ffffffff1660e01b8152600401600060405180830381600087803b15801561347757600080fd5b505af115801561348b573d6000803e3d6000fd5b505050508215613509577f00000000000000000000000000000000000000000000000000000000000000006001600160a01b0316637d7c2a1c6040518163ffffffff1660e01b8152600401600060405180830381600087803b1580156134f057600080fd5b505af1158015613504573d6000803e3d6000fd5b505050505b60007f00000000000000000000000000000000000000000000000000000000000000006001600160a01b031663854ad1b76040518163ffffffff1660e01b815260040160806040518083038186803b15801561356457600080fd5b505afa158015613578573d6000803e3d6000fd5b505050506040513d601f19601f8201168201806040525081019061359c9190614c57565b60405163128c113f60e01b81529091506001600160a01b037f0000000000000000000000000000000000000000000000000000000000000000169063128c113f906135eb908490600401615346565b600060405180830381600087803b15801561360557600080fd5b505af1158015613619573d6000803e3d6000fd5b505050508315613697577f00000000000000000000000000000000000000000000000000000000000000006001600160a01b0316637d7c2a1c6040518163ffffffff1660e01b8152600401600060405180830381600087803b15801561367e57600080fd5b505af1158015613692573d6000803e3d6000fd5b505050505b8051606490049250613702816020015160087f00000000000000000000000000000000000000000000000000000000000000006001600160a01b031663313ce5676040518163ffffffff1660e01b815260040160206040518083038186803b15801561136657600080fd5b9150806060015115613752576137436001600160a01b037f000000000000000000000000000000000000000000000000000000000000000016333085613c4e565b61374d33846137fc565b613791565b6137876001600160a01b037f000000000000000000000000000000000000000000000000000000000000000016333086613c4e565b613791338361413c565b7f97ecad77f31756d3d2f581bf1acec77dbdb445bf9b69afff2c62d02d4d2547de33826060015185856040516137ca9493929190615137565b60405180910390a150915091565b7f000000000000000000000000000000000000000000000000000000000000000081565b6138306001600160a01b037f000000000000000000000000000000000000000000000000000000000000000016838361416c565b5050565b3390565b60008261384757506000610838565b8260001914801561385b5750600160ff1b82145b156138975760405162461bcd60e51b81526004018080602001828103825260278152602001806156d76027913960400191505060405180910390fd5b828202828482816138a457fe5b05146138e15760405162461bcd60e51b81526004018080602001828103825260278152602001806156d76027913960400191505060405180910390fd5b9392505050565b60008161393c576040805162461bcd60e51b815260206004820181905260248201527f5369676e6564536166654d6174683a206469766973696f6e206279207a65726f604482015290519081900360640190fd5b816000191480156139505750600160ff1b83145b1561398c5760405162461bcd60e51b81526004018080602001828103825260218152602001806156756021913960400191505060405180910390fd5b600082848161399757fe5b05949350505050565b6000808212156139b35781600003610838565b5090565b6000808212156139b3576040805162461bcd60e51b815260206004820181905260248201527f53616665436173743a2076616c7565206d75737420626520706f736974697665604482015290519081900360640190fd5b600082613a1d57506000610838565b82820282848281613a2a57fe5b04146138e15760405162461bcd60e51b81526004018080602001828103825260218152602001806156966021913960400191505060405180910390fd5b6000808211613abd576040805162461bcd60e51b815260206004820152601a60248201527f536166654d6174683a206469766973696f6e206279207a65726f000000000000604482015290519081900360640190fd5b818381613ac657fe5b049392505050565b613ad66149c3565b6000613ae1836141be565b80516000908103600f90810b8552602092830151909103900b9083015250919050565b600080613b6c85600001518560028110613b1a57fe5b6020020151600f0b613b66613b4b88602001518860028110613b3857fe5b60200201516001600160801b03166141ff565b86602001518860028110613b5b57fe5b602002015190614243565b90613838565b6305f5e100900595945050505050565b600080613bbe85600001518560028110613b9257fe5b6020020151600f0b613b66858760028110613ba957fe5b602002015188604001518860028110613b5b57fe5b9050613bd181662386f26fc100006138e8565b95945050505050565b8151600090600f0b815b846020015151811015613c2657613c1c613c1586602001518381518110613c0757fe5b6020026020010151866142a8565b83906142c7565b9150600101613be4565b509392505050565b600080613c3a846141be565b9050613c46818461432c565b949350505050565b604080516001600160a01b0380861660248301528416604482015260648082018490528251808303909101815260849091019091526020810180516001600160e01b03166323b872dd60e01b179052613ca8908590614490565b50505050565b600081831115613d0a57604682840310613cf4576040805162461bcd60e51b8152602060048201526002602482015261269960f11b604482015290519081900360640190fd5b613d0384838503600a0a613a67565b90506138e1565b81831015613d5d57604683830310613d4e576040805162461bcd60e51b8152602060048201526002602482015261269960f11b604482015290519081900360640190fd5b613d0384848403600a0a613a0e565b50826138e1565b600080613d718484613bda565b9050613d7d8484613c2e565b139392505050565b613d8d6149c3565b613d956149c3565b6000613da18686614541565b604051630b818e5960e21b81526001600160a01b037f00000000000000000000000000000000000000000000000000000000000000001690632e06396490613ded9088906004016151b9565b60a060405180830381600087803b158015613e0757600080fd5b505af1158015613e1b573d6000803e3d6000fd5b505050506040513d601f19601f82011682018060405250810190613e3f9190614b17565b875183519396509194509250613e629160009182129187905b60200201516145e8565b613e7e5760405162461bcd60e51b8152600401610408906152a2565b613e9c60008660016020020151138460016020020151866001613e58565b613eb85760405162461bcd60e51b8152600401610408906152a2565b60648104905093509350939050565b81600f0b60001415613ed857613fbf565b60405163a8ffb3b960e01b815260009073__$d529c113b49f05715913138dde996bfccf$__9063a8ffb3b990613f1c908c908a908d9089908c908c90600401615455565b60206040518083038186803b158015613f3457600080fd5b505af4158015613f48573d6000803e3d6000fd5b505050506040513d601f19601f82011682018060405250810190613f6c9190614c00565b9050336001600160a01b03167fbfb264ae14733b7c7f6701d57d6a0dbaf244d34bf5912958835dccf887b4beea88888b878a8a888a604051613fb5989796959493929190615517565b60405180910390a2505b5050505050505050565b613fd16149c3565b60005b825181101561405957614029838281518110613fec57fe5b602002602001015160400151600f0b8385848151811061400857fe5b6020026020010151600001516002811061401e57fe5b6020020151906142c7565b8284838151811061403657fe5b6020026020010151600001516002811061404c57fe5b6020020152600101613fd4565b50919050565b6140676149c3565b60005b82518110156140595782818151811061407f57fe5b6020026020010151606001518284838151811061409857fe5b602002602001015160000151600281106140ae57fe5b602002015260010161406a565b6000806140c7856141be565b905060005b60028110156141315761410e6141098683600281106140e757fe5b6020020151600f0b8484600281106140fb57fe5b6020020151600f0b906142c7565b614611565b82826002811061411a57fe5b600f92830b90920b602090920201526001016140cc565b50613bd1818461432c565b6138306001600160a01b037f00000000000000000000000000000000000000000000000000000000000000001683835b604080516001600160a01b038416602482015260448082018490528251808303909101815260649091019091526020810180516001600160e01b031663a9059cbb60e01b179052612d3a908490614490565b6141c66149c3565b60005b6002811015614059576141dc8382614672565b8282600281106141e857fe5b600f92830b90920b602090920201526001016141c9565b6000600160ff1b82106139b35760405162461bcd60e51b81526004018080602001828103825260288152602001806156fe6028913960400191505060405180910390fd5b60008183038183128015906142585750838113155b8061426d575060008312801561426d57508381135b6138e15760405162461bcd60e51b81526004018080602001828103825260248152602001806157266024913960400191505060405180910390fd5b60006138e16142bb8484606001516146d3565b6142c585856146fa565b905b60008282018183128015906142dc5750838112155b806142f157506000831280156142f157508381125b6138e15760405162461bcd60e51b81526004018080602001828103825260218152602001806156546021913960400191505060405180910390fd5b6000806143676305f5e1006107c2614356662386f26fc10000876040015160016002811061401e57fe5b86516001600160801b031690613838565b905060006143d26143cd6143a6662386f26fc100006107c261439b662386f26fc100008a6040015160006002811061401e57fe5b8a51600f0b90613838565b6142c568056bc75e2d631000006107c26002613b668c600160200201518a90600f0b613838565b6139a0565b905061440c6144056143cd69d3c21bcecceda10000006107c28960016020020151600f0b613b666002816101f48b613838565b8290614721565b9050600064e8d4a5100061443c836107fa88600001516001600160801b03166101f4613a0e90919063ffffffff16565b8161444357fe5b87519190049150600f0b15158061446057506020860151600f0b15155b801561447057506404a817c80081105b1561447d57506404a817c8005b614486816141ff565b9695505050505050565b60006144e5826040518060400160405280602081526020017f5361666545524332303a206c6f772d6c6576656c2063616c6c206661696c6564815250856001600160a01b031661477b9092919063ffffffff16565b805190915015612d3a5780806020019051602081101561450457600080fd5b5051612d3a5760405162461bcd60e51b815260040180806020018281038252602a81526020018061574a602a913960400191505060405180910390fd5b600061454c836141be565b905060005b6002811015613ca857600061457c84836002811061456b57fe5b60200201518484600281106140fb57fe5b905061459a83836002811061458d57fe5b6020020151600f0b6139a0565b6145a3826139a0565b11156145df57600382600281106145b657fe5b01546145c1826139a0565b11156145df5760405162461bcd60e51b815260040161040890615329565b50600101614551565b6000816145f7575060016138e1565b83156146075750808211156138e1565b50808210156138e1565b60006f7fffffffffffffffffffffffffffffff19821215801561463757506001607f1b82125b6139b35760405162461bcd60e51b815260040180806020018281038252602781526020018061562d6027913960400191505060405180910390fd5b6000805b8360200151518110156146cc576146c26141098560200151838151811061469957fe5b60200260200101516000015185600281106146b057fe5b6020020151600f85810b91900b6142c7565b9150600101614676565b5092915050565b60008060005b6002811015613c26576146f0613c15868387613b7c565b91506001016146d9565b60008060005b6002811015613c2657614717613c15868387613b04565b9150600101614700565b6000828201838110156138e1576040805162461bcd60e51b815260206004820152601b60248201527f536166654d6174683a206164646974696f6e206f766572666c6f770000000000604482015290519081900360640190fd5b6060613c4684846000858561478f856148a0565b6147e0576040805162461bcd60e51b815260206004820152601d60248201527f416464726573733a2063616c6c20746f206e6f6e2d636f6e7472616374000000604482015290519081900360640190fd5b600080866001600160a01b031685876040518082805190602001908083835b6020831061481e5780518252601f1990920191602091820191016147ff565b6001836020036101000a03801982511681845116808217855250505050505090500191505060006040518083038185875af1925050503d8060008114614880576040519150601f19603f3d011682016040523d82523d6000602084013e614885565b606091505b50915091506148958282866148a6565b979650505050505050565b3b151590565b606083156148b55750816138e1565b8251156148c55782518084602001fd5b8160405162461bcd60e51b81526004018080602001828103825283818151815260200191508051906020019080838360005b8381101561490f5781810151838201526020016148f7565b50505050905090810190601f16801561493c5780820380516001836020036101000a031916815260200191505b509250505060405180910390fd5b60405180610100016040528060008152602001600081526020016000815260200160008152602001600081526020016000815260200160008152602001600081525090565b6040518060a00160405280600081526020016000815260200160608152602001606081526020016149be6149e1565b905290565b60405180604001604052806002906020820280368337509192915050565b60408051808201909152600081526060602082015290565b600082601f830112614a09578081fd5b6040516040810181811067ffffffffffffffff82111715614a2657fe5b8060405250808385604086011115614a3c578384fd5b835b6002811015614a5d578151835260209283019290910190600101614a3e565b509195945050505050565b600082601f830112614a78578081fd5b813567ffffffffffffffff811115614a8c57fe5b614a9f601f8201601f19166020016155a7565b818152846020838601011115614ab3578283fd5b816020850160208301379081016020019190915292915050565b8035600f81900b8114610c1d57600080fd5b600060208284031215614af0578081fd5b81356138e1816155cb565b600060208284031215614b0c578081fd5b81516138e1816155cb565b600080600060a08486031215614b2b578182fd5b84601f850112614b39578182fd5b6040516040810181811067ffffffffffffffff82111715614b5657fe5b806040525080856040870188811115614b6d578586fd5b855b6002811015614b8e578251845260209384019390920191600101614b6f565b50839650614b9c89826149f9565b955050505050608084015190509250925092565b600060208284031215614bc1578081fd5b81356138e1816155e3565b600060208284031215614bdd578081fd5b81516138e1816155e3565b600060208284031215614bf9578081fd5b5035919050565b600060208284031215614c11578081fd5b5051919050565b600080600080600060a08688031215614c2f578283fd5b5050835160208501516040860151606087015160809097015192989197509594509092509050565b600060808284031215614c68578081fd5b6040516080810181811067ffffffffffffffff82111715614c8557fe5b80604052508251815260208301516020820152604083015160408201526060830151614cb0816155e3565b60608201529392505050565b60006020808385031215614cce578182fd5b67ffffffffffffffff8084351115614ce4578283fd5b8335840160808187031215614cf7578384fd5b604051608081018181108482111715614d0c57fe5b604052813581528382013583811115614d23578586fd5b8201601f81018813614d33578586fd5b8381351115614d3e57fe5b614d4c8586833502016155a7565b8135815285810190868301885b8435811015614df5578135850160a0818e03601f19011215614d79578a8bfd5b60405160a081018181108b82111715614d8e57fe5b6040908152828c01358252820135818c0152614dac60608301614acd565b6040820152608082013560608201528960a08301351115614dcb578b8cfd5b614ddd8e8c60a0850135850101614a68565b60808201528552509288019290880190600101614d59565b5050808785015250505060408201356040820152606082013560608201528094505050505092915050565b600060e08284031215614e31578081fd5b6040516080810181811067ffffffffffffffff82111715614e4e57fe5b6040528251614e5c816155f1565b8152614e6b84602085016149f9565b6020820152614e7d84606085016149f9565b6040820152614cb08460a085016149f9565b600060208284031215614ea0578081fd5b81356138e1816155f1565b60008060608385031215614ebd578182fd5b82359150602084603f850112614ed1578182fd5b6040516040810181811067ffffffffffffffff82111715614eee57fe5b6040528085830160608701881015614f04578485fd5b845b6002811015614f2a57614f1882614acd565b83529184019190840190600101614f06565b50505080925050509250929050565b60008060608385031215614f4b578182fd5b82359150602084603f850112614f5f578182fd5b6040516040810181811067ffffffffffffffff82111715614f7c57fe5b6040528085830160608701881015614f92578485fd5b845b6002811015614f2a57813583529184019190840190600101614f94565b60008060408385031215614fc3578182fd5b50508035926020909101359150565b600060208284031215614fe3578081fd5b815160ff811681146138e1578182fd5b6000815180845260208085019450808401835b8381101561502c57615019878351615037565b6040969096019590820190600101615006565b509495945050505050565b8060005b6002811015613ca857815184526020938401939091019060010161503b565b600060408084018351600f81810b87526020915081860151848389015283815180865260608a01915084830195508792505b808310156151165785518051838a5b60028110156150ba578251880b8252918801919088019060010161509b565b505050858101518884018a5b60028110156150ec5782516001600160801b0316825291880191908801906001016150c6565b5050508701516150ff6080840182615037565b5060c082019150848601955060018301925061508c565b5098975050505050505050565b6001600160a01b0391909116815260200190565b6001600160a01b0394909416845291151560208401526040830152606082015260800190565b6001600160a01b039290921682526001600160801b0316602082015260400190565b6001600160a01b03929092168252602082015260400190565b6001600160a01b039390931683526020830191909152604082015260600190565b604081016108388284615037565b901515815260200190565b92151583526020830191909152604082015260600190565b90815260200190565b918252602082015260400190565b602080825260039082015262504d3760e81b604082015260600190565b60208082526003908201526228269960e91b604082015260600190565b6020808252600390820152620504d360ec1b604082015260600190565b6020808252601390820152723b30bab63a1034b9903737ba103230b733b2b960691b604082015260600190565b60208082526003908201526214134d60ea1b604082015260600190565b602080825260039082015262504d3160e81b604082015260600190565b60208082526003908201526228269b60e91b604082015260600190565b602080825260039082015262504d3360e81b604082015260600190565b6020808252601690820152757661756c7420686173206e6f20706f736974696f6e7360501b604082015260600190565b602080825260039082015262504d3560e81b604082015260600190565b81518152602080830151908201526040808301519082015260609182015115159181019190915260800190565b600061010082019050825182526020830151602083015260408301516040830152606083015160608301526080830151608083015260a083015160a083015260c083015160c083015260e083015160e083015292915050565b6000602082526138e1602083018461505a565b9283526020830191909152604082015260600190565b838152602080820184905282516001600160801b031660408301528201516101208201906154266060840182615037565b50604083015161543960a0840182615037565b50606083015161544c60e0840182615037565b50949350505050565b95865260208601949094526040850192909252600f0b6060840152608083015260a082015260c00190565b6000602082528251602083015260208301516040830152604083015160a060608401526154b060c0840182614ff3565b90506060840151601f19808584030160808601526154ce8383614ff3565b925060808601519150808584030160a086015250613bd1828261505a565b828152606081016138e16020830184615037565b9182526001600160801b0316602082015260400190565b60006101008a835260208a8185015289604085015288600f0b60608501528760808501528660a08501528560c08501528160e0850152845180838601528392505b8083101561557757858301820151858401610120015291810191615558565b80831115615589578361012082870101525b601f01601f191693909301610120019b9a5050505050505050505050565b60405181810167ffffffffffffffff811182821017156155c357fe5b604052919050565b6001600160a01b03811681146155e057600080fd5b50565b80151581146155e057600080fd5b6001600160801b03811681146155e057600080fdfe4f776e61626c653a206e6577206f776e657220697320746865207a65726f206164647265737353616665436173743a2076616c756520646f65736e27742066697420696e2031323820626974735369676e6564536166654d6174683a206164646974696f6e206f766572666c6f775369676e6564536166654d6174683a206469766973696f6e206f766572666c6f77536166654d6174683a206d756c7469706c69636174696f6e206f766572666c6f774f776e61626c653a2063616c6c6572206973206e6f7420746865206f776e65725369676e6564536166654d6174683a206d756c7469706c69636174696f6e206f766572666c6f7753616665436173743a2076616c756520646f65736e27742066697420696e20616e20696e743235365369676e6564536166654d6174683a207375627472616374696f6e206f766572666c6f775361666545524332303a204552433230206f7065726174696f6e20646964206e6f742073756363656564a2646970667358221220c1ee413b0610428c0a50a32c6650e5a99bdbb652171a053fe0f9e9495e42c1ef64736f6c63430007060033",
  "libraries": {
    "TraderVaultLib": "0x70FCb4e9bCc18bd2736dB3f71Bb23591a9e96f8E"
  },
  "devdoc": {
    "kind": "dev",
    "methods": {
      "addMargin(uint256,int256)": {
        "params": {
          "_marginToAdd": "amount of margin to add",
          "_vaultId": "id of the vault"
        }
      },
      "getLPTokenPrice(int256)": {
        "params": {
          "_deltaLiquidityAmount": "difference of liquidity If LPs want LP token price of deposit, _deltaLiquidityAmount is positive number of amount to deposit. On the other hand, if LPs want LP token price of withdrawal, _deltaLiquidityAmount is negative number of amount to withdraw."
        },
        "returns": {
          "_0": "LP token price scaled by 1e6"
        }
      },
      "getMinCollateralToAddPosition(uint256,int128[2])": {
        "params": {
          "_tradeAmounts": "amounts to trade",
          "_vaultId": "The id of target vault"
        },
        "returns": {
          "minCollateral": "scaled by 1e6"
        }
      },
      "getPositionValueAndMinCollateral(uint256)": {
        "params": {
          "_vaultId": "The id of target vault"
        }
      },
      "getTokenAmountForHedging()": {
        "returns": {
          "_0": "Amount of USDC and underlying reqired for hedging"
        }
      },
      "getTradePrice(uint256,int256[2])": {
        "params": {
          "_productId": "product id",
          "_tradeAmounts": "amount of position to trade. positive to get long price and negative to get short price."
        },
        "returns": {
          "_0": "trade info"
        }
      },
      "getVaultStatus(uint256)": {
        "params": {
          "_vaultId": "The id of target vault"
        },
        "returns": {
          "_0": "vault status"
        }
      },
      "initialize(uint256,int256)": {
        "params": {
          "_depositAmount": "deposit amount",
          "_initialFundingRate": "initial funding rate"
        }
      },
      "liquidateByPool(uint256)": {
        "params": {
          "_vaultId": "The id of target vault"
        }
      },
      "owner()": {
        "details": "Returns the address of the current owner."
      },
      "renounceOwnership()": {
        "details": "Leaves the contract without owner. It will not be possible to call `onlyOwner` functions anymore. Can only be called by the current owner. NOTE: Renouncing ownership will leave the contract without an owner, thereby removing any functionality that is only available to the owner."
      },
      "setFeeRecepient(address)": {
        "params": {
          "_feeRecepient": "The address of new fee recepient"
        }
      },
      "setHedger(address)": {
        "params": {
          "_hedger": "bot address"
        }
      },
      "setMaxAmount(uint256,uint256)": {
        "params": {
          "_maxFutureAmount": "max future amount",
          "_maxSquaredAmount": "max squared amount"
        }
      },
      "trade((uint256,(uint256,uint256,int128,uint256,bytes)[],int256,uint256))": {
        "params": {
          "_tradeParams": "trade parameters"
        }
      },
      "transferOwnership(address)": {
        "details": "Transfers ownership of the contract to a new account (`newOwner`). Can only be called by the current owner."
      }
    },
    "stateVariables": {
      "LIQUIDATION_FEE": {
        "details": "liquidation fee is 20%"
      },
      "hedger": {
        "details": "hedger address"
      },
      "isSystemPaused": {
        "details": "is system paused"
      },
      "maxPositionsInVault": {
        "details": "maximum positions in a vault"
      }
    },
    "title": "Perpetual Market",
    "version": 1
  },
  "userdoc": {
    "kind": "user",
    "methods": {
      "addMargin(uint256,int256)": {
        "notice": "Add margin to the vault"
      },
      "constructor": {
        "notice": "Constructor of Perpetual Market contract"
      },
      "deposit(uint256)": {
        "notice": "Provides liquidity to the pool and mints LP tokens"
      },
      "execHedge(bool)": {
        "notice": "Executes hedging"
      },
      "getLPTokenPrice(int256)": {
        "notice": "Gets current LP token price"
      },
      "getMinCollateralToAddPosition(uint256,int128[2])": {
        "notice": "Gets value of min collateral to add positions"
      },
      "getPositionValueAndMinCollateral(uint256)": {
        "notice": "Gets position value and min collateral"
      },
      "getTokenAmountForHedging()": {
        "notice": "Gets token amount for hedging"
      },
      "getTradePrice(uint256,int256[2])": {
        "notice": "Gets trade price"
      },
      "getVaultStatus(uint256)": {
        "notice": "Gets position value of a vault"
      },
      "initialize(uint256,int256)": {
        "notice": "Initializes Perpetual Pool"
      },
      "liquidateByPool(uint256)": {
        "notice": "Liquidates a vault by Pool Anyone can liquidate a vault whose PositionValue is less than MinCollateral. The caller gets a portion of the margin as reward."
      },
      "pause()": {
        "notice": "pause the contract"
      },
      "setFeeRecepient(address)": {
        "notice": "Sets new fee recepient"
      },
      "setHedger(address)": {
        "notice": "set bot address"
      },
      "setMaxAmount(uint256,uint256)": {
        "notice": "Sets max amounts that a vault can hold"
      },
      "trade((uint256,(uint256,uint256,int128,uint256,bytes)[],int256,uint256))": {
        "notice": "Opens new positions or closes hold position of the perpetual contracts and manage margin in the vault at the same time."
      },
      "unPause()": {
        "notice": "unpause the contract"
      },
      "withdraw(uint128)": {
        "notice": "Withdraws liquidity from the pool and burn LP tokens"
      }
    },
    "notice": "Perpetual Market Contract is entry point of traders and liquidity providers. It manages traders' vault storage and holds funds from traders and liquidity providers. Error Codes PM0: tx exceed deadline PM1: limit price PM2: caller is not vault owner PM3: vault not found PM4: caller is not hedger PM5: vault limit PM6: Paused PM7: Not paused",
    "version": 1
  },
  "storageLayout": {
    "storage": [
      {
        "astId": 53,
        "contract": "src/PerpetualMarket.sol:PerpetualMarket",
        "label": "_owner",
        "offset": 0,
        "slot": "0",
        "type": "t_address"
      },
      {
        "astId": 7006,
        "contract": "src/PerpetualMarket.sol:PerpetualMarket",
        "label": "hedger",
        "offset": 0,
        "slot": "1",
        "type": "t_address"
      },
      {
        "astId": 7008,
        "contract": "src/PerpetualMarket.sol:PerpetualMarket",
        "label": "feeRecepient",
        "offset": 0,
        "slot": "2",
        "type": "t_contract(IFeePool)12794"
      },
      {
        "astId": 7013,
        "contract": "src/PerpetualMarket.sol:PerpetualMarket",
        "label": "maxPositionsInVault",
        "offset": 0,
        "slot": "3",
        "type": "t_array(t_uint256)2_storage"
      },
      {
        "astId": 7015,
        "contract": "src/PerpetualMarket.sol:PerpetualMarket",
        "label": "vaultNFT",
        "offset": 0,
        "slot": "5",
        "type": "t_address"
      },
      {
        "astId": 7019,
        "contract": "src/PerpetualMarket.sol:PerpetualMarket",
        "label": "traderVaults",
        "offset": 0,
        "slot": "6",
        "type": "t_mapping(t_uint256,t_struct(TraderVault)15136_storage)"
      },
      {
        "astId": 7022,
        "contract": "src/PerpetualMarket.sol:PerpetualMarket",
        "label": "isSystemPaused",
        "offset": 0,
        "slot": "7",
        "type": "t_bool"
      }
    ],
    "types": {
      "t_address": {
        "encoding": "inplace",
        "label": "address",
        "numberOfBytes": "20"
      },
      "t_array(t_int128)2_storage": {
        "base": "t_int128",
        "encoding": "inplace",
        "label": "int128[2]",
        "numberOfBytes": "32"
      },
      "t_array(t_int256)2_storage": {
        "base": "t_int256",
        "encoding": "inplace",
        "label": "int256[2]",
        "numberOfBytes": "64"
      },
      "t_array(t_struct(SubVault)15130_storage)dyn_storage": {
        "base": "t_struct(SubVault)15130_storage",
        "encoding": "dynamic_array",
        "label": "struct TraderVaultLib.SubVault[]",
        "numberOfBytes": "32"
      },
      "t_array(t_uint128)2_storage": {
        "base": "t_uint128",
        "encoding": "inplace",
        "label": "uint128[2]",
        "numberOfBytes": "32"
      },
      "t_array(t_uint256)2_storage": {
        "base": "t_uint256",
        "encoding": "inplace",
        "label": "uint256[2]",
        "numberOfBytes": "64"
      },
      "t_bool": {
        "encoding": "inplace",
        "label": "bool",
        "numberOfBytes": "1"
      },
      "t_contract(IFeePool)12794": {
        "encoding": "inplace",
        "label": "contract IFeePool",
        "numberOfBytes": "20"
      },
      "t_int128": {
        "encoding": "inplace",
        "label": "int128",
        "numberOfBytes": "16"
      },
      "t_int256": {
        "encoding": "inplace",
        "label": "int256",
        "numberOfBytes": "32"
      },
      "t_mapping(t_uint256,t_struct(TraderVault)15136_storage)": {
        "encoding": "mapping",
        "key": "t_uint256",
        "label": "mapping(uint256 => struct TraderVaultLib.TraderVault)",
        "numberOfBytes": "32",
        "value": "t_struct(TraderVault)15136_storage"
      },
      "t_struct(SubVault)15130_storage": {
        "encoding": "inplace",
        "label": "struct TraderVaultLib.SubVault",
        "members": [
          {
            "astId": 15121,
            "contract": "src/PerpetualMarket.sol:PerpetualMarket",
            "label": "positionPerpetuals",
            "offset": 0,
            "slot": "0",
            "type": "t_array(t_int128)2_storage"
          },
          {
            "astId": 15125,
            "contract": "src/PerpetualMarket.sol:PerpetualMarket",
            "label": "entryPrices",
            "offset": 0,
            "slot": "1",
            "type": "t_array(t_uint128)2_storage"
          },
          {
            "astId": 15129,
            "contract": "src/PerpetualMarket.sol:PerpetualMarket",
            "label": "entryFundingFee",
            "offset": 0,
            "slot": "2",
            "type": "t_array(t_int256)2_storage"
          }
        ],
        "numberOfBytes": "128"
      },
      "t_struct(TraderVault)15136_storage": {
        "encoding": "inplace",
        "label": "struct TraderVaultLib.TraderVault",
        "members": [
          {
            "astId": 15132,
            "contract": "src/PerpetualMarket.sol:PerpetualMarket",
            "label": "positionUsdc",
            "offset": 0,
            "slot": "0",
            "type": "t_int128"
          },
          {
            "astId": 15135,
            "contract": "src/PerpetualMarket.sol:PerpetualMarket",
            "label": "subVaults",
            "offset": 0,
            "slot": "1",
            "type": "t_array(t_struct(SubVault)15130_storage)dyn_storage"
          }
        ],
        "numberOfBytes": "64"
      },
      "t_uint128": {
        "encoding": "inplace",
        "label": "uint128",
        "numberOfBytes": "16"
      },
      "t_uint256": {
        "encoding": "inplace",
        "label": "uint256",
        "numberOfBytes": "32"
      }
    }
  }
}