{
  "address": "0xc29d45982B10392D6D880d2a657685c326232Ce0",
  "abi": [
    {
      "inputs": [
        {
          "internalType": "address",
          "name": "_perpetualMarketCoreAddress",
          "type": "address"
        },
        {
          "internalType": "address",
          "name": "_quoteAsset",
          "type": "address"
        },
        {
          "internalType": "address",
          "name": "_underlyingAsset",
          "type": "address"
        },
        {
          "internalType": "address",
          "name": "_feeRecepient",
          "type": "address"
        },
        {
          "internalType": "address",
          "name": "_vaultNFT",
          "type": "address"
        }
      ],
      "stateMutability": "nonpayable",
      "type": "constructor"
    },
    {
      "anonymous": false,
      "inputs": [
        {
          "indexed": true,
          "internalType": "address",
          "name": "account",
          "type": "address"
        },
        {
          "indexed": false,
          "internalType": "uint256",
          "name": "issued",
          "type": "uint256"
        },
        {
          "indexed": false,
          "internalType": "uint256",
          "name": "amount",
          "type": "uint256"
        }
      ],
      "name": "Deposited",
      "type": "event"
    },
    {
      "anonymous": false,
      "inputs": [
        {
          "indexed": true,
          "internalType": "address",
          "name": "trader",
          "type": "address"
        },
        {
          "indexed": false,
          "internalType": "uint256",
          "name": "vaultId",
          "type": "uint256"
        },
        {
          "indexed": false,
          "internalType": "uint256",
          "name": "amount",
          "type": "uint256"
        }
      ],
      "name": "DepositedToVault",
      "type": "event"
    },
    {
      "anonymous": false,
      "inputs": [
        {
          "indexed": false,
          "internalType": "address",
          "name": "hedger",
          "type": "address"
        },
        {
          "indexed": false,
          "internalType": "bool",
          "name": "isBuyingUnderlying",
          "type": "bool"
        },
        {
          "indexed": false,
          "internalType": "uint256",
          "name": "usdcAmount",
          "type": "uint256"
        },
        {
          "indexed": false,
          "internalType": "uint256",
          "name": "underlyingAmount",
          "type": "uint256"
        }
      ],
      "name": "Hedged",
      "type": "event"
    },
    {
      "anonymous": false,
      "inputs": [
        {
          "indexed": false,
          "internalType": "address",
          "name": "liquidator",
          "type": "address"
        },
        {
          "indexed": true,
          "internalType": "uint256",
          "name": "vaultId",
          "type": "uint256"
        },
        {
          "indexed": false,
          "internalType": "uint256",
          "name": "reward",
          "type": "uint256"
        }
      ],
      "name": "Liquidated",
      "type": "event"
    },
    {
      "anonymous": false,
      "inputs": [
        {
          "indexed": true,
          "internalType": "address",
          "name": "previousOwner",
          "type": "address"
        },
        {
          "indexed": true,
          "internalType": "address",
          "name": "newOwner",
          "type": "address"
        }
      ],
      "name": "OwnershipTransferred",
      "type": "event"
    },
    {
      "anonymous": false,
      "inputs": [
        {
          "indexed": true,
          "internalType": "address",
          "name": "trader",
          "type": "address"
        },
        {
          "indexed": false,
          "internalType": "uint256",
          "name": "vaultId",
          "type": "uint256"
        },
        {
          "indexed": false,
          "internalType": "uint256",
          "name": "subVaultIndex",
          "type": "uint256"
        },
        {
          "indexed": false,
          "internalType": "uint256",
          "name": "productId",
          "type": "uint256"
        },
        {
          "indexed": false,
          "internalType": "int256",
          "name": "tradeAmount",
          "type": "int256"
        },
        {
          "indexed": false,
          "internalType": "uint256",
          "name": "tradePrice",
          "type": "uint256"
        },
        {
          "indexed": false,
          "internalType": "int256",
          "name": "fundingFeePerPosition",
          "type": "int256"
        },
        {
          "indexed": false,
          "internalType": "int256",
          "name": "deltaUsdcPosition",
          "type": "int256"
        },
        {
          "indexed": false,
          "internalType": "bytes",
          "name": "metadata",
          "type": "bytes"
        }
      ],
      "name": "PositionUpdated",
      "type": "event"
    },
    {
      "anonymous": false,
      "inputs": [
        {
          "indexed": false,
          "internalType": "address",
          "name": "feeRecepient",
          "type": "address"
        }
      ],
      "name": "SetFeeRecepient",
      "type": "event"
    },
    {
      "anonymous": false,
      "inputs": [
        {
          "indexed": true,
          "internalType": "address",
          "name": "account",
          "type": "address"
        },
        {
          "indexed": false,
          "internalType": "uint256",
          "name": "burned",
          "type": "uint256"
        },
        {
          "indexed": false,
          "internalType": "uint256",
          "name": "amount",
          "type": "uint256"
        }
      ],
      "name": "Withdrawn",
      "type": "event"
    },
    {
      "anonymous": false,
      "inputs": [
        {
          "indexed": true,
          "internalType": "address",
          "name": "trader",
          "type": "address"
        },
        {
          "indexed": false,
          "internalType": "uint256",
          "name": "vaultId",
          "type": "uint256"
        },
        {
          "indexed": false,
          "internalType": "uint256",
          "name": "amount",
          "type": "uint256"
        }
      ],
      "name": "WithdrawnFromVault",
      "type": "event"
    },
    {
      "inputs": [
        {
          "internalType": "uint256",
          "name": "_vaultId",
          "type": "uint256"
        },
        {
          "internalType": "int256",
          "name": "_marginToAdd",
          "type": "int256"
        }
      ],
      "name": "addMargin",
      "outputs": [],
      "stateMutability": "nonpayable",
      "type": "function"
    },
    {
      "inputs": [
        {
          "internalType": "uint256",
          "name": "_depositAmount",
          "type": "uint256"
        }
      ],
      "name": "deposit",
      "outputs": [],
      "stateMutability": "nonpayable",
      "type": "function"
    },
    {
      "inputs": [],
      "name": "execHedge",
      "outputs": [
        {
          "internalType": "uint256",
          "name": "amountUsdc",
          "type": "uint256"
        },
        {
          "internalType": "uint256",
          "name": "amountUnderlying",
          "type": "uint256"
        }
      ],
      "stateMutability": "nonpayable",
      "type": "function"
    },
    {
      "inputs": [],
      "name": "feeRecepient",
      "outputs": [
        {
          "internalType": "contract IFeePool",
          "name": "",
          "type": "address"
        }
      ],
      "stateMutability": "view",
      "type": "function"
    },
    {
      "inputs": [
        {
          "internalType": "int256",
          "name": "_deltaLiquidityAmount",
          "type": "int256"
        }
      ],
      "name": "getLPTokenPrice",
      "outputs": [
        {
          "internalType": "uint256",
          "name": "",
          "type": "uint256"
        }
      ],
      "stateMutability": "view",
      "type": "function"
    },
    {
      "inputs": [
        {
          "internalType": "uint256",
          "name": "_vaultId",
          "type": "uint256"
        },
        {
          "internalType": "int128[2]",
          "name": "_tradeAmounts",
          "type": "int128[2]"
        }
      ],
      "name": "getMinCollateralToAddPosition",
      "outputs": [
        {
          "internalType": "int256",
          "name": "minCollateral",
          "type": "int256"
        }
      ],
      "stateMutability": "view",
      "type": "function"
    },
    {
      "inputs": [],
      "name": "getTokenAmountForHedging",
      "outputs": [
        {
          "internalType": "bool",
          "name": "",
          "type": "bool"
        },
        {
          "internalType": "uint256",
          "name": "",
          "type": "uint256"
        },
        {
          "internalType": "uint256",
          "name": "",
          "type": "uint256"
        }
      ],
      "stateMutability": "view",
      "type": "function"
    },
    {
      "inputs": [
        {
          "internalType": "uint256",
          "name": "_productId",
          "type": "uint256"
        },
        {
          "internalType": "int128",
          "name": "_tradeAmount",
          "type": "int128"
        }
      ],
      "name": "getTradePrice",
      "outputs": [
        {
          "components": [
            {
              "internalType": "int256",
              "name": "tradePrice",
              "type": "int256"
            },
            {
              "internalType": "int256",
              "name": "indexPrice",
              "type": "int256"
            },
            {
              "internalType": "int256",
              "name": "fundingRate",
              "type": "int256"
            },
            {
              "internalType": "int256",
              "name": "tradeFee",
              "type": "int256"
            },
            {
              "internalType": "int256",
              "name": "protocolFee",
              "type": "int256"
            },
            {
              "internalType": "int256",
              "name": "fundingFee",
              "type": "int256"
            },
            {
              "internalType": "uint256",
              "name": "totalValue",
              "type": "uint256"
            },
            {
              "internalType": "uint256",
              "name": "totalFee",
              "type": "uint256"
            }
          ],
          "internalType": "struct IPerpetualMarket.TradeInfo",
          "name": "",
          "type": "tuple"
        }
      ],
      "stateMutability": "view",
      "type": "function"
    },
    {
      "inputs": [
        {
          "internalType": "uint256",
          "name": "_vaultId",
          "type": "uint256"
        }
      ],
      "name": "getTraderVault",
      "outputs": [
        {
          "components": [
            {
              "internalType": "int128",
              "name": "positionUsdc",
              "type": "int128"
            },
            {
              "components": [
                {
                  "internalType": "int128[2]",
                  "name": "positionPerpetuals",
                  "type": "int128[2]"
                },
                {
                  "internalType": "uint128[2]",
                  "name": "entryPrices",
                  "type": "uint128[2]"
                },
                {
                  "internalType": "int128[2]",
                  "name": "entryFundingFee",
                  "type": "int128[2]"
                }
              ],
              "internalType": "struct TraderVaultLib.SubVault[]",
              "name": "subVaults",
              "type": "tuple[]"
            },
            {
              "internalType": "bool",
              "name": "isInsolvent",
              "type": "bool"
            }
          ],
          "internalType": "struct TraderVaultLib.TraderVault",
          "name": "",
          "type": "tuple"
        }
      ],
      "stateMutability": "view",
      "type": "function"
    },
    {
      "inputs": [
        {
          "internalType": "uint256",
          "name": "_vaultId",
          "type": "uint256"
        }
      ],
      "name": "getVaultStatus",
      "outputs": [
        {
          "components": [
            {
              "internalType": "int256",
              "name": "positionValue",
              "type": "int256"
            },
            {
              "internalType": "int256",
              "name": "minCollateral",
              "type": "int256"
            },
            {
              "internalType": "int256[2][]",
              "name": "positionValues",
              "type": "int256[2][]"
            },
            {
              "internalType": "int256[2][]",
              "name": "fundingPaid",
              "type": "int256[2][]"
            },
            {
              "components": [
                {
                  "internalType": "int128",
                  "name": "positionUsdc",
                  "type": "int128"
                },
                {
                  "components": [
                    {
                      "internalType": "int128[2]",
                      "name": "positionPerpetuals",
                      "type": "int128[2]"
                    },
                    {
                      "internalType": "uint128[2]",
                      "name": "entryPrices",
                      "type": "uint128[2]"
                    },
                    {
                      "internalType": "int128[2]",
                      "name": "entryFundingFee",
                      "type": "int128[2]"
                    }
                  ],
                  "internalType": "struct TraderVaultLib.SubVault[]",
                  "name": "subVaults",
                  "type": "tuple[]"
                },
                {
                  "internalType": "bool",
                  "name": "isInsolvent",
                  "type": "bool"
                }
              ],
              "internalType": "struct TraderVaultLib.TraderVault",
              "name": "rawVaultData",
              "type": "tuple"
            }
          ],
          "internalType": "struct IPerpetualMarket.VaultStatus",
          "name": "",
          "type": "tuple"
        }
      ],
      "stateMutability": "view",
      "type": "function"
    },
    {
      "inputs": [
        {
          "internalType": "uint256",
          "name": "_depositAmount",
          "type": "uint256"
        },
        {
          "internalType": "int256",
          "name": "_initialFundingRate",
          "type": "int256"
        }
      ],
      "name": "initialize",
      "outputs": [],
      "stateMutability": "nonpayable",
      "type": "function"
    },
    {
      "inputs": [
        {
          "internalType": "uint256",
          "name": "_vaultId",
          "type": "uint256"
        }
      ],
      "name": "liquidateByPool",
      "outputs": [],
      "stateMutability": "nonpayable",
      "type": "function"
    },
    {
      "inputs": [],
      "name": "owner",
      "outputs": [
        {
          "internalType": "address",
          "name": "",
          "type": "address"
        }
      ],
      "stateMutability": "view",
      "type": "function"
    },
    {
      "inputs": [],
      "name": "quoteAsset",
      "outputs": [
        {
          "internalType": "address",
          "name": "",
          "type": "address"
        }
      ],
      "stateMutability": "view",
      "type": "function"
    },
    {
      "inputs": [],
      "name": "renounceOwnership",
      "outputs": [],
      "stateMutability": "nonpayable",
      "type": "function"
    },
    {
      "inputs": [
        {
          "internalType": "address",
          "name": "_feeRecepient",
          "type": "address"
        }
      ],
      "name": "setFeeRecepient",
      "outputs": [],
      "stateMutability": "nonpayable",
      "type": "function"
    },
    {
      "inputs": [
        {
          "components": [
            {
              "internalType": "uint256",
              "name": "vaultId",
              "type": "uint256"
            },
            {
              "components": [
                {
                  "internalType": "uint256",
                  "name": "productId",
                  "type": "uint256"
                },
                {
                  "internalType": "uint256",
                  "name": "subVaultIndex",
                  "type": "uint256"
                },
                {
                  "internalType": "int128",
                  "name": "tradeAmount",
                  "type": "int128"
                },
                {
                  "internalType": "uint256",
                  "name": "limitPrice",
                  "type": "uint256"
                },
                {
                  "internalType": "bytes",
                  "name": "metadata",
                  "type": "bytes"
                }
              ],
              "internalType": "struct IPerpetualMarket.TradeParams[]",
              "name": "trades",
              "type": "tuple[]"
            },
            {
              "internalType": "int256",
              "name": "marginAmount",
              "type": "int256"
            },
            {
              "internalType": "uint256",
              "name": "deadline",
              "type": "uint256"
            }
          ],
          "internalType": "struct IPerpetualMarket.MultiTradeParams",
          "name": "_tradeParams",
          "type": "tuple"
        }
      ],
      "name": "trade",
      "outputs": [],
      "stateMutability": "nonpayable",
      "type": "function"
    },
    {
      "inputs": [
        {
          "internalType": "address",
          "name": "newOwner",
          "type": "address"
        }
      ],
      "name": "transferOwnership",
      "outputs": [],
      "stateMutability": "nonpayable",
      "type": "function"
    },
    {
      "inputs": [],
      "name": "underlyingAsset",
      "outputs": [
        {
          "internalType": "address",
          "name": "",
          "type": "address"
        }
      ],
      "stateMutability": "view",
      "type": "function"
    },
    {
      "inputs": [
        {
          "internalType": "uint128",
          "name": "_withdrawnAmount",
          "type": "uint128"
        }
      ],
      "name": "withdraw",
      "outputs": [],
      "stateMutability": "nonpayable",
      "type": "function"
    }
  ],
  "transactionHash": "0xe41ede772563c5fbd7fb11e48b035f964be0a9d80ffbe9648386e94f07d15b6f",
  "args": [
    "0x7f0209AAeC76fdDa476E3150ac338513C3101327",
    "0xF61Cffd6071a8DB7cD5E8DF1D3A5450D9903cF1c",
    "0xB47e6A5f8b33b3F17603C83a0535A9dcD7E32681",
    "0x9c515225EAFC6207f56a751B8a992aFC5Fd45469",
    "0x67C0B488a141B2a52554A13D8F66BE47b7A7aa3E"
  ],
  "solcInputHash": "63d119c4dca0c049815023a60c5667e0",
  "bytecode": "0x60e06040523480156200001157600080fd5b5060405162004d6c38038062004d6c83398101604081905262000034916200014c565b83836001600160a01b0382166200004a57600080fd5b6001600160a01b0381166200005e57600080fd5b6001600160601b0319606092831b8116608052911b1660a0526000620000836200012b565b600080546001600160a01b0319166001600160a01b0383169081178255604051929350917f8be0079c531659141344cd1fd0a4f28419497f9722a3daafe3b4186f6b6457e0908290a3506001600160a01b038216620000e157600080fd5b60609490941b6001600160601b03191660c052600180546001600160a01b03199081166001600160a01b039384161790915560028054909116919094161790925550620001bb9050565b3390565b80516001600160a01b03811681146200014757600080fd5b919050565b600080600080600060a0868803121562000164578081fd5b6200016f866200012f565b94506200017f602087016200012f565b93506200018f604087016200012f565b92506200019f606087016200012f565b9150620001af608087016200012f565b90509295509295909350565b60805160601c60a05160601c60c05160601c614ad16200029b600039806102e1528061036b528061045952806104cc528061053f52806105b4528061065d5280610a155280610f325280610fc552806110ea52806111a252806118dd52806119655280611b615280611c735280611dda5280611e6452806120cc52806123ab528061260b52806129f952806131e05250806106d952806107895280610ef652806110765280612ef65250806107cd5280610dc652806119f95280611bfe5280611f005280612235528061268e5280612d765280612da55250614ad16000f3fe608060405234801561001057600080fd5b506004361061012c5760003560e01c806399be545a116100ad578063d392357311610071578063d392357314610268578063dae0f6d91461027b578063eea484d81461028e578063f2fde38b146102ae578063fdf262b7146102c15761012c565b806399be545a146101fc578063a0642dfd1461020f578063b4f0332f14610222578063b6b55f2514610242578063c9d48a96146102555761012c565b8063715018a6116100f4578063715018a6146101ad5780637158da7c146101b557806373f3489e146101bd578063854ad1b7146101dd5780638da5cb5b146101f45761012c565b806302387a7b146101315780631b4707101461014657806324fe71ea1461016557806349ebb77d1461017a5780636124fa8e1461019a575b600080fd5b61014461013f36600461421c565b6102c9565b005b61014e610454565b60405161015c9291906146ba565b60405180910390f35b61016d610845565b60405161015c91906144ad565b61018d610188366004613eff565b610854565b60405161015c9190614789565b6101446101a83660046142f7565b610c6f565b610144610e36565b61016d610ef4565b6101d06101cb366004613eff565b610f18565b60405161015c9190614569565b6101e5610fbd565b60405161015c93929190614551565b61016d6110d9565b61014461020a366004613eff565b6110e8565b61014461021d3660046142f7565b611b2e565b6102356102303660046142c8565b611c61565b60405161015c919061464e565b610144610250366004613eff565b611dcb565b610144610263366004613fd9565b611f63565b610144610276366004613ead565b612760565b6101d0610289366004614238565b61283d565b6102a161029c366004613eff565b612aa7565b60405161015c91906146a7565b6101446102bc366004613ead565b612c60565b61016d612d74565b6000816001600160801b0316116102df57600080fd5b7f00000000000000000000000000000000000000000000000000000000000000006001600160a01b0316637d8c26596040518163ffffffff1660e01b8152600401600060405180830381600087803b15801561033a57600080fd5b505af115801561034e573d6000803e3d6000fd5b505060405163f3fef3a360e01b8152600092506001600160a01b037f000000000000000000000000000000000000000000000000000000000000000016915063f3fef3a3906103a690339060648702906004016144e7565b602060405180830381600087803b1580156103c057600080fd5b505af11580156103d4573d6000803e3d6000fd5b505050506040513d601f19601f820116820180604052508101906103f89190613f17565b905061040d33836001600160801b0316612d98565b336001600160a01b03167f92ccf450a286a957af52509bc1c9939d1a6a481783e142e41e2499f0bb66ebc68284604051610448929190614806565b60405180910390a25050565b6000807f00000000000000000000000000000000000000000000000000000000000000006001600160a01b0316637d8c26596040518163ffffffff1660e01b8152600401600060405180830381600087803b1580156104b257600080fd5b505af11580156104c6573d6000803e3d6000fd5b505050507f00000000000000000000000000000000000000000000000000000000000000006001600160a01b03166387c3a09a6040518163ffffffff1660e01b8152600401600060405180830381600087803b15801561052557600080fd5b505af1158015610539573d6000803e3d6000fd5b505050507f00000000000000000000000000000000000000000000000000000000000000006001600160a01b0316637d7c2a1c6040518163ffffffff1660e01b8152600401600060405180830381600087803b15801561059857600080fd5b505af11580156105ac573d6000803e3d6000fd5b5050505060007f00000000000000000000000000000000000000000000000000000000000000006001600160a01b031663854ad1b76040518163ffffffff1660e01b815260040160a06040518083038186803b15801561060b57600080fd5b505afa15801561061f573d6000803e3d6000fd5b505050506040513d601f19601f820116820180604052508101906106439190613f6e565b604051636de98dd160e11b81529091506001600160a01b037f0000000000000000000000000000000000000000000000000000000000000000169063dbd31ba290610692908490600401614613565b600060405180830381600087803b1580156106ac57600080fd5b505af11580156106c0573d6000803e3d6000fd5b50508251606492509050049250610770816020015160087f00000000000000000000000000000000000000000000000000000000000000006001600160a01b031663313ce5676040518163ffffffff1660e01b815260040160206040518083038186803b15801561073057600080fd5b505afa158015610744573d6000803e3d6000fd5b505050506040513d601f19601f820116820180604052508101906107689190614345565b60ff16612dd0565b91508060600151156107c0576107b16001600160a01b037f000000000000000000000000000000000000000000000000000000000000000016333085612e89565b6107bb3384612d98565b6107ff565b6107f56001600160a01b037f000000000000000000000000000000000000000000000000000000000000000016333086612e89565b6107ff3383612ee9565b7f97ecad77f31756d3d2f581bf1acec77dbdb445bf9b69afff2c62d02d4d2547de338260600151858560405161083894939291906144c1565b60405180910390a1509091565b6001546001600160a01b031681565b61085c613d01565b600082815260036020908152604080832081516060810183528154600f90810b810b900b81526001820180548451818702810187019095528085529194929385840193909290879084015b828210156109ee576000848152602090206040805160a0810190915290600384020181606081018260028282826020028201916000905b82829054906101000a9004600f0b600f0b81526020019060100190602082600f010492830192600103820291508084116108de575050509284525050604080518082019182905260209093019291506001840190600290826000855b82829054906101000a90046001600160801b03166001600160801b031681526020019060100190602082600f0104928301926001038202915080841161093a57505050928452505060408051808201918290526020909301929150600284810191826000855b82829054906101000a9004600f0b600f0b81526020019060100190602082600f010492830192600103820291508084116109a0579050505050505081525050815260200190600101906108a7565b505050908252506002919091015460ff161515602090910152905060006001600160a01b037f0000000000000000000000000000000000000000000000000000000000000000166382f3955d610a4384612f1d565b6040518263ffffffff1660e01b8152600401610a5f9190614543565b60e06040518083038186803b158015610a7757600080fd5b505afa158015610a8b573d6000803e3d6000fd5b505050506040513d601f19601f82011682018060405250810190610aaf919061414c565b9050600082602001515167ffffffffffffffff81118015610acf57600080fd5b50604051908082528060200260200182016040528015610b0957816020015b610af6613d35565b815260200190600190039081610aee5790505b509050600083602001515167ffffffffffffffff81118015610b2a57600080fd5b50604051908082528060200260200182016040528015610b6457816020015b610b51613d35565b815260200190600190039081610b495790505b50905060005b846020015151811015610c285760005b6002811015610c1f57610ba586602001518381518110610b9657fe5b60200260200101518287612f64565b848381518110610bb157fe5b60200260200101518260028110610bc457fe5b602002018181525050610bf386602001518381518110610be057fe5b6020026020010151828760600151612fdc565b838381518110610bff57fe5b60200260200101518260028110610c1257fe5b6020020152600101610b7a565b50600101610b6a565b506040805160a0810190915280610c3f868661302f565b8152602001610c4e8686613083565b8152602001838152602001828152602001858152509450505050505b919050565b600082118015610d055750600260009054906101000a90046001600160a01b03166001600160a01b03166361b8ce8c6040518163ffffffff1660e01b8152600401602060405180830381600087803b158015610cca57600080fd5b505af1158015610cde573d6000803e3d6000fd5b505050506040513d601f19601f82011682018060405250810190610d029190613f17565b82105b610d2a5760405162461bcd60e51b8152600401610d21906145f6565b60405180910390fd5b600082815260036020526040902073B715A51a02d551406D8508EB18b0724215C4Ea42906369e2bed090610d5f8460646130a3565b6040518363ffffffff1660e01b8152600401610d7c9291906146ba565b60006040518083038186803b158015610d9457600080fd5b505af4158015610da8573d6000803e3d6000fd5b505050506000610db78261314c565b9050610dee6001600160a01b037f000000000000000000000000000000000000000000000000000000000000000016333084612e89565b336001600160a01b03167ffc3608744ea5805574f007540fe37736bbebd81365de55991f3b17a16295521d8483604051610e299291906146ba565b60405180910390a2505050565b610e3e6131a7565b6001600160a01b0316610e4f6110d9565b6001600160a01b031614610eaa576040805162461bcd60e51b815260206004820181905260248201527f4f776e61626c653a2063616c6c6572206973206e6f7420746865206f776e6572604482015290519081900360640190fd5b600080546040516001600160a01b03909116907f8be0079c531659141344cd1fd0a4f28419497f9722a3daafe3b4186f6b6457e0908390a3600080546001600160a01b0319169055565b7f000000000000000000000000000000000000000000000000000000000000000081565b6040516339f9a44f60e11b81526000906001600160a01b037f000000000000000000000000000000000000000000000000000000000000000016906373f3489e90610f67908590600401614569565b60206040518083038186803b158015610f7f57600080fd5b505afa158015610f93573d6000803e3d6000fd5b505050506040513d601f19601f82011682018060405250810190610fb79190613f17565b92915050565b6000806000807f00000000000000000000000000000000000000000000000000000000000000006001600160a01b031663854ad1b76040518163ffffffff1660e01b815260040160a06040518083038186803b15801561101c57600080fd5b505afa158015611030573d6000803e3d6000fd5b505050506040513d601f19601f820116820180604052508101906110549190613f6e565b90508060600151606482600001518161106957fe5b046110cd836020015160087f00000000000000000000000000000000000000000000000000000000000000006001600160a01b031663313ce5676040518163ffffffff1660e01b815260040160206040518083038186803b15801561073057600080fd5b93509350935050909192565b6000546001600160a01b031690565b7f00000000000000000000000000000000000000000000000000000000000000006001600160a01b0316637d8c26596040518163ffffffff1660e01b8152600401600060405180830381600087803b15801561114357600080fd5b505af1158015611157573d6000803e3d6000fd5b505050600082815260036020908152604080832081516060810183528154600f90810b810b900b81526001820180548451818702810187019095528085529296506001600160a01b037f000000000000000000000000000000000000000000000000000000000000000016946382f3955d94611340948993858401939091908a9084015b82821015611322576000848152602090206040805160a0810190915290600384020181606081018260028282826020028201916000905b82829054906101000a9004600f0b600f0b81526020019060100190602082600f01049283019260010382029150808411611212575050509284525050604080518082019182905260209093019291506001840190600290826000855b82829054906101000a90046001600160801b03166001600160801b031681526020019060100190602082600f0104928301926001038202915080841161126e57505050928452505060408051808201918290526020909301929150600284810191826000855b82829054906101000a9004600f0b600f0b81526020019060100190602082600f010492830192600103820291508084116112d4579050505050505081525050815260200190600101906111db565b505050908252506002919091015460ff161515602090910152612f1d565b6040518263ffffffff1660e01b815260040161135c9190614543565b60e06040518083038186803b15801561137457600080fd5b505afa158015611388573d6000803e3d6000fd5b505050506040513d601f19601f820116820180604052508101906113ac919061414c565b604080516060810182528454600f90810b810b900b81526001850180548351602082810282018101909552818152949550611557948694889381860193909160009084015b82821015611538576000848152602090206040805160a0810190915290600384020181606081018260028282826020028201916000905b82829054906101000a9004600f0b600f0b81526020019060100190602082600f01049283019260010382029150808411611428575050509284525050604080518082019182905260209093019291506001840190600290826000855b82829054906101000a90046001600160801b03166001600160801b031681526020019060100190602082600f0104928301926001038202915080841161148457505050928452505060408051808201918290526020909301929150600284810191826000855b82829054906101000a9004600f0b600f0b81526020019060100190602082600f010492830192600103820291508084116114ea579050505050505081525050815260200190600101906113f1565b505050908252506002919091015460ff161515602090910152906131ab565b6115735760405162461bcd60e51b8152600401610d21906145ac565b600061172d82846040518060600160405290816000820160009054906101000a9004600f0b600f0b600f0b815260200160018201805480602002602001604051908101604052809291908181526020016000905b8282101561170e576000848152602090206040805160a0810190915290600384020181606081018260028282826020028201916000905b82829054906101000a9004600f0b600f0b81526020019060100190602082600f010492830192600103820291508084116115fe575050509284525050604080518082019182905260209093019291506001840190600290826000855b82829054906101000a90046001600160801b03166001600160801b031681526020019060100190602082600f0104928301926001038202915080841161165a57505050928452505060408051808201918290526020909301929150600284810191826000855b82829054906101000a9004600f0b600f0b81526020019060100190602082600f010492830192600103820291508084116116c0579050505050505081525050815260200190600101906115c7565b505050908252506002919091015460ff16151560209091015290613083565b90506000805b60018501548110156117d35760005b60028110156117ca57600086600101838154811061175c57fe5b9060005260206000209060030201600001826002811061177857fe5b600291828204019190066010029054906101000a9004600f0b90506117bf6117b888848b87866000036000604051806020016040528060008152506131cc565b85906133b5565b935050600101611742565b50600101611733565b50604051630de022c160e11b815273B715A51a02d551406D8508EB18b0724215C4Ea4290631bc045829061180b908790600401614569565b60006040518083038186803b15801561182357600080fd5b505af4158015611837573d6000803e3d6000fd5b505060405163652aa48360e01b81526000925073B715A51a02d551406D8508EB18b0724215C4Ea42915063652aa4839061187b90889087906107d0906004016146c8565b60206040518083038186803b15801561189357600080fd5b505af41580156118a7573d6000803e3d6000fd5b505050506040513d601f19601f820116820180604052508101906118cb9190613f17565b6040516328e32c8560e11b81529091507f00000000000000000000000000000000000000000000000000000000000000006001600160a01b0316906351c6590a9061191d906002850490600401614569565b600060405180830381600087803b15801561193757600080fd5b505af115801561194b573d6000803e3d6000fd5b505050506119633360c8838161195d57fe5b04612d98565b7f00000000000000000000000000000000000000000000000000000000000000006001600160a01b03166387c3a09a6040518163ffffffff1660e01b8152600401600060405180830381600087803b1580156119be57600080fd5b505af11580156119d2573d6000803e3d6000fd5b505050506000821115611aec5760015460405163095ea7b360e01b81526001600160a01b037f000000000000000000000000000000000000000000000000000000000000000081169263095ea7b392611a349291909116908690600401614509565b602060405180830381600087803b158015611a4e57600080fd5b505af1158015611a62573d6000803e3d6000fd5b505050506040513d601f19601f82011682018060405250810190611a869190613ee5565b506001546040516301acfa2360e51b81526001600160a01b039091169063359f446090611ab99030908690600401614509565b600060405180830381600087803b158015611ad357600080fd5b505af1158015611ae7573d6000803e3d6000fd5b505050505b857f09c223cfcd8c93e245f558f5f8de755fc0930fd9bc257441155ef5d54a170e0f3383604051611b1e929190614509565b60405180910390a2505050505050565b600082118015611b3e5750600081135b611b4757600080fd5b60405163e7dc45d360e01b81526000906001600160a01b037f0000000000000000000000000000000000000000000000000000000000000000169063e7dc45d390611b9d90339060648802908790600401614522565b602060405180830381600087803b158015611bb757600080fd5b505af1158015611bcb573d6000803e3d6000fd5b505050506040513d601f19601f82011682018060405250810190611bef9190613f17565b9050611c266001600160a01b037f000000000000000000000000000000000000000000000000000000000000000016333086612e89565b336001600160a01b03167f73a19dd210f1a7f902193214c0ee91dd35ee5b4d920cba8d519eca65a7b488ca8285604051610e299291906146ba565b611c69613d53565b60008060008060007f00000000000000000000000000000000000000000000000000000000000000006001600160a01b031663b4f0332f89896040518363ffffffff1660e01b8152600401611cbf9291906147f5565b60a06040518083038186803b158015611cd757600080fd5b505afa158015611ceb573d6000803e3d6000fd5b505050506040513d601f19601f82011682018060405250810190611d0f9190613f2f565b94509450945094509450604051806101000160405280868152602001858152602001848152602001838152602001828152602001611d67662386f26fc10000611d6187896130a390919063ffffffff16565b9061340f565b8152602001611d986305f5e100611d92611d838c600f0b6134c7565b611d8c8b61314c565b906134da565b90613533565b8152602001611dbd6305f5e100611d92611db48c600f0b6134c7565b611d8c8861314c565b905298975050505050505050565b60008111611dd857600080fd5b7f00000000000000000000000000000000000000000000000000000000000000006001600160a01b0316637d8c26596040518163ffffffff1660e01b8152600401600060405180830381600087803b158015611e3357600080fd5b505af1158015611e47573d6000803e3d6000fd5b50506040516311f9fbc960e21b8152600092506001600160a01b037f00000000000000000000000000000000000000000000000000000000000000001691506347e7ef2490611e9f9033906064870290600401614509565b602060405180830381600087803b158015611eb957600080fd5b505af1158015611ecd573d6000803e3d6000fd5b505050506040513d601f19601f82011682018060405250810190611ef19190613f17565b9050611f286001600160a01b037f000000000000000000000000000000000000000000000000000000000000000016333085612e89565b336001600160a01b03167f73a19dd210f1a7f902193214c0ee91dd35ee5b4d920cba8d519eca65a7b488ca82846040516104489291906146ba565b60608101511580611f78575043816060015110155b611f945760405162461bcd60e51b8152600401610d219061458f565b8051612023576002546040516354ba0f2760e01b81526001600160a01b03909116906354ba0f2790611fca9033906004016144ad565b602060405180830381600087803b158015611fe457600080fd5b505af1158015611ff8573d6000803e3d6000fd5b505050506040513d601f19601f8201168201806040525081019061201c9190613f17565b81526120ca565b60025481516040516331a9108f60e11b815233926001600160a01b031691636352211e916120549190600401614569565b60206040518083038186803b15801561206c57600080fd5b505afa158015612080573d6000803e3d6000fd5b505050506040513d601f19601f820116820180604052508101906120a49190613ec9565b6001600160a01b0316146120ca5760405162461bcd60e51b8152600401610d2190614572565b7f00000000000000000000000000000000000000000000000000000000000000006001600160a01b0316637d8c26596040518163ffffffff1660e01b8152600401600060405180830381600087803b15801561212557600080fd5b505af1158015612139573d6000803e3d6000fd5b5060009250829150505b8260200151518110156122145761220a61220360036000866000015181526020019081526020016000208560200151848151811061217d57fe5b60200260200101516000015186600001518760200151868151811061219e57fe5b602002602001015160200151886020015187815181106121ba57fe5b602002602001015160400151896020015188815181106121d657fe5b6020026020010151606001518a6020015189815181106121f257fe5b6020026020010151608001516131cc565b83906133b5565b9150600101612143565b5080156123285760015460405163095ea7b360e01b81526001600160a01b037f000000000000000000000000000000000000000000000000000000000000000081169263095ea7b3926122709291909116908590600401614509565b602060405180830381600087803b15801561228a57600080fd5b505af115801561229e573d6000803e3d6000fd5b505050506040513d601f19601f820116820180604052508101906122c29190613ee5565b506001546040516301acfa2360e51b81526001600160a01b039091169063359f4460906122f59030908590600401614509565b600060405180830381600087803b15801561230f57600080fd5b505af1158015612323573d6000803e3d6000fd5b505050505b81516000908152600360205260408082209084015173B715A51a02d551406D8508EB18b0724215C4Ea429163e69e266d916123649060646130a3565b8651600090815260036020908152604080832081516060810183528154600f90810b810b900b81526001820180548451818702810187019095528085526001600160a01b037f000000000000000000000000000000000000000000000000000000000000000016966382f3955d9661252d969495948682019490939092909184015b82821015611322576000848152602090206040805160a0810190915290600384020181606081018260028282826020028201916000905b82829054906101000a9004600f0b600f0b81526020019060100190602082600f0104928301926001038202915080841161241d575050509284525050604080518082019182905260209093019291506001840190600290826000855b82829054906101000a90046001600160801b03166001600160801b031681526020019060100190602082600f0104928301926001038202915080841161247957505050928452505060408051808201918290526020909301929150600284810191826000855b82829054906101000a9004600f0b600f0b81526020019060100190602082600f010492830192600103820291508084116124df579050505050505081525050815260200190600101906123e6565b6040518263ffffffff1660e01b81526004016125499190614543565b60e06040518083038186803b15801561256157600080fd5b505afa158015612575573d6000803e3d6000fd5b505050506040513d601f19601f82011682018060405250810190612599919061414c565b6040518463ffffffff1660e01b81526004016125b7939291906146de565b60206040518083038186803b1580156125cf57600080fd5b505af41580156125e3573d6000803e3d6000fd5b505050506040513d601f19601f820116820180604052508101906126079190613f17565b90507f00000000000000000000000000000000000000000000000000000000000000006001600160a01b03166387c3a09a6040518163ffffffff1660e01b8152600401600060405180830381600087803b15801561266457600080fd5b505af1158015612678573d6000803e3d6000fd5b50505050600081131561270157606481056126be7f00000000000000000000000000000000000000000000000000000000000000006001600160a01b0316333084612e89565b835160405133917ffc3608744ea5805574f007540fe37736bbebd81365de55991f3b17a16295521d916126f3919085906146ba565b60405180910390a25061275b565b600081121561275b57606460008290030461271c3382612d98565b835160405133917f41d0e87fb7cc3fb87474e510116fbe22a7658539f639b5de6d9c0bdae606d3eb91612751919085906146ba565b60405180910390a2505b505050565b6127686131a7565b6001600160a01b03166127796110d9565b6001600160a01b0316146127d4576040805162461bcd60e51b815260206004820181905260248201527f4f776e61626c653a2063616c6c6572206973206e6f7420746865206f776e6572604482015290519081900360640190fd5b6001600160a01b0381166127e757600080fd5b600180546001600160a01b0319166001600160a01b0383161790556040517fa10652b59c38f986e02273779b46014194b54d90e963da79e87af931cf6a4848906128329083906144ad565b60405180910390a150565b600082815260036020908152604080832081516060810183528154600f90810b810b900b8152600182018054845181870281018701909552808552869592948584019390929190879084015b828210156129d0576000848152602090206040805160a0810190915290600384020181606081018260028282826020028201916000905b82829054906101000a9004600f0b600f0b81526020019060100190602082600f010492830192600103820291508084116128c0575050509284525050604080518082019182905260209093019291506001840190600290826000855b82829054906101000a90046001600160801b03166001600160801b031681526020019060100190602082600f0104928301926001038202915080841161291c57505050928452505060408051808201918290526020909301929150600284810191826000855b82829054906101000a9004600f0b600f0b81526020019060100190602082600f0104928301926001038202915080841161298257905050505050508152505081526020019060010190612889565b505050908252506002919091015460ff1615156020909101529050612a9b836001600160a01b037f0000000000000000000000000000000000000000000000000000000000000000166382f3955d612a2785612f1d565b6040518263ffffffff1660e01b8152600401612a439190614543565b60e06040518083038186803b158015612a5b57600080fd5b505afa158015612a6f573d6000803e3d6000fd5b505050506040513d601f19601f82011682018060405250810190612a93919061414c565b83919061359a565b60649005949350505050565b612aaf613d98565b600082815260036020908152604080832081516060810183528154600f90810b810b900b81526001820180548451818702810187019095528085529195929486810194939192919084015b82821015612c41576000848152602090206040805160a0810190915290600384020181606081018260028282826020028201916000905b82829054906101000a9004600f0b600f0b81526020019060100190602082600f01049283019260010382029150808411612b31575050509284525050604080518082019182905260209093019291506001840190600290826000855b82829054906101000a90046001600160801b03166001600160801b031681526020019060100190602082600f01049283019260010382029150808411612b8d57505050928452505060408051808201918290526020909301929150600284810191826000855b82829054906101000a9004600f0b600f0b81526020019060100190602082600f01049283019260010382029150808411612bf357905050505050508152505081526020019060010190612afa565b505050908252506002919091015460ff16151560209091015292915050565b612c686131a7565b6001600160a01b0316612c796110d9565b6001600160a01b031614612cd4576040805162461bcd60e51b815260206004820181905260248201527f4f776e61626c653a2063616c6c6572206973206e6f7420746865206f776e6572604482015290519081900360640190fd5b6001600160a01b038116612d195760405162461bcd60e51b81526004018080602001828103825260268152602001806149296026913960400191505060405180910390fd5b600080546040516001600160a01b03808516939216917f8be0079c531659141344cd1fd0a4f28419497f9722a3daafe3b4186f6b6457e091a3600080546001600160a01b0319166001600160a01b0392909216919091179055565b7f000000000000000000000000000000000000000000000000000000000000000081565b612dcc6001600160a01b037f0000000000000000000000000000000000000000000000000000000000000000168383613624565b5050565b600081831115612e2c57604682840310612e16576040805162461bcd60e51b8152602060048201526002602482015261269960f11b604482015290519081900360640190fd5b612e2584838503600a0a613533565b9050612e82565b81831015612e7f57604683830310612e70576040805162461bcd60e51b8152602060048201526002602482015261269960f11b604482015290519081900360640190fd5b612e2584848403600a0a6134da565b50825b9392505050565b604080516001600160a01b0380861660248301528416604482015260648082018490528251808303909101815260849091019091526020810180516001600160e01b03166323b872dd60e01b179052612ee3908590613672565b50505050565b612dcc6001600160a01b037f0000000000000000000000000000000000000000000000000000000000000000168383613624565b612f25613d35565b60005b6002811015612f5e57612f3b8382613723565b828260028110612f4757fe5b600f92830b90920b60209092020152600101612f28565b50919050565b600080612fcc85600001518560028110612f7a57fe5b6020020151600f0b612fc6612fab88602001518860028110612f9857fe5b60200201516001600160801b0316613784565b86602001518860028110612fbb57fe5b6020020151906137c8565b906130a3565b6305f5e100900595945050505050565b600080612fcc85600001518560028110612ff257fe5b6020020151600f0b612fc685876002811061300957fe5b6020020151600f0b8860400151886002811061302157fe5b6020020151600f0b906137c8565b8151600090600f0b815b84602001515181101561307b5761307161306a8660200151838151811061305c57fe5b60200260200101518661382d565b839061384c565b9150600101613039565b509392505050565b60008061308f84612f1d565b905061309b81846138b1565b949350505050565b6000826130b257506000610fb7565b826000191480156130c65750600160ff1b82145b156131025760405162461bcd60e51b81526004018080602001828103825260278152602001806149ff6027913960400191505060405180910390fd5b8282028284828161310f57fe5b0514612e825760405162461bcd60e51b81526004018080602001828103825260278152602001806149ff6027913960400191505060405180910390fd5b6000808212156131a3576040805162461bcd60e51b815260206004820181905260248201527f53616665436173743a2076616c7565206d75737420626520706f736974697665604482015290519081900360640190fd5b5090565b3390565b6000806131b8848461302f565b90506131c48484613083565b139392505050565b600083600f0b6000146133a65760008060007f00000000000000000000000000000000000000000000000000000000000000006001600160a01b0316633ed7e33c8b896040518363ffffffff1660e01b815260040161322c9291906147f5565b606060405180830381600087803b15801561324657600080fd5b505af115801561325a573d6000803e3d6000fd5b505050506040513d601f19601f8201168201806040525081019061327e9190614318565b925092509250613295600088600f0b138488613a20565b6132b15760405162461bcd60e51b8152600401610d21906145d9565b60008b73B715A51a02d551406D8508EB18b0724215C4Ea4263a8ffb3b990918b8e8c89896040518763ffffffff1660e01b81526004016132f69695949392919061475e565b60206040518083038186803b15801561330e57600080fd5b505af4158015613322573d6000803e3d6000fd5b505050506040513d601f19601f820116820180604052508101906133469190613f17565b9050336001600160a01b03167fbfb264ae14733b7c7f6701d57d6a0dbaf244d34bf5912958835dccf887b4beea8b8b8e8c8989888e60405161338f98979695949392919061481d565b60405180910390a2606482049450505050506133aa565b5060005b979650505050505050565b600082820183811015612e82576040805162461bcd60e51b815260206004820152601b60248201527f536166654d6174683a206164646974696f6e206f766572666c6f770000000000604482015290519081900360640190fd5b600081613463576040805162461bcd60e51b815260206004820181905260248201527f5369676e6564536166654d6174683a206469766973696f6e206279207a65726f604482015290519081900360640190fd5b816000191480156134775750600160ff1b83145b156134b35760405162461bcd60e51b81526004018080602001828103825260218152602001806149bd6021913960400191505060405180910390fd5b60008284816134be57fe5b05949350505050565b6000808212156131a35781600003610fb7565b6000826134e957506000610fb7565b828202828482816134f657fe5b0414612e825760405162461bcd60e51b81526004018080602001828103825260218152602001806149de6021913960400191505060405180910390fd5b6000808211613589576040805162461bcd60e51b815260206004820152601a60248201527f536166654d6174683a206469766973696f6e206279207a65726f000000000000604482015290519081900360640190fd5b81838161359257fe5b049392505050565b6000806135a685612f1d565b905060005b6002811015613610576135ed6135e88683600281106135c657fe5b6020020151600f0b8484600281106135da57fe5b6020020151600f0b9061384c565b613a49565b8282600281106135f957fe5b600f92830b90920b602090920201526001016135ab565b5061361b81846138b1565b95945050505050565b604080516001600160a01b038416602482015260448082018490528251808303909101815260649091019091526020810180516001600160e01b031663a9059cbb60e01b17905261275b9084905b60006136c7826040518060400160405280602081526020017f5361666545524332303a206c6f772d6c6576656c2063616c6c206661696c6564815250856001600160a01b0316613aaa9092919063ffffffff16565b80519091501561275b578080602001905160208110156136e657600080fd5b505161275b5760405162461bcd60e51b815260040180806020018281038252602a815260200180614a72602a913960400191505060405180910390fd5b6000805b83602001515181101561377d576137736135e88560200151838151811061374a57fe5b602002602001015160000151856002811061376157fe5b6020020151600f85810b91900b61384c565b9150600101613727565b5092915050565b6000600160ff1b82106131a35760405162461bcd60e51b8152600401808060200182810382526028815260200180614a266028913960400191505060405180910390fd5b60008183038183128015906137dd5750838113155b806137f257506000831280156137f257508381135b612e825760405162461bcd60e51b8152600401808060200182810382526024815260200180614a4e6024913960400191505060405180910390fd5b6000612e82613840848460600151613ab9565b61384a8585613ae0565b905b60008282018183128015906138615750838112155b80613876575060008312801561387657508381125b612e825760405162461bcd60e51b81526004018080602001828103825260218152602001806149766021913960400191505060405180910390fd5b6000806138f76305f5e100611d616138e6662386f26fc1000087604001516001600281106138db57fe5b60200201519061384c565b86516001600160801b0316906130a3565b9050600061396261395d613936662386f26fc10000611d6161392b662386f26fc100008a604001516000600281106138db57fe5b8a51600f0b906130a3565b61384a68056bc75e2d63100000611d616002612fc68c600160200201518a90600f0b6130a3565b6134c7565b905061399c61399561395d69d3c21bcecceda1000000611d618960016020020151600f0b612fc66002816101f48b6130a3565b82906133b5565b9050600064e8d4a510006139cc83611d8c88600001516001600160801b03166101f46134da90919063ffffffff16565b816139d357fe5b87519190049150600f0b1515806139f057506020860151600f0b15155b8015613a005750640ba43b740081105b15613a0d5750640ba43b74005b613a1681613784565b9695505050505050565b600081613a2f57506001612e82565b8315613a3f575080821115612e82565b5080821015612e82565b60006f7fffffffffffffffffffffffffffffff198212158015613a6f57506001607f1b82125b6131a35760405162461bcd60e51b815260040180806020018281038252602781526020018061494f6027913960400191505060405180910390fd5b606061309b8484600085613b07565b60008060005b600281101561307b57613ad661306a868387612fdc565b9150600101613abf565b60008060005b600281101561307b57613afd61306a868387612f64565b9150600101613ae6565b606082471015613b485760405162461bcd60e51b81526004018080602001828103825260268152602001806149976026913960400191505060405180910390fd5b613b5185613c57565b613ba2576040805162461bcd60e51b815260206004820152601d60248201527f416464726573733a2063616c6c20746f206e6f6e2d636f6e7472616374000000604482015290519081900360640190fd5b600080866001600160a01b031685876040518082805190602001908083835b60208310613be05780518252601f199092019160209182019101613bc1565b6001836020036101000a03801982511681845116808217855250505050505090500191505060006040518083038185875af1925050503d8060008114613c42576040519150601f19603f3d011682016040523d82523d6000602084013e613c47565b606091505b50915091506133aa828286613c5d565b3b151590565b60608315613c6c575081612e82565b825115613c7c5782518084602001fd5b8160405162461bcd60e51b81526004018080602001828103825283818151815260200191508051906020019080838360005b83811015613cc6578181015183820152602001613cae565b50505050905090810190601f168015613cf35780820380516001836020036101000a031916815260200191505b509250505060405180910390fd5b6040518060a0016040528060008152602001600081526020016060815260200160608152602001613d30613d98565b905290565b60405180604001604052806002906020820280368337509192915050565b60405180610100016040528060008152602001600081526020016000815260200160008152602001600081526020016000815260200160008152602001600081525090565b60405180606001604052806000600f0b8152602001606081526020016000151581525090565b600082601f830112613dce578081fd5b6040516040810181811067ffffffffffffffff82111715613deb57fe5b8060405250808385604086011115613e01578384fd5b835b6002811015613e22578151835260209283019290910190600101613e03565b509195945050505050565b80518015158114610c6a57600080fd5b600082601f830112613e4d578081fd5b813567ffffffffffffffff811115613e6157fe5b613e74601f8201601f19166020016148ad565b818152846020838601011115613e88578283fd5b816020850160208301379081016020019190915292915050565b8035610c6a81614904565b600060208284031215613ebe578081fd5b8135612e82816148ec565b600060208284031215613eda578081fd5b8151612e82816148ec565b600060208284031215613ef6578081fd5b612e8282613e2d565b600060208284031215613f10578081fd5b5035919050565b600060208284031215613f28578081fd5b5051919050565b600080600080600060a08688031215613f46578081fd5b5050835160208501516040860151606087015160809097015192989197509594509092509050565b600060a08284031215613f7f578081fd5b6040516080810181811067ffffffffffffffff82111715613f9c57fe5b80604052508251815260208301516020820152613fbc8460408501613dbe565b6040820152613fcd60808401613e2d565b60608201529392505050565b60006020808385031215613feb578182fd5b67ffffffffffffffff8084351115614001578283fd5b8335840160808187031215614014578384fd5b604051806080820110836080830111171561402b57fe5b608081016040528135815282848301351115614045578485fd5b83820135820187601f820112614059578586fd5b838135111561406457fe5b6140728586833502016148ad565b8135815285810190868301885b8435811015614121578135850160a0818e03601f1901121561409f578a8bfd5b6040518060a08201108a60a083011117156140b657fe5b60a081016040528a820135815260408201358b8201526140d860608301613ea2565b6040820152608082013560608201528960a083013511156140f7578b8cfd5b6141098e8c60a0850135850101613e3d565b6080820152855250928801929088019060010161407f565b5050808785015250505060408201356040820152606082013560608201528094505050505092915050565b600060e0828403121561415d578081fd5b6040516080810181811067ffffffffffffffff8211171561417a57fe5b604052825161418881614913565b8152602061419885858301613dbe565b818301526141a98560608601613dbe565b60408301528460bf8501126141bc578283fd5b60026141cf6141ca826148d1565b6148ad565b8060a087018860e0890111156141e3578687fd5b865b8481101561420a5781516141f881614904565b845292850192908501906001016141e5565b50506060850152509195945050505050565b60006020828403121561422d578081fd5b8135612e8281614913565b6000806060838503121561424a578182fd5b82359150602084603f85011261425e578182fd5b6040516040810181811067ffffffffffffffff8211171561427b57fe5b6040528085830160608701881015614291578485fd5b845b60028110156142b95781356142a781614904565b83529184019190840190600101614293565b50505080925050509250929050565b600080604083850312156142da578182fd5b8235915060208301356142ec81614904565b809150509250929050565b60008060408385031215614309578182fd5b50508035926020909101359150565b60008060006060848603121561432c578081fd5b8351925060208401519150604084015190509250925092565b600060208284031215614356578081fd5b815160ff81168114612e82578182fd5b6000815180845260208085019450808401835b8381101561439f5761438c8783516143d0565b6040969096019590820190600101614379565b509495945050505050565b8060005b6002811015612ee3578151600f0b8452602093840193909101906001016143ae565b8060005b6002811015612ee35781518452602093840193909101906001016143d4565b15159052565b6000606083018251600f0b84526020808401516060828701528281518085526080945084880191508383019250855b8181101561449757835161443d8482516143aa565b8581015160408086018a5b600281101561446e5783516001600160801b031682529289019290890190600101614448565b505091909101519050614483848801826143aa565b509284019260c09290920191600101614428565b505060408601519350613a1660408801856143f3565b6001600160a01b0391909116815260200190565b6001600160a01b0394909416845291151560208401526040830152606082015260800190565b6001600160a01b039290921682526001600160801b0316602082015260400190565b6001600160a01b03929092168252602082015260400190565b6001600160a01b039390931683526020830191909152604082015260600190565b60408101610fb782846143aa565b92151583526020830191909152604082015260600190565b90815260200190565b60208082526003908201526228269960e91b604082015260600190565b6020808252600390820152620504d360ec1b604082015260600190565b6020808252601390820152723b30bab63a1034b9903737ba103230b733b2b960691b604082015260600190565b602080825260039082015262504d3160e81b604082015260600190565b602080825260039082015262504d3360e81b604082015260600190565b600060a0820190508251825260208301516020830152604083015161463b60408401826143d0565b5060608301511515608083015292915050565b600061010082019050825182526020830151602083015260408301516040830152606083015160608301526080830151608083015260a083015160a083015260c083015160c083015260e083015160e083015292915050565b600060208252612e8260208301846143f9565b918252602082015260400190565b9283526020830191909152604082015260600190565b600061012082019050848252602084818401526001600160801b0384511660408401528084015161471260608501826143d0565b50604084015161472560a08501826143d0565b50606084015160e0840160005b6002811015614752578251600f0b82529183019190830190600101614732565b50505050949350505050565b95865260208601949094526040850192909252600f0b6060840152608083015260a082015260c00190565b6000602082528251602083015260208301516040830152604083015160a060608401526147b960c0840182614366565b90506060840151601f19808584030160808601526147d78383614366565b925060808601519150808584030160a08601525061361b82826143f9565b918252600f0b602082015260400190565b9182526001600160801b0316602082015260400190565b60006101008a835260208a8185015289604085015288600f0b60608501528760808501528660a08501528560c08501528160e0850152845180838601528392505b8083101561487d5785830182015185840161012001529181019161485e565b8083111561488f578361012082870101525b601f01601f191693909301610120019b9a5050505050505050505050565b60405181810167ffffffffffffffff811182821017156148c957fe5b604052919050565b600067ffffffffffffffff8211156148e557fe5b5060200290565b6001600160a01b038116811461490157600080fd5b50565b80600f0b811461490157600080fd5b6001600160801b038116811461490157600080fdfe4f776e61626c653a206e6577206f776e657220697320746865207a65726f206164647265737353616665436173743a2076616c756520646f65736e27742066697420696e2031323820626974735369676e6564536166654d6174683a206164646974696f6e206f766572666c6f77416464726573733a20696e73756666696369656e742062616c616e636520666f722063616c6c5369676e6564536166654d6174683a206469766973696f6e206f766572666c6f77536166654d6174683a206d756c7469706c69636174696f6e206f766572666c6f775369676e6564536166654d6174683a206d756c7469706c69636174696f6e206f766572666c6f7753616665436173743a2076616c756520646f65736e27742066697420696e20616e20696e743235365369676e6564536166654d6174683a207375627472616374696f6e206f766572666c6f775361666545524332303a204552433230206f7065726174696f6e20646964206e6f742073756363656564a264697066735822122028ac4fd29a180511ba8e557fa62b3facf9fc01b977cb13b03709c9f793ccd7f864736f6c63430007060033",
  "deployedBytecode": "0x608060405234801561001057600080fd5b506004361061012c5760003560e01c806399be545a116100ad578063d392357311610071578063d392357314610268578063dae0f6d91461027b578063eea484d81461028e578063f2fde38b146102ae578063fdf262b7146102c15761012c565b806399be545a146101fc578063a0642dfd1461020f578063b4f0332f14610222578063b6b55f2514610242578063c9d48a96146102555761012c565b8063715018a6116100f4578063715018a6146101ad5780637158da7c146101b557806373f3489e146101bd578063854ad1b7146101dd5780638da5cb5b146101f45761012c565b806302387a7b146101315780631b4707101461014657806324fe71ea1461016557806349ebb77d1461017a5780636124fa8e1461019a575b600080fd5b61014461013f36600461421c565b6102c9565b005b61014e610454565b60405161015c9291906146ba565b60405180910390f35b61016d610845565b60405161015c91906144ad565b61018d610188366004613eff565b610854565b60405161015c9190614789565b6101446101a83660046142f7565b610c6f565b610144610e36565b61016d610ef4565b6101d06101cb366004613eff565b610f18565b60405161015c9190614569565b6101e5610fbd565b60405161015c93929190614551565b61016d6110d9565b61014461020a366004613eff565b6110e8565b61014461021d3660046142f7565b611b2e565b6102356102303660046142c8565b611c61565b60405161015c919061464e565b610144610250366004613eff565b611dcb565b610144610263366004613fd9565b611f63565b610144610276366004613ead565b612760565b6101d0610289366004614238565b61283d565b6102a161029c366004613eff565b612aa7565b60405161015c91906146a7565b6101446102bc366004613ead565b612c60565b61016d612d74565b6000816001600160801b0316116102df57600080fd5b7f00000000000000000000000000000000000000000000000000000000000000006001600160a01b0316637d8c26596040518163ffffffff1660e01b8152600401600060405180830381600087803b15801561033a57600080fd5b505af115801561034e573d6000803e3d6000fd5b505060405163f3fef3a360e01b8152600092506001600160a01b037f000000000000000000000000000000000000000000000000000000000000000016915063f3fef3a3906103a690339060648702906004016144e7565b602060405180830381600087803b1580156103c057600080fd5b505af11580156103d4573d6000803e3d6000fd5b505050506040513d601f19601f820116820180604052508101906103f89190613f17565b905061040d33836001600160801b0316612d98565b336001600160a01b03167f92ccf450a286a957af52509bc1c9939d1a6a481783e142e41e2499f0bb66ebc68284604051610448929190614806565b60405180910390a25050565b6000807f00000000000000000000000000000000000000000000000000000000000000006001600160a01b0316637d8c26596040518163ffffffff1660e01b8152600401600060405180830381600087803b1580156104b257600080fd5b505af11580156104c6573d6000803e3d6000fd5b505050507f00000000000000000000000000000000000000000000000000000000000000006001600160a01b03166387c3a09a6040518163ffffffff1660e01b8152600401600060405180830381600087803b15801561052557600080fd5b505af1158015610539573d6000803e3d6000fd5b505050507f00000000000000000000000000000000000000000000000000000000000000006001600160a01b0316637d7c2a1c6040518163ffffffff1660e01b8152600401600060405180830381600087803b15801561059857600080fd5b505af11580156105ac573d6000803e3d6000fd5b5050505060007f00000000000000000000000000000000000000000000000000000000000000006001600160a01b031663854ad1b76040518163ffffffff1660e01b815260040160a06040518083038186803b15801561060b57600080fd5b505afa15801561061f573d6000803e3d6000fd5b505050506040513d601f19601f820116820180604052508101906106439190613f6e565b604051636de98dd160e11b81529091506001600160a01b037f0000000000000000000000000000000000000000000000000000000000000000169063dbd31ba290610692908490600401614613565b600060405180830381600087803b1580156106ac57600080fd5b505af11580156106c0573d6000803e3d6000fd5b50508251606492509050049250610770816020015160087f00000000000000000000000000000000000000000000000000000000000000006001600160a01b031663313ce5676040518163ffffffff1660e01b815260040160206040518083038186803b15801561073057600080fd5b505afa158015610744573d6000803e3d6000fd5b505050506040513d601f19601f820116820180604052508101906107689190614345565b60ff16612dd0565b91508060600151156107c0576107b16001600160a01b037f000000000000000000000000000000000000000000000000000000000000000016333085612e89565b6107bb3384612d98565b6107ff565b6107f56001600160a01b037f000000000000000000000000000000000000000000000000000000000000000016333086612e89565b6107ff3383612ee9565b7f97ecad77f31756d3d2f581bf1acec77dbdb445bf9b69afff2c62d02d4d2547de338260600151858560405161083894939291906144c1565b60405180910390a1509091565b6001546001600160a01b031681565b61085c613d01565b600082815260036020908152604080832081516060810183528154600f90810b810b900b81526001820180548451818702810187019095528085529194929385840193909290879084015b828210156109ee576000848152602090206040805160a0810190915290600384020181606081018260028282826020028201916000905b82829054906101000a9004600f0b600f0b81526020019060100190602082600f010492830192600103820291508084116108de575050509284525050604080518082019182905260209093019291506001840190600290826000855b82829054906101000a90046001600160801b03166001600160801b031681526020019060100190602082600f0104928301926001038202915080841161093a57505050928452505060408051808201918290526020909301929150600284810191826000855b82829054906101000a9004600f0b600f0b81526020019060100190602082600f010492830192600103820291508084116109a0579050505050505081525050815260200190600101906108a7565b505050908252506002919091015460ff161515602090910152905060006001600160a01b037f0000000000000000000000000000000000000000000000000000000000000000166382f3955d610a4384612f1d565b6040518263ffffffff1660e01b8152600401610a5f9190614543565b60e06040518083038186803b158015610a7757600080fd5b505afa158015610a8b573d6000803e3d6000fd5b505050506040513d601f19601f82011682018060405250810190610aaf919061414c565b9050600082602001515167ffffffffffffffff81118015610acf57600080fd5b50604051908082528060200260200182016040528015610b0957816020015b610af6613d35565b815260200190600190039081610aee5790505b509050600083602001515167ffffffffffffffff81118015610b2a57600080fd5b50604051908082528060200260200182016040528015610b6457816020015b610b51613d35565b815260200190600190039081610b495790505b50905060005b846020015151811015610c285760005b6002811015610c1f57610ba586602001518381518110610b9657fe5b60200260200101518287612f64565b848381518110610bb157fe5b60200260200101518260028110610bc457fe5b602002018181525050610bf386602001518381518110610be057fe5b6020026020010151828760600151612fdc565b838381518110610bff57fe5b60200260200101518260028110610c1257fe5b6020020152600101610b7a565b50600101610b6a565b506040805160a0810190915280610c3f868661302f565b8152602001610c4e8686613083565b8152602001838152602001828152602001858152509450505050505b919050565b600082118015610d055750600260009054906101000a90046001600160a01b03166001600160a01b03166361b8ce8c6040518163ffffffff1660e01b8152600401602060405180830381600087803b158015610cca57600080fd5b505af1158015610cde573d6000803e3d6000fd5b505050506040513d601f19601f82011682018060405250810190610d029190613f17565b82105b610d2a5760405162461bcd60e51b8152600401610d21906145f6565b60405180910390fd5b600082815260036020526040902073__$b139f62619843504e83620ab3c72958bdd$__906369e2bed090610d5f8460646130a3565b6040518363ffffffff1660e01b8152600401610d7c9291906146ba565b60006040518083038186803b158015610d9457600080fd5b505af4158015610da8573d6000803e3d6000fd5b505050506000610db78261314c565b9050610dee6001600160a01b037f000000000000000000000000000000000000000000000000000000000000000016333084612e89565b336001600160a01b03167ffc3608744ea5805574f007540fe37736bbebd81365de55991f3b17a16295521d8483604051610e299291906146ba565b60405180910390a2505050565b610e3e6131a7565b6001600160a01b0316610e4f6110d9565b6001600160a01b031614610eaa576040805162461bcd60e51b815260206004820181905260248201527f4f776e61626c653a2063616c6c6572206973206e6f7420746865206f776e6572604482015290519081900360640190fd5b600080546040516001600160a01b03909116907f8be0079c531659141344cd1fd0a4f28419497f9722a3daafe3b4186f6b6457e0908390a3600080546001600160a01b0319169055565b7f000000000000000000000000000000000000000000000000000000000000000081565b6040516339f9a44f60e11b81526000906001600160a01b037f000000000000000000000000000000000000000000000000000000000000000016906373f3489e90610f67908590600401614569565b60206040518083038186803b158015610f7f57600080fd5b505afa158015610f93573d6000803e3d6000fd5b505050506040513d601f19601f82011682018060405250810190610fb79190613f17565b92915050565b6000806000807f00000000000000000000000000000000000000000000000000000000000000006001600160a01b031663854ad1b76040518163ffffffff1660e01b815260040160a06040518083038186803b15801561101c57600080fd5b505afa158015611030573d6000803e3d6000fd5b505050506040513d601f19601f820116820180604052508101906110549190613f6e565b90508060600151606482600001518161106957fe5b046110cd836020015160087f00000000000000000000000000000000000000000000000000000000000000006001600160a01b031663313ce5676040518163ffffffff1660e01b815260040160206040518083038186803b15801561073057600080fd5b93509350935050909192565b6000546001600160a01b031690565b7f00000000000000000000000000000000000000000000000000000000000000006001600160a01b0316637d8c26596040518163ffffffff1660e01b8152600401600060405180830381600087803b15801561114357600080fd5b505af1158015611157573d6000803e3d6000fd5b505050600082815260036020908152604080832081516060810183528154600f90810b810b900b81526001820180548451818702810187019095528085529296506001600160a01b037f000000000000000000000000000000000000000000000000000000000000000016946382f3955d94611340948993858401939091908a9084015b82821015611322576000848152602090206040805160a0810190915290600384020181606081018260028282826020028201916000905b82829054906101000a9004600f0b600f0b81526020019060100190602082600f01049283019260010382029150808411611212575050509284525050604080518082019182905260209093019291506001840190600290826000855b82829054906101000a90046001600160801b03166001600160801b031681526020019060100190602082600f0104928301926001038202915080841161126e57505050928452505060408051808201918290526020909301929150600284810191826000855b82829054906101000a9004600f0b600f0b81526020019060100190602082600f010492830192600103820291508084116112d4579050505050505081525050815260200190600101906111db565b505050908252506002919091015460ff161515602090910152612f1d565b6040518263ffffffff1660e01b815260040161135c9190614543565b60e06040518083038186803b15801561137457600080fd5b505afa158015611388573d6000803e3d6000fd5b505050506040513d601f19601f820116820180604052508101906113ac919061414c565b604080516060810182528454600f90810b810b900b81526001850180548351602082810282018101909552818152949550611557948694889381860193909160009084015b82821015611538576000848152602090206040805160a0810190915290600384020181606081018260028282826020028201916000905b82829054906101000a9004600f0b600f0b81526020019060100190602082600f01049283019260010382029150808411611428575050509284525050604080518082019182905260209093019291506001840190600290826000855b82829054906101000a90046001600160801b03166001600160801b031681526020019060100190602082600f0104928301926001038202915080841161148457505050928452505060408051808201918290526020909301929150600284810191826000855b82829054906101000a9004600f0b600f0b81526020019060100190602082600f010492830192600103820291508084116114ea579050505050505081525050815260200190600101906113f1565b505050908252506002919091015460ff161515602090910152906131ab565b6115735760405162461bcd60e51b8152600401610d21906145ac565b600061172d82846040518060600160405290816000820160009054906101000a9004600f0b600f0b600f0b815260200160018201805480602002602001604051908101604052809291908181526020016000905b8282101561170e576000848152602090206040805160a0810190915290600384020181606081018260028282826020028201916000905b82829054906101000a9004600f0b600f0b81526020019060100190602082600f010492830192600103820291508084116115fe575050509284525050604080518082019182905260209093019291506001840190600290826000855b82829054906101000a90046001600160801b03166001600160801b031681526020019060100190602082600f0104928301926001038202915080841161165a57505050928452505060408051808201918290526020909301929150600284810191826000855b82829054906101000a9004600f0b600f0b81526020019060100190602082600f010492830192600103820291508084116116c0579050505050505081525050815260200190600101906115c7565b505050908252506002919091015460ff16151560209091015290613083565b90506000805b60018501548110156117d35760005b60028110156117ca57600086600101838154811061175c57fe5b9060005260206000209060030201600001826002811061177857fe5b600291828204019190066010029054906101000a9004600f0b90506117bf6117b888848b87866000036000604051806020016040528060008152506131cc565b85906133b5565b935050600101611742565b50600101611733565b50604051630de022c160e11b815273__$b139f62619843504e83620ab3c72958bdd$__90631bc045829061180b908790600401614569565b60006040518083038186803b15801561182357600080fd5b505af4158015611837573d6000803e3d6000fd5b505060405163652aa48360e01b81526000925073__$b139f62619843504e83620ab3c72958bdd$__915063652aa4839061187b90889087906107d0906004016146c8565b60206040518083038186803b15801561189357600080fd5b505af41580156118a7573d6000803e3d6000fd5b505050506040513d601f19601f820116820180604052508101906118cb9190613f17565b6040516328e32c8560e11b81529091507f00000000000000000000000000000000000000000000000000000000000000006001600160a01b0316906351c6590a9061191d906002850490600401614569565b600060405180830381600087803b15801561193757600080fd5b505af115801561194b573d6000803e3d6000fd5b505050506119633360c8838161195d57fe5b04612d98565b7f00000000000000000000000000000000000000000000000000000000000000006001600160a01b03166387c3a09a6040518163ffffffff1660e01b8152600401600060405180830381600087803b1580156119be57600080fd5b505af11580156119d2573d6000803e3d6000fd5b505050506000821115611aec5760015460405163095ea7b360e01b81526001600160a01b037f000000000000000000000000000000000000000000000000000000000000000081169263095ea7b392611a349291909116908690600401614509565b602060405180830381600087803b158015611a4e57600080fd5b505af1158015611a62573d6000803e3d6000fd5b505050506040513d601f19601f82011682018060405250810190611a869190613ee5565b506001546040516301acfa2360e51b81526001600160a01b039091169063359f446090611ab99030908690600401614509565b600060405180830381600087803b158015611ad357600080fd5b505af1158015611ae7573d6000803e3d6000fd5b505050505b857f09c223cfcd8c93e245f558f5f8de755fc0930fd9bc257441155ef5d54a170e0f3383604051611b1e929190614509565b60405180910390a2505050505050565b600082118015611b3e5750600081135b611b4757600080fd5b60405163e7dc45d360e01b81526000906001600160a01b037f0000000000000000000000000000000000000000000000000000000000000000169063e7dc45d390611b9d90339060648802908790600401614522565b602060405180830381600087803b158015611bb757600080fd5b505af1158015611bcb573d6000803e3d6000fd5b505050506040513d601f19601f82011682018060405250810190611bef9190613f17565b9050611c266001600160a01b037f000000000000000000000000000000000000000000000000000000000000000016333086612e89565b336001600160a01b03167f73a19dd210f1a7f902193214c0ee91dd35ee5b4d920cba8d519eca65a7b488ca8285604051610e299291906146ba565b611c69613d53565b60008060008060007f00000000000000000000000000000000000000000000000000000000000000006001600160a01b031663b4f0332f89896040518363ffffffff1660e01b8152600401611cbf9291906147f5565b60a06040518083038186803b158015611cd757600080fd5b505afa158015611ceb573d6000803e3d6000fd5b505050506040513d601f19601f82011682018060405250810190611d0f9190613f2f565b94509450945094509450604051806101000160405280868152602001858152602001848152602001838152602001828152602001611d67662386f26fc10000611d6187896130a390919063ffffffff16565b9061340f565b8152602001611d986305f5e100611d92611d838c600f0b6134c7565b611d8c8b61314c565b906134da565b90613533565b8152602001611dbd6305f5e100611d92611db48c600f0b6134c7565b611d8c8861314c565b905298975050505050505050565b60008111611dd857600080fd5b7f00000000000000000000000000000000000000000000000000000000000000006001600160a01b0316637d8c26596040518163ffffffff1660e01b8152600401600060405180830381600087803b158015611e3357600080fd5b505af1158015611e47573d6000803e3d6000fd5b50506040516311f9fbc960e21b8152600092506001600160a01b037f00000000000000000000000000000000000000000000000000000000000000001691506347e7ef2490611e9f9033906064870290600401614509565b602060405180830381600087803b158015611eb957600080fd5b505af1158015611ecd573d6000803e3d6000fd5b505050506040513d601f19601f82011682018060405250810190611ef19190613f17565b9050611f286001600160a01b037f000000000000000000000000000000000000000000000000000000000000000016333085612e89565b336001600160a01b03167f73a19dd210f1a7f902193214c0ee91dd35ee5b4d920cba8d519eca65a7b488ca82846040516104489291906146ba565b60608101511580611f78575043816060015110155b611f945760405162461bcd60e51b8152600401610d219061458f565b8051612023576002546040516354ba0f2760e01b81526001600160a01b03909116906354ba0f2790611fca9033906004016144ad565b602060405180830381600087803b158015611fe457600080fd5b505af1158015611ff8573d6000803e3d6000fd5b505050506040513d601f19601f8201168201806040525081019061201c9190613f17565b81526120ca565b60025481516040516331a9108f60e11b815233926001600160a01b031691636352211e916120549190600401614569565b60206040518083038186803b15801561206c57600080fd5b505afa158015612080573d6000803e3d6000fd5b505050506040513d601f19601f820116820180604052508101906120a49190613ec9565b6001600160a01b0316146120ca5760405162461bcd60e51b8152600401610d2190614572565b7f00000000000000000000000000000000000000000000000000000000000000006001600160a01b0316637d8c26596040518163ffffffff1660e01b8152600401600060405180830381600087803b15801561212557600080fd5b505af1158015612139573d6000803e3d6000fd5b5060009250829150505b8260200151518110156122145761220a61220360036000866000015181526020019081526020016000208560200151848151811061217d57fe5b60200260200101516000015186600001518760200151868151811061219e57fe5b602002602001015160200151886020015187815181106121ba57fe5b602002602001015160400151896020015188815181106121d657fe5b6020026020010151606001518a6020015189815181106121f257fe5b6020026020010151608001516131cc565b83906133b5565b9150600101612143565b5080156123285760015460405163095ea7b360e01b81526001600160a01b037f000000000000000000000000000000000000000000000000000000000000000081169263095ea7b3926122709291909116908590600401614509565b602060405180830381600087803b15801561228a57600080fd5b505af115801561229e573d6000803e3d6000fd5b505050506040513d601f19601f820116820180604052508101906122c29190613ee5565b506001546040516301acfa2360e51b81526001600160a01b039091169063359f4460906122f59030908590600401614509565b600060405180830381600087803b15801561230f57600080fd5b505af1158015612323573d6000803e3d6000fd5b505050505b81516000908152600360205260408082209084015173__$b139f62619843504e83620ab3c72958bdd$__9163e69e266d916123649060646130a3565b8651600090815260036020908152604080832081516060810183528154600f90810b810b900b81526001820180548451818702810187019095528085526001600160a01b037f000000000000000000000000000000000000000000000000000000000000000016966382f3955d9661252d969495948682019490939092909184015b82821015611322576000848152602090206040805160a0810190915290600384020181606081018260028282826020028201916000905b82829054906101000a9004600f0b600f0b81526020019060100190602082600f0104928301926001038202915080841161241d575050509284525050604080518082019182905260209093019291506001840190600290826000855b82829054906101000a90046001600160801b03166001600160801b031681526020019060100190602082600f0104928301926001038202915080841161247957505050928452505060408051808201918290526020909301929150600284810191826000855b82829054906101000a9004600f0b600f0b81526020019060100190602082600f010492830192600103820291508084116124df579050505050505081525050815260200190600101906123e6565b6040518263ffffffff1660e01b81526004016125499190614543565b60e06040518083038186803b15801561256157600080fd5b505afa158015612575573d6000803e3d6000fd5b505050506040513d601f19601f82011682018060405250810190612599919061414c565b6040518463ffffffff1660e01b81526004016125b7939291906146de565b60206040518083038186803b1580156125cf57600080fd5b505af41580156125e3573d6000803e3d6000fd5b505050506040513d601f19601f820116820180604052508101906126079190613f17565b90507f00000000000000000000000000000000000000000000000000000000000000006001600160a01b03166387c3a09a6040518163ffffffff1660e01b8152600401600060405180830381600087803b15801561266457600080fd5b505af1158015612678573d6000803e3d6000fd5b50505050600081131561270157606481056126be7f00000000000000000000000000000000000000000000000000000000000000006001600160a01b0316333084612e89565b835160405133917ffc3608744ea5805574f007540fe37736bbebd81365de55991f3b17a16295521d916126f3919085906146ba565b60405180910390a25061275b565b600081121561275b57606460008290030461271c3382612d98565b835160405133917f41d0e87fb7cc3fb87474e510116fbe22a7658539f639b5de6d9c0bdae606d3eb91612751919085906146ba565b60405180910390a2505b505050565b6127686131a7565b6001600160a01b03166127796110d9565b6001600160a01b0316146127d4576040805162461bcd60e51b815260206004820181905260248201527f4f776e61626c653a2063616c6c6572206973206e6f7420746865206f776e6572604482015290519081900360640190fd5b6001600160a01b0381166127e757600080fd5b600180546001600160a01b0319166001600160a01b0383161790556040517fa10652b59c38f986e02273779b46014194b54d90e963da79e87af931cf6a4848906128329083906144ad565b60405180910390a150565b600082815260036020908152604080832081516060810183528154600f90810b810b900b8152600182018054845181870281018701909552808552869592948584019390929190879084015b828210156129d0576000848152602090206040805160a0810190915290600384020181606081018260028282826020028201916000905b82829054906101000a9004600f0b600f0b81526020019060100190602082600f010492830192600103820291508084116128c0575050509284525050604080518082019182905260209093019291506001840190600290826000855b82829054906101000a90046001600160801b03166001600160801b031681526020019060100190602082600f0104928301926001038202915080841161291c57505050928452505060408051808201918290526020909301929150600284810191826000855b82829054906101000a9004600f0b600f0b81526020019060100190602082600f0104928301926001038202915080841161298257905050505050508152505081526020019060010190612889565b505050908252506002919091015460ff1615156020909101529050612a9b836001600160a01b037f0000000000000000000000000000000000000000000000000000000000000000166382f3955d612a2785612f1d565b6040518263ffffffff1660e01b8152600401612a439190614543565b60e06040518083038186803b158015612a5b57600080fd5b505afa158015612a6f573d6000803e3d6000fd5b505050506040513d601f19601f82011682018060405250810190612a93919061414c565b83919061359a565b60649005949350505050565b612aaf613d98565b600082815260036020908152604080832081516060810183528154600f90810b810b900b81526001820180548451818702810187019095528085529195929486810194939192919084015b82821015612c41576000848152602090206040805160a0810190915290600384020181606081018260028282826020028201916000905b82829054906101000a9004600f0b600f0b81526020019060100190602082600f01049283019260010382029150808411612b31575050509284525050604080518082019182905260209093019291506001840190600290826000855b82829054906101000a90046001600160801b03166001600160801b031681526020019060100190602082600f01049283019260010382029150808411612b8d57505050928452505060408051808201918290526020909301929150600284810191826000855b82829054906101000a9004600f0b600f0b81526020019060100190602082600f01049283019260010382029150808411612bf357905050505050508152505081526020019060010190612afa565b505050908252506002919091015460ff16151560209091015292915050565b612c686131a7565b6001600160a01b0316612c796110d9565b6001600160a01b031614612cd4576040805162461bcd60e51b815260206004820181905260248201527f4f776e61626c653a2063616c6c6572206973206e6f7420746865206f776e6572604482015290519081900360640190fd5b6001600160a01b038116612d195760405162461bcd60e51b81526004018080602001828103825260268152602001806149296026913960400191505060405180910390fd5b600080546040516001600160a01b03808516939216917f8be0079c531659141344cd1fd0a4f28419497f9722a3daafe3b4186f6b6457e091a3600080546001600160a01b0319166001600160a01b0392909216919091179055565b7f000000000000000000000000000000000000000000000000000000000000000081565b612dcc6001600160a01b037f0000000000000000000000000000000000000000000000000000000000000000168383613624565b5050565b600081831115612e2c57604682840310612e16576040805162461bcd60e51b8152602060048201526002602482015261269960f11b604482015290519081900360640190fd5b612e2584838503600a0a613533565b9050612e82565b81831015612e7f57604683830310612e70576040805162461bcd60e51b8152602060048201526002602482015261269960f11b604482015290519081900360640190fd5b612e2584848403600a0a6134da565b50825b9392505050565b604080516001600160a01b0380861660248301528416604482015260648082018490528251808303909101815260849091019091526020810180516001600160e01b03166323b872dd60e01b179052612ee3908590613672565b50505050565b612dcc6001600160a01b037f0000000000000000000000000000000000000000000000000000000000000000168383613624565b612f25613d35565b60005b6002811015612f5e57612f3b8382613723565b828260028110612f4757fe5b600f92830b90920b60209092020152600101612f28565b50919050565b600080612fcc85600001518560028110612f7a57fe5b6020020151600f0b612fc6612fab88602001518860028110612f9857fe5b60200201516001600160801b0316613784565b86602001518860028110612fbb57fe5b6020020151906137c8565b906130a3565b6305f5e100900595945050505050565b600080612fcc85600001518560028110612ff257fe5b6020020151600f0b612fc685876002811061300957fe5b6020020151600f0b8860400151886002811061302157fe5b6020020151600f0b906137c8565b8151600090600f0b815b84602001515181101561307b5761307161306a8660200151838151811061305c57fe5b60200260200101518661382d565b839061384c565b9150600101613039565b509392505050565b60008061308f84612f1d565b905061309b81846138b1565b949350505050565b6000826130b257506000610fb7565b826000191480156130c65750600160ff1b82145b156131025760405162461bcd60e51b81526004018080602001828103825260278152602001806149ff6027913960400191505060405180910390fd5b8282028284828161310f57fe5b0514612e825760405162461bcd60e51b81526004018080602001828103825260278152602001806149ff6027913960400191505060405180910390fd5b6000808212156131a3576040805162461bcd60e51b815260206004820181905260248201527f53616665436173743a2076616c7565206d75737420626520706f736974697665604482015290519081900360640190fd5b5090565b3390565b6000806131b8848461302f565b90506131c48484613083565b139392505050565b600083600f0b6000146133a65760008060007f00000000000000000000000000000000000000000000000000000000000000006001600160a01b0316633ed7e33c8b896040518363ffffffff1660e01b815260040161322c9291906147f5565b606060405180830381600087803b15801561324657600080fd5b505af115801561325a573d6000803e3d6000fd5b505050506040513d601f19601f8201168201806040525081019061327e9190614318565b925092509250613295600088600f0b138488613a20565b6132b15760405162461bcd60e51b8152600401610d21906145d9565b60008b73__$b139f62619843504e83620ab3c72958bdd$__63a8ffb3b990918b8e8c89896040518763ffffffff1660e01b81526004016132f69695949392919061475e565b60206040518083038186803b15801561330e57600080fd5b505af4158015613322573d6000803e3d6000fd5b505050506040513d601f19601f820116820180604052508101906133469190613f17565b9050336001600160a01b03167fbfb264ae14733b7c7f6701d57d6a0dbaf244d34bf5912958835dccf887b4beea8b8b8e8c8989888e60405161338f98979695949392919061481d565b60405180910390a2606482049450505050506133aa565b5060005b979650505050505050565b600082820183811015612e82576040805162461bcd60e51b815260206004820152601b60248201527f536166654d6174683a206164646974696f6e206f766572666c6f770000000000604482015290519081900360640190fd5b600081613463576040805162461bcd60e51b815260206004820181905260248201527f5369676e6564536166654d6174683a206469766973696f6e206279207a65726f604482015290519081900360640190fd5b816000191480156134775750600160ff1b83145b156134b35760405162461bcd60e51b81526004018080602001828103825260218152602001806149bd6021913960400191505060405180910390fd5b60008284816134be57fe5b05949350505050565b6000808212156131a35781600003610fb7565b6000826134e957506000610fb7565b828202828482816134f657fe5b0414612e825760405162461bcd60e51b81526004018080602001828103825260218152602001806149de6021913960400191505060405180910390fd5b6000808211613589576040805162461bcd60e51b815260206004820152601a60248201527f536166654d6174683a206469766973696f6e206279207a65726f000000000000604482015290519081900360640190fd5b81838161359257fe5b049392505050565b6000806135a685612f1d565b905060005b6002811015613610576135ed6135e88683600281106135c657fe5b6020020151600f0b8484600281106135da57fe5b6020020151600f0b9061384c565b613a49565b8282600281106135f957fe5b600f92830b90920b602090920201526001016135ab565b5061361b81846138b1565b95945050505050565b604080516001600160a01b038416602482015260448082018490528251808303909101815260649091019091526020810180516001600160e01b031663a9059cbb60e01b17905261275b9084905b60006136c7826040518060400160405280602081526020017f5361666545524332303a206c6f772d6c6576656c2063616c6c206661696c6564815250856001600160a01b0316613aaa9092919063ffffffff16565b80519091501561275b578080602001905160208110156136e657600080fd5b505161275b5760405162461bcd60e51b815260040180806020018281038252602a815260200180614a72602a913960400191505060405180910390fd5b6000805b83602001515181101561377d576137736135e88560200151838151811061374a57fe5b602002602001015160000151856002811061376157fe5b6020020151600f85810b91900b61384c565b9150600101613727565b5092915050565b6000600160ff1b82106131a35760405162461bcd60e51b8152600401808060200182810382526028815260200180614a266028913960400191505060405180910390fd5b60008183038183128015906137dd5750838113155b806137f257506000831280156137f257508381135b612e825760405162461bcd60e51b8152600401808060200182810382526024815260200180614a4e6024913960400191505060405180910390fd5b6000612e82613840848460600151613ab9565b61384a8585613ae0565b905b60008282018183128015906138615750838112155b80613876575060008312801561387657508381125b612e825760405162461bcd60e51b81526004018080602001828103825260218152602001806149766021913960400191505060405180910390fd5b6000806138f76305f5e100611d616138e6662386f26fc1000087604001516001600281106138db57fe5b60200201519061384c565b86516001600160801b0316906130a3565b9050600061396261395d613936662386f26fc10000611d6161392b662386f26fc100008a604001516000600281106138db57fe5b8a51600f0b906130a3565b61384a68056bc75e2d63100000611d616002612fc68c600160200201518a90600f0b6130a3565b6134c7565b905061399c61399561395d69d3c21bcecceda1000000611d618960016020020151600f0b612fc66002816101f48b6130a3565b82906133b5565b9050600064e8d4a510006139cc83611d8c88600001516001600160801b03166101f46134da90919063ffffffff16565b816139d357fe5b87519190049150600f0b1515806139f057506020860151600f0b15155b8015613a005750640ba43b740081105b15613a0d5750640ba43b74005b613a1681613784565b9695505050505050565b600081613a2f57506001612e82565b8315613a3f575080821115612e82565b5080821015612e82565b60006f7fffffffffffffffffffffffffffffff198212158015613a6f57506001607f1b82125b6131a35760405162461bcd60e51b815260040180806020018281038252602781526020018061494f6027913960400191505060405180910390fd5b606061309b8484600085613b07565b60008060005b600281101561307b57613ad661306a868387612fdc565b9150600101613abf565b60008060005b600281101561307b57613afd61306a868387612f64565b9150600101613ae6565b606082471015613b485760405162461bcd60e51b81526004018080602001828103825260268152602001806149976026913960400191505060405180910390fd5b613b5185613c57565b613ba2576040805162461bcd60e51b815260206004820152601d60248201527f416464726573733a2063616c6c20746f206e6f6e2d636f6e7472616374000000604482015290519081900360640190fd5b600080866001600160a01b031685876040518082805190602001908083835b60208310613be05780518252601f199092019160209182019101613bc1565b6001836020036101000a03801982511681845116808217855250505050505090500191505060006040518083038185875af1925050503d8060008114613c42576040519150601f19603f3d011682016040523d82523d6000602084013e613c47565b606091505b50915091506133aa828286613c5d565b3b151590565b60608315613c6c575081612e82565b825115613c7c5782518084602001fd5b8160405162461bcd60e51b81526004018080602001828103825283818151815260200191508051906020019080838360005b83811015613cc6578181015183820152602001613cae565b50505050905090810190601f168015613cf35780820380516001836020036101000a031916815260200191505b509250505060405180910390fd5b6040518060a0016040528060008152602001600081526020016060815260200160608152602001613d30613d98565b905290565b60405180604001604052806002906020820280368337509192915050565b60405180610100016040528060008152602001600081526020016000815260200160008152602001600081526020016000815260200160008152602001600081525090565b60405180606001604052806000600f0b8152602001606081526020016000151581525090565b600082601f830112613dce578081fd5b6040516040810181811067ffffffffffffffff82111715613deb57fe5b8060405250808385604086011115613e01578384fd5b835b6002811015613e22578151835260209283019290910190600101613e03565b509195945050505050565b80518015158114610c6a57600080fd5b600082601f830112613e4d578081fd5b813567ffffffffffffffff811115613e6157fe5b613e74601f8201601f19166020016148ad565b818152846020838601011115613e88578283fd5b816020850160208301379081016020019190915292915050565b8035610c6a81614904565b600060208284031215613ebe578081fd5b8135612e82816148ec565b600060208284031215613eda578081fd5b8151612e82816148ec565b600060208284031215613ef6578081fd5b612e8282613e2d565b600060208284031215613f10578081fd5b5035919050565b600060208284031215613f28578081fd5b5051919050565b600080600080600060a08688031215613f46578081fd5b5050835160208501516040860151606087015160809097015192989197509594509092509050565b600060a08284031215613f7f578081fd5b6040516080810181811067ffffffffffffffff82111715613f9c57fe5b80604052508251815260208301516020820152613fbc8460408501613dbe565b6040820152613fcd60808401613e2d565b60608201529392505050565b60006020808385031215613feb578182fd5b67ffffffffffffffff8084351115614001578283fd5b8335840160808187031215614014578384fd5b604051806080820110836080830111171561402b57fe5b608081016040528135815282848301351115614045578485fd5b83820135820187601f820112614059578586fd5b838135111561406457fe5b6140728586833502016148ad565b8135815285810190868301885b8435811015614121578135850160a0818e03601f1901121561409f578a8bfd5b6040518060a08201108a60a083011117156140b657fe5b60a081016040528a820135815260408201358b8201526140d860608301613ea2565b6040820152608082013560608201528960a083013511156140f7578b8cfd5b6141098e8c60a0850135850101613e3d565b6080820152855250928801929088019060010161407f565b5050808785015250505060408201356040820152606082013560608201528094505050505092915050565b600060e0828403121561415d578081fd5b6040516080810181811067ffffffffffffffff8211171561417a57fe5b604052825161418881614913565b8152602061419885858301613dbe565b818301526141a98560608601613dbe565b60408301528460bf8501126141bc578283fd5b60026141cf6141ca826148d1565b6148ad565b8060a087018860e0890111156141e3578687fd5b865b8481101561420a5781516141f881614904565b845292850192908501906001016141e5565b50506060850152509195945050505050565b60006020828403121561422d578081fd5b8135612e8281614913565b6000806060838503121561424a578182fd5b82359150602084603f85011261425e578182fd5b6040516040810181811067ffffffffffffffff8211171561427b57fe5b6040528085830160608701881015614291578485fd5b845b60028110156142b95781356142a781614904565b83529184019190840190600101614293565b50505080925050509250929050565b600080604083850312156142da578182fd5b8235915060208301356142ec81614904565b809150509250929050565b60008060408385031215614309578182fd5b50508035926020909101359150565b60008060006060848603121561432c578081fd5b8351925060208401519150604084015190509250925092565b600060208284031215614356578081fd5b815160ff81168114612e82578182fd5b6000815180845260208085019450808401835b8381101561439f5761438c8783516143d0565b6040969096019590820190600101614379565b509495945050505050565b8060005b6002811015612ee3578151600f0b8452602093840193909101906001016143ae565b8060005b6002811015612ee35781518452602093840193909101906001016143d4565b15159052565b6000606083018251600f0b84526020808401516060828701528281518085526080945084880191508383019250855b8181101561449757835161443d8482516143aa565b8581015160408086018a5b600281101561446e5783516001600160801b031682529289019290890190600101614448565b505091909101519050614483848801826143aa565b509284019260c09290920191600101614428565b505060408601519350613a1660408801856143f3565b6001600160a01b0391909116815260200190565b6001600160a01b0394909416845291151560208401526040830152606082015260800190565b6001600160a01b039290921682526001600160801b0316602082015260400190565b6001600160a01b03929092168252602082015260400190565b6001600160a01b039390931683526020830191909152604082015260600190565b60408101610fb782846143aa565b92151583526020830191909152604082015260600190565b90815260200190565b60208082526003908201526228269960e91b604082015260600190565b6020808252600390820152620504d360ec1b604082015260600190565b6020808252601390820152723b30bab63a1034b9903737ba103230b733b2b960691b604082015260600190565b602080825260039082015262504d3160e81b604082015260600190565b602080825260039082015262504d3360e81b604082015260600190565b600060a0820190508251825260208301516020830152604083015161463b60408401826143d0565b5060608301511515608083015292915050565b600061010082019050825182526020830151602083015260408301516040830152606083015160608301526080830151608083015260a083015160a083015260c083015160c083015260e083015160e083015292915050565b600060208252612e8260208301846143f9565b918252602082015260400190565b9283526020830191909152604082015260600190565b600061012082019050848252602084818401526001600160801b0384511660408401528084015161471260608501826143d0565b50604084015161472560a08501826143d0565b50606084015160e0840160005b6002811015614752578251600f0b82529183019190830190600101614732565b50505050949350505050565b95865260208601949094526040850192909252600f0b6060840152608083015260a082015260c00190565b6000602082528251602083015260208301516040830152604083015160a060608401526147b960c0840182614366565b90506060840151601f19808584030160808601526147d78383614366565b925060808601519150808584030160a08601525061361b82826143f9565b918252600f0b602082015260400190565b9182526001600160801b0316602082015260400190565b60006101008a835260208a8185015289604085015288600f0b60608501528760808501528660a08501528560c08501528160e0850152845180838601528392505b8083101561487d5785830182015185840161012001529181019161485e565b8083111561488f578361012082870101525b601f01601f191693909301610120019b9a5050505050505050505050565b60405181810167ffffffffffffffff811182821017156148c957fe5b604052919050565b600067ffffffffffffffff8211156148e557fe5b5060200290565b6001600160a01b038116811461490157600080fd5b50565b80600f0b811461490157600080fd5b6001600160801b038116811461490157600080fdfe4f776e61626c653a206e6577206f776e657220697320746865207a65726f206164647265737353616665436173743a2076616c756520646f65736e27742066697420696e2031323820626974735369676e6564536166654d6174683a206164646974696f6e206f766572666c6f77416464726573733a20696e73756666696369656e742062616c616e636520666f722063616c6c5369676e6564536166654d6174683a206469766973696f6e206f766572666c6f77536166654d6174683a206d756c7469706c69636174696f6e206f766572666c6f775369676e6564536166654d6174683a206d756c7469706c69636174696f6e206f766572666c6f7753616665436173743a2076616c756520646f65736e27742066697420696e20616e20696e743235365369676e6564536166654d6174683a207375627472616374696f6e206f766572666c6f775361666545524332303a204552433230206f7065726174696f6e20646964206e6f742073756363656564a264697066735822122028ac4fd29a180511ba8e557fa62b3facf9fc01b977cb13b03709c9f793ccd7f864736f6c63430007060033",
  "libraries": {
    "TraderVaultLib": "0xB715A51a02d551406D8508EB18b0724215C4Ea42"
  },
  "devdoc": {
    "kind": "dev",
    "methods": {
      "addMargin(uint256,int256)": {
        "params": {
          "_marginToAdd": "amount of margin to add",
          "_vaultId": "id of the vault"
        }
      },
      "getLPTokenPrice(int256)": {
        "params": {
          "_deltaLiquidityAmount": "difference of liquidity If LPs want LP token price of deposit, _deltaLiquidityAmount is positive number of amount to deposit. On the other hand, if LPs want LP token price of withdrawal, _deltaLiquidityAmount is negative number of amount to withdraw."
        },
        "returns": {
          "_0": "LP token price scaled by 1e6"
        }
      },
      "getMinCollateralToAddPosition(uint256,int128[2])": {
        "params": {
          "_tradeAmounts": "amounts to trade",
          "_vaultId": "The id of target vault"
        },
        "returns": {
          "minCollateral": "scaled by 1e6"
        }
      },
      "getTokenAmountForHedging()": {
        "returns": {
          "_0": "Amount of USDC and underlying reqired for hedging"
        }
      },
      "getTradePrice(uint256,int128)": {
        "params": {
          "_productId": "product id",
          "_tradeAmount": "amount of position to trade. positive to get long price and negative to get short price."
        },
        "returns": {
          "_0": "trade info"
        }
      },
      "getVaultStatus(uint256)": {
        "params": {
          "_vaultId": "The id of target vault"
        },
        "returns": {
          "_0": "vault status"
        }
      },
      "initialize(uint256,int256)": {
        "params": {
          "_depositAmount": "deposit amount",
          "_initialFundingRate": "initial funding rate"
        }
      },
      "liquidateByPool(uint256)": {
        "params": {
          "_vaultId": "The id of target vault"
        }
      },
      "owner()": {
        "details": "Returns the address of the current owner."
      },
      "renounceOwnership()": {
        "details": "Leaves the contract without owner. It will not be possible to call `onlyOwner` functions anymore. Can only be called by the current owner. NOTE: Renouncing ownership will leave the contract without an owner, thereby removing any functionality that is only available to the owner."
      },
      "setFeeRecepient(address)": {
        "params": {
          "_feeRecepient": "The address of new fee recepient"
        }
      },
      "trade((uint256,(uint256,uint256,int128,uint256,bytes)[],int256,uint256))": {
        "params": {
          "_tradeParams": "trade parameters"
        }
      },
      "transferOwnership(address)": {
        "details": "Transfers ownership of the contract to a new account (`newOwner`). Can only be called by the current owner."
      }
    },
    "stateVariables": {
      "LIQUIDATION_FEE": {
        "details": "liquidation fee is 20%"
      }
    },
    "title": "Perpetual Market",
    "version": 1
  },
  "userdoc": {
    "kind": "user",
    "methods": {
      "addMargin(uint256,int256)": {
        "notice": "Add margin to the vault"
      },
      "constructor": {
        "notice": "Constructor of Perpetual Market contract"
      },
      "deposit(uint256)": {
        "notice": "Provides liquidity to the pool and mints LP tokens"
      },
      "execHedge()": {
        "notice": "Executes hedging"
      },
      "getLPTokenPrice(int256)": {
        "notice": "Gets current LP token price"
      },
      "getMinCollateralToAddPosition(uint256,int128[2])": {
        "notice": "Gets value of min collateral to add positions"
      },
      "getTokenAmountForHedging()": {
        "notice": "Gets token amount for hedging"
      },
      "getTradePrice(uint256,int128)": {
        "notice": "Gets trade price"
      },
      "getVaultStatus(uint256)": {
        "notice": "Gets position value of a vault"
      },
      "initialize(uint256,int256)": {
        "notice": "Initializes Perpetual Pool"
      },
      "liquidateByPool(uint256)": {
        "notice": "Liquidates a vault by Pool Anyone can liquidate a vault whose PositionValue is less than MinCollateral. The caller gets a portion of the margin as reward."
      },
      "setFeeRecepient(address)": {
        "notice": "Sets new fee recepient"
      },
      "trade((uint256,(uint256,uint256,int128,uint256,bytes)[],int256,uint256))": {
        "notice": "Opens new positions or closes hold position of the perpetual contracts and manage margin in the vault at the same time."
      },
      "withdraw(uint128)": {
        "notice": "Withdraws liquidity from the pool and burn LP tokens"
      }
    },
    "notice": "Perpetual Market Contract is entry point of traders and liquidity providers. It manages traders' vault storage and holds funds from traders and liquidity providers. Error Codes PM0: tx exceed deadline PM1: limit price PM2: caller is not vault owner PM3: vault not found",
    "version": 1
  },
  "storageLayout": {
    "storage": [
      {
        "astId": 53,
        "contract": "contracts/PerpetualMarket.sol:PerpetualMarket",
        "label": "_owner",
        "offset": 0,
        "slot": "0",
        "type": "t_address"
      },
      {
        "astId": 6840,
        "contract": "contracts/PerpetualMarket.sol:PerpetualMarket",
        "label": "feeRecepient",
        "offset": 0,
        "slot": "1",
        "type": "t_contract(IFeePool)11669"
      },
      {
        "astId": 6842,
        "contract": "contracts/PerpetualMarket.sol:PerpetualMarket",
        "label": "vaultNFT",
        "offset": 0,
        "slot": "2",
        "type": "t_address"
      },
      {
        "astId": 6846,
        "contract": "contracts/PerpetualMarket.sol:PerpetualMarket",
        "label": "traderVaults",
        "offset": 0,
        "slot": "3",
        "type": "t_mapping(t_uint256,t_struct(TraderVault)13739_storage)"
      }
    ],
    "types": {
      "t_address": {
        "encoding": "inplace",
        "label": "address",
        "numberOfBytes": "20"
      },
      "t_array(t_int128)2_storage": {
        "base": "t_int128",
        "encoding": "inplace",
        "label": "int128[2]",
        "numberOfBytes": "32"
      },
      "t_array(t_struct(SubVault)13731_storage)dyn_storage": {
        "base": "t_struct(SubVault)13731_storage",
        "encoding": "dynamic_array",
        "label": "struct TraderVaultLib.SubVault[]",
        "numberOfBytes": "32"
      },
      "t_array(t_uint128)2_storage": {
        "base": "t_uint128",
        "encoding": "inplace",
        "label": "uint128[2]",
        "numberOfBytes": "32"
      },
      "t_bool": {
        "encoding": "inplace",
        "label": "bool",
        "numberOfBytes": "1"
      },
      "t_contract(IFeePool)11669": {
        "encoding": "inplace",
        "label": "contract IFeePool",
        "numberOfBytes": "20"
      },
      "t_int128": {
        "encoding": "inplace",
        "label": "int128",
        "numberOfBytes": "16"
      },
      "t_mapping(t_uint256,t_struct(TraderVault)13739_storage)": {
        "encoding": "mapping",
        "key": "t_uint256",
        "label": "mapping(uint256 => struct TraderVaultLib.TraderVault)",
        "numberOfBytes": "32",
        "value": "t_struct(TraderVault)13739_storage"
      },
      "t_struct(SubVault)13731_storage": {
        "encoding": "inplace",
        "label": "struct TraderVaultLib.SubVault",
        "members": [
          {
            "astId": 13722,
            "contract": "contracts/PerpetualMarket.sol:PerpetualMarket",
            "label": "positionPerpetuals",
            "offset": 0,
            "slot": "0",
            "type": "t_array(t_int128)2_storage"
          },
          {
            "astId": 13726,
            "contract": "contracts/PerpetualMarket.sol:PerpetualMarket",
            "label": "entryPrices",
            "offset": 0,
            "slot": "1",
            "type": "t_array(t_uint128)2_storage"
          },
          {
            "astId": 13730,
            "contract": "contracts/PerpetualMarket.sol:PerpetualMarket",
            "label": "entryFundingFee",
            "offset": 0,
            "slot": "2",
            "type": "t_array(t_int128)2_storage"
          }
        ],
        "numberOfBytes": "96"
      },
      "t_struct(TraderVault)13739_storage": {
        "encoding": "inplace",
        "label": "struct TraderVaultLib.TraderVault",
        "members": [
          {
            "astId": 13733,
            "contract": "contracts/PerpetualMarket.sol:PerpetualMarket",
            "label": "positionUsdc",
            "offset": 0,
            "slot": "0",
            "type": "t_int128"
          },
          {
            "astId": 13736,
            "contract": "contracts/PerpetualMarket.sol:PerpetualMarket",
            "label": "subVaults",
            "offset": 0,
            "slot": "1",
            "type": "t_array(t_struct(SubVault)13731_storage)dyn_storage"
          },
          {
            "astId": 13738,
            "contract": "contracts/PerpetualMarket.sol:PerpetualMarket",
            "label": "isInsolvent",
            "offset": 0,
            "slot": "2",
            "type": "t_bool"
          }
        ],
        "numberOfBytes": "96"
      },
      "t_uint128": {
        "encoding": "inplace",
        "label": "uint128",
        "numberOfBytes": "16"
      },
      "t_uint256": {
        "encoding": "inplace",
        "label": "uint256",
        "numberOfBytes": "32"
      }
    }
  }
}