{
  "address": "0x7f0209AAeC76fdDa476E3150ac338513C3101327",
  "abi": [
    {
      "inputs": [
        {
          "internalType": "address",
          "name": "_priceFeedAddress",
          "type": "address"
        },
        {
          "internalType": "string",
          "name": "_tokenName",
          "type": "string"
        },
        {
          "internalType": "string",
          "name": "_tokenSymbol",
          "type": "string"
        }
      ],
      "stateMutability": "nonpayable",
      "type": "constructor"
    },
    {
      "anonymous": false,
      "inputs": [
        {
          "indexed": true,
          "internalType": "address",
          "name": "owner",
          "type": "address"
        },
        {
          "indexed": true,
          "internalType": "address",
          "name": "spender",
          "type": "address"
        },
        {
          "indexed": false,
          "internalType": "uint256",
          "name": "value",
          "type": "uint256"
        }
      ],
      "name": "Approval",
      "type": "event"
    },
    {
      "anonymous": false,
      "inputs": [
        {
          "indexed": false,
          "internalType": "uint256",
          "name": "productId",
          "type": "uint256"
        },
        {
          "indexed": false,
          "internalType": "int256",
          "name": "fundingRate",
          "type": "int256"
        },
        {
          "indexed": false,
          "internalType": "int256",
          "name": "fundingPaidPerPosition",
          "type": "int256"
        },
        {
          "indexed": false,
          "internalType": "int256",
          "name": "poolReceived",
          "type": "int256"
        }
      ],
      "name": "FundingPayment",
      "type": "event"
    },
    {
      "anonymous": false,
      "inputs": [
        {
          "indexed": true,
          "internalType": "address",
          "name": "previousOwner",
          "type": "address"
        },
        {
          "indexed": true,
          "internalType": "address",
          "name": "newOwner",
          "type": "address"
        }
      ],
      "name": "OwnershipTransferred",
      "type": "event"
    },
    {
      "anonymous": false,
      "inputs": [
        {
          "indexed": false,
          "internalType": "uint256",
          "name": "minSlippageToleranceOfHedge",
          "type": "uint256"
        },
        {
          "indexed": false,
          "internalType": "uint256",
          "name": "maxSlippageToleranceOfHedge",
          "type": "uint256"
        },
        {
          "indexed": false,
          "internalType": "uint256",
          "name": "hedgeRateOfReturnThreshold",
          "type": "uint256"
        }
      ],
      "name": "SetHedgeParams",
      "type": "event"
    },
    {
      "anonymous": false,
      "inputs": [
        {
          "indexed": false,
          "internalType": "int256",
          "name": "perpFutureMaxFundingRate",
          "type": "int256"
        }
      ],
      "name": "SetPerpFutureMaxFundingRate",
      "type": "event"
    },
    {
      "anonymous": false,
      "inputs": [
        {
          "indexed": false,
          "internalType": "int256",
          "name": "poolMarginRiskParam",
          "type": "int256"
        }
      ],
      "name": "SetPoolMarginRiskParam",
      "type": "event"
    },
    {
      "anonymous": false,
      "inputs": [
        {
          "indexed": false,
          "internalType": "int256",
          "name": "squaredPerpFundingMultiplier",
          "type": "int256"
        }
      ],
      "name": "SetSquaredPerpFundingMultiplier",
      "type": "event"
    },
    {
      "anonymous": false,
      "inputs": [
        {
          "indexed": false,
          "internalType": "int256",
          "name": "tradeFeeRate",
          "type": "int256"
        },
        {
          "indexed": false,
          "internalType": "int256",
          "name": "protocolFeeRate",
          "type": "int256"
        }
      ],
      "name": "SetTradeFeeRate",
      "type": "event"
    },
    {
      "anonymous": false,
      "inputs": [
        {
          "indexed": true,
          "internalType": "address",
          "name": "from",
          "type": "address"
        },
        {
          "indexed": true,
          "internalType": "address",
          "name": "to",
          "type": "address"
        },
        {
          "indexed": false,
          "internalType": "uint256",
          "name": "value",
          "type": "uint256"
        }
      ],
      "name": "Transfer",
      "type": "event"
    },
    {
      "anonymous": false,
      "inputs": [
        {
          "indexed": false,
          "internalType": "int256",
          "name": "variance",
          "type": "int256"
        },
        {
          "indexed": false,
          "internalType": "int256",
          "name": "underlyingPrice",
          "type": "int256"
        },
        {
          "indexed": false,
          "internalType": "uint256",
          "name": "timestamp",
          "type": "uint256"
        }
      ],
      "name": "VarianceUpdated",
      "type": "event"
    },
    {
      "inputs": [
        {
          "internalType": "uint256",
          "name": "_amount",
          "type": "uint256"
        }
      ],
      "name": "addLiquidity",
      "outputs": [],
      "stateMutability": "nonpayable",
      "type": "function"
    },
    {
      "inputs": [
        {
          "internalType": "address",
          "name": "owner",
          "type": "address"
        },
        {
          "internalType": "address",
          "name": "spender",
          "type": "address"
        }
      ],
      "name": "allowance",
      "outputs": [
        {
          "internalType": "uint256",
          "name": "",
          "type": "uint256"
        }
      ],
      "stateMutability": "view",
      "type": "function"
    },
    {
      "inputs": [],
      "name": "amountLiquidity",
      "outputs": [
        {
          "internalType": "uint256",
          "name": "",
          "type": "uint256"
        }
      ],
      "stateMutability": "view",
      "type": "function"
    },
    {
      "inputs": [
        {
          "internalType": "address",
          "name": "spender",
          "type": "address"
        },
        {
          "internalType": "uint256",
          "name": "amount",
          "type": "uint256"
        }
      ],
      "name": "approve",
      "outputs": [
        {
          "internalType": "bool",
          "name": "",
          "type": "bool"
        }
      ],
      "stateMutability": "nonpayable",
      "type": "function"
    },
    {
      "inputs": [
        {
          "internalType": "address",
          "name": "account",
          "type": "address"
        }
      ],
      "name": "balanceOf",
      "outputs": [
        {
          "internalType": "uint256",
          "name": "",
          "type": "uint256"
        }
      ],
      "stateMutability": "view",
      "type": "function"
    },
    {
      "inputs": [
        {
          "components": [
            {
              "internalType": "uint256",
              "name": "amountUsdc",
              "type": "uint256"
            },
            {
              "internalType": "uint256",
              "name": "amountUnderlying",
              "type": "uint256"
            },
            {
              "internalType": "int256[2]",
              "name": "amountsRequiredUnderlying",
              "type": "int256[2]"
            },
            {
              "internalType": "bool",
              "name": "isLong",
              "type": "bool"
            }
          ],
          "internalType": "struct NettingLib.CompleteParams",
          "name": "_completeParams",
          "type": "tuple"
        }
      ],
      "name": "completeHedgingProcedure",
      "outputs": [],
      "stateMutability": "nonpayable",
      "type": "function"
    },
    {
      "inputs": [],
      "name": "decimals",
      "outputs": [
        {
          "internalType": "uint8",
          "name": "",
          "type": "uint8"
        }
      ],
      "stateMutability": "view",
      "type": "function"
    },
    {
      "inputs": [
        {
          "internalType": "address",
          "name": "spender",
          "type": "address"
        },
        {
          "internalType": "uint256",
          "name": "subtractedValue",
          "type": "uint256"
        }
      ],
      "name": "decreaseAllowance",
      "outputs": [
        {
          "internalType": "bool",
          "name": "",
          "type": "bool"
        }
      ],
      "stateMutability": "nonpayable",
      "type": "function"
    },
    {
      "inputs": [
        {
          "internalType": "address",
          "name": "_depositor",
          "type": "address"
        },
        {
          "internalType": "uint256",
          "name": "_depositAmount",
          "type": "uint256"
        }
      ],
      "name": "deposit",
      "outputs": [
        {
          "internalType": "uint256",
          "name": "mintAmount",
          "type": "uint256"
        }
      ],
      "stateMutability": "nonpayable",
      "type": "function"
    },
    {
      "inputs": [],
      "name": "executeFundingPayment",
      "outputs": [],
      "stateMutability": "nonpayable",
      "type": "function"
    },
    {
      "inputs": [
        {
          "internalType": "int256",
          "name": "_deltaLiquidityAmount",
          "type": "int256"
        }
      ],
      "name": "getLPTokenPrice",
      "outputs": [
        {
          "internalType": "uint256",
          "name": "",
          "type": "uint256"
        }
      ],
      "stateMutability": "view",
      "type": "function"
    },
    {
      "inputs": [],
      "name": "getTokenAmountForHedging",
      "outputs": [
        {
          "components": [
            {
              "internalType": "uint256",
              "name": "amountUsdc",
              "type": "uint256"
            },
            {
              "internalType": "uint256",
              "name": "amountUnderlying",
              "type": "uint256"
            },
            {
              "internalType": "int256[2]",
              "name": "amountsRequiredUnderlying",
              "type": "int256[2]"
            },
            {
              "internalType": "bool",
              "name": "isLong",
              "type": "bool"
            }
          ],
          "internalType": "struct NettingLib.CompleteParams",
          "name": "completeParams",
          "type": "tuple"
        }
      ],
      "stateMutability": "view",
      "type": "function"
    },
    {
      "inputs": [
        {
          "internalType": "uint256",
          "name": "_productId",
          "type": "uint256"
        },
        {
          "internalType": "int128",
          "name": "_tradeAmount",
          "type": "int128"
        }
      ],
      "name": "getTradePrice",
      "outputs": [
        {
          "internalType": "int256",
          "name": "",
          "type": "int256"
        },
        {
          "internalType": "int256",
          "name": "",
          "type": "int256"
        },
        {
          "internalType": "int256",
          "name": "",
          "type": "int256"
        },
        {
          "internalType": "int256",
          "name": "",
          "type": "int256"
        },
        {
          "internalType": "int256",
          "name": "",
          "type": "int256"
        }
      ],
      "stateMutability": "view",
      "type": "function"
    },
    {
      "inputs": [
        {
          "internalType": "int128[2]",
          "name": "amountAssets",
          "type": "int128[2]"
        }
      ],
      "name": "getTradePriceInfo",
      "outputs": [
        {
          "components": [
            {
              "internalType": "uint128",
              "name": "spotPrice",
              "type": "uint128"
            },
            {
              "internalType": "int256[2]",
              "name": "tradePrices",
              "type": "int256[2]"
            },
            {
              "internalType": "int256[2]",
              "name": "fundingRates",
              "type": "int256[2]"
            },
            {
              "internalType": "int128[2]",
              "name": "amountsFundingPaidPerPosition",
              "type": "int128[2]"
            }
          ],
          "internalType": "struct IPerpetualMarketCore.TradePriceInfo",
          "name": "",
          "type": "tuple"
        }
      ],
      "stateMutability": "view",
      "type": "function"
    },
    {
      "inputs": [],
      "name": "getUtilizationRatio",
      "outputs": [
        {
          "internalType": "uint256",
          "name": "",
          "type": "uint256"
        }
      ],
      "stateMutability": "view",
      "type": "function"
    },
    {
      "inputs": [
        {
          "internalType": "address",
          "name": "spender",
          "type": "address"
        },
        {
          "internalType": "uint256",
          "name": "addedValue",
          "type": "uint256"
        }
      ],
      "name": "increaseAllowance",
      "outputs": [
        {
          "internalType": "bool",
          "name": "",
          "type": "bool"
        }
      ],
      "stateMutability": "nonpayable",
      "type": "function"
    },
    {
      "inputs": [
        {
          "internalType": "address",
          "name": "_depositor",
          "type": "address"
        },
        {
          "internalType": "uint256",
          "name": "_depositAmount",
          "type": "uint256"
        },
        {
          "internalType": "int256",
          "name": "_initialFundingRate",
          "type": "int256"
        }
      ],
      "name": "initialize",
      "outputs": [
        {
          "internalType": "uint256",
          "name": "mintAmount",
          "type": "uint256"
        }
      ],
      "stateMutability": "nonpayable",
      "type": "function"
    },
    {
      "inputs": [],
      "name": "lastHedgeSpotPrice",
      "outputs": [
        {
          "internalType": "int256",
          "name": "",
          "type": "int256"
        }
      ],
      "stateMutability": "view",
      "type": "function"
    },
    {
      "inputs": [],
      "name": "name",
      "outputs": [
        {
          "internalType": "string",
          "name": "",
          "type": "string"
        }
      ],
      "stateMutability": "view",
      "type": "function"
    },
    {
      "inputs": [],
      "name": "owner",
      "outputs": [
        {
          "internalType": "address",
          "name": "",
          "type": "address"
        }
      ],
      "stateMutability": "view",
      "type": "function"
    },
    {
      "inputs": [
        {
          "internalType": "uint256",
          "name": "",
          "type": "uint256"
        }
      ],
      "name": "pools",
      "outputs": [
        {
          "internalType": "uint128",
          "name": "amountLockedLiquidity",
          "type": "uint128"
        },
        {
          "internalType": "int128",
          "name": "positionPerpetuals",
          "type": "int128"
        },
        {
          "internalType": "uint128",
          "name": "entryPrice",
          "type": "uint128"
        },
        {
          "internalType": "int128",
          "name": "amountFundingPaidPerPosition",
          "type": "int128"
        },
        {
          "internalType": "uint128",
          "name": "lastFundingPaymentTime",
          "type": "uint128"
        }
      ],
      "stateMutability": "view",
      "type": "function"
    },
    {
      "inputs": [],
      "name": "rebalance",
      "outputs": [],
      "stateMutability": "nonpayable",
      "type": "function"
    },
    {
      "inputs": [],
      "name": "renounceOwnership",
      "outputs": [],
      "stateMutability": "nonpayable",
      "type": "function"
    },
    {
      "inputs": [
        {
          "internalType": "uint256",
          "name": "_minSlippageToleranceOfHedge",
          "type": "uint256"
        },
        {
          "internalType": "uint256",
          "name": "_maxSlippageToleranceOfHedge",
          "type": "uint256"
        },
        {
          "internalType": "uint256",
          "name": "_hedgeRateOfReturnThreshold",
          "type": "uint256"
        }
      ],
      "name": "setHedgeParams",
      "outputs": [],
      "stateMutability": "nonpayable",
      "type": "function"
    },
    {
      "inputs": [
        {
          "internalType": "int256",
          "name": "_perpFutureMaxFundingRate",
          "type": "int256"
        }
      ],
      "name": "setPerpFutureMaxFundingRate",
      "outputs": [],
      "stateMutability": "nonpayable",
      "type": "function"
    },
    {
      "inputs": [
        {
          "internalType": "address",
          "name": "_perpetualMarket",
          "type": "address"
        }
      ],
      "name": "setPerpetualMarket",
      "outputs": [],
      "stateMutability": "nonpayable",
      "type": "function"
    },
    {
      "inputs": [
        {
          "internalType": "int256",
          "name": "_poolMarginRiskParam",
          "type": "int256"
        }
      ],
      "name": "setPoolMarginRiskParam",
      "outputs": [],
      "stateMutability": "nonpayable",
      "type": "function"
    },
    {
      "inputs": [
        {
          "internalType": "int256",
          "name": "_squaredPerpFundingMultiplier",
          "type": "int256"
        }
      ],
      "name": "setSquaredPerpFundingMultiplier",
      "outputs": [],
      "stateMutability": "nonpayable",
      "type": "function"
    },
    {
      "inputs": [
        {
          "internalType": "int256",
          "name": "_tradeFeeRate",
          "type": "int256"
        },
        {
          "internalType": "int256",
          "name": "_protocolFeeRate",
          "type": "int256"
        }
      ],
      "name": "setTradeFeeRate",
      "outputs": [],
      "stateMutability": "nonpayable",
      "type": "function"
    },
    {
      "inputs": [],
      "name": "symbol",
      "outputs": [
        {
          "internalType": "string",
          "name": "",
          "type": "string"
        }
      ],
      "stateMutability": "view",
      "type": "function"
    },
    {
      "inputs": [],
      "name": "totalSupply",
      "outputs": [
        {
          "internalType": "uint256",
          "name": "",
          "type": "uint256"
        }
      ],
      "stateMutability": "view",
      "type": "function"
    },
    {
      "inputs": [
        {
          "internalType": "address",
          "name": "recipient",
          "type": "address"
        },
        {
          "internalType": "uint256",
          "name": "amount",
          "type": "uint256"
        }
      ],
      "name": "transfer",
      "outputs": [
        {
          "internalType": "bool",
          "name": "",
          "type": "bool"
        }
      ],
      "stateMutability": "nonpayable",
      "type": "function"
    },
    {
      "inputs": [
        {
          "internalType": "address",
          "name": "sender",
          "type": "address"
        },
        {
          "internalType": "address",
          "name": "recipient",
          "type": "address"
        },
        {
          "internalType": "uint256",
          "name": "amount",
          "type": "uint256"
        }
      ],
      "name": "transferFrom",
      "outputs": [
        {
          "internalType": "bool",
          "name": "",
          "type": "bool"
        }
      ],
      "stateMutability": "nonpayable",
      "type": "function"
    },
    {
      "inputs": [
        {
          "internalType": "address",
          "name": "newOwner",
          "type": "address"
        }
      ],
      "name": "transferOwnership",
      "outputs": [],
      "stateMutability": "nonpayable",
      "type": "function"
    },
    {
      "inputs": [
        {
          "internalType": "uint256",
          "name": "_productId",
          "type": "uint256"
        },
        {
          "internalType": "int128",
          "name": "_tradeAmount",
          "type": "int128"
        }
      ],
      "name": "updatePoolPosition",
      "outputs": [
        {
          "internalType": "uint256",
          "name": "tradePrice",
          "type": "uint256"
        },
        {
          "internalType": "int256",
          "name": "",
          "type": "int256"
        },
        {
          "internalType": "uint256",
          "name": "protocolFee",
          "type": "uint256"
        }
      ],
      "stateMutability": "nonpayable",
      "type": "function"
    },
    {
      "inputs": [],
      "name": "updatePoolSnapshot",
      "outputs": [],
      "stateMutability": "nonpayable",
      "type": "function"
    },
    {
      "inputs": [
        {
          "internalType": "address",
          "name": "_withdrawer",
          "type": "address"
        },
        {
          "internalType": "uint256",
          "name": "_withdrawnAmount",
          "type": "uint256"
        }
      ],
      "name": "withdraw",
      "outputs": [
        {
          "internalType": "uint256",
          "name": "burnAmount",
          "type": "uint256"
        }
      ],
      "stateMutability": "nonpayable",
      "type": "function"
    }
  ],
  "transactionHash": "0x7e5b0a3708af5f993f317cf070a39d4dd56e41fa8a6d078d60da7c5956c075f3",
  "args": [
    "0x5f0423B1a6935dc5596e7A24d98532b67A0AeFd8",
    "Predy V2 LP Token",
    "PREDY-V2-LP"
  ],
  "solcInputHash": "63d119c4dca0c049815023a60c5667e0",
  "bytecode": "0x60806040523480156200001157600080fd5b506040516200501838038062005018833981016040819052620000349162000336565b8181600062000042620001ac565b600080546001600160a01b0319166001600160a01b0383169081178255604051929350917f8be0079c531659141344cd1fd0a4f28419497f9722a3daafe3b4186f6b6457e0908290a3508151620000a1906004906020850190620001ef565b508051620000b7906005906020840190620001ef565b50506006805460ff1916601217905550620000d36008620001b0565b601980546001600160a01b0319166001600160a01b03851617905560008052601160209081526200012f907f4ad3b33220dddc71b994a52d72c06b10862965f7d926534c05c00fb7e819e7b790620001c6811b620017f117901c565b60016000526011602090815262000171907f17bc176d2408558f6e4111feebc3cab4e16b63e967be91cde721f4c8a488b55290620017f1620001c6821b17901c565b50506320c855806007555062035b6060085560286009556050600a55622625a0600b55610fa0600c5561c350600d55614e20600e55620003bc565b3390565b6006805460ff191660ff92909216919091179055565b8054600160801b600160ff1b036001600160801b03918216178255600190910180549091169055565b828054600181600116156101000203166002900490600052602060002090601f01602090048101928262000227576000855562000272565b82601f106200024257805160ff191683800117855562000272565b8280016001018555821562000272579182015b828111156200027257825182559160200191906001019062000255565b506200028092915062000284565b5090565b5b8082111562000280576000815560010162000285565b600082601f830112620002ac578081fd5b81516001600160401b0380821115620002c157fe5b6040516020601f8401601f1916820181018381118382101715620002e157fe5b6040528382528584018101871015620002f8578485fd5b8492505b838310156200031b5785830181015182840182015291820191620002fc565b838311156200032c57848185840101525b5095945050505050565b6000806000606084860312156200034b578283fd5b83516001600160a01b038116811462000362578384fd5b60208501519093506001600160401b03808211156200037f578384fd5b6200038d878388016200029b565b93506040860151915080821115620003a3578283fd5b50620003b2868287016200029b565b9150509250925092565b614c4c80620003cc6000396000f3fe608060405234801561001057600080fd5b50600436106102275760003560e01c806382f3955d11610130578063b02582dc116100b8578063dd62ed3e1161007c578063dd62ed3e14610494578063e7dc45d3146104a7578063f2fde38b146104ba578063f3fef3a3146104cd578063f844f2a6146104e057610227565b8063b02582dc14610424578063b206ab8414610437578063b4f0332f1461044a578063bfe519511461046e578063dbd31ba21461048157610227565b80638da5cb5b116100ff5780638da5cb5b146103bd57806395d89b41146103d2578063a457c2d7146103da578063a9059cbb146103ed578063ac4afa381461040057610227565b806382f3955d14610378578063854ad1b71461039857806387c3a09a146103ad57806389633081146103b557610227565b806347e7ef24116101b357806370a082311161018257806370a082311461033a578063715018a61461034d57806373f3489e146103555780637d7c2a1c146103685780637d8c26591461037057610227565b806347e7ef24146102f957806351c6590a1461030c578063545ed65a1461031f5780635cda497d1461032757610227565b806323a216c1116101fa57806323a216c11461029457806323b872dd1461029c578063313ce567146102af57806339509351146102c45780633ed7e33c146102d757610227565b806306fdde031461022c578063095ea7b31461024a57806318160ddd1461026a578063192679ed1461027f575b600080fd5b6102346104f3565b604051610241919061470b565b60405180910390f35b61025d610258366004614405565b610589565b60405161024191906146a8565b6102726105a7565b60405161024191906146d1565b61029261028d3660046144e6565b6105ad565b005b61027261066c565b61025d6102aa3660046143ca565b6106ca565b6102b7610752565b6040516102419190614902565b61025d6102d2366004614405565b61075b565b6102ea6102e53660046145d5565b6107a9565b604051610241939291906148ec565b610272610307366004614405565b61093a565b61029261031a3660046144e6565b6109db565b610272610a18565b6102926103353660046145f7565b610a1e565b61027261034836600461437e565b610afc565b610292610b1b565b6102726103633660046144e6565b610bc7565b610292610c75565b610292610d5e565b61038b610386366004614460565b610db3565b604051610241919061482f565b6103a0610ee7565b60405161024191906147f4565b61029261101b565b61027261107e565b6103c5611084565b6040516102419190614694565b610234611093565b61025d6103e8366004614405565b6110f4565b61025d6103fb366004614405565b61115c565b61041361040e3660046144e6565b611170565b60405161024195949392919061489e565b6102926104323660046144e6565b6111b3565b6102926104453660046144fe565b611268565b61045d6104583660046145d5565b61134d565b6040516102419594939291906146e8565b61029261047c3660046144e6565b611385565b61029261048f36600461451f565b61142a565b6102726104a2366004614398565b611471565b6102726104b536600461442e565b61149c565b6102926104c836600461437e565b611591565b6102726104db366004614405565b611693565b6102926104ee36600461437e565b611743565b60048054604080516020601f600260001961010060018816150201909516949094049384018190048102820181019092528281526060939092909183018282801561057f5780601f106105545761010080835404028352916020019161057f565b820191906000526020600020905b81548152906001019060200180831161056257829003601f168201915b5050505050905090565b600061059d610596611823565b8484611827565b5060015b92915050565b60035490565b6105b5611823565b6001600160a01b03166105c6611084565b6001600160a01b03161461060f576040805162461bcd60e51b81526020600482018190526024820152600080516020614af5833981519152604482015290519081900360640190fd5b600081121580156106235750620f42408113155b61062c57600080fd5b60088190556040517f0e5502f89db0c53034cbc3f53df6d411d72c6c9b9e711b952d4cc6a30d8ac73d906106619083906146d1565b60405180910390a150565b60008060005b60028110156106a85760008181526010602052604090205461069e9083906001600160801b0316611913565b9150600101610672565b50600f546106c4906106be836305f5e10061196d565b906119c6565b91505090565b60006106d7848484611a2d565b610747846106e3611823565b61074285604051806060016040528060288152602001614acd602891396001600160a01b038a16600090815260026020526040812090610721611823565b6001600160a01b031681526020810191909152604001600020549190611b8a565b611827565b5060015b9392505050565b60065460ff1690565b600061059d610768611823565b846107428560026000610779611823565b6001600160a01b03908116825260208083019390935260409182016000908120918c168152925290205490611913565b601b54600090819081906001600160a01b031633146107e35760405162461bcd60e51b81526004016107da9061479a565b60405180910390fd5b6000600f54116108055760405162461bcd60e51b81526004016107da9061477c565b600061080f611c21565b5060008781526010602052604090208054600160801b808204600f90810b8a9003810b6001600160801b03908116909202919092161790915590915061085b908790839088900b611cdd565b6000888152601060205260408120600181015490549397509194509182916108b1916001600160801b03909116906108a490600160801b9004600f90810b810b908b900b611e5b565b888a600003600f0b611ec0565b915091506108c66108c183611ff8565b612053565b600089815260106020526040902060010180546001600160801b0319166001600160801b0392909216919091179055600f5461090c9061090586612097565b83036120db565b600f908155600089815260106020526040902060010154600160801b9004810b900b94505050509250925092565b601b546000906001600160a01b031633146109675760405162461bcd60e51b81526004016107da9061479a565b60006109716105a7565b1161097b57600080fd5b600061098961036384612097565b90506109a061099b6012600184612169565b611ff8565b90506109b7816106be85662386f26fc1000061196d565b600f549092506109c79084611913565b600f556109d4848361222d565b5092915050565b601b546001600160a01b03163314610a055760405162461bcd60e51b81526004016107da9061479a565b600f54610a129082611913565b600f5550565b601a5481565b610a26611823565b6001600160a01b0316610a37611084565b6001600160a01b031614610a80576040805162461bcd60e51b81526020600482018190526024820152600080516020614af5833981519152604482015290519081900360640190fd5b8183108015610a90575060c88211155b610aac5760405162461bcd60e51b81526004016107da906147b8565b6009839055600a829055600b8190556040517f40eadc083dad26c82ca6e52052119f861019dc8b168294cc37f793801b6494a090610aef908590859085906148ec565b60405180910390a1505050565b6001600160a01b0381166000908152600160205260409020545b919050565b610b23611823565b6001600160a01b0316610b34611084565b6001600160a01b031614610b7d576040805162461bcd60e51b81526020600482018190526024820152600080516020614af5833981519152604482015290519081900360640190fd5b600080546040516001600160a01b03909116907f8be0079c531659141344cd1fd0a4f28419497f9722a3daafe3b4186f6b6457e0908390a3600080546001600160a01b0319169055565b600080610bd2611c21565b5090506000610bf8610be66001848761231f565b610bf26000858861231f565b90611e5b565b9050610c6d610c056105a7565b60106020526000805160206149738339815191525460008052600080516020614a6b83398151915254600f546106be92662386f26fc1000092610c67926001600160801b0392831692610c6192169082908a90610bf290612097565b906124e9565b9061196d565b949350505050565b601b546001600160a01b03163314610c9f5760405162461bcd60e51b81526004016107da9061479a565b6000610ca9611c21565b50905060005b6002811015610d5a576000806000610cc78486612546565b9093509050610cd9848483600261263f565b90945092505081159050610cf757610cf3600f54826120db565b600f555b8115610d5057600083815260106020526040902054610d23906108c1906001600160801b0316846120db565b600084815260106020526040902080546001600160801b0319166001600160801b03929092169190911790555b5050600101610caf565b5050565b601b546001600160a01b03163314610d885760405162461bcd60e51b81526004016107da9061479a565b6000610d92611c21565b50905060005b6002811015610d5a57610dab81836126dd565b600101610d98565b610dbb61429d565b6000610dc5611c21565b509050610dd06142df565b610dd86142df565b610de06142df565b60005b6002811015610eb7576000610e1182878a8560028110610dff57fe5b6020020151600003600f0b600061284e565b905050878560028110610e2057fe5b60200201878660028110610e3057fe5b60200201919091529190915290506000610e5c8383878260028110610e5157fe5b6020020151426129d7565b600084815260106020526040902060010154909150610e9290610e8d90600160801b9004600f90810b900b83611e5b565b612a34565b848460028110610e9e57fe5b600f92830b90920b602090920201525050600101610de3565b50604080516080810182526001600160801b03909516855260208501939093529183015260608201529050919050565b610eef6142fd565b6000610ef9611c21565b506010602052600080516020614a6b833981519152546001600090815260008051602061497383398151915254929350918291610f50918591600160801b90819004600f90810b810b9291909104810b900b612a95565b91509150610f5c6142df565b828152602081018290526040805180820191829052610fc291601890600290826000855b82829054906101000a9004600f0b600f0b81526020019060100190602082600f01049283019260010382029150808411610f8057905050505050508286612ae4565b94506000610fcf85612bc7565b9050856060015115610ffd57610ff66127106106be610fee8285611913565b89519061196d565b8652611013565b6110106127106106be610fee82856124e9565b86525b505050505090565b601b546001600160a01b031633146110455760405162461bcd60e51b81526004016107da9061479a565b60155461a8c06001600160801b03600160801b9092048216011642101561106b5761107c565b61107442612c45565b61107c612dca565b565b600f5481565b6000546001600160a01b031690565b60058054604080516020601f600260001961010060018816150201909516949094049384018190048102820181019092528281526060939092909183018282801561057f5780601f106105545761010080835404028352916020019161057f565b600061059d611101611823565b8461074285604051806060016040528060258152602001614bf2602591396002600061112b611823565b6001600160a01b03908116825260208083019390935260409182016000908120918d16815292529020549190611b8a565b600061059d611169611823565b8484611a2d565b6010602052600090815260409020805460018201546002909201546001600160801b0380831693600160801b93849004600f90810b94828416949204900b911685565b6111bb611823565b6001600160a01b03166111cc611084565b6001600160a01b031614611215576040805162461bcd60e51b81526020600482018190526024820152600080516020614af5833981519152604482015290519081900360640190fd5b6000811215801561122a575063773594008113155b61123357600080fd5b60078190556040517ffd74ba77488a6a7a45711e7c3469f918238eb90178880837da4a029a93ccf375906106619083906146d1565b611270611823565b6001600160a01b0316611281611084565b6001600160a01b0316146112ca576040805162461bcd60e51b81526020600482018190526024820152600080516020614af5833981519152604482015290519081900360640190fd5b806000131580156112de5750620493e08213155b80156112e957508181125b6113055760405162461bcd60e51b81526004016107da906147b8565b600d829055600e8190556040517fbacb10fce6db592e49a2f13ebfa4af23c68a1ddc3962bc0818478a518f3fa95f9061134190849084906146da565b60405180910390a15050565b60008060008060008061135e611c21565b509050611371888289600f0b600061284e565b939c929b5090995097509095509350505050565b61138d611823565b6001600160a01b031661139e611084565b6001600160a01b0316146113e7576040805162461bcd60e51b81526020600482018190526024820152600080516020614af5833981519152604482015290519081900360640190fd5b60008112156113f557600080fd5b600c8190556040517f8e6edd6f6b5a50f0d6a8f356374101e297ba1ac391a14aaa3248ba40d7665e73906106619083906146d1565b601b546001600160a01b031633146114545760405162461bcd60e51b81526004016107da9061479a565b600061145e611c21565b50601a8190559050610d5a601683612ddc565b6001600160a01b03918216600090815260026020908152604080832093909416825291909152205490565b601b546000906001600160a01b031633146114c95760405162461bcd60e51b81526004016107da9061479a565b6114d16105a7565b156114db57600080fd5b508160006114e7611c21565b5090506114f383612a34565b60148054600f9290920b6001600160801b03908116600160801b02921691909117905561151f81612a34565b60158054600f9290920b6001600160801b03166001600160801b031990921691909117905561154d42612053565b601580546001600160801b03928316600160801b029216919091179055601a819055600f5461157c9085611913565b600f55611589858361222d565b509392505050565b611599611823565b6001600160a01b03166115aa611084565b6001600160a01b0316146115f3576040805162461bcd60e51b81526020600482018190526024820152600080516020614af5833981519152604482015290519081900360640190fd5b6001600160a01b0381166116385760405162461bcd60e51b81526004018080602001828103825260268152602001806149b56026913960400191505060405180910390fd5b600080546040516001600160a01b03808516939216917f8be0079c531659141344cd1fd0a4f28419497f9722a3daafe3b4186f6b6457e091a3600080546001600160a01b0319166001600160a01b0392909216919091179055565b601b546000906001600160a01b031633146116c05760405162461bcd60e51b81526004016107da9061479a565b816116c961309b565b10156116e75760405162461bcd60e51b81526004016107da906147d6565b60006116fd6116f584612097565b600003610bc7565b905061170f61099b6012600084612169565b9050611726816106be85662386f26fc1000061196d565b600f5490925061173690846124e9565b600f556109d484836130e5565b61174b611823565b6001600160a01b031661175c611084565b6001600160a01b0316146117a5576040805162461bcd60e51b81526020600482018190526024820152600080516020614af5833981519152604482015290519081900360640190fd5b601b546001600160a01b03161580156117c657506001600160a01b03811615155b6117cf57600080fd5b601b80546001600160a01b0319166001600160a01b0392909216919091179055565b80546f7fffffffffffffffffffffffffffffff60801b6001600160801b03918216178255600190910180549091169055565b3390565b6001600160a01b03831661186c5760405162461bcd60e51b8152600401808060200182810382526024815260200180614b826024913960400191505060405180910390fd5b6001600160a01b0382166118b15760405162461bcd60e51b81526004018080602001828103825260228152602001806149db6022913960400191505060405180910390fd5b6001600160a01b03808416600081815260026020908152604080832094871680845294825291829020859055815185815291517f8c5be1e5ebec7d5bd14f71427d1e84f3dd0314c0f7b2291e5b200ac8c7c3b9259281900390910190a3505050565b60008282018381101561074b576040805162461bcd60e51b815260206004820152601b60248201527f536166654d6174683a206164646974696f6e206f766572666c6f770000000000604482015290519081900360640190fd5b60008261197c575060006105a1565b8282028284828161198957fe5b041461074b5760405162461bcd60e51b8152600401808060200182810382526021815260200180614aac6021913960400191505060405180910390fd5b6000808211611a1c576040805162461bcd60e51b815260206004820152601a60248201527f536166654d6174683a206469766973696f6e206279207a65726f000000000000604482015290519081900360640190fd5b818381611a2557fe5b049392505050565b6001600160a01b038316611a725760405162461bcd60e51b8152600401808060200182810382526025815260200180614b5d6025913960400191505060405180910390fd5b6001600160a01b038216611ab75760405162461bcd60e51b81526004018080602001828103825260238152602001806149506023913960400191505060405180910390fd5b611ac28383836131e1565b611aff816040518060600160405280602681526020016149fd602691396001600160a01b0386166000908152600160205260409020549190611b8a565b6001600160a01b038085166000908152600160205260408082209390935590841681522054611b2e9082611913565b6001600160a01b0380841660008181526001602090815260409182902094909455805185815290519193928716927fddf252ad1be2c89b69c2b068fc378daa952ba7f163c4a11628f55a4df523b3ef92918290030190a3505050565b60008184841115611c195760405162461bcd60e51b81526004018080602001828103825283818151815260200191508051906020019080838360005b83811015611bde578181015183820152602001611bc6565b50505050905090810190601f168015611c0b5780820380516001836020036101000a031916815260200191505b509250505060405180910390fd5b505050900390565b600080600080601960009054906101000a90046001600160a01b03166001600160a01b031663feaf968c6040518163ffffffff1660e01b815260040160a06040518083038186803b158015611c7557600080fd5b505afa158015611c89573d6000803e3d6000fd5b505050506040513d601f19601f82011682018060405250810190611cad9190614622565b5093505092505060008213611cd45760405162461bcd60e51b81526004016107da9061475e565b90925090509091565b600080600080600080611cf08989612546565b60008b8152601060205260409020549195509150611d2b908a9086908490611d2690600160801b9004600f90810b900b8c6131e6565b61263f565b60008c8152601060205260408120549297509295509350909150611d6790611d6190600160801b9004600f90810b900b89611e5b565b8a61325e565b9050600080611d888b8b60008c1386611d81600f54612097565b8a8a6132c9565b94505050509150611db960008a1383601160008f81526020019081526020016000206121699092919063ffffffff16565b91508315611dd157611dcd600f54856120db565b600f555b60008b815260106020526040902054611df7906108c1906001600160801b0316886120db565b60008c815260106020526040902080546001600160801b0319166001600160801b0392909216919091179055611e2c82611ff8565b611e496305f5e1006106be611e408d61335b565b610c6786611ff8565b97509750505050505050935093915050565b6000828201818312801590611e705750838112155b80611e855750600083128015611e8557508381125b61074b5760405162461bcd60e51b8152600401808060200182810382526021815260200180614a4a6021913960400191505060405180910390fd5b60008080611ece8685611e5b565b9050851580611ee85750600086138015611ee85750600084135b80611efe5750600086128015611efe5750600084125b15611f4e57611f47611f18611f138887611e5b565b61335b565b611f41611f2e611f278861335b565b899061336c565b610bf2611f3a8b61335b565b8c9061336c565b90613415565b9250611fee565b600086138015611f5e5750600084125b8015611f6a5750600081135b80611f8c5750600086128015611f805750600084135b8015611f8c5750600081125b15611fc0578692506305f5e100611fb1611fa687866134cd565b60008790039061336c565b81611fb857fe5b059150611fee565b8015611fca578492505b6305f5e100611fe3611fdc878a6134cd565b889061336c565b81611fea57fe5b0591505b5094509492505050565b60008082121561204f576040805162461bcd60e51b815260206004820181905260248201527f53616665436173743a2076616c7565206d75737420626520706f736974697665604482015290519081900360640190fd5b5090565b6000600160801b821061204f5760405162461bcd60e51b8152600401808060200182810382526027815260200180614a236027913960400191505060405180910390fd5b6000600160ff1b821061204f5760405162461bcd60e51b8152600401808060200182810382526028815260200180614ba66028913960400191505060405180910390fd5b60008082121561212b578282600003840391508110612126576040805162461bcd60e51b815260206004820152600260248201526104d360f41b604482015290519081900360640190fd5b6105a1565b50808201828110156105a1576040805162461bcd60e51b81526020600482015260026024820152614d3160f01b604482015290519081900360640190fd5b6040805160808101825284546001600160801b038082168352600160801b91829004600f90810b810b602085015260018801549182169484019490945204820b90910b60608201526000906121c081858542613532565b815186546020840151600f90810b6001600160801b03908116600160801b9081029482166001600160801b0319948516178216949094178a5560408601516001909a01805460609097015190920b8116909302988316949091169390931716959095179055509192915050565b6001600160a01b038216612288576040805162461bcd60e51b815260206004820152601f60248201527f45524332303a206d696e7420746f20746865207a65726f206164647265737300604482015290519081900360640190fd5b612294600083836131e1565b6003546122a19082611913565b6003556001600160a01b0382166000908152600160205260409020546122c79082611913565b6001600160a01b03831660008181526001602090815260408083209490945583518581529351929391927fddf252ad1be2c89b69c2b068fc378daa952ba7f163c4a11628f55a4df523b3ef9281900390910190a35050565b6000838152601060205260408120548190600160801b9004600f90810b900b156123dd5760008581526010602052604081205461236e9087908790600160801b9004600f90810b900b8761284e565b5050506000888152601060205260409020600101549192506305f5e100916123d191506123ae906123a7906001600160801b0316612097565b84906134cd565b600089815260106020526040902054600160801b9004600f90810b900b9061336c565b816123d857fe5b059150505b60408051606081018252601680546001600160801b0316825282518084019093526000926124d39288928a926020830190601760028282826020028201916000905b82829054906101000a90046001600160801b03166001600160801b031681526020019060100190602082600f0104928301926001038202915080841161241f57505050928452505060408051808201918290526020909301929150600284810191826000855b82829054906101000a9004600f0b600f0b81526020019060100190602082600f0104928301926001038202915080841161248557905050505050508152505061375a9092919063ffffffff16565b90506124df8282611e5b565b9695505050505050565b600082821115612540576040805162461bcd60e51b815260206004820152601e60248201527f536166654d6174683a207375627472616374696f6e206f766572666c6f770000604482015290519081900360640190fd5b50900390565b6010602052600080516020614a6b833981519152546001600090815260008051602061497383398151915254909182918291829161259d918791600160801b91829004600f90810b810b92909104810b900b612a95565b6001600081815260106020526000805160206149738339815191525493955091935090916305f5e100916125e991600160801b9004600f90810b900b906125e3906137b8565b9061336c565b816125f057fe5b059050612631876040518060a00160405280868152602001858152602001848152602001898152602001600c54815250601661380b9092919063ffffffff16565b909890975095505050505050565b60008060008086131561267b578561265561309b565b10156126735760405162461bcd60e51b81526004016107da9061477c565b8591506126ac565b60008612156126ac576000878152601060205260409020546126a7906001600160801b03168787613a02565b925090505b6000878152601060205260409020546126d190859084906001600160801b0316613a2d565b92509450945094915050565b6000828152601060205260409020600201546001600160801b031661272b57600082815260106020526040902060020180546001600160801b031916426001600160801b0316179055610d5a565b6000828152601060205260409020600201546001600160801b0316421161275157610d5a565b6000806000612761858542613aac565b600088815260106020526040902060010154929550909350915061279790610e8d90600160801b9004600f90810b900b84611e5b565b60008681526010602052604090206001018054600f9290920b6001600160801b03908116600160801b02921691909117905580156127df576127db600f54826120db565b600f555b6000858152601060205260409081902060020180546001600160801b031916426001600160801b0316179055517f329e6568ee2be8e26404ac2c2705d972dd496b8186569e7b1cb585a306993f0e9061283f9087908690869086906148d1565b60405180910390a15050505050565b6000808080808087156128a05760008060006128738d8d61286e8e612a34565b613b55565b92509250925060006128878e85858561263f565b91965090915061289990508b82611e5b565b9a50505050505b60008a8152601060205260408120546128c790600160801b9004600f90810b900b8c61325e565b90506128e58b8b60008c13846128de600f54612097565b878e6132c9565b809750819850829950839a50849b505050505050506129c9600089138742601160008f81526020019081526020016000206040518060800160405290816000820160009054906101000a90046001600160801b03166001600160801b03166001600160801b031681526020016000820160109054906101000a9004600f0b600f0b600f0b81526020016001820160009054906101000a90046001600160801b03166001600160801b03166001600160801b031681526020016001820160109054906101000a9004600f0b600f0b600f0b81525050613532909392919063ffffffff16565b955050945094509450945094565b60006129ee662386f26fc10000611f41868661336c565b600086815260106020526040902060020154909150612a2b906201518090611f4190612a249086906001600160801b03166124e9565b849061336c565b95945050505050565b60006f7fffffffffffffffffffffffffffffff198212158015612a5a57506001607f1b82125b61204f5760405162461bcd60e51b8152600401808060200182810382526027815260200180614a236027913960400191505060405180910390fd5b60008060006305f5e100612aae866125e360008a613d3a565b81612ab557fe5b05905060006305f5e100612ace866125e360018b613d3a565b81612ad557fe5b92989205965090945050505050565b612aec6142fd565b825184516040830180516000928303600f90810b9490940390526020808701519088015191519190920390920b0390600160200201526000612b2d85613d72565b90506000612b4f82610bf287600160200201518860005b602002015190611e5b565b602086015160009182039250612b66908783612b44565b1315612b8b57506020840151855160408401516000918203600f0b9092019091528190035b600081136060840152612b9d8161335b565b60208401526305f5e100612bb485610c678461335b565b81612bbb57fe5b04835250509392505050565b600080612bf0611f13601a54611f416305f5e1006125e3601a54896134cd90919063ffffffff16565b9050612c1d612c14600b546106be84600954600a540361196d90919063ffffffff16565b60095490611913565b9150600954821015612c2f5760095491505b600a54821115612c3f57600a5491505b50919050565b6000612c4f611c21565b50601554909150600090612c7690600f90810b900b611f416305f5e1006125e386846134cd565b90506000612c8c6305f5e100611f41848061336c565b601554909150612cbe90612cb190600160801b90046001600160801b03168603612097565b611f41836201518061336c565b9050612d056305f5e100612cf8612cd8625b8d808561336c565b601454610bf29063059a538090600160801b9004600f90810b900b61336c565b81612cff57fe5b05612a34565b60148054600f9290920b6001600160801b03908116600160801b029216919091179055612d3183612a34565b60158054600f9290920b6001600160801b03166001600160801b0319909216919091179055612d5f84612053565b601580546001600160801b03908116600160801b93909116830217908190556014546040517fc0286f283c0343297f024da33b37cbae636c6f78d8b29803dd94a72c09d44b1a93612dbc939204600f90810b92900b9088906146b3565b60405180910390a150505050565b601480546001600160801b0319169055565b6000612e15612dff8360400151600160028110612df557fe5b602002015161335b565b6040840151612e0f906000612df5565b90611913565b905060008111612e51576040805162461bcd60e51b81526020600482015260026024820152614e3160f01b604482015290519081900360640190fd5b60005b600281101561309557612eb1610e8d84604001518360028110612e7357fe5b6020020151866002018460028110612e8757fe5b600291828204019190066010029054906101000a9004600f0b600f0b611e5b90919063ffffffff16565b846002018260028110612ec057fe5b600291828204019190066010026101000a8154816001600160801b030219169083600f0b6001600160801b031602179055506000612f16836106be612f0e87604001518660028110612df557fe5b87519061196d565b90508360600151156130115780856001018360028110612f3257fe5b600291828204019190066010029054906101000a90046001600160801b03166001600160801b03161015612f92576040805162461bcd60e51b8152602060048201526002602482015261271960f11b604482015290519081900360640190fd5b612fce6108c182876001018560028110612fa857fe5b60028104919091015460019091166010026101000a90046001600160801b0316906124e9565b856001018360028110612fdd57fe5b600291828204019190066010026101000a8154816001600160801b0302191690836001600160801b0316021790555061308c565b61304d6108c18287600101856002811061302757fe5b60028104919091015460019091166010026101000a90046001600160801b031690611913565b85600101836002811061305c57fe5b600291828204019190066010026101000a8154816001600160801b0302191690836001600160801b031602179055505b50600101612e54565b50505050565b60008060005b60028110156130d7576000818152601060205260409020546130cd9083906001600160801b0316611913565b91506001016130a1565b50600f546106c490826124e9565b6001600160a01b03821661312a5760405162461bcd60e51b8152600401808060200182810382526021815260200180614b3c6021913960400191505060405180910390fd5b613136826000836131e1565b61317381604051806060016040528060228152602001614993602291396001600160a01b0385166000908152600160205260409020549190611b8a565b6001600160a01b03831660009081526001602052604090205560035461319990826124e9565b6003556040805182815290516000916001600160a01b038516917fddf252ad1be2c89b69c2b068fc378daa952ba7f163c4a11628f55a4df523b3ef9181900360200190a35050565b505050565b6000806131f38484611e5b565b90506000811380156132055750600084125b156132145760039150506105a1565b6000811280156132245750600084135b156132335760019150506105a1565b60008112158015613245575060008412155b156132545760029150506105a1565b60009150506105a1565b60008261326d575060006105a1565b60008313156132a157600082815260106020526040902054613297906001600160801b0316612097565b60000390506105a1565b6000828152601060205260409020546132c2906001600160801b0316612097565b90506105a1565b6000806000806000806132df8d8b8b8b8b613da7565b90506132eb8d8d613e86565b94506000613307662386f26fc10000611f41611f278286611e5b565b90506133148e8d88613ead565b93506133208185611e5b565b905061332c8e87613f1c565b925080868361334261333d8861335b565b612097565b9650965096509650505097509750975097509792505050565b60008082121561204f575060000390565b60008261337b575060006105a1565b8260001914801561338f5750600160ff1b82145b156133cb5760405162461bcd60e51b8152600401808060200182810382526027815260200180614b156027913960400191505060405180910390fd5b828202828482816133d857fe5b051461074b5760405162461bcd60e51b8152600401808060200182810382526027815260200180614b156027913960400191505060405180910390fd5b600081613469576040805162461bcd60e51b815260206004820181905260248201527f5369676e6564536166654d6174683a206469766973696f6e206279207a65726f604482015290519081900360640190fd5b8160001914801561347d5750600160ff1b83145b156134b95760405162461bcd60e51b8152600401808060200182810382526021815260200180614a8b6021913960400191505060405180910390fd5b60008284816134c457fe5b05949350505050565b60008183038183128015906134e25750838113155b806134f757506000831280156134f757508381135b61074b5760405162461bcd60e51b8152600401808060200182810382526024815260200180614bce6024913960400191505060405180910390fd5b81831561364b57610168820385604001516001600160801b0316106135fd578460600151600f0b8112156135fd576000603c86604001516001600160801b031684038161357b57fe5b049050600061358b60088361196d565b9050605081131561359a575060505b6060870151612710906135b290600f0b83830361336c565b816135b957fe5b0583136135f1576135e4612710612cf883612710038a60600151600f0b61336c90919063ffffffff16565b600f90810b900b60608801525b5050506060840151600f0b5b808560200151600f0b138061361f575084516001600160801b03166101680182115b1561363a5761362d81612a34565b600f90810b900b60208601525b6001600160801b0382168552610c6d565b610168820385600001516001600160801b031610613703578460200151600f0b811315613703578451603c6001600160801b03909116830304600061369160088361196d565b905060508113156136a0575060505b6020870151612710906136b890600f0b83830161336c565b816136bf57fe5b0583136136f7576136ea612710612cf883612710018a60200151600f0b61336c90919063ffffffff16565b600f90810b900b60208801525b5050506020840151600f0b5b808560600151600f0b128061372857508161016886604001516001600160801b031601105b156137435761373681612a34565b600f90810b900b60608601525b6001600160801b0382166040860152949350505050565b6000806305f5e1006137848660400151856002811061377557fe5b60200201518690600f0b61336c565b8161378b57fe5b059050612a2b81610bf2876020015186600281106137a557fe5b60200201516001600160801b0316612097565b6000816137c757506000610b16565b81600114156137d95750614e20610b16565b6040805162461bcd60e51b815260206004820152600260248201526104e560f41b604482015290519081900360640190fd5b600080600061381a8585613f5a565b6040805160608101825288546001600160801b03168152815180830192839052929350613907929091899160208401916001840190600290826000855b82829054906101000a90046001600160801b03166001600160801b031681526020019060100190602082600f0104928301926001038202915080841161385757505050928452505060408051808201918290526020909301929150600284810191826000855b82829054906101000a9004600f0b600f0b81526020019060100190602082600f010492830192600103820291508084116138bd57905050505050508152505085606001518761375a565b915061391381836134cd565b9250600061395a84610bf289600101896002811061392d57fe5b600291828204019190066010029054906101000a90046001600160801b03166001600160801b0316612097565b12156139785761397286600101866002811061392d57fe5b60000392505b6139bb6108c187600101876002811061398d57fe5b600291828204019190066010029054906101000a90046001600160801b03166001600160801b0316856120db565b8660010186600281106139ca57fe5b600291828204019190066010026101000a8154816001600160801b0302191690836001600160801b0316021790555050935093915050565b600080613a1c83611f41613a1588612097565b879061336c565b600094909403840195939450505050565b60006003846003811115613a3d57fe5b1415613a5957613a5283610bf284600261336c565b905061074b565b6001846003811115613a6757fe5b1415613a8657613a7c83610bf284600261336c565b600003905061074b565b6002846003811115613a9457fe5b1415613aa55782600003905061074b565b508161074b565b600080600080613abc8787613e86565b600088815260106020526040902054909150613aff908890613aec90600160801b9004600f90810b900b8261325e565b613af7600f54612097565b600080613da7565b9350613b0d878286886129d7565b6000888152601060205260408120549194506305f5e10091613b41918691600160801b9004600f90810b909103900b61336c565b81613b4857fe5b0591505093509350939050565b6010602052600080516020614a6b833981519152546001600090815260008051602061497383398151915254909182918291829182918291600160801b91829004600f90810b92909104900b8a613bbe578882039150613bbb82600f0b8a600f0b6131e6565b95505b8a60011415613bdf578881039050613bdc81600f0b8a600f0b6131e6565b95505b613bf08a83600f0b83600f0b612a95565b90955093506305f5e100613c0c600f83900b6125e360016137b8565b81613c1357fe5b05925050506000613c4c8a6040518060a001604052808781526020018681526020018581526020018c8152602001600c54815250613f5a565b60408051606081018252601680546001600160801b031682528251808401909352929350613d26928c928e92919060208301906017600282828260200282019160009082829054906101000a90046001600160801b03166001600160801b031681526020019060100190602082600f0104928301926001038202915080841161241f575050509284525050604080518082019182905260028581018054600f90810b900b83526020958601959294509290918390601090860180841161248557905050505050508152505061375a9092919063ffffffff16565b955085810396505050505093509350939050565b600082613d4c57506305f5e1006105a1565b82600114156137d957612710613d6383600261336c565b81613d6a57fe5b0590506105a1565b6000805b6002811015612c3f57613d9d838260028110613d8e57fe5b60200201518390600f0b611e5b565b9150600101613d76565b600085613def576000613dd06305f5e100611f41613dc789888a89613fce565b6008549061336c565b601454909150613de790600f90810b900b82611e5b565b915050612a2b565b8560011415613e7a5783613e2357601454613e1c90600160801b9004600f90810b900b6305f5e10061336c565b9050612a2b565b6000613e456305f5e100611f41613e3c89888a89613fce565b6007549061336c565b9050613de76305f5e100611f41613e63662386f26fc1000085611e5b565b601454600160801b9004600f90810b900b9061336c565b50600095945050505050565b600082613e945750806105a1565b82600114156137d95764e8d4a51000613d63838061336c565b6000808213613ebb57600080fd5b8215613ef1576305f5e100613ee2856001016125e3600d548661336c90919063ffffffff16565b81613ee957fe5b05905061074b565b6305f5e100613f12856001016125e3600d548661336c90919063ffffffff16565b60000381613ee957fe5b6000808213613f2a57600080fd5b6305f5e100613f4b846001016125e3600e548661336c90919063ffffffff16565b81613f5257fe5b059392505050565b600080613f7084846000015185602001516140c8565b905083613f8957613f81838261417d565b9150506105a1565b8360011415613f9c57613f8183826141ce565b6040805162461bcd60e51b815260206004820152600260248201526104e360f41b604482015290519081900360640190fd5b6000808313614019576040805162461bcd60e51b81526020600482015260126024820152716c206d75737420626520706f73697469766560701b604482015290519081900360640190fd5b6000614029866125e3818061336c565b905061404b6140446002611f4160036125e38a818d8061336c565b8290611e5b565b905061405e614044866125e3898261336c565b90506140766140446004611f41886125e3818061336c565b905061408c84611f418181856305f5e10061336c565b90506124df61409b8585611e5b565b611f416140a88787611e5b565b611f416305f5e1006125e3611fdc6140c18b6002613415565b8c90611e5b565b6000806140d58484611e5b565b905060006140f161333d6140e88661335b565b612e0f8861335b565b9050600081121561412e576040805162461bcd60e51b81526020600482015260026024820152614e3160f01b604482015290519081900360640190fd5b8061413e5760009250505061074b565b856141605761415781611f41846125e361333d8a61335b565b9250505061074b565b8560011415613f9c5761415781611f41846125e361333d8961335b565b6000806305f5e10061419f61419461333d8661335b565b60608701519061336c565b816141a657fe5b0590506127106141c78286608001516127100161336c90919063ffffffff16565b816134c457fe5b60008064e8d4a510006141fa85604001516125e38760600151886080015161336c90919063ffffffff16565b8161420157fe5b059050610c6d64e8d4a5100061423f61422061333d611f1388876134cd565b6125e3886060015189608001516127100361336c90919063ffffffff16565b8161424657fe5b0564e8d4a5100061427f61426061333d611f138988611e5b565b6125e389606001518a608001516127100161336c90919063ffffffff16565b8161428657fe5b056000818313614296578161074b565b5090919050565b604051806080016040528060006001600160801b031681526020016142c06142df565b81526020016142cd6142df565b81526020016142da6142df565b905290565b60405180604001604052806002906020820280368337509192915050565b6040518060800160405280600081526020016000815260200161431e6142df565b8152600060209091015290565b80356001600160a01b0381168114610b1657600080fd5b80358015158114610b1657600080fd5b8035600f81900b8114610b1657600080fd5b805169ffffffffffffffffffff81168114610b1657600080fd5b60006020828403121561438f578081fd5b61074b8261432b565b600080604083850312156143aa578081fd5b6143b38361432b565b91506143c16020840161432b565b90509250929050565b6000806000606084860312156143de578081fd5b6143e78461432b565b92506143f56020850161432b565b9150604084013590509250925092565b60008060408385031215614417578182fd5b6144208361432b565b946020939093013593505050565b600080600060608486031215614442578283fd5b61444b8461432b565b95602085013595506040909401359392505050565b600060408284031215614471578081fd5b82601f83011261447f578081fd5b6040516040810181811067ffffffffffffffff8211171561449c57fe5b80604052508083856040860111156144b2578384fd5b835b60028110156144db576144c682614352565b835260209283019291909101906001016144b4565b509195945050505050565b6000602082840312156144f7578081fd5b5035919050565b60008060408385031215614510578182fd5b50508035926020909101359150565b600060a08284031215614530578081fd5b6040516080810181811067ffffffffffffffff8211171561454d57fe5b6040528235815260208084013581830152605f8401851361456c578283fd5b600261457f61457a82614934565b614910565b80604087016080880189811115614594578788fd5b875b858110156145b257823585529386019391860191600101614596565b508260408801526145c281614342565b6060880152509498975050505050505050565b600080604083850312156145e7578182fd5b823591506143c160208401614352565b60008060006060848603121561460b578081fd5b505081359360208301359350604090920135919050565b600080600080600060a08688031215614639578283fd5b61464286614364565b945060208601519350604086015192506060860151915061466560808701614364565b90509295509295909350565b8060005b6002811015613095578151845260209384019390910190600101614675565b6001600160a01b0391909116815260200190565b901515815260200190565b600f93840b81529190920b6020820152604081019190915260600190565b90815260200190565b918252602082015260400190565b948552602085019390935260408401919091526060830152608082015260a00190565b6000602080835283518082850152825b818110156147375785810183015185820160400152820161471b565b818111156147485783604083870101525b50601f01601f1916929092016040019392505050565b602080825260049082015263504d433360e01b604082015260600190565b602080825260049082015263504d433160e01b604082015260600190565b6020808252600490820152632826a19960e11b604082015260600190565b602080825260049082015263504d433560e01b604082015260600190565b6020808252600490820152630504d43360e41b604082015260600190565b600060a0820190508251825260208301516020830152604083015161481c6040840182614671565b5060608301511515608083015292915050565b81516001600160801b0316815260208083015160e08301919061485482850182614671565b5060408401516148676060850182614671565b50606084015160a0840160005b6002811015614894578251600f0b82529183019190830190600101614874565b5050505092915050565b6001600160801b039586168152600f94850b60208201529285166040840152920b60608201529116608082015260a00190565b93845260208401929092526040830152606082015260800190565b9283526020830191909152604082015260600190565b60ff91909116815260200190565b60405181810167ffffffffffffffff8111828210171561492c57fe5b604052919050565b600067ffffffffffffffff82111561494857fe5b506020029056fe45524332303a207472616e7366657220746f20746865207a65726f20616464726573738c6065603763fec3f5742441d3833f3f43b982453612d76adb39a885e3006b5f45524332303a206275726e20616d6f756e7420657863656564732062616c616e63654f776e61626c653a206e6577206f776e657220697320746865207a65726f206164647265737345524332303a20617070726f766520746f20746865207a65726f206164647265737345524332303a207472616e7366657220616d6f756e7420657863656564732062616c616e636553616665436173743a2076616c756520646f65736e27742066697420696e2031323820626974735369676e6564536166654d6174683a206164646974696f6e206f766572666c6f776e0956cda88cad152e89927e53611735b61a5c762d1428573c6931b0a5efcb015369676e6564536166654d6174683a206469766973696f6e206f766572666c6f77536166654d6174683a206d756c7469706c69636174696f6e206f766572666c6f7745524332303a207472616e7366657220616d6f756e74206578636565647320616c6c6f77616e63654f776e61626c653a2063616c6c6572206973206e6f7420746865206f776e65725369676e6564536166654d6174683a206d756c7469706c69636174696f6e206f766572666c6f7745524332303a206275726e2066726f6d20746865207a65726f206164647265737345524332303a207472616e736665722066726f6d20746865207a65726f206164647265737345524332303a20617070726f76652066726f6d20746865207a65726f206164647265737353616665436173743a2076616c756520646f65736e27742066697420696e20616e20696e743235365369676e6564536166654d6174683a207375627472616374696f6e206f766572666c6f7745524332303a2064656372656173656420616c6c6f77616e63652062656c6f77207a65726fa2646970667358221220fe5eefb03a35fe855458f126447c54f372cd62f0ec42a948298eac8d70d31f3f64736f6c63430007060033",
  "devdoc": {
    "kind": "dev",
    "methods": {
      "allowance(address,address)": {
        "details": "See {IERC20-allowance}."
      },
      "approve(address,uint256)": {
        "details": "See {IERC20-approve}. Requirements: - `spender` cannot be the zero address."
      },
      "balanceOf(address)": {
        "details": "See {IERC20-balanceOf}."
      },
      "decimals()": {
        "details": "Returns the number of decimals used to get its user representation. For example, if `decimals` equals `2`, a balance of `505` tokens should be displayed to a user as `5,05` (`505 / 10 ** 2`). Tokens usually opt for a value of 18, imitating the relationship between Ether and Wei. This is the value {ERC20} uses, unless {_setupDecimals} is called. NOTE: This information is only used for _display_ purposes: it in no way affects any of the arithmetic of the contract, including {IERC20-balanceOf} and {IERC20-transfer}."
      },
      "decreaseAllowance(address,uint256)": {
        "details": "Atomically decreases the allowance granted to `spender` by the caller. This is an alternative to {approve} that can be used as a mitigation for problems described in {IERC20-approve}. Emits an {Approval} event indicating the updated allowance. Requirements: - `spender` cannot be the zero address. - `spender` must have allowance for the caller of at least `subtractedValue`."
      },
      "getLPTokenPrice(int256)": {
        "returns": {
          "_0": "LPTokenPrice scaled by 1e16"
        }
      },
      "getTradePrice(uint256,int128)": {
        "params": {
          "_productId": "product id",
          "_tradeAmount": "amount of position to trade. positive for pool short and negative for pool long."
        }
      },
      "getUtilizationRatio()": {
        "returns": {
          "_0": "Utilization Ratio scaled by 1e8"
        }
      },
      "increaseAllowance(address,uint256)": {
        "details": "Atomically increases the allowance granted to `spender` by the caller. This is an alternative to {approve} that can be used as a mitigation for problems described in {IERC20-approve}. Emits an {Approval} event indicating the updated allowance. Requirements: - `spender` cannot be the zero address."
      },
      "name()": {
        "details": "Returns the name of the token."
      },
      "owner()": {
        "details": "Returns the address of the current owner."
      },
      "renounceOwnership()": {
        "details": "Leaves the contract without owner. It will not be possible to call `onlyOwner` functions anymore. Can only be called by the current owner. NOTE: Renouncing ownership will leave the contract without an owner, thereby removing any functionality that is only available to the owner."
      },
      "symbol()": {
        "details": "Returns the symbol of the token, usually a shorter version of the name."
      },
      "totalSupply()": {
        "details": "See {IERC20-totalSupply}."
      },
      "transfer(address,uint256)": {
        "details": "See {IERC20-transfer}. Requirements: - `recipient` cannot be the zero address. - the caller must have a balance of at least `amount`."
      },
      "transferFrom(address,address,uint256)": {
        "details": "See {IERC20-transferFrom}. Emits an {Approval} event indicating the updated allowance. This is not required by the EIP. See the note at the beginning of {ERC20}. Requirements: - `sender` and `recipient` cannot be the zero address. - `sender` must have a balance of at least `amount`. - the caller must have allowance for ``sender``'s tokens of at least `amount`."
      },
      "transferOwnership(address)": {
        "details": "Transfers ownership of the contract to a new account (`newOwner`). Can only be called by the current owner."
      },
      "updatePoolPosition(uint256,int128)": {
        "params": {
          "_productId": "product id",
          "_tradeAmount": "amount of position to trade. positive for pool short and negative for pool long."
        }
      }
    },
    "title": "PerpetualMarketCore",
    "version": 1
  },
  "userdoc": {
    "kind": "user",
    "methods": {
      "completeHedgingProcedure((uint256,uint256,int256[2],bool))": {
        "notice": "Update netting info to complete heging procedure"
      },
      "deposit(address,uint256)": {
        "notice": "Provides liquidity"
      },
      "getLPTokenPrice(int256)": {
        "notice": "Gets LP token price LPTokenPrice = (L + UnrealizedPnL_i - AmountLockedLiquidity_i) / Supply"
      },
      "getTokenAmountForHedging()": {
        "notice": "Gets USDC and underlying amount to make the pool delta neutral"
      },
      "getTradePrice(uint256,int128)": {
        "notice": "Gets trade price"
      },
      "getUtilizationRatio()": {
        "notice": "Gets utilization ratio Utilization Ratio = (AmountLockedLiquidity_i) / L"
      },
      "initialize(address,uint256,int256)": {
        "notice": "Initialize pool with initial liquidity and funding rate"
      },
      "rebalance()": {
        "notice": "Locks liquidity if more collateral required and unlocks liquidity if there is unrequied collateral."
      },
      "updatePoolPosition(uint256,int128)": {
        "notice": "Adds or removes positions"
      },
      "updatePoolSnapshot()": {
        "notice": "Updates pool snapshot Calculates ETH variance and base funding rate for future pool."
      },
      "withdraw(address,uint256)": {
        "notice": "xxWithdraws liquidity"
      }
    },
    "notice": "Perpetual Market Core Contract manages perpetual pool positions and calculates amount of collaterals. Error Code PMC0: No available liquidity PMC1: No available liquidity PMC2: caller must be PerpetualMarket contract PMC3: underlying price must not be 0 PMC4: pool delta must be negative PMC5: invalid params",
    "version": 1
  },
  "storageLayout": {
    "storage": [
      {
        "astId": 53,
        "contract": "contracts/PerpetualMarketCore.sol:PerpetualMarketCore",
        "label": "_owner",
        "offset": 0,
        "slot": "0",
        "type": "t_address"
      },
      {
        "astId": 841,
        "contract": "contracts/PerpetualMarketCore.sol:PerpetualMarketCore",
        "label": "_balances",
        "offset": 0,
        "slot": "1",
        "type": "t_mapping(t_address,t_uint256)"
      },
      {
        "astId": 847,
        "contract": "contracts/PerpetualMarketCore.sol:PerpetualMarketCore",
        "label": "_allowances",
        "offset": 0,
        "slot": "2",
        "type": "t_mapping(t_address,t_mapping(t_address,t_uint256))"
      },
      {
        "astId": 849,
        "contract": "contracts/PerpetualMarketCore.sol:PerpetualMarketCore",
        "label": "_totalSupply",
        "offset": 0,
        "slot": "3",
        "type": "t_uint256"
      },
      {
        "astId": 851,
        "contract": "contracts/PerpetualMarketCore.sol:PerpetualMarketCore",
        "label": "_name",
        "offset": 0,
        "slot": "4",
        "type": "t_string_storage"
      },
      {
        "astId": 853,
        "contract": "contracts/PerpetualMarketCore.sol:PerpetualMarketCore",
        "label": "_symbol",
        "offset": 0,
        "slot": "5",
        "type": "t_string_storage"
      },
      {
        "astId": 855,
        "contract": "contracts/PerpetualMarketCore.sol:PerpetualMarketCore",
        "label": "_decimals",
        "offset": 0,
        "slot": "6",
        "type": "t_uint8"
      },
      {
        "astId": 8203,
        "contract": "contracts/PerpetualMarketCore.sol:PerpetualMarketCore",
        "label": "squaredPerpFundingMultiplier",
        "offset": 0,
        "slot": "7",
        "type": "t_int256"
      },
      {
        "astId": 8205,
        "contract": "contracts/PerpetualMarketCore.sol:PerpetualMarketCore",
        "label": "perpFutureMaxFundingRate",
        "offset": 0,
        "slot": "8",
        "type": "t_int256"
      },
      {
        "astId": 8207,
        "contract": "contracts/PerpetualMarketCore.sol:PerpetualMarketCore",
        "label": "minSlippageToleranceOfHedge",
        "offset": 0,
        "slot": "9",
        "type": "t_uint256"
      },
      {
        "astId": 8209,
        "contract": "contracts/PerpetualMarketCore.sol:PerpetualMarketCore",
        "label": "maxSlippageToleranceOfHedge",
        "offset": 0,
        "slot": "10",
        "type": "t_uint256"
      },
      {
        "astId": 8211,
        "contract": "contracts/PerpetualMarketCore.sol:PerpetualMarketCore",
        "label": "hedgeRateOfReturnThreshold",
        "offset": 0,
        "slot": "11",
        "type": "t_uint256"
      },
      {
        "astId": 8213,
        "contract": "contracts/PerpetualMarketCore.sol:PerpetualMarketCore",
        "label": "poolMarginRiskParam",
        "offset": 0,
        "slot": "12",
        "type": "t_int256"
      },
      {
        "astId": 8215,
        "contract": "contracts/PerpetualMarketCore.sol:PerpetualMarketCore",
        "label": "tradeFeeRate",
        "offset": 0,
        "slot": "13",
        "type": "t_int256"
      },
      {
        "astId": 8217,
        "contract": "contracts/PerpetualMarketCore.sol:PerpetualMarketCore",
        "label": "protocolFeeRate",
        "offset": 0,
        "slot": "14",
        "type": "t_int256"
      },
      {
        "astId": 8244,
        "contract": "contracts/PerpetualMarketCore.sol:PerpetualMarketCore",
        "label": "amountLiquidity",
        "offset": 0,
        "slot": "15",
        "type": "t_uint256"
      },
      {
        "astId": 8248,
        "contract": "contracts/PerpetualMarketCore.sol:PerpetualMarketCore",
        "label": "pools",
        "offset": 0,
        "slot": "16",
        "type": "t_mapping(t_uint256,t_struct(Pool)8228_storage)"
      },
      {
        "astId": 8252,
        "contract": "contracts/PerpetualMarketCore.sol:PerpetualMarketCore",
        "label": "spreadInfos",
        "offset": 0,
        "slot": "17",
        "type": "t_mapping(t_uint256,t_struct(Info)13348_storage)"
      },
      {
        "astId": 8254,
        "contract": "contracts/PerpetualMarketCore.sol:PerpetualMarketCore",
        "label": "lpTokenSpreadInfo",
        "offset": 0,
        "slot": "18",
        "type": "t_struct(Info)13348_storage"
      },
      {
        "astId": 8256,
        "contract": "contracts/PerpetualMarketCore.sol:PerpetualMarketCore",
        "label": "poolSnapshot",
        "offset": 0,
        "slot": "20",
        "type": "t_struct(PoolSnapshot)8237_storage"
      },
      {
        "astId": 8258,
        "contract": "contracts/PerpetualMarketCore.sol:PerpetualMarketCore",
        "label": "nettingInfo",
        "offset": 0,
        "slot": "22",
        "type": "t_struct(Info)12497_storage"
      },
      {
        "astId": 8260,
        "contract": "contracts/PerpetualMarketCore.sol:PerpetualMarketCore",
        "label": "priceFeed",
        "offset": 0,
        "slot": "25",
        "type": "t_contract(AggregatorV3Interface)45"
      },
      {
        "astId": 8262,
        "contract": "contracts/PerpetualMarketCore.sol:PerpetualMarketCore",
        "label": "lastHedgeSpotPrice",
        "offset": 0,
        "slot": "26",
        "type": "t_int256"
      },
      {
        "astId": 8264,
        "contract": "contracts/PerpetualMarketCore.sol:PerpetualMarketCore",
        "label": "perpetualMarket",
        "offset": 0,
        "slot": "27",
        "type": "t_address"
      }
    ],
    "types": {
      "t_address": {
        "encoding": "inplace",
        "label": "address",
        "numberOfBytes": "20"
      },
      "t_array(t_int128)2_storage": {
        "base": "t_int128",
        "encoding": "inplace",
        "label": "int128[2]",
        "numberOfBytes": "32"
      },
      "t_array(t_uint128)2_storage": {
        "base": "t_uint128",
        "encoding": "inplace",
        "label": "uint128[2]",
        "numberOfBytes": "32"
      },
      "t_contract(AggregatorV3Interface)45": {
        "encoding": "inplace",
        "label": "contract AggregatorV3Interface",
        "numberOfBytes": "20"
      },
      "t_int128": {
        "encoding": "inplace",
        "label": "int128",
        "numberOfBytes": "16"
      },
      "t_int256": {
        "encoding": "inplace",
        "label": "int256",
        "numberOfBytes": "32"
      },
      "t_mapping(t_address,t_mapping(t_address,t_uint256))": {
        "encoding": "mapping",
        "key": "t_address",
        "label": "mapping(address => mapping(address => uint256))",
        "numberOfBytes": "32",
        "value": "t_mapping(t_address,t_uint256)"
      },
      "t_mapping(t_address,t_uint256)": {
        "encoding": "mapping",
        "key": "t_address",
        "label": "mapping(address => uint256)",
        "numberOfBytes": "32",
        "value": "t_uint256"
      },
      "t_mapping(t_uint256,t_struct(Info)13348_storage)": {
        "encoding": "mapping",
        "key": "t_uint256",
        "label": "mapping(uint256 => struct SpreadLib.Info)",
        "numberOfBytes": "32",
        "value": "t_struct(Info)13348_storage"
      },
      "t_mapping(t_uint256,t_struct(Pool)8228_storage)": {
        "encoding": "mapping",
        "key": "t_uint256",
        "label": "mapping(uint256 => struct PerpetualMarketCore.Pool)",
        "numberOfBytes": "32",
        "value": "t_struct(Pool)8228_storage"
      },
      "t_string_storage": {
        "encoding": "bytes",
        "label": "string",
        "numberOfBytes": "32"
      },
      "t_struct(Info)12497_storage": {
        "encoding": "inplace",
        "label": "struct NettingLib.Info",
        "members": [
          {
            "astId": 12488,
            "contract": "contracts/PerpetualMarketCore.sol:PerpetualMarketCore",
            "label": "amountAaveCollateral",
            "offset": 0,
            "slot": "0",
            "type": "t_uint128"
          },
          {
            "astId": 12492,
            "contract": "contracts/PerpetualMarketCore.sol:PerpetualMarketCore",
            "label": "amountsUsdc",
            "offset": 0,
            "slot": "1",
            "type": "t_array(t_uint128)2_storage"
          },
          {
            "astId": 12496,
            "contract": "contracts/PerpetualMarketCore.sol:PerpetualMarketCore",
            "label": "amountsUnderlying",
            "offset": 0,
            "slot": "2",
            "type": "t_array(t_int128)2_storage"
          }
        ],
        "numberOfBytes": "96"
      },
      "t_struct(Info)13348_storage": {
        "encoding": "inplace",
        "label": "struct SpreadLib.Info",
        "members": [
          {
            "astId": 13341,
            "contract": "contracts/PerpetualMarketCore.sol:PerpetualMarketCore",
            "label": "timeLastLongTransaction",
            "offset": 0,
            "slot": "0",
            "type": "t_uint128"
          },
          {
            "astId": 13343,
            "contract": "contracts/PerpetualMarketCore.sol:PerpetualMarketCore",
            "label": "minLongTradePrice",
            "offset": 16,
            "slot": "0",
            "type": "t_int128"
          },
          {
            "astId": 13345,
            "contract": "contracts/PerpetualMarketCore.sol:PerpetualMarketCore",
            "label": "timeLastShortTransaction",
            "offset": 0,
            "slot": "1",
            "type": "t_uint128"
          },
          {
            "astId": 13347,
            "contract": "contracts/PerpetualMarketCore.sol:PerpetualMarketCore",
            "label": "maxShortTradePrice",
            "offset": 16,
            "slot": "1",
            "type": "t_int128"
          }
        ],
        "numberOfBytes": "64"
      },
      "t_struct(Pool)8228_storage": {
        "encoding": "inplace",
        "label": "struct PerpetualMarketCore.Pool",
        "members": [
          {
            "astId": 8219,
            "contract": "contracts/PerpetualMarketCore.sol:PerpetualMarketCore",
            "label": "amountLockedLiquidity",
            "offset": 0,
            "slot": "0",
            "type": "t_uint128"
          },
          {
            "astId": 8221,
            "contract": "contracts/PerpetualMarketCore.sol:PerpetualMarketCore",
            "label": "positionPerpetuals",
            "offset": 16,
            "slot": "0",
            "type": "t_int128"
          },
          {
            "astId": 8223,
            "contract": "contracts/PerpetualMarketCore.sol:PerpetualMarketCore",
            "label": "entryPrice",
            "offset": 0,
            "slot": "1",
            "type": "t_uint128"
          },
          {
            "astId": 8225,
            "contract": "contracts/PerpetualMarketCore.sol:PerpetualMarketCore",
            "label": "amountFundingPaidPerPosition",
            "offset": 16,
            "slot": "1",
            "type": "t_int128"
          },
          {
            "astId": 8227,
            "contract": "contracts/PerpetualMarketCore.sol:PerpetualMarketCore",
            "label": "lastFundingPaymentTime",
            "offset": 0,
            "slot": "2",
            "type": "t_uint128"
          }
        ],
        "numberOfBytes": "96"
      },
      "t_struct(PoolSnapshot)8237_storage": {
        "encoding": "inplace",
        "label": "struct PerpetualMarketCore.PoolSnapshot",
        "members": [
          {
            "astId": 8230,
            "contract": "contracts/PerpetualMarketCore.sol:PerpetualMarketCore",
            "label": "futureBaseFundingRate",
            "offset": 0,
            "slot": "0",
            "type": "t_int128"
          },
          {
            "astId": 8232,
            "contract": "contracts/PerpetualMarketCore.sol:PerpetualMarketCore",
            "label": "ethVariance",
            "offset": 16,
            "slot": "0",
            "type": "t_int128"
          },
          {
            "astId": 8234,
            "contract": "contracts/PerpetualMarketCore.sol:PerpetualMarketCore",
            "label": "ethPrice",
            "offset": 0,
            "slot": "1",
            "type": "t_int128"
          },
          {
            "astId": 8236,
            "contract": "contracts/PerpetualMarketCore.sol:PerpetualMarketCore",
            "label": "lastSnapshotTime",
            "offset": 16,
            "slot": "1",
            "type": "t_uint128"
          }
        ],
        "numberOfBytes": "64"
      },
      "t_uint128": {
        "encoding": "inplace",
        "label": "uint128",
        "numberOfBytes": "16"
      },
      "t_uint256": {
        "encoding": "inplace",
        "label": "uint256",
        "numberOfBytes": "32"
      },
      "t_uint8": {
        "encoding": "inplace",
        "label": "uint8",
        "numberOfBytes": "1"
      }
    }
  }
}