{
  "address": "0x8e15274D064A4F39DDe8F2752b84EbCd1Eb3bF13",
  "abi": [
    {
      "inputs": [
        {
          "internalType": "address",
          "name": "_priceFeedAddress",
          "type": "address"
        },
        {
          "internalType": "string",
          "name": "_tokenName",
          "type": "string"
        },
        {
          "internalType": "string",
          "name": "_tokenSymbol",
          "type": "string"
        }
      ],
      "stateMutability": "nonpayable",
      "type": "constructor"
    },
    {
      "anonymous": false,
      "inputs": [
        {
          "indexed": true,
          "internalType": "address",
          "name": "owner",
          "type": "address"
        },
        {
          "indexed": true,
          "internalType": "address",
          "name": "spender",
          "type": "address"
        },
        {
          "indexed": false,
          "internalType": "uint256",
          "name": "value",
          "type": "uint256"
        }
      ],
      "name": "Approval",
      "type": "event"
    },
    {
      "anonymous": false,
      "inputs": [
        {
          "indexed": false,
          "internalType": "uint256",
          "name": "productId",
          "type": "uint256"
        },
        {
          "indexed": false,
          "internalType": "int256",
          "name": "fundingRate",
          "type": "int256"
        },
        {
          "indexed": false,
          "internalType": "int256",
          "name": "amountFundingPaidPerPosition",
          "type": "int256"
        },
        {
          "indexed": false,
          "internalType": "int256",
          "name": "fundingPaidPerPosition",
          "type": "int256"
        },
        {
          "indexed": false,
          "internalType": "int256",
          "name": "poolReceived",
          "type": "int256"
        }
      ],
      "name": "FundingPayment",
      "type": "event"
    },
    {
      "anonymous": false,
      "inputs": [
        {
          "indexed": true,
          "internalType": "address",
          "name": "previousOwner",
          "type": "address"
        },
        {
          "indexed": true,
          "internalType": "address",
          "name": "newOwner",
          "type": "address"
        }
      ],
      "name": "OwnershipTransferred",
      "type": "event"
    },
    {
      "anonymous": false,
      "inputs": [
        {
          "indexed": false,
          "internalType": "uint256",
          "name": "minSlippageToleranceOfHedge",
          "type": "uint256"
        },
        {
          "indexed": false,
          "internalType": "uint256",
          "name": "maxSlippageToleranceOfHedge",
          "type": "uint256"
        },
        {
          "indexed": false,
          "internalType": "uint256",
          "name": "hedgeRateOfReturnThreshold",
          "type": "uint256"
        }
      ],
      "name": "SetHedgeParams",
      "type": "event"
    },
    {
      "anonymous": false,
      "inputs": [
        {
          "indexed": false,
          "internalType": "int256",
          "name": "perpFutureMaxFundingRate",
          "type": "int256"
        }
      ],
      "name": "SetPerpFutureMaxFundingRate",
      "type": "event"
    },
    {
      "anonymous": false,
      "inputs": [
        {
          "indexed": false,
          "internalType": "int256",
          "name": "poolMarginRiskParam",
          "type": "int256"
        }
      ],
      "name": "SetPoolMarginRiskParam",
      "type": "event"
    },
    {
      "anonymous": false,
      "inputs": [
        {
          "indexed": false,
          "internalType": "int256",
          "name": "squaredPerpFundingMultiplier",
          "type": "int256"
        }
      ],
      "name": "SetSquaredPerpFundingMultiplier",
      "type": "event"
    },
    {
      "anonymous": false,
      "inputs": [
        {
          "indexed": false,
          "internalType": "int256",
          "name": "tradeFeeRate",
          "type": "int256"
        },
        {
          "indexed": false,
          "internalType": "int256",
          "name": "protocolFeeRate",
          "type": "int256"
        }
      ],
      "name": "SetTradeFeeRate",
      "type": "event"
    },
    {
      "anonymous": false,
      "inputs": [
        {
          "indexed": true,
          "internalType": "address",
          "name": "from",
          "type": "address"
        },
        {
          "indexed": true,
          "internalType": "address",
          "name": "to",
          "type": "address"
        },
        {
          "indexed": false,
          "internalType": "uint256",
          "name": "value",
          "type": "uint256"
        }
      ],
      "name": "Transfer",
      "type": "event"
    },
    {
      "anonymous": false,
      "inputs": [
        {
          "indexed": false,
          "internalType": "int256",
          "name": "variance",
          "type": "int256"
        },
        {
          "indexed": false,
          "internalType": "int256",
          "name": "underlyingPrice",
          "type": "int256"
        },
        {
          "indexed": false,
          "internalType": "uint256",
          "name": "timestamp",
          "type": "uint256"
        }
      ],
      "name": "VarianceUpdated",
      "type": "event"
    },
    {
      "inputs": [
        {
          "internalType": "uint256",
          "name": "_amount",
          "type": "uint256"
        }
      ],
      "name": "addLiquidity",
      "outputs": [],
      "stateMutability": "nonpayable",
      "type": "function"
    },
    {
      "inputs": [
        {
          "internalType": "address",
          "name": "owner",
          "type": "address"
        },
        {
          "internalType": "address",
          "name": "spender",
          "type": "address"
        }
      ],
      "name": "allowance",
      "outputs": [
        {
          "internalType": "uint256",
          "name": "",
          "type": "uint256"
        }
      ],
      "stateMutability": "view",
      "type": "function"
    },
    {
      "inputs": [],
      "name": "amountLiquidity",
      "outputs": [
        {
          "internalType": "uint256",
          "name": "",
          "type": "uint256"
        }
      ],
      "stateMutability": "view",
      "type": "function"
    },
    {
      "inputs": [
        {
          "internalType": "address",
          "name": "spender",
          "type": "address"
        },
        {
          "internalType": "uint256",
          "name": "amount",
          "type": "uint256"
        }
      ],
      "name": "approve",
      "outputs": [
        {
          "internalType": "bool",
          "name": "",
          "type": "bool"
        }
      ],
      "stateMutability": "nonpayable",
      "type": "function"
    },
    {
      "inputs": [
        {
          "internalType": "address",
          "name": "account",
          "type": "address"
        }
      ],
      "name": "balanceOf",
      "outputs": [
        {
          "internalType": "uint256",
          "name": "",
          "type": "uint256"
        }
      ],
      "stateMutability": "view",
      "type": "function"
    },
    {
      "inputs": [
        {
          "components": [
            {
              "internalType": "uint256",
              "name": "amountUsdc",
              "type": "uint256"
            },
            {
              "internalType": "uint256",
              "name": "amountUnderlying",
              "type": "uint256"
            },
            {
              "internalType": "uint256",
              "name": "futureWeight",
              "type": "uint256"
            },
            {
              "internalType": "bool",
              "name": "isLong",
              "type": "bool"
            }
          ],
          "internalType": "struct NettingLib.CompleteParams",
          "name": "_completeParams",
          "type": "tuple"
        }
      ],
      "name": "completeHedgingProcedure",
      "outputs": [],
      "stateMutability": "nonpayable",
      "type": "function"
    },
    {
      "inputs": [],
      "name": "decimals",
      "outputs": [
        {
          "internalType": "uint8",
          "name": "",
          "type": "uint8"
        }
      ],
      "stateMutability": "view",
      "type": "function"
    },
    {
      "inputs": [
        {
          "internalType": "address",
          "name": "spender",
          "type": "address"
        },
        {
          "internalType": "uint256",
          "name": "subtractedValue",
          "type": "uint256"
        }
      ],
      "name": "decreaseAllowance",
      "outputs": [
        {
          "internalType": "bool",
          "name": "",
          "type": "bool"
        }
      ],
      "stateMutability": "nonpayable",
      "type": "function"
    },
    {
      "inputs": [
        {
          "internalType": "address",
          "name": "_depositor",
          "type": "address"
        },
        {
          "internalType": "uint256",
          "name": "_depositAmount",
          "type": "uint256"
        }
      ],
      "name": "deposit",
      "outputs": [
        {
          "internalType": "uint256",
          "name": "mintAmount",
          "type": "uint256"
        }
      ],
      "stateMutability": "nonpayable",
      "type": "function"
    },
    {
      "inputs": [],
      "name": "executeFundingPayment",
      "outputs": [],
      "stateMutability": "nonpayable",
      "type": "function"
    },
    {
      "inputs": [
        {
          "internalType": "int256",
          "name": "_deltaLiquidityAmount",
          "type": "int256"
        }
      ],
      "name": "getLPTokenPrice",
      "outputs": [
        {
          "internalType": "uint256",
          "name": "",
          "type": "uint256"
        }
      ],
      "stateMutability": "view",
      "type": "function"
    },
    {
      "inputs": [],
      "name": "getTokenAmountForHedging",
      "outputs": [
        {
          "components": [
            {
              "internalType": "uint256",
              "name": "amountUsdc",
              "type": "uint256"
            },
            {
              "internalType": "uint256",
              "name": "amountUnderlying",
              "type": "uint256"
            },
            {
              "internalType": "uint256",
              "name": "futureWeight",
              "type": "uint256"
            },
            {
              "internalType": "bool",
              "name": "isLong",
              "type": "bool"
            }
          ],
          "internalType": "struct NettingLib.CompleteParams",
          "name": "completeParams",
          "type": "tuple"
        }
      ],
      "stateMutability": "view",
      "type": "function"
    },
    {
      "inputs": [
        {
          "internalType": "uint256",
          "name": "_productId",
          "type": "uint256"
        },
        {
          "internalType": "int128",
          "name": "_tradeAmount",
          "type": "int128"
        }
      ],
      "name": "getTradePrice",
      "outputs": [
        {
          "internalType": "int256",
          "name": "",
          "type": "int256"
        },
        {
          "internalType": "int256",
          "name": "",
          "type": "int256"
        },
        {
          "internalType": "int256",
          "name": "",
          "type": "int256"
        },
        {
          "internalType": "int256",
          "name": "",
          "type": "int256"
        },
        {
          "internalType": "int256",
          "name": "",
          "type": "int256"
        }
      ],
      "stateMutability": "view",
      "type": "function"
    },
    {
      "inputs": [
        {
          "internalType": "int128[2]",
          "name": "amountAssets",
          "type": "int128[2]"
        }
      ],
      "name": "getTradePriceInfo",
      "outputs": [
        {
          "components": [
            {
              "internalType": "uint128",
              "name": "spotPrice",
              "type": "uint128"
            },
            {
              "internalType": "int256[2]",
              "name": "tradePrices",
              "type": "int256[2]"
            },
            {
              "internalType": "int256[2]",
              "name": "fundingRates",
              "type": "int256[2]"
            },
            {
              "internalType": "int256[2]",
              "name": "amountsFundingPaidPerPosition",
              "type": "int256[2]"
            }
          ],
          "internalType": "struct IPerpetualMarketCore.TradePriceInfo",
          "name": "",
          "type": "tuple"
        }
      ],
      "stateMutability": "view",
      "type": "function"
    },
    {
      "inputs": [],
      "name": "getUtilizationRatio",
      "outputs": [
        {
          "internalType": "uint256",
          "name": "",
          "type": "uint256"
        }
      ],
      "stateMutability": "view",
      "type": "function"
    },
    {
      "inputs": [
        {
          "internalType": "address",
          "name": "spender",
          "type": "address"
        },
        {
          "internalType": "uint256",
          "name": "addedValue",
          "type": "uint256"
        }
      ],
      "name": "increaseAllowance",
      "outputs": [
        {
          "internalType": "bool",
          "name": "",
          "type": "bool"
        }
      ],
      "stateMutability": "nonpayable",
      "type": "function"
    },
    {
      "inputs": [
        {
          "internalType": "address",
          "name": "_depositor",
          "type": "address"
        },
        {
          "internalType": "uint256",
          "name": "_depositAmount",
          "type": "uint256"
        },
        {
          "internalType": "int256",
          "name": "_initialFundingRate",
          "type": "int256"
        }
      ],
      "name": "initialize",
      "outputs": [
        {
          "internalType": "uint256",
          "name": "mintAmount",
          "type": "uint256"
        }
      ],
      "stateMutability": "nonpayable",
      "type": "function"
    },
    {
      "inputs": [],
      "name": "lastHedgeSpotPrice",
      "outputs": [
        {
          "internalType": "int256",
          "name": "",
          "type": "int256"
        }
      ],
      "stateMutability": "view",
      "type": "function"
    },
    {
      "inputs": [],
      "name": "name",
      "outputs": [
        {
          "internalType": "string",
          "name": "",
          "type": "string"
        }
      ],
      "stateMutability": "view",
      "type": "function"
    },
    {
      "inputs": [],
      "name": "nettingInfo",
      "outputs": [
        {
          "internalType": "uint256",
          "name": "amountUnderlying",
          "type": "uint256"
        }
      ],
      "stateMutability": "view",
      "type": "function"
    },
    {
      "inputs": [],
      "name": "owner",
      "outputs": [
        {
          "internalType": "address",
          "name": "",
          "type": "address"
        }
      ],
      "stateMutability": "view",
      "type": "function"
    },
    {
      "inputs": [],
      "name": "poolSnapshot",
      "outputs": [
        {
          "internalType": "int128",
          "name": "futureBaseFundingRate",
          "type": "int128"
        },
        {
          "internalType": "int128",
          "name": "ethVariance",
          "type": "int128"
        },
        {
          "internalType": "int128",
          "name": "ethPrice",
          "type": "int128"
        },
        {
          "internalType": "uint128",
          "name": "lastSnapshotTime",
          "type": "uint128"
        }
      ],
      "stateMutability": "view",
      "type": "function"
    },
    {
      "inputs": [
        {
          "internalType": "uint256",
          "name": "",
          "type": "uint256"
        }
      ],
      "name": "pools",
      "outputs": [
        {
          "internalType": "uint128",
          "name": "amountLockedLiquidity",
          "type": "uint128"
        },
        {
          "internalType": "int128",
          "name": "positionPerpetuals",
          "type": "int128"
        },
        {
          "internalType": "uint128",
          "name": "entryPrice",
          "type": "uint128"
        },
        {
          "internalType": "int256",
          "name": "amountFundingPaidPerPosition",
          "type": "int256"
        },
        {
          "internalType": "uint128",
          "name": "lastFundingPaymentTime",
          "type": "uint128"
        }
      ],
      "stateMutability": "view",
      "type": "function"
    },
    {
      "inputs": [],
      "name": "rebalance",
      "outputs": [],
      "stateMutability": "nonpayable",
      "type": "function"
    },
    {
      "inputs": [],
      "name": "renounceOwnership",
      "outputs": [],
      "stateMutability": "nonpayable",
      "type": "function"
    },
    {
      "inputs": [
        {
          "internalType": "uint256",
          "name": "_minSlippageToleranceOfHedge",
          "type": "uint256"
        },
        {
          "internalType": "uint256",
          "name": "_maxSlippageToleranceOfHedge",
          "type": "uint256"
        },
        {
          "internalType": "uint256",
          "name": "_hedgeRateOfReturnThreshold",
          "type": "uint256"
        }
      ],
      "name": "setHedgeParams",
      "outputs": [],
      "stateMutability": "nonpayable",
      "type": "function"
    },
    {
      "inputs": [
        {
          "internalType": "int256",
          "name": "_perpFutureMaxFundingRate",
          "type": "int256"
        }
      ],
      "name": "setPerpFutureMaxFundingRate",
      "outputs": [],
      "stateMutability": "nonpayable",
      "type": "function"
    },
    {
      "inputs": [
        {
          "internalType": "address",
          "name": "_perpetualMarket",
          "type": "address"
        }
      ],
      "name": "setPerpetualMarket",
      "outputs": [],
      "stateMutability": "nonpayable",
      "type": "function"
    },
    {
      "inputs": [
        {
          "internalType": "int256",
          "name": "_poolMarginRiskParam",
          "type": "int256"
        }
      ],
      "name": "setPoolMarginRiskParam",
      "outputs": [],
      "stateMutability": "nonpayable",
      "type": "function"
    },
    {
      "inputs": [
        {
          "internalType": "int256",
          "name": "_squaredPerpFundingMultiplier",
          "type": "int256"
        }
      ],
      "name": "setSquaredPerpFundingMultiplier",
      "outputs": [],
      "stateMutability": "nonpayable",
      "type": "function"
    },
    {
      "inputs": [
        {
          "internalType": "int256",
          "name": "_tradeFeeRate",
          "type": "int256"
        },
        {
          "internalType": "int256",
          "name": "_protocolFeeRate",
          "type": "int256"
        }
      ],
      "name": "setTradeFeeRate",
      "outputs": [],
      "stateMutability": "nonpayable",
      "type": "function"
    },
    {
      "inputs": [],
      "name": "symbol",
      "outputs": [
        {
          "internalType": "string",
          "name": "",
          "type": "string"
        }
      ],
      "stateMutability": "view",
      "type": "function"
    },
    {
      "inputs": [],
      "name": "totalSupply",
      "outputs": [
        {
          "internalType": "uint256",
          "name": "",
          "type": "uint256"
        }
      ],
      "stateMutability": "view",
      "type": "function"
    },
    {
      "inputs": [
        {
          "internalType": "address",
          "name": "recipient",
          "type": "address"
        },
        {
          "internalType": "uint256",
          "name": "amount",
          "type": "uint256"
        }
      ],
      "name": "transfer",
      "outputs": [
        {
          "internalType": "bool",
          "name": "",
          "type": "bool"
        }
      ],
      "stateMutability": "nonpayable",
      "type": "function"
    },
    {
      "inputs": [
        {
          "internalType": "address",
          "name": "sender",
          "type": "address"
        },
        {
          "internalType": "address",
          "name": "recipient",
          "type": "address"
        },
        {
          "internalType": "uint256",
          "name": "amount",
          "type": "uint256"
        }
      ],
      "name": "transferFrom",
      "outputs": [
        {
          "internalType": "bool",
          "name": "",
          "type": "bool"
        }
      ],
      "stateMutability": "nonpayable",
      "type": "function"
    },
    {
      "inputs": [
        {
          "internalType": "address",
          "name": "newOwner",
          "type": "address"
        }
      ],
      "name": "transferOwnership",
      "outputs": [],
      "stateMutability": "nonpayable",
      "type": "function"
    },
    {
      "inputs": [
        {
          "internalType": "uint256",
          "name": "_productId",
          "type": "uint256"
        },
        {
          "internalType": "int128",
          "name": "_tradeAmount",
          "type": "int128"
        }
      ],
      "name": "updatePoolPosition",
      "outputs": [
        {
          "internalType": "uint256",
          "name": "tradePrice",
          "type": "uint256"
        },
        {
          "internalType": "int256",
          "name": "",
          "type": "int256"
        },
        {
          "internalType": "uint256",
          "name": "protocolFee",
          "type": "uint256"
        }
      ],
      "stateMutability": "nonpayable",
      "type": "function"
    },
    {
      "inputs": [],
      "name": "updatePoolSnapshot",
      "outputs": [],
      "stateMutability": "nonpayable",
      "type": "function"
    },
    {
      "inputs": [
        {
          "internalType": "address",
          "name": "_withdrawer",
          "type": "address"
        },
        {
          "internalType": "uint256",
          "name": "_withdrawnAmount",
          "type": "uint256"
        }
      ],
      "name": "withdraw",
      "outputs": [
        {
          "internalType": "uint256",
          "name": "burnAmount",
          "type": "uint256"
        }
      ],
      "stateMutability": "nonpayable",
      "type": "function"
    }
  ],
  "transactionHash": "0xc80565be2313bca53953ece7ebe0df9f59eee7a3bcec47e3f6c88b9cd6f16f69",
  "args": [
    "0x5f0423B1a6935dc5596e7A24d98532b67A0AeFd8",
    "Predy V2 LP Token",
    "PREDY-V2-LP"
  ],
  "solcInputHash": "d6059cfa510988a9dd61f30a24f789c4",
  "bytecode": "0x60806040523480156200001157600080fd5b5060405162004aa538038062004aa5833981016040819052620000349162000336565b8181600062000042620001ac565b600080546001600160a01b0319166001600160a01b0383169081178255604051929350917f8be0079c531659141344cd1fd0a4f28419497f9722a3daafe3b4186f6b6457e0908290a3508151620000a1906004906020850190620001ef565b508051620000b7906005906020840190620001ef565b50506006805460ff1916601217905550620000d36008620001b0565b601980546001600160a01b0319166001600160a01b03851617905560008052601160209081526200012f907f4ad3b33220dddc71b994a52d72c06b10862965f7d926534c05c00fb7e819e7b790620001c6811b6200183b17901c565b60016000526011602090815262000171907f17bc176d2408558f6e4111feebc3cab4e16b63e967be91cde721f4c8a488b552906200183b620001c6821b17901c565b50506320c855806007555062035b6060085560286009556050600a55622625a0600b55610fa0600c5561c350600d55614e20600e55620003bc565b3390565b6006805460ff191660ff92909216919091179055565b8054600160801b600160ff1b036001600160801b03918216178255600190910180549091169055565b828054600181600116156101000203166002900490600052602060002090601f01602090048101928262000227576000855562000272565b82601f106200024257805160ff191683800117855562000272565b8280016001018555821562000272579182015b828111156200027257825182559160200191906001019062000255565b506200028092915062000284565b5090565b5b8082111562000280576000815560010162000285565b600082601f830112620002ac578081fd5b81516001600160401b0380821115620002c157fe5b6040516020601f8401601f1916820181018381118382101715620002e157fe5b6040528382528584018101871015620002f8578485fd5b8492505b838310156200031b5785830181015182840182015291820191620002fc565b838311156200032c57848185840101525b5095945050505050565b6000806000606084860312156200034b578283fd5b83516001600160a01b038116811462000362578384fd5b60208501519093506001600160401b03808211156200037f578384fd5b6200038d878388016200029b565b93506040860151915080821115620003a3578283fd5b50620003b2868287016200029b565b9150509250925092565b6146d980620003cc6000396000f3fe608060405234801561001057600080fd5b506004361061023d5760003560e01c80637fc384671161013b578063b02582dc116100b8578063e02f97db1161007c578063e02f97db146104d5578063e7dc45d3146104dd578063f2fde38b146104f0578063f3fef3a314610503578063f844f2a6146105165761023d565b8063b02582dc14610465578063b206ab8414610478578063b4f0332f1461048b578063bfe51951146104af578063dd62ed3e146104c25761023d565b80638da5cb5b116100ff5780638da5cb5b146103fe57806395d89b4114610413578063a457c2d71461041b578063a9059cbb1461042e578063ac4afa38146104415761023d565b80637fc38467146103a157806382f3955d146103b9578063854ad1b7146103d957806387c3a09a146103ee57806389633081146103f65761023d565b80633ed7e33c116101c957806370a082311161018d57806370a0823114610363578063715018a61461037657806373f3489e1461037e5780637d7c2a1c146103915780637d8c2659146103995761023d565b80633ed7e33c1461030057806347e7ef241461032257806351c6590a14610335578063545ed65a146103485780635cda497d146103505761023d565b8063192679ed11610210578063192679ed146102aa57806323a216c1146102bd57806323b872dd146102c5578063313ce567146102d857806339509351146102ed5761023d565b806306fdde0314610242578063095ea7b314610260578063128c113f1461028057806318160ddd14610295575b600080fd5b61024a610529565b6040516102579190614225565b60405180910390f35b61027361026e366004613f40565b6105bf565b6040516102579190614196565b61029361028e36600461405a565b6105dd565b005b61029d610631565b60405161025791906141eb565b6102936102b8366004614021565b610637565b61029d6106f6565b6102736102d3366004613f05565b610754565b6102e06107dc565b60405161025791906143ce565b6102736102fb366004613f40565b6107e5565b61031361030e3660046140c3565b610833565b604051610257939291906143b8565b61029d610330366004613f40565b6109ae565b610293610343366004614021565b610a4f565b61029d610a8c565b61029361035e3660046140e5565b610a92565b61029d610371366004613eb9565b610b70565b610293610b8f565b61029d61038c366004614021565b610c3b565b610293610d4b565b610293610e30565b6103a9610e85565b60405161025794939291906141a1565b6103cc6103c7366004613f9b565b610eaf565b604051610257919061433b565b6103e1610fc2565b604051610257919061430e565b6102936110a8565b61029d61110b565b610406611111565b6040516102579190614182565b61024a611120565b610273610429366004613f40565b611181565b61027361043c366004613f40565b6111e9565b61045461044f366004614021565b6111fd565b604051610257959493929190614385565b610293610473366004614021565b61123e565b610293610486366004614039565b6112f3565b61049e6104993660046140c3565b6113d8565b604051610257959493929190614202565b6102936104bd366004614021565b611410565b61029d6104d0366004613ed3565b6114b5565b61029d6114e0565b61029d6104eb366004613f69565b6114e6565b6102936104fe366004613eb9565b6115db565b61029d610511366004613f40565b6116dd565b610293610524366004613eb9565b61178d565b60048054604080516020601f60026000196101006001881615020190951694909404938401819004810282018101909252828152606093909290918301828280156105b55780601f1061058a576101008083540402835291602001916105b5565b820191906000526020600020905b81548152906001019060200180831161059857829003601f168201915b5050505050905090565b60006105d36105cc61186d565b8484611871565b5060015b92915050565b601b546001600160a01b031633146106105760405162461bcd60e51b8152600401610607906142b4565b60405180910390fd5b600061061a61195d565b50601a819055905061062d601683611a19565b5050565b60035490565b61063f61186d565b6001600160a01b0316610650611111565b6001600160a01b031614610699576040805162461bcd60e51b81526020600482018190526024820152600080516020614582833981519152604482015290519081900360640190fd5b600081121580156106ad5750620f42408113155b6106b657600080fd5b60088190556040517f0e5502f89db0c53034cbc3f53df6d411d72c6c9b9e711b952d4cc6a30d8ac73d906106eb9083906141eb565b60405180910390a150565b60008060005b6002811015610732576000818152601060205260409020546107289083906001600160801b0316611b4f565b91506001016106fc565b50600f5461074e90610748836305f5e100611ba9565b90611c02565b91505090565b6000610761848484611c69565b6107d18461076d61186d565b6107cc8560405180606001604052806028815260200161455a602891396001600160a01b038a166000908152600260205260408120906107ab61186d565b6001600160a01b031681526020810191909152604001600020549190611dc6565b611871565b5060015b9392505050565b60065460ff1690565b60006105d36107f261186d565b846107cc856002600061080361186d565b6001600160a01b03908116825260208083019390935260409182016000908120918c168152925290205490611b4f565b601b54600090819081906001600160a01b031633146108645760405162461bcd60e51b8152600401610607906142b4565b6000600f54116108865760405162461bcd60e51b815260040161060790614296565b600061089061195d565b5060008781526010602052604090208054600160801b808204600f90810b8a9003810b6001600160801b0390811690920291909216179091559091506108dc908790839088900b611e5d565b600088815260106020526040812060018101549054939750919450918291610932916001600160801b039091169061092590600160801b9004600f90810b810b908b900b611fdb565b888a600003600f0b612040565b9150915061094761094283612178565b6121d3565b600089815260106020526040902060010180546001600160801b0319166001600160801b0392909216919091179055600f5461098d9061098686612217565b830361225b565b600f5550505060008581526010602052604090206002015491509250925092565b601b546000906001600160a01b031633146109db5760405162461bcd60e51b8152600401610607906142b4565b60006109e5610631565b116109ef57600080fd5b60006109fd61038c84612217565b9050610a14610a0f60126001846122e9565b612178565b9050610a2b8161074885662386f26fc10000611ba9565b600f54909250610a3b9084611b4f565b600f55610a4884836123ad565b5092915050565b601b546001600160a01b03163314610a795760405162461bcd60e51b8152600401610607906142b4565b600f54610a869082611b4f565b600f5550565b601a5481565b610a9a61186d565b6001600160a01b0316610aab611111565b6001600160a01b031614610af4576040805162461bcd60e51b81526020600482018190526024820152600080516020614582833981519152604482015290519081900360640190fd5b8183108015610b04575060c88211155b610b205760405162461bcd60e51b8152600401610607906142d2565b6009839055600a829055600b8190556040517f40eadc083dad26c82ca6e52052119f861019dc8b168294cc37f793801b6494a090610b63908590859085906143b8565b60405180910390a1505050565b6001600160a01b0381166000908152600160205260409020545b919050565b610b9761186d565b6001600160a01b0316610ba8611111565b6001600160a01b031614610bf1576040805162461bcd60e51b81526020600482018190526024820152600080516020614582833981519152604482015290519081900360640190fd5b600080546040516001600160a01b03909116907f8be0079c531659141344cd1fd0a4f28419497f9722a3daafe3b4186f6b6457e0908390a3600080546001600160a01b0319169055565b600080610c4661195d565b5090506000610c6c610c5a6001848761249f565b610c666000858861249f565b90611fdb565b6040805160808101808352929350600092610cc992869291601691839190820190839060029082845b815481526020019060010190808311610c95575050505050815260200160028201548152505061256590919063ffffffff16565b9050610d42610cd6610631565b601060205260008051602061440083398151915254600080526000805160206144f883398151915254600f5461074892662386f26fc1000092610d3c926001600160801b0392831692610d3692169082908b90610c66908c908290612217565b906125b7565b90611ba9565b95945050505050565b601b546001600160a01b03163314610d755760405162461bcd60e51b8152600401610607906142b4565b6000610d7f61195d565b50905060005b600281101561062d576000806000610d9d8486612614565b9093509050610daf848483600261270d565b90945092505081159050610dcd57610dc9600f548261225b565b600f555b8115610e2657600083815260106020526040902054610df990610942906001600160801b03168461225b565b600084815260106020526040902080546001600160801b0319166001600160801b03929092169190911790555b5050600101610d85565b601b546001600160a01b03163314610e5a5760405162461bcd60e51b8152600401610607906142b4565b6000610e6461195d565b50905060005b600281101561062d57610e7d81836127ab565b600101610e6a565b601454601554600f82810b92600160801b90819004820b929182900b91046001600160801b031684565b610eb7613dec565b6000610ec161195d565b509050610ecc613e2e565b610ed4613e2e565b610edc613e2e565b60005b6002811015610f92576000610f0d82878a8560028110610efb57fe5b6020020151600003600f0b60006128f0565b905050878560028110610f1c57fe5b60200201878660028110610f2c57fe5b60200201919091529190915290506000610f588383878260028110610f4d57fe5b602002015142612a79565b600084815260106020526040902060020154909150610f779082611fdb565b848460028110610f8357fe5b60200201525050600101610edf565b50604080516080810182526001600160801b03909516855260208501939093529183015260608201529050919050565b610fca613e4c565b6000610fd461195d565b5060106020526000805160206144f883398151915254600160009081526000805160206144008339815191525492935091829161102b918591600160801b90819004600f90810b810b9291909104810b900b612aca565b91509150611037613e2e565b8281526020810182905260185461104f908286612b19565b9450600061105c85612bc6565b905085606001511561108a5761108361271061074861107b8285611b4f565b895190611ba9565b86526110a0565b61109d61271061074861107b82856125b7565b86525b505050505090565b601b546001600160a01b031633146110d25760405162461bcd60e51b8152600401610607906142b4565b60155461a8c06001600160801b03600160801b909204821601164210156110f857611109565b61110142612c44565b611109612dc9565b565b600f5481565b6000546001600160a01b031690565b60058054604080516020601f60026000196101006001881615020190951694909404938401819004810282018101909252828152606093909290918301828280156105b55780601f1061058a576101008083540402835291602001916105b5565b60006105d361118e61186d565b846107cc8560405180606001604052806025815260200161467f60259139600260006111b861186d565b6001600160a01b03908116825260208083019390935260409182016000908120918d16815292529020549190611dc6565b60006105d36111f661186d565b8484611c69565b60106020526000908152604090208054600182015460028301546003909301546001600160801b0380841694600160801b909404600f0b9392811692911685565b61124661186d565b6001600160a01b0316611257611111565b6001600160a01b0316146112a0576040805162461bcd60e51b81526020600482018190526024820152600080516020614582833981519152604482015290519081900360640190fd5b600081121580156112b5575063773594008113155b6112be57600080fd5b60078190556040517ffd74ba77488a6a7a45711e7c3469f918238eb90178880837da4a029a93ccf375906106eb9083906141eb565b6112fb61186d565b6001600160a01b031661130c611111565b6001600160a01b031614611355576040805162461bcd60e51b81526020600482018190526024820152600080516020614582833981519152604482015290519081900360640190fd5b806000131580156113695750620493e08213155b801561137457508181125b6113905760405162461bcd60e51b8152600401610607906142d2565b600d829055600e8190556040517fbacb10fce6db592e49a2f13ebfa4af23c68a1ddc3962bc0818478a518f3fa95f906113cc90849084906141f4565b60405180910390a15050565b6000806000806000806113e961195d565b5090506113fc888289600f0b60006128f0565b939c929b5090995097509095509350505050565b61141861186d565b6001600160a01b0316611429611111565b6001600160a01b031614611472576040805162461bcd60e51b81526020600482018190526024820152600080516020614582833981519152604482015290519081900360640190fd5b600081121561148057600080fd5b600c8190556040517f8e6edd6f6b5a50f0d6a8f356374101e297ba1ac391a14aaa3248ba40d7665e73906106eb9083906141eb565b6001600160a01b03918216600090815260026020908152604080832093909416825291909152205490565b60185481565b601b546000906001600160a01b031633146115135760405162461bcd60e51b8152600401610607906142b4565b61151b610631565b1561152557600080fd5b5081600061153161195d565b50905061153d83612ddb565b60148054600f9290920b6001600160801b03908116600160801b02921691909117905561156981612ddb565b60158054600f9290920b6001600160801b03166001600160801b0319909216919091179055611597426121d3565b601580546001600160801b03928316600160801b029216919091179055601a819055600f546115c69085611b4f565b600f556115d385836123ad565b509392505050565b6115e361186d565b6001600160a01b03166115f4611111565b6001600160a01b03161461163d576040805162461bcd60e51b81526020600482018190526024820152600080516020614582833981519152604482015290519081900360640190fd5b6001600160a01b0381166116825760405162461bcd60e51b81526004018080602001828103825260268152602001806144426026913960400191505060405180910390fd5b600080546040516001600160a01b03808516939216917f8be0079c531659141344cd1fd0a4f28419497f9722a3daafe3b4186f6b6457e091a3600080546001600160a01b0319166001600160a01b0392909216919091179055565b601b546000906001600160a01b0316331461170a5760405162461bcd60e51b8152600401610607906142b4565b81611713612e3c565b10156117315760405162461bcd60e51b8152600401610607906142f0565b600061174761173f84612217565b600003610c3b565b9050611759610a0f60126000846122e9565b90506117708161074885662386f26fc10000611ba9565b600f5490925061178090846125b7565b600f55610a488483612e86565b61179561186d565b6001600160a01b03166117a6611111565b6001600160a01b0316146117ef576040805162461bcd60e51b81526020600482018190526024820152600080516020614582833981519152604482015290519081900360640190fd5b601b546001600160a01b031615801561181057506001600160a01b03811615155b61181957600080fd5b601b80546001600160a01b0319166001600160a01b0392909216919091179055565b80546f7fffffffffffffffffffffffffffffff60801b6001600160801b03918216178255600190910180549091169055565b3390565b6001600160a01b0383166118b65760405162461bcd60e51b815260040180806020018281038252602481526020018061460f6024913960400191505060405180910390fd5b6001600160a01b0382166118fb5760405162461bcd60e51b81526004018080602001828103825260228152602001806144686022913960400191505060405180910390fd5b6001600160a01b03808416600081815260026020908152604080832094871680845294825291829020859055815185815291517f8c5be1e5ebec7d5bd14f71427d1e84f3dd0314c0f7b2291e5b200ac8c7c3b9259281900390910190a3505050565b600080600080601960009054906101000a90046001600160a01b03166001600160a01b031663feaf968c6040518163ffffffff1660e01b815260040160a06040518083038186803b1580156119b157600080fd5b505afa1580156119c5573d6000803e3d6000fd5b505050506040513d601f19601f820116820180604052508101906119e99190614110565b5093505092505060008213611a105760405162461bcd60e51b815260040161060790614278565b90925090509091565b6000611a41662386f26fc1000061074884604001518560000151611ba990919063ffffffff16565b8251909150600090611a5390836125b7565b90506000836020015111611a93576040805162461bcd60e51b81526020600482015260026024820152614e3160f01b604482015290519081900360640190fd5b826060015115611af55760208301516002850154611ab091611b4f565b6002850155611ac8610942838660005b0154906125b7565b6001600160801b03168455611ae261094282866001611ac0565b6001600160801b03168460010155611b49565b60208301516002850154611b08916125b7565b6002850155611b20610942838660005b015490611b4f565b6001600160801b03168455611b3a61094282866001611b18565b6001600160801b031684600101555b50505050565b6000828201838110156107d5576040805162461bcd60e51b815260206004820152601b60248201527f536166654d6174683a206164646974696f6e206f766572666c6f770000000000604482015290519081900360640190fd5b600082611bb8575060006105d7565b82820282848281611bc557fe5b04146107d55760405162461bcd60e51b81526004018080602001828103825260218152602001806145396021913960400191505060405180910390fd5b6000808211611c58576040805162461bcd60e51b815260206004820152601a60248201527f536166654d6174683a206469766973696f6e206279207a65726f000000000000604482015290519081900360640190fd5b818381611c6157fe5b049392505050565b6001600160a01b038316611cae5760405162461bcd60e51b81526004018080602001828103825260258152602001806145ea6025913960400191505060405180910390fd5b6001600160a01b038216611cf35760405162461bcd60e51b81526004018080602001828103825260238152602001806143dd6023913960400191505060405180910390fd5b611cfe838383612f82565b611d3b8160405180606001604052806026815260200161448a602691396001600160a01b0386166000908152600160205260409020549190611dc6565b6001600160a01b038085166000908152600160205260408082209390935590841681522054611d6a9082611b4f565b6001600160a01b0380841660008181526001602090815260409182902094909455805185815290519193928716927fddf252ad1be2c89b69c2b068fc378daa952ba7f163c4a11628f55a4df523b3ef92918290030190a3505050565b60008184841115611e555760405162461bcd60e51b81526004018080602001828103825283818151815260200191508051906020019080838360005b83811015611e1a578181015183820152602001611e02565b50505050905090810190601f168015611e475780820380516001836020036101000a031916815260200191505b509250505060405180910390fd5b505050900390565b600080600080600080611e708989612614565b60008b8152601060205260409020549195509150611eab908a9086908490611ea690600160801b9004600f90810b900b8c612f87565b61270d565b60008c8152601060205260408120549297509295509350909150611ee790611ee190600160801b9004600f90810b900b89611fdb565b8a612fff565b9050600080611f088b8b60008c1386611f01600f54612217565b8a8a61306a565b94505050509150611f3960008a1383601160008f81526020019081526020016000206122e99092919063ffffffff16565b91508315611f5157611f4d600f548561225b565b600f555b60008b815260106020526040902054611f7790610942906001600160801b03168861225b565b60008c815260106020526040902080546001600160801b0319166001600160801b0392909216919091179055611fac82612178565b611fc96305f5e100610748611fc08d6130f7565b610d3c86612178565b97509750505050505050935093915050565b6000828201818312801590611ff05750838112155b80612005575060008312801561200557508381125b6107d55760405162461bcd60e51b81526004018080602001828103825260218152602001806144d76021913960400191505060405180910390fd5b6000808061204e8685611fdb565b905085158061206857506000861380156120685750600084135b8061207e575060008612801561207e5750600084125b156120ce576120c76120986120938887611fdb565b6130f7565b6120c16120ae6120a7886130f7565b8990613108565b610c666120ba8b6130f7565b8c90613108565b906131b1565b925061216e565b6000861380156120de5750600084125b80156120ea5750600081135b8061210c57506000861280156121005750600084135b801561210c5750600081125b15612140578692506305f5e1006121316121268786613269565b600087900390613108565b8161213857fe5b05915061216e565b801561214a578492505b6305f5e10061216361215c878a613269565b8890613108565b8161216a57fe5b0591505b5094509492505050565b6000808212156121cf576040805162461bcd60e51b815260206004820181905260248201527f53616665436173743a2076616c7565206d75737420626520706f736974697665604482015290519081900360640190fd5b5090565b6000600160801b82106121cf5760405162461bcd60e51b81526004018080602001828103825260278152602001806144b06027913960400191505060405180910390fd5b6000600160ff1b82106121cf5760405162461bcd60e51b81526004018080602001828103825260288152602001806146336028913960400191505060405180910390fd5b6000808212156122ab5782826000038403915081106122a6576040805162461bcd60e51b815260206004820152600260248201526104d360f41b604482015290519081900360640190fd5b6105d7565b50808201828110156105d7576040805162461bcd60e51b81526020600482015260026024820152614d3160f01b604482015290519081900360640190fd5b6040805160808101825284546001600160801b038082168352600160801b91829004600f90810b810b602085015260018801549182169484019490945204820b90910b6060820152600090612340818585426132ce565b815186546020840151600f90810b6001600160801b03908116600160801b9081029482166001600160801b0319948516178216949094178a5560408601516001909a01805460609097015190920b8116909302988316949091169390931716959095179055509192915050565b6001600160a01b038216612408576040805162461bcd60e51b815260206004820152601f60248201527f45524332303a206d696e7420746f20746865207a65726f206164647265737300604482015290519081900360640190fd5b61241460008383612f82565b6003546124219082611b4f565b6003556001600160a01b0382166000908152600160205260409020546124479082611b4f565b6001600160a01b03831660008181526001602090815260408083209490945583518581529351929391927fddf252ad1be2c89b69c2b068fc378daa952ba7f163c4a11628f55a4df523b3ef9281900390910190a35050565b6000838152601060205260408120548190600160801b9004600f90810b900b1561255d576000858152601060205260408120546124ee9087908790600160801b9004600f90810b900b876128f0565b5050506000888152601060205260409020600101549192506305f5e10091612551915061252e90612527906001600160801b0316612217565b8490613269565b600089815260106020526040902054600160801b9004600f90810b900b90613108565b8161255857fe5b059150505b949350505050565b6000806125876305f5e1006120c16125808760200151612217565b8690613108565b905061255d81610c666125b287600001516001600281106125a457fe5b602002015188515190611b4f565b612217565b60008282111561260e576040805162461bcd60e51b815260206004820152601e60248201527f536166654d6174683a207375627472616374696f6e206f766572666c6f770000604482015290519081900360640190fd5b50900390565b60106020526000805160206144f8833981519152546001600090815260008051602061440083398151915254909182918291829161266b918791600160801b91829004600f90810b810b92909104810b900b612aca565b6001600081815260106020526000805160206144008339815191525493955091935090916305f5e100916126b791600160801b9004600f90810b900b906126b1906134f6565b90613108565b816126be57fe5b0590506126ff876040518060a00160405280868152602001858152602001848152602001898152602001600c5481525060166135499092919063ffffffff16565b909890975095505050505050565b6000806000808613156127495785612723612e3c565b10156127415760405162461bcd60e51b815260040161060790614296565b85915061277a565b600086121561277a57600087815260106020526040902054612775906001600160801b03168787613629565b925090505b60008781526010602052604090205461279f90859084906001600160801b0316613654565b92509450945094915050565b6000828152601060205260409020600301546001600160801b03166127f957600082815260106020526040902060030180546001600160801b031916426001600160801b031617905561062d565b6000828152601060205260409020600301546001600160801b0316421161281f5761062d565b600080600061282f8585426136d3565b60008881526010602052604090206002015492955090935091506128539083611fdb565b600086815260106020526040902060020155801561287b57612877600f548261225b565b600f555b600085815260106020526040908190206003810180546001600160801b031916426001600160801b03161790556002015490517f3e5170eaa3b2dec8bb1a3e32834aed10d5bbdb77abda3b065447543099eaebfa916128e1918891879187908790614202565b60405180910390a15050505050565b6000808080808087156129425760008060006129158d8d6129108e612ddb565b61377c565b92509250925060006129298e85858561270d565b91965090915061293b90508b82611fdb565b9a50505050505b60008a81526010602052604081205461296990600160801b9004600f90810b900b8c612fff565b90506129878b8b60008c1384612980600f54612217565b878e61306a565b809750819850829950839a50849b50505050505050612a6b600089138742601160008f81526020019081526020016000206040518060800160405290816000820160009054906101000a90046001600160801b03166001600160801b03166001600160801b031681526020016000820160109054906101000a9004600f0b600f0b600f0b81526020016001820160009054906101000a90046001600160801b03166001600160801b03166001600160801b031681526020016001820160109054906101000a9004600f0b600f0b600f0b815250506132ce909392919063ffffffff16565b955050945094509450945094565b6000612a8d6305f5e1006120c18686613108565b600086815260106020526040902060030154909150610d429062015180906120c190612ac39086906001600160801b03166125b7565b8490613108565b60008060006305f5e100612ae3866126b160008a6138ea565b81612aea57fe5b05905060006305f5e100612b03866126b160018b6138ea565b81612b0a57fe5b92989205965090945050505050565b612b21613e4c565b6000612b2c85612217565b90506000612b4e82610c6687600160200201518860005b602002015190611fdb565b602086015160009182039250612b65908783612b43565b1315612b72578160000390505b600081136060840152612b84816130f7565b60208401526305f5e100612b9b85610d3c846130f7565b81612ba257fe5b04835284516020860151612bb891600091613922565b604084015250509392505050565b600080612bef612093601a546120c16305f5e1006126b1601a548961326990919063ffffffff16565b9050612c1c612c13600b5461074884600954600a5403611ba990919063ffffffff16565b60095490611b4f565b9150600954821015612c2e5760095491505b600a54821115612c3e57600a5491505b50919050565b6000612c4e61195d565b50601554909150600090612c7590600f90810b900b6120c16305f5e1006126b18684613269565b90506000612c8b6305f5e1006120c18480613108565b601554909150612cbd90612cb090600160801b90046001600160801b03168603612217565b6120c18362015180613108565b9050612d046305f5e100612cf7612cd7625b8d8085613108565b601454610c669063059a538090600160801b9004600f90810b900b613108565b81612cfe57fe5b05612ddb565b60148054600f9290920b6001600160801b03908116600160801b029216919091179055612d3083612ddb565b60158054600f9290920b6001600160801b03166001600160801b0319909216919091179055612d5e846121d3565b601580546001600160801b03908116600160801b93909116830217908190556014546040517fc0286f283c0343297f024da33b37cbae636c6f78d8b29803dd94a72c09d44b1a93612dbb939204600f90810b92900b9088906141cd565b60405180910390a150505050565b601480546001600160801b0319169055565b60006f7fffffffffffffffffffffffffffffff198212158015612e0157506001607f1b82125b6121cf5760405162461bcd60e51b81526004018080602001828103825260278152602001806144b06027913960400191505060405180910390fd5b60008060005b6002811015612e7857600081815260106020526040902054612e6e9083906001600160801b0316611b4f565b9150600101612e42565b50600f5461074e90826125b7565b6001600160a01b038216612ecb5760405162461bcd60e51b81526004018080602001828103825260218152602001806145c96021913960400191505060405180910390fd5b612ed782600083612f82565b612f1481604051806060016040528060228152602001614420602291396001600160a01b0385166000908152600160205260409020549190611dc6565b6001600160a01b038316600090815260016020526040902055600354612f3a90826125b7565b6003556040805182815290516000916001600160a01b038516917fddf252ad1be2c89b69c2b068fc378daa952ba7f163c4a11628f55a4df523b3ef9181900360200190a35050565b505050565b600080612f948484611fdb565b9050600081138015612fa65750600084125b15612fb55760039150506105d7565b600081128015612fc55750600084135b15612fd45760019150506105d7565b60008112158015612fe6575060008412155b15612ff55760029150506105d7565b60009150506105d7565b60008261300e575060006105d7565b600083131561304257600082815260106020526040902054613038906001600160801b0316612217565b60000390506105d7565b600082815260106020526040902054613063906001600160801b0316612217565b90506105d7565b6000806000806000806130808d8b8b8b8b6139c9565b905061308c8d8d613aa8565b945060006130a8662386f26fc100006120c16120a78286611fdb565b90506130b58e8d88613acf565b93506130c18185611fdb565b90506130cd8e87613b3e565b92508086836130de6125b2886130f7565b9650965096509650505097509750975097509792505050565b6000808212156121cf575060000390565b600082613117575060006105d7565b8260001914801561312b5750600160ff1b82145b156131675760405162461bcd60e51b81526004018080602001828103825260278152602001806145a26027913960400191505060405180910390fd5b8282028284828161317457fe5b05146107d55760405162461bcd60e51b81526004018080602001828103825260278152602001806145a26027913960400191505060405180910390fd5b600081613205576040805162461bcd60e51b815260206004820181905260248201527f5369676e6564536166654d6174683a206469766973696f6e206279207a65726f604482015290519081900360640190fd5b816000191480156132195750600160ff1b83145b156132555760405162461bcd60e51b81526004018080602001828103825260218152602001806145186021913960400191505060405180910390fd5b600082848161326057fe5b05949350505050565b600081830381831280159061327e5750838113155b80613293575060008312801561329357508381135b6107d55760405162461bcd60e51b815260040180806020018281038252602481526020018061465b6024913960400191505060405180910390fd5b8183156133e757610168820385604001516001600160801b031610613399578460600151600f0b811215613399576000603c86604001516001600160801b031684038161331757fe5b0490506000613327600883611ba9565b90506050811315613336575060505b60608701516127109061334e90600f0b838303613108565b8161335557fe5b05831361338d57613380612710612cf783612710038a60600151600f0b61310890919063ffffffff16565b600f90810b900b60608801525b5050506060840151600f0b5b808560200151600f0b13806133bb575084516001600160801b03166101680182115b156133d6576133c981612ddb565b600f90810b900b60208601525b6001600160801b038216855261255d565b610168820385600001516001600160801b03161061349f578460200151600f0b81131561349f578451603c6001600160801b03909116830304600061342d600883611ba9565b9050605081131561343c575060505b60208701516127109061345490600f0b838301613108565b8161345b57fe5b05831361349357613486612710612cf783612710018a60200151600f0b61310890919063ffffffff16565b600f90810b900b60208801525b5050506020840151600f0b5b808560600151600f0b12806134c457508161016886604001516001600160801b031601105b156134df576134d281612ddb565b600f90810b900b60608601525b6001600160801b0382166040860152949350505050565b60008161350557506000610b8a565b81600114156135175750614e20610b8a565b6040805162461bcd60e51b815260206004820152600260248201526104e560f41b604482015290519081900360640190fd5b60008060006135588585613b7c565b60408051608081018083529293506135a892909189918391820190839060029082845b81548152602001906001019080831161357b57505050505081526020016002820154815250508587613c2b565b91506135b48183613269565b925060006135d284610c668989600281106135cb57fe5b0154612217565b12156135ed576135e78686600281106135cb57fe5b60000392505b6136076109428787600281106135ff57fe5b01548561225b565b6001600160801b031686866002811061361c57fe5b0155509094909350915050565b600080613643836120c161363c88612217565b8790613108565b600094909403840195939450505050565b6000600384600381111561366457fe5b14156136805761367983610c66846002613108565b90506107d5565b600184600381111561368e57fe5b14156136ad576136a383610c66846002613108565b60000390506107d5565b60028460038111156136bb57fe5b14156136cc578260000390506107d5565b50816107d5565b6000806000806136e38787613aa8565b60008881526010602052604090205490915061372690889061371390600160801b9004600f90810b900b82612fff565b61371e600f54612217565b6000806139c9565b935061373487828688612a79565b60008881526010602052604081205491945061377091662386f26fc10000916120c1918791600160801b909104600f90810b909103900b613108565b91505093509350939050565b60106020526000805160206144f8833981519152546001600090815260008051602061440083398151915254909182918291829182918291600160801b91829004600f90810b92909104900b8a6137e55788820391506137e282600f0b8a600f0b612f87565b95505b8a6001141561380657888103905061380381600f0b8a600f0b612f87565b95505b6138178a83600f0b83600f0b612aca565b90955093506305f5e100613833600f83900b6126b160016134f6565b8161383a57fe5b059250505060006040518060a001604052808581526020018481526020018381526020018a8152602001600c54815250905060006138788b83613b7c565b60408051608081018083529293506138d59285928f9291601691839190820190839060029082845b8154815260200190600101908083116138a05750505050508152602001600282015481525050613c2b9092919063ffffffff16565b96508681039750505050505093509350939050565b6000826138fc57506305f5e1006105d7565b826001141561351757612710613913836002613108565b8161391a57fe5b0590506105d7565b600080613940613931846130f7565b61393a866130f7565b90611b4f565b9050806139515760009150506107d5565b846139765761396e81610748662386f26fc10000610d3c886130f7565b9150506107d5565b84600114156139975761396e81610748662386f26fc10000610d3c876130f7565b6040805162461bcd60e51b815260206004820152600260248201526104e360f41b604482015290519081900360640190fd5b600085613a115760006139f26305f5e1006120c16139e989888a89613cc7565b60085490613108565b601454909150613a0990600f90810b900b82611fdb565b915050610d42565b8560011415613a9c5783613a4557601454613a3e90600160801b9004600f90810b900b6305f5e100613108565b9050610d42565b6000613a676305f5e1006120c1613a5e89888a89613cc7565b60075490613108565b9050613a096305f5e1006120c1613a85662386f26fc1000085611fdb565b601454600160801b9004600f90810b900b90613108565b50600095945050505050565b600082613ab65750806105d7565b82600114156135175764e8d4a510006139138380613108565b6000808213613add57600080fd5b8215613b13576305f5e100613b04856001016126b1600d548661310890919063ffffffff16565b81613b0b57fe5b0590506107d5565b6305f5e100613b34856001016126b1600d548661310890919063ffffffff16565b60000381613b0b57fe5b6000808213613b4c57600080fd5b6305f5e100613b6d846001016126b1600e548661310890919063ffffffff16565b81613b7457fe5b059392505050565b600080613b928484600001518560200151613dc1565b905060008460011415613bce57613bcb64e8d4a510006120c186604001516126b18860600151896080015161310890919063ffffffff16565b90505b6000613bfe6305f5e1006120c1613bf36125b2613bea876130f7565b61393a896130f7565b606089015190613108565b9050613c216127106120c18388608001516127100161310890919063ffffffff16565b9695505050505050565b600080613c516305f5e1006120c1613c468860200151612217565b606088015190613108565b90506000613c81662386f26fc100006120c1613c7a6125b260008a600001518b60200151613922565b8590613108565b90508360011415613c9957613c968282613269565b90505b6000613cbc82610c6689600001518860028110613cb257fe5b6020020151612217565b979650505050505050565b6000808313613d12576040805162461bcd60e51b81526020600482015260126024820152716c206d75737420626520706f73697469766560701b604482015290519081900360640190fd5b6000613d22866126b18180613108565b9050613d44613d3d60026120c160036126b18a818d80613108565b8290611fdb565b9050613d57613d3d866126b18982613108565b9050613d6f613d3d60046120c1886126b18180613108565b9050613d85846120c18181856305f5e100613108565b9050613c21613d948585611fdb565b6120c1613da18787611fdb565b6120c16305f5e1006126b161215c613dba8b60026131b1565b8c90611fdb565b600080613dce8484611fdb565b9050610d42662386f26fc100006120c1612ac36125b2898989613922565b604051806080016040528060006001600160801b03168152602001613e0f613e2e565b8152602001613e1c613e2e565b8152602001613e29613e2e565b905290565b60405180604001604052806002906020820280368337509192915050565b60405180608001604052806000815260200160008152602001600081526020016000151581525090565b80356001600160a01b0381168114610b8a57600080fd5b8035600f81900b8114610b8a57600080fd5b805169ffffffffffffffffffff81168114610b8a57600080fd5b600060208284031215613eca578081fd5b6107d582613e76565b60008060408385031215613ee5578081fd5b613eee83613e76565b9150613efc60208401613e76565b90509250929050565b600080600060608486031215613f19578081fd5b613f2284613e76565b9250613f3060208501613e76565b9150604084013590509250925092565b60008060408385031215613f52578182fd5b613f5b83613e76565b946020939093013593505050565b600080600060608486031215613f7d578283fd5b613f8684613e76565b95602085013595506040909401359392505050565b600060408284031215613fac578081fd5b82601f830112613fba578081fd5b6040516040810181811067ffffffffffffffff82111715613fd757fe5b8060405250808385604086011115613fed578384fd5b835b60028110156140165761400182613e8d565b83526020928301929190910190600101613fef565b509195945050505050565b600060208284031215614032578081fd5b5035919050565b6000806040838503121561404b578182fd5b50508035926020909101359150565b60006080828403121561406b578081fd5b6040516080810181811067ffffffffffffffff8211171561408857fe5b8060405250823581526020830135602082015260408301356040820152606083013580151581146140b7578283fd5b60608201529392505050565b600080604083850312156140d5578182fd5b82359150613efc60208401613e8d565b6000806000606084860312156140f9578283fd5b505081359360208301359350604090920135919050565b600080600080600060a08688031215614127578283fd5b61413086613e9f565b945060208601519350604086015192506060860151915061415360808701613e9f565b90509295509295909350565b8060005b6002811015611b49578151845260209384019390910190600101614163565b6001600160a01b0391909116815260200190565b901515815260200190565b600f94850b815292840b6020840152920b60408201526001600160801b03909116606082015260800190565b600f93840b81529190920b6020820152604081019190915260600190565b90815260200190565b918252602082015260400190565b948552602085019390935260408401919091526060830152608082015260a00190565b6000602080835283518082850152825b8181101561425157858101830151858201604001528201614235565b818111156142625783604083870101525b50601f01601f1916929092016040019392505050565b602080825260049082015263504d433360e01b604082015260600190565b602080825260049082015263504d433160e01b604082015260600190565b6020808252600490820152632826a19960e11b604082015260600190565b602080825260049082015263504d433560e01b604082015260600190565b6020808252600490820152630504d43360e41b604082015260600190565b81518152602080830151908201526040808301519082015260609182015115159181019190915260800190565b81516001600160801b0316815260208083015160e083019161435f9084018261415f565b506040830151614372606084018261415f565b506060830151610a4860a084018261415f565b6001600160801b039586168152600f9490940b602085015291841660408401526060830152909116608082015260a00190565b9283526020830191909152604082015260600190565b60ff9190911681526020019056fe45524332303a207472616e7366657220746f20746865207a65726f20616464726573738c6065603763fec3f5742441d3833f3f43b982453612d76adb39a885e3006b5f45524332303a206275726e20616d6f756e7420657863656564732062616c616e63654f776e61626c653a206e6577206f776e657220697320746865207a65726f206164647265737345524332303a20617070726f766520746f20746865207a65726f206164647265737345524332303a207472616e7366657220616d6f756e7420657863656564732062616c616e636553616665436173743a2076616c756520646f65736e27742066697420696e2031323820626974735369676e6564536166654d6174683a206164646974696f6e206f766572666c6f776e0956cda88cad152e89927e53611735b61a5c762d1428573c6931b0a5efcb015369676e6564536166654d6174683a206469766973696f6e206f766572666c6f77536166654d6174683a206d756c7469706c69636174696f6e206f766572666c6f7745524332303a207472616e7366657220616d6f756e74206578636565647320616c6c6f77616e63654f776e61626c653a2063616c6c6572206973206e6f7420746865206f776e65725369676e6564536166654d6174683a206d756c7469706c69636174696f6e206f766572666c6f7745524332303a206275726e2066726f6d20746865207a65726f206164647265737345524332303a207472616e736665722066726f6d20746865207a65726f206164647265737345524332303a20617070726f76652066726f6d20746865207a65726f206164647265737353616665436173743a2076616c756520646f65736e27742066697420696e20616e20696e743235365369676e6564536166654d6174683a207375627472616374696f6e206f766572666c6f7745524332303a2064656372656173656420616c6c6f77616e63652062656c6f77207a65726fa26469706673582212209fc087b05fc66ea6f65c59620d334ca2cef729dd439f9bd63de69abc62079c9964736f6c63430007060033",
  "devdoc": {
    "kind": "dev",
    "methods": {
      "allowance(address,address)": {
        "details": "See {IERC20-allowance}."
      },
      "approve(address,uint256)": {
        "details": "See {IERC20-approve}. Requirements: - `spender` cannot be the zero address."
      },
      "balanceOf(address)": {
        "details": "See {IERC20-balanceOf}."
      },
      "decimals()": {
        "details": "Returns the number of decimals used to get its user representation. For example, if `decimals` equals `2`, a balance of `505` tokens should be displayed to a user as `5,05` (`505 / 10 ** 2`). Tokens usually opt for a value of 18, imitating the relationship between Ether and Wei. This is the value {ERC20} uses, unless {_setupDecimals} is called. NOTE: This information is only used for _display_ purposes: it in no way affects any of the arithmetic of the contract, including {IERC20-balanceOf} and {IERC20-transfer}."
      },
      "decreaseAllowance(address,uint256)": {
        "details": "Atomically decreases the allowance granted to `spender` by the caller. This is an alternative to {approve} that can be used as a mitigation for problems described in {IERC20-approve}. Emits an {Approval} event indicating the updated allowance. Requirements: - `spender` cannot be the zero address. - `spender` must have allowance for the caller of at least `subtractedValue`."
      },
      "getLPTokenPrice(int256)": {
        "returns": {
          "_0": "LPTokenPrice scaled by 1e16"
        }
      },
      "getTradePrice(uint256,int128)": {
        "params": {
          "_productId": "product id",
          "_tradeAmount": "amount of position to trade. positive for pool short and negative for pool long."
        }
      },
      "getUtilizationRatio()": {
        "returns": {
          "_0": "Utilization Ratio scaled by 1e8"
        }
      },
      "increaseAllowance(address,uint256)": {
        "details": "Atomically increases the allowance granted to `spender` by the caller. This is an alternative to {approve} that can be used as a mitigation for problems described in {IERC20-approve}. Emits an {Approval} event indicating the updated allowance. Requirements: - `spender` cannot be the zero address."
      },
      "name()": {
        "details": "Returns the name of the token."
      },
      "owner()": {
        "details": "Returns the address of the current owner."
      },
      "renounceOwnership()": {
        "details": "Leaves the contract without owner. It will not be possible to call `onlyOwner` functions anymore. Can only be called by the current owner. NOTE: Renouncing ownership will leave the contract without an owner, thereby removing any functionality that is only available to the owner."
      },
      "symbol()": {
        "details": "Returns the symbol of the token, usually a shorter version of the name."
      },
      "totalSupply()": {
        "details": "See {IERC20-totalSupply}."
      },
      "transfer(address,uint256)": {
        "details": "See {IERC20-transfer}. Requirements: - `recipient` cannot be the zero address. - the caller must have a balance of at least `amount`."
      },
      "transferFrom(address,address,uint256)": {
        "details": "See {IERC20-transferFrom}. Emits an {Approval} event indicating the updated allowance. This is not required by the EIP. See the note at the beginning of {ERC20}. Requirements: - `sender` and `recipient` cannot be the zero address. - `sender` must have a balance of at least `amount`. - the caller must have allowance for ``sender``'s tokens of at least `amount`."
      },
      "transferOwnership(address)": {
        "details": "Transfers ownership of the contract to a new account (`newOwner`). Can only be called by the current owner."
      },
      "updatePoolPosition(uint256,int128)": {
        "params": {
          "_productId": "product id",
          "_tradeAmount": "amount of position to trade. positive for pool short and negative for pool long."
        }
      }
    },
    "title": "PerpetualMarketCore",
    "version": 1
  },
  "userdoc": {
    "kind": "user",
    "methods": {
      "completeHedgingProcedure((uint256,uint256,uint256,bool))": {
        "notice": "Update netting info to complete heging procedure"
      },
      "deposit(address,uint256)": {
        "notice": "Provides liquidity"
      },
      "getLPTokenPrice(int256)": {
        "notice": "Gets LP token price LPTokenPrice = (L + UnrealizedPnL_i - AmountLockedLiquidity_i) / Supply"
      },
      "getTokenAmountForHedging()": {
        "notice": "Gets USDC and underlying amount to make the pool delta neutral"
      },
      "getTradePrice(uint256,int128)": {
        "notice": "Gets trade price"
      },
      "getUtilizationRatio()": {
        "notice": "Gets utilization ratio Utilization Ratio = (AmountLockedLiquidity_i) / L"
      },
      "initialize(address,uint256,int256)": {
        "notice": "Initialize pool with initial liquidity and funding rate"
      },
      "rebalance()": {
        "notice": "Locks liquidity if more collateral required and unlocks liquidity if there is unrequied collateral."
      },
      "updatePoolPosition(uint256,int128)": {
        "notice": "Adds or removes positions"
      },
      "updatePoolSnapshot()": {
        "notice": "Updates pool snapshot Calculates ETH variance and base funding rate for future pool."
      },
      "withdraw(address,uint256)": {
        "notice": "xxWithdraws liquidity"
      }
    },
    "notice": "Perpetual Market Core Contract manages perpetual pool positions and calculates amount of collaterals. Error Code PMC0: No available liquidity PMC1: No available liquidity PMC2: caller must be PerpetualMarket contract PMC3: underlying price must not be 0 PMC4: pool delta must be negative PMC5: invalid params",
    "version": 1
  },
  "storageLayout": {
    "storage": [
      {
        "astId": 53,
        "contract": "contracts/PerpetualMarketCore.sol:PerpetualMarketCore",
        "label": "_owner",
        "offset": 0,
        "slot": "0",
        "type": "t_address"
      },
      {
        "astId": 841,
        "contract": "contracts/PerpetualMarketCore.sol:PerpetualMarketCore",
        "label": "_balances",
        "offset": 0,
        "slot": "1",
        "type": "t_mapping(t_address,t_uint256)"
      },
      {
        "astId": 847,
        "contract": "contracts/PerpetualMarketCore.sol:PerpetualMarketCore",
        "label": "_allowances",
        "offset": 0,
        "slot": "2",
        "type": "t_mapping(t_address,t_mapping(t_address,t_uint256))"
      },
      {
        "astId": 849,
        "contract": "contracts/PerpetualMarketCore.sol:PerpetualMarketCore",
        "label": "_totalSupply",
        "offset": 0,
        "slot": "3",
        "type": "t_uint256"
      },
      {
        "astId": 851,
        "contract": "contracts/PerpetualMarketCore.sol:PerpetualMarketCore",
        "label": "_name",
        "offset": 0,
        "slot": "4",
        "type": "t_string_storage"
      },
      {
        "astId": 853,
        "contract": "contracts/PerpetualMarketCore.sol:PerpetualMarketCore",
        "label": "_symbol",
        "offset": 0,
        "slot": "5",
        "type": "t_string_storage"
      },
      {
        "astId": 855,
        "contract": "contracts/PerpetualMarketCore.sol:PerpetualMarketCore",
        "label": "_decimals",
        "offset": 0,
        "slot": "6",
        "type": "t_uint8"
      },
      {
        "astId": 8203,
        "contract": "contracts/PerpetualMarketCore.sol:PerpetualMarketCore",
        "label": "squaredPerpFundingMultiplier",
        "offset": 0,
        "slot": "7",
        "type": "t_int256"
      },
      {
        "astId": 8205,
        "contract": "contracts/PerpetualMarketCore.sol:PerpetualMarketCore",
        "label": "perpFutureMaxFundingRate",
        "offset": 0,
        "slot": "8",
        "type": "t_int256"
      },
      {
        "astId": 8207,
        "contract": "contracts/PerpetualMarketCore.sol:PerpetualMarketCore",
        "label": "minSlippageToleranceOfHedge",
        "offset": 0,
        "slot": "9",
        "type": "t_uint256"
      },
      {
        "astId": 8209,
        "contract": "contracts/PerpetualMarketCore.sol:PerpetualMarketCore",
        "label": "maxSlippageToleranceOfHedge",
        "offset": 0,
        "slot": "10",
        "type": "t_uint256"
      },
      {
        "astId": 8211,
        "contract": "contracts/PerpetualMarketCore.sol:PerpetualMarketCore",
        "label": "hedgeRateOfReturnThreshold",
        "offset": 0,
        "slot": "11",
        "type": "t_uint256"
      },
      {
        "astId": 8213,
        "contract": "contracts/PerpetualMarketCore.sol:PerpetualMarketCore",
        "label": "poolMarginRiskParam",
        "offset": 0,
        "slot": "12",
        "type": "t_int256"
      },
      {
        "astId": 8215,
        "contract": "contracts/PerpetualMarketCore.sol:PerpetualMarketCore",
        "label": "tradeFeeRate",
        "offset": 0,
        "slot": "13",
        "type": "t_int256"
      },
      {
        "astId": 8217,
        "contract": "contracts/PerpetualMarketCore.sol:PerpetualMarketCore",
        "label": "protocolFeeRate",
        "offset": 0,
        "slot": "14",
        "type": "t_int256"
      },
      {
        "astId": 8244,
        "contract": "contracts/PerpetualMarketCore.sol:PerpetualMarketCore",
        "label": "amountLiquidity",
        "offset": 0,
        "slot": "15",
        "type": "t_uint256"
      },
      {
        "astId": 8248,
        "contract": "contracts/PerpetualMarketCore.sol:PerpetualMarketCore",
        "label": "pools",
        "offset": 0,
        "slot": "16",
        "type": "t_mapping(t_uint256,t_struct(Pool)8228_storage)"
      },
      {
        "astId": 8252,
        "contract": "contracts/PerpetualMarketCore.sol:PerpetualMarketCore",
        "label": "spreadInfos",
        "offset": 0,
        "slot": "17",
        "type": "t_mapping(t_uint256,t_struct(Info)13277_storage)"
      },
      {
        "astId": 8254,
        "contract": "contracts/PerpetualMarketCore.sol:PerpetualMarketCore",
        "label": "lpTokenSpreadInfo",
        "offset": 0,
        "slot": "18",
        "type": "t_struct(Info)13277_storage"
      },
      {
        "astId": 8256,
        "contract": "contracts/PerpetualMarketCore.sol:PerpetualMarketCore",
        "label": "poolSnapshot",
        "offset": 0,
        "slot": "20",
        "type": "t_struct(PoolSnapshot)8237_storage"
      },
      {
        "astId": 8258,
        "contract": "contracts/PerpetualMarketCore.sol:PerpetualMarketCore",
        "label": "nettingInfo",
        "offset": 0,
        "slot": "22",
        "type": "t_struct(Info)12480_storage"
      },
      {
        "astId": 8260,
        "contract": "contracts/PerpetualMarketCore.sol:PerpetualMarketCore",
        "label": "priceFeed",
        "offset": 0,
        "slot": "25",
        "type": "t_contract(AggregatorV3Interface)45"
      },
      {
        "astId": 8262,
        "contract": "contracts/PerpetualMarketCore.sol:PerpetualMarketCore",
        "label": "lastHedgeSpotPrice",
        "offset": 0,
        "slot": "26",
        "type": "t_int256"
      },
      {
        "astId": 8264,
        "contract": "contracts/PerpetualMarketCore.sol:PerpetualMarketCore",
        "label": "perpetualMarket",
        "offset": 0,
        "slot": "27",
        "type": "t_address"
      }
    ],
    "types": {
      "t_address": {
        "encoding": "inplace",
        "label": "address",
        "numberOfBytes": "20"
      },
      "t_array(t_uint256)2_storage": {
        "base": "t_uint256",
        "encoding": "inplace",
        "label": "uint256[2]",
        "numberOfBytes": "64"
      },
      "t_contract(AggregatorV3Interface)45": {
        "encoding": "inplace",
        "label": "contract AggregatorV3Interface",
        "numberOfBytes": "20"
      },
      "t_int128": {
        "encoding": "inplace",
        "label": "int128",
        "numberOfBytes": "16"
      },
      "t_int256": {
        "encoding": "inplace",
        "label": "int256",
        "numberOfBytes": "32"
      },
      "t_mapping(t_address,t_mapping(t_address,t_uint256))": {
        "encoding": "mapping",
        "key": "t_address",
        "label": "mapping(address => mapping(address => uint256))",
        "numberOfBytes": "32",
        "value": "t_mapping(t_address,t_uint256)"
      },
      "t_mapping(t_address,t_uint256)": {
        "encoding": "mapping",
        "key": "t_address",
        "label": "mapping(address => uint256)",
        "numberOfBytes": "32",
        "value": "t_uint256"
      },
      "t_mapping(t_uint256,t_struct(Info)13277_storage)": {
        "encoding": "mapping",
        "key": "t_uint256",
        "label": "mapping(uint256 => struct SpreadLib.Info)",
        "numberOfBytes": "32",
        "value": "t_struct(Info)13277_storage"
      },
      "t_mapping(t_uint256,t_struct(Pool)8228_storage)": {
        "encoding": "mapping",
        "key": "t_uint256",
        "label": "mapping(uint256 => struct PerpetualMarketCore.Pool)",
        "numberOfBytes": "32",
        "value": "t_struct(Pool)8228_storage"
      },
      "t_string_storage": {
        "encoding": "bytes",
        "label": "string",
        "numberOfBytes": "32"
      },
      "t_struct(Info)12480_storage": {
        "encoding": "inplace",
        "label": "struct NettingLib.Info",
        "members": [
          {
            "astId": 12477,
            "contract": "contracts/PerpetualMarketCore.sol:PerpetualMarketCore",
            "label": "amountsUsdc",
            "offset": 0,
            "slot": "0",
            "type": "t_array(t_uint256)2_storage"
          },
          {
            "astId": 12479,
            "contract": "contracts/PerpetualMarketCore.sol:PerpetualMarketCore",
            "label": "amountUnderlying",
            "offset": 0,
            "slot": "2",
            "type": "t_uint256"
          }
        ],
        "numberOfBytes": "96"
      },
      "t_struct(Info)13277_storage": {
        "encoding": "inplace",
        "label": "struct SpreadLib.Info",
        "members": [
          {
            "astId": 13270,
            "contract": "contracts/PerpetualMarketCore.sol:PerpetualMarketCore",
            "label": "timeLastLongTransaction",
            "offset": 0,
            "slot": "0",
            "type": "t_uint128"
          },
          {
            "astId": 13272,
            "contract": "contracts/PerpetualMarketCore.sol:PerpetualMarketCore",
            "label": "minLongTradePrice",
            "offset": 16,
            "slot": "0",
            "type": "t_int128"
          },
          {
            "astId": 13274,
            "contract": "contracts/PerpetualMarketCore.sol:PerpetualMarketCore",
            "label": "timeLastShortTransaction",
            "offset": 0,
            "slot": "1",
            "type": "t_uint128"
          },
          {
            "astId": 13276,
            "contract": "contracts/PerpetualMarketCore.sol:PerpetualMarketCore",
            "label": "maxShortTradePrice",
            "offset": 16,
            "slot": "1",
            "type": "t_int128"
          }
        ],
        "numberOfBytes": "64"
      },
      "t_struct(Pool)8228_storage": {
        "encoding": "inplace",
        "label": "struct PerpetualMarketCore.Pool",
        "members": [
          {
            "astId": 8219,
            "contract": "contracts/PerpetualMarketCore.sol:PerpetualMarketCore",
            "label": "amountLockedLiquidity",
            "offset": 0,
            "slot": "0",
            "type": "t_uint128"
          },
          {
            "astId": 8221,
            "contract": "contracts/PerpetualMarketCore.sol:PerpetualMarketCore",
            "label": "positionPerpetuals",
            "offset": 16,
            "slot": "0",
            "type": "t_int128"
          },
          {
            "astId": 8223,
            "contract": "contracts/PerpetualMarketCore.sol:PerpetualMarketCore",
            "label": "entryPrice",
            "offset": 0,
            "slot": "1",
            "type": "t_uint128"
          },
          {
            "astId": 8225,
            "contract": "contracts/PerpetualMarketCore.sol:PerpetualMarketCore",
            "label": "amountFundingPaidPerPosition",
            "offset": 0,
            "slot": "2",
            "type": "t_int256"
          },
          {
            "astId": 8227,
            "contract": "contracts/PerpetualMarketCore.sol:PerpetualMarketCore",
            "label": "lastFundingPaymentTime",
            "offset": 0,
            "slot": "3",
            "type": "t_uint128"
          }
        ],
        "numberOfBytes": "128"
      },
      "t_struct(PoolSnapshot)8237_storage": {
        "encoding": "inplace",
        "label": "struct PerpetualMarketCore.PoolSnapshot",
        "members": [
          {
            "astId": 8230,
            "contract": "contracts/PerpetualMarketCore.sol:PerpetualMarketCore",
            "label": "futureBaseFundingRate",
            "offset": 0,
            "slot": "0",
            "type": "t_int128"
          },
          {
            "astId": 8232,
            "contract": "contracts/PerpetualMarketCore.sol:PerpetualMarketCore",
            "label": "ethVariance",
            "offset": 16,
            "slot": "0",
            "type": "t_int128"
          },
          {
            "astId": 8234,
            "contract": "contracts/PerpetualMarketCore.sol:PerpetualMarketCore",
            "label": "ethPrice",
            "offset": 0,
            "slot": "1",
            "type": "t_int128"
          },
          {
            "astId": 8236,
            "contract": "contracts/PerpetualMarketCore.sol:PerpetualMarketCore",
            "label": "lastSnapshotTime",
            "offset": 16,
            "slot": "1",
            "type": "t_uint128"
          }
        ],
        "numberOfBytes": "64"
      },
      "t_uint128": {
        "encoding": "inplace",
        "label": "uint128",
        "numberOfBytes": "16"
      },
      "t_uint256": {
        "encoding": "inplace",
        "label": "uint256",
        "numberOfBytes": "32"
      },
      "t_uint8": {
        "encoding": "inplace",
        "label": "uint8",
        "numberOfBytes": "1"
      }
    }
  }
}