{
  "address": "0xD3A3486B5cfe8B8b143FA06dfdEFbfbf7d5d06bC",
  "abi": [
    {
      "inputs": [
        {
          "internalType": "address",
          "name": "_collateral",
          "type": "address"
        },
        {
          "internalType": "address",
          "name": "_underlying",
          "type": "address"
        },
        {
          "internalType": "address",
          "name": "_perpetualMarket",
          "type": "address"
        },
        {
          "internalType": "address",
          "name": "_uniswapFactory",
          "type": "address"
        },
        {
          "internalType": "address",
          "name": "_ethUsdcPool",
          "type": "address"
        }
      ],
      "stateMutability": "nonpayable",
      "type": "constructor"
    },
    {
      "anonymous": false,
      "inputs": [
        {
          "indexed": true,
          "internalType": "address",
          "name": "hedger",
          "type": "address"
        },
        {
          "indexed": false,
          "internalType": "uint256",
          "name": "hedgeTimestamp",
          "type": "uint256"
        },
        {
          "indexed": false,
          "internalType": "uint256",
          "name": "minUsdc",
          "type": "uint256"
        }
      ],
      "name": "HedgeOnUniswap",
      "type": "event"
    },
    {
      "anonymous": false,
      "inputs": [
        {
          "indexed": true,
          "internalType": "address",
          "name": "previousOwner",
          "type": "address"
        },
        {
          "indexed": true,
          "internalType": "address",
          "name": "newOwner",
          "type": "address"
        }
      ],
      "name": "OwnershipTransferred",
      "type": "event"
    },
    {
      "inputs": [],
      "name": "collateral",
      "outputs": [
        {
          "internalType": "address",
          "name": "",
          "type": "address"
        }
      ],
      "stateMutability": "view",
      "type": "function"
    },
    {
      "inputs": [],
      "name": "ethUsdcPool",
      "outputs": [
        {
          "internalType": "address",
          "name": "",
          "type": "address"
        }
      ],
      "stateMutability": "view",
      "type": "function"
    },
    {
      "inputs": [],
      "name": "factory",
      "outputs": [
        {
          "internalType": "address",
          "name": "",
          "type": "address"
        }
      ],
      "stateMutability": "view",
      "type": "function"
    },
    {
      "inputs": [
        {
          "internalType": "uint256",
          "name": "_minUsdc",
          "type": "uint256"
        }
      ],
      "name": "hedgeOnUniswap",
      "outputs": [],
      "stateMutability": "nonpayable",
      "type": "function"
    },
    {
      "inputs": [],
      "name": "owner",
      "outputs": [
        {
          "internalType": "address",
          "name": "",
          "type": "address"
        }
      ],
      "stateMutability": "view",
      "type": "function"
    },
    {
      "inputs": [],
      "name": "renounceOwnership",
      "outputs": [],
      "stateMutability": "nonpayable",
      "type": "function"
    },
    {
      "inputs": [
        {
          "internalType": "address",
          "name": "_bot",
          "type": "address"
        }
      ],
      "name": "setBot",
      "outputs": [],
      "stateMutability": "nonpayable",
      "type": "function"
    },
    {
      "inputs": [
        {
          "internalType": "address",
          "name": "newOwner",
          "type": "address"
        }
      ],
      "name": "transferOwnership",
      "outputs": [],
      "stateMutability": "nonpayable",
      "type": "function"
    },
    {
      "inputs": [],
      "name": "underlying",
      "outputs": [
        {
          "internalType": "address",
          "name": "",
          "type": "address"
        }
      ],
      "stateMutability": "view",
      "type": "function"
    },
    {
      "inputs": [
        {
          "internalType": "int256",
          "name": "amount0Delta",
          "type": "int256"
        },
        {
          "internalType": "int256",
          "name": "amount1Delta",
          "type": "int256"
        },
        {
          "internalType": "bytes",
          "name": "_data",
          "type": "bytes"
        }
      ],
      "name": "uniswapV3SwapCallback",
      "outputs": [],
      "stateMutability": "nonpayable",
      "type": "function"
    }
  ],
  "transactionHash": "0x593c4437e3c4137c742ee67181bffce8eb25bd6d5ef798f50c1823b8b07852f0",
  "args": [
    "0xff970a61a04b1ca14834a43f5de4533ebddb5cc8",
    "0x82af49447d8a07e3bd95bd0d56f35241523fbab1",
    "0xc7ec02AEeCdC9087bf848c4C4f790Ed74A93F2AF",
    "0x1F98431c8aD98523631AE4a59f267346ea31F984",
    "0xc31e54c7a869b9fcbecc14363cf510d1c41fa443"
  ],
  "solcInputHash": "bfb76f5afb4f79797fb83aa25fa678c6",
  "bytecode": "0x6101006040523480156200001257600080fd5b5060405162002255380380620022558339810160408190526200003591620001e8565b816001600160a01b038116620000685760405162461bcd60e51b81526004016200005f90620002fa565b60405180910390fd5b60601b6001600160601b031916608052600062000084620001c7565b600080546001600160a01b0319166001600160a01b0383169081178255604051929350917f8be0079c531659141344cd1fd0a4f28419497f9722a3daafe3b4186f6b6457e0908290a3506001600160a01b038516620000f75760405162461bcd60e51b81526004016200005f9062000257565b6001600160a01b038416620001205760405162461bcd60e51b81526004016200005f90620002c3565b6001600160a01b038316620001495760405162461bcd60e51b81526004016200005f906200028e565b6001600160a01b038116620001725760405162461bcd60e51b81526004016200005f9062000331565b6001600160601b0319606095861b811660a05293851b841660c052600180546001600160a01b03949094166001600160a01b031994851617905590931b90911660e05260028054909116331790555062000368565b3390565b80516001600160a01b0381168114620001e357600080fd5b919050565b600080600080600060a0868803121562000200578081fd5b6200020b86620001cb565b94506200021b60208701620001cb565b93506200022b60408701620001cb565b92506200023b60608701620001cb565b91506200024b60808701620001cb565b90509295509295909350565b6020808252601a908201527f696e76616c696420636f6c6c61746572616c2061646472657373000000000000604082015260600190565b6020808252818101527f696e76616c69642070657270657475616c206d61726b65742061646472657373604082015260600190565b6020808252601a908201527f696e76616c696420756e6465726c79696e672061646472657373000000000000604082015260600190565b60208082526017908201527f696e76616c696420666163746f72792061646472657373000000000000000000604082015260600190565b6020808252601d908201527f696e76616c6964206574682d7573646320706f6f6c2061646472657373000000604082015260600190565b60805160601c60a05160601c60c05160601c60e05160601c611e5162000404600039806103fb5280610503528061062e5280610c675280610e955250806101cf52806103da52806104c15280610c455280610d2b5250806103b952806104e2528061065252806109cd5280610a8c5280610bb15280610c995280610e735280610ec752508061060a52806107cd528061141a5250611e516000f3fe608060405234801561001057600080fd5b506004361061009e5760003560e01c8063c45a015511610066578063c45a0155146100f9578063d359e09e14610101578063d8dfeb4514610109578063f2fde38b14610111578063fa461e33146101245761009e565b80636b5caec4146100a35780636f307dc3146100b8578063715018a6146100d65780638da5cb5b146100de578063bbae5a96146100e6575b600080fd5b6100b66100b13660046118ce565b610137565b005b6100c06101cd565b6040516100cd9190611bd6565b60405180910390f35b6100b66101f1565b6100c06102af565b6100b66100f4366004611b0a565b6102be565b6100c0610608565b6100c061062c565b6100c0610650565b6100b661011f3660046118ce565b610674565b6100b6610132366004611959565b610788565b61013f61082e565b6001600160a01b03166101506102af565b6001600160a01b0316146101ab576040805162461bcd60e51b815260206004820181905260248201527f4f776e61626c653a2063616c6c6572206973206e6f7420746865206f776e6572604482015290519081900360640190fd5b600280546001600160a01b0319166001600160a01b0392909216919091179055565b7f000000000000000000000000000000000000000000000000000000000000000081565b6101f961082e565b6001600160a01b031661020a6102af565b6001600160a01b031614610265576040805162461bcd60e51b815260206004820181905260248201527f4f776e61626c653a2063616c6c6572206973206e6f7420746865206f776e6572604482015290519081900360640190fd5b600080546040516001600160a01b03909116907f8be0079c531659141344cd1fd0a4f28419497f9722a3daafe3b4186f6b6457e0908390a3600080546001600160a01b0319169055565b6000546001600160a01b031690565b6002546001600160a01b031633146102f15760405162461bcd60e51b81526004016102e890611cc9565b60405180910390fd5b6000806000600160009054906101000a90046001600160a01b03166001600160a01b031663854ad1b76040518163ffffffff1660e01b815260040160606040518083038186803b15801561034457600080fd5b505afa158015610358573d6000803e3d6000fd5b505050506040513d601f19601f8201168201806040525081019061037c9190611902565b9250925092506000821180156103925750600081115b6103ae5760405162461bcd60e51b81526004016102e890611ce6565b82156104bc576104b77f00000000000000000000000000000000000000000000000000000000000000007f00000000000000000000000000000000000000000000000000000000000000007f00000000000000000000000000000000000000000000000000000000000000006001600160a01b031663ddca3f436040518163ffffffff1660e01b815260040160206040518083038186803b15801561045257600080fd5b505afa158015610466573d6000803e3d6000fd5b505050506040513d601f19601f8201168201806040525081019061048a9190611ae7565b8486600188888c6040516020016104a393929190611bc0565b604051602081830303815290604052610832565b6105bf565b6105bf7f00000000000000000000000000000000000000000000000000000000000000007f00000000000000000000000000000000000000000000000000000000000000007f00000000000000000000000000000000000000000000000000000000000000006001600160a01b031663ddca3f436040518163ffffffff1660e01b815260040160206040518083038186803b15801561055a57600080fd5b505afa15801561056e573d6000803e3d6000fd5b505050506040513d601f19601f820116820180604052508101906105929190611ae7565b8486600088888c6040516020016105ab93929190611bc0565b6040516020818303038152906040526108b3565b336001600160a01b03167f1bc9c0e34d354106b3f1028bd9fb833e077165d9b6d55d090a1436559ab5255742866040516105fa929190611d95565b60405180910390a250505050565b7f000000000000000000000000000000000000000000000000000000000000000081565b7f000000000000000000000000000000000000000000000000000000000000000081565b7f000000000000000000000000000000000000000000000000000000000000000081565b61067c61082e565b6001600160a01b031661068d6102af565b6001600160a01b0316146106e8576040805162461bcd60e51b815260206004820181905260248201527f4f776e61626c653a2063616c6c6572206973206e6f7420746865206f776e6572604482015290519081900360640190fd5b6001600160a01b03811661072d5760405162461bcd60e51b8152600401808060200182810382526026815260200180611da46026913960400191505060405180910390fd5b600080546040516001600160a01b03808516939216917f8be0079c531659141344cd1fd0a4f28419497f9722a3daafe3b4186f6b6457e091a3600080546001600160a01b0319166001600160a01b0392909216919091179055565b60008413806107975750600083135b6107a057600080fd5b60006107ae82840184611a29565b905060008060006107c2846000015161092a565b9250925092506107f47f000000000000000000000000000000000000000000000000000000000000000084848461095b565b5060008089136108045787610806565b885b90506108238560200151858585858a606001518b6040015161097a565b505050505050505050565b3390565b60006108878530600060405180608001604052808c8c8f60405160200161085b93929190611b85565b60408051601f1981840301815291815290825233602083015260ff8a1690820152606001879052610f1e565b9050838111156108a95760405162461bcd60e51b81526004016102e890611c75565b5050505050505050565b60006109088530600060405180608001604052808d8c8e6040516020016108dc93929190611b85565b60408051601f1981840301815291815290825233602083015260ff8a169082015260600187905261108b565b9050838110156108a95760405162461bcd60e51b81526004016102e890611c3e565b6000808061093884826111ca565b9250610945846014611280565b90506109528460176111ca565b91509193909250565b60006109718561096c868686611327565b611389565b95945050505050565b60008280602001905181019061099091906119d4565b905060008260ff1660018111156109a357fe5b60018111156109ae57fe5b1415610cea5780516040516370a0823160e01b81526001600160a01b037f000000000000000000000000000000000000000000000000000000000000000016906370a0823190610a02903090600401611bd6565b60206040518083038186803b158015610a1a57600080fd5b505afa158015610a2e573d6000803e3d6000fd5b505050506040513d601f19601f82011682018060405250810190610a529190611b22565b1015610a705760405162461bcd60e51b81526004016102e890611d03565b600154815160405163095ea7b360e01b81526001600160a01b037f000000000000000000000000000000000000000000000000000000000000000081169363095ea7b393610ac693919092169190600401611c25565b602060405180830381600087803b158015610ae057600080fd5b505af1158015610af4573d6000803e3d6000fd5b505050506040513d601f19601f82011682018060405250810190610b1891906118e8565b50600154604080516301b4707160e41b815281516001600160a01b0390931692631b470710926004808401939192918290030181600087803b158015610b5d57600080fd5b505af1158015610b71573d6000803e3d6000fd5b505050506040513d601f19601f82011682018060405250810190610b959190611936565b50506040516370a0823160e01b81526000906001600160a01b037f000000000000000000000000000000000000000000000000000000000000000016906370a0823190610be6903090600401611bd6565b60206040518083038186803b158015610bfe57600080fd5b505afa158015610c12573d6000803e3d6000fd5b505050506040513d601f19601f82011682018060405250810190610c369190611b22565b9050610c8c6001600160a01b037f0000000000000000000000000000000000000000000000000000000000000000167f0000000000000000000000000000000000000000000000000000000000000000876113ac565b610cc06001600160a01b037f0000000000000000000000000000000000000000000000000000000000000000168a836113ac565b8160400151811015610ce45760405162461bcd60e51b81526004016102e890611cac565b506108a9565b60018260ff166001811115610cfb57fe5b6001811115610d0657fe5b14156108a957600154602082015160405163095ea7b360e01b81526001600160a01b037f000000000000000000000000000000000000000000000000000000000000000081169363095ea7b393610d6593919092169190600401611c25565b602060405180830381600087803b158015610d7f57600080fd5b505af1158015610d93573d6000803e3d6000fd5b505050506040513d601f19601f82011682018060405250810190610db791906118e8565b50600154604080516301b4707160e41b815281516000936001600160a01b031692631b470710926004808201939182900301818787803b158015610dfa57600080fd5b505af1158015610e0e573d6000803e3d6000fd5b505050506040513d601f19601f82011682018060405250810190610e329190611936565b50905084811015610e555760405162461bcd60e51b81526004016102e890611d20565b8151600090610e649087611403565b9050610eba6001600160a01b037f0000000000000000000000000000000000000000000000000000000000000000167f0000000000000000000000000000000000000000000000000000000000000000886113ac565b610eee6001600160a01b037f0000000000000000000000000000000000000000000000000000000000000000168b836113ac565b8260400151811015610f125760405162461bcd60e51b81526004016102e890611cac565b50505050505050505050565b600080600080610f31856000015161092a565b919450925090506001600160a01b0380841690831610600080610f55858786611413565b6001600160a01b031663128acb088b85610f6e8f611451565b6000036001600160a01b038e1615610f86578d610fac565b87610fa55773fffd8963efd1fc6a506488495d951d5263988d25610fac565b6401000276a45b8d604051602001610fbd9190611d3d565b6040516020818303038152906040526040518663ffffffff1660e01b8152600401610fec959493929190611bea565b6040805180830381600087803b15801561100557600080fd5b505af1158015611019573d6000803e3d6000fd5b505050506040513d601f19601f8201168201806040525081019061103d9190611936565b9150915060008084611053578284600003611059565b83836000035b915091508a6001600160a01b03166000141561107b578c811461107b57600080fd5b509b9a5050505050505050505050565b60008060008061109e856000015161092a565b919450925090506001600160a01b03808316908416106000806110c2868686611413565b6001600160a01b031663128acb088b856110db8f611451565b6001600160a01b038e16156110f0578d611116565b8761110f5773fffd8963efd1fc6a506488495d951d5263988d25611116565b6401000276a45b8d6040516020016111279190611d3d565b6040516020818303038152906040526040518663ffffffff1660e01b8152600401611156959493929190611bea565b6040805180830381600087803b15801561116f57600080fd5b505af1158015611183573d6000803e3d6000fd5b505050506040513d601f19601f820116820180604052508101906111a79190611936565b91509150826111b657816111b8565b805b6000039b9a5050505050505050505050565b600081826014011015611219576040805162461bcd60e51b8152602060048201526012602482015271746f416464726573735f6f766572666c6f7760701b604482015290519081900360640190fd5b816014018351101561126a576040805162461bcd60e51b8152602060048201526015602482015274746f416464726573735f6f75744f66426f756e647360581b604482015290519081900360640190fd5b5081810160200151600160601b90045b92915050565b6000818260030110156112ce576040805162461bcd60e51b8152602060048201526011602482015270746f55696e7432345f6f766572666c6f7760781b604482015290519081900360640190fd5b816003018351101561131e576040805162461bcd60e51b8152602060048201526014602482015273746f55696e7432345f6f75744f66426f756e647360601b604482015290519081900360640190fd5b50016003015190565b61132f611801565b826001600160a01b0316846001600160a01b0316111561134d579192915b6040518060600160405280856001600160a01b03168152602001846001600160a01b031681526020018362ffffff1681525090505b9392505050565b6000611395838361149d565b9050336001600160a01b0382161461127a57600080fd5b604080516001600160a01b038416602482015260448082018490528251808303909101815260649091019091526020810180516001600160e01b031663a9059cbb60e01b1790526113fe908490611581565b505050565b8082038281111561127a57600080fd5b60006114497f0000000000000000000000000000000000000000000000000000000000000000611444868686611327565b61149d565b949350505050565b6000600160ff1b82106114955760405162461bcd60e51b8152600401808060200182810382526028815260200180611dca6028913960400191505060405180910390fd5b50805b919050565b600081602001516001600160a01b031682600001516001600160a01b0316106114c557600080fd5b50805160208083015160409384015184516001600160a01b0394851681850152939091168385015262ffffff166060808401919091528351808403820181526080840185528051908301206001600160f81b031960a085015294901b6bffffffffffffffffffffffff191660a183015260b58201939093527fe34f199b19b2b4f47f68442619d555527d244f78a3297ea89325f843f87b8b5460d5808301919091528251808303909101815260f5909101909152805191012090565b60006115d6826040518060400160405280602081526020017f5361666545524332303a206c6f772d6c6576656c2063616c6c206661696c6564815250856001600160a01b03166116329092919063ffffffff16565b8051909150156113fe578080602001905160208110156115f557600080fd5b50516113fe5760405162461bcd60e51b815260040180806020018281038252602a815260200180611df2602a913960400191505060405180910390fd5b606061144984846000858561164685611757565b611697576040805162461bcd60e51b815260206004820152601d60248201527f416464726573733a2063616c6c20746f206e6f6e2d636f6e7472616374000000604482015290519081900360640190fd5b600080866001600160a01b031685876040518082805190602001908083835b602083106116d55780518252601f1990920191602091820191016116b6565b6001836020036101000a03801982511681845116808217855250505050505090500191505060006040518083038185875af1925050503d8060008114611737576040519150601f19603f3d011682016040523d82523d6000602084013e61173c565b606091505b509150915061174c82828661175d565b979650505050505050565b3b151590565b6060831561176c575081611382565b82511561177c5782518084602001fd5b8160405162461bcd60e51b81526004018080602001828103825283818151815260200191508051906020019080838360005b838110156117c65781810151838201526020016117ae565b50505050905090810190601f1680156117f35780820380516001836020036101000a031916815260200191505b509250505060405180910390fd5b604080516060810182526000808252602082018190529181019190915290565b80356001600160a01b038116811461149857600080fd5b8051801515811461149857600080fd5b600082601f830112611858578081fd5b813567ffffffffffffffff8082111561186d57fe5b604051601f8301601f19168101602001828111828210171561188b57fe5b6040528281528483016020018610156118a2578384fd5b82602086016020830137918201602001929092529392505050565b803560ff8116811461149857600080fd5b6000602082840312156118df578081fd5b61138282611821565b6000602082840312156118f9578081fd5b61138282611838565b600080600060608486031215611916578182fd5b61191f84611838565b925060208401519150604084015190509250925092565b60008060408385031215611948578182fd5b505080516020909101519092909150565b6000806000806060858703121561196e578081fd5b8435935060208501359250604085013567ffffffffffffffff80821115611993578283fd5b818701915087601f8301126119a6578283fd5b8135818111156119b4578384fd5b8860208285010111156119c5578384fd5b95989497505060200194505050565b6000606082840312156119e5578081fd5b6040516060810181811067ffffffffffffffff82111715611a0257fe5b80604052508251815260208301516020820152604083015160408201528091505092915050565b600060208284031215611a3a578081fd5b813567ffffffffffffffff80821115611a51578283fd5b9083019060808286031215611a64578283fd5b604051608081018181108382111715611a7957fe5b604052823582811115611a8a578485fd5b611a9687828601611848565b825250611aa560208401611821565b6020820152611ab6604084016118bd565b6040820152606083013582811115611acc578485fd5b611ad887828601611848565b60608301525095945050505050565b600060208284031215611af8578081fd5b815162ffffff81168114611382578182fd5b600060208284031215611b1b578081fd5b5035919050565b600060208284031215611b33578081fd5b5051919050565b60008151808452815b81811015611b5f57602081850181015186830182015201611b43565b81811115611b705782602083870101525b50601f01601f19169290920160200192915050565b606093841b6bffffffffffffffffffffffff19908116825260e89390931b6001600160e81b0319166014820152921b166017820152602b0190565b9283526020830191909152604082015260600190565b6001600160a01b0391909116815260200190565b6001600160a01b0386811682528515156020830152604082018590528316606082015260a06080820181905260009061174c90830184611b3a565b6001600160a01b03929092168252602082015260400190565b60208082526018908201527f616d6f756e74206f7574206c657373207468616e206d696e0000000000000000604082015260600190565b6020808252601a908201527f616d6f756e7420696e2067726561746572207468616e206d6178000000000000604082015260600190565b60208082526003908201526223241960e91b604082015260600190565b60208082526003908201526211920d60ea1b604082015260600190565b60208082526003908201526246483360e81b604082015260600190565b60208082526003908201526204648360ec1b604082015260600190565b60208082526003908201526246483160e81b604082015260600190565b600060208252825160806020840152611d5960a0840182611b3a565b905060018060a01b03602085015116604084015260ff60408501511660608401526060840151601f198483030160808501526109718282611b3a565b91825260208201526040019056fe4f776e61626c653a206e6577206f776e657220697320746865207a65726f206164647265737353616665436173743a2076616c756520646f65736e27742066697420696e20616e20696e743235365361666545524332303a204552433230206f7065726174696f6e20646964206e6f742073756363656564a264697066735822122062a37836f5151bcf2e41429d8ecfc624e17dcffc92dc238602832d6dc493eb5364736f6c63430007060033",
  "devdoc": {
    "kind": "dev",
    "methods": {
      "hedgeOnUniswap(uint256)": {
        "params": {
          "_minUsdc": "minimum USDC amount the caller willing to receive"
        }
      },
      "owner()": {
        "details": "Returns the address of the current owner."
      },
      "renounceOwnership()": {
        "details": "Leaves the contract without owner. It will not be possible to call `onlyOwner` functions anymore. Can only be called by the current owner. NOTE: Renouncing ownership will leave the contract without an owner, thereby removing any functionality that is only available to the owner."
      },
      "setBot(address)": {
        "params": {
          "_bot": "bot address"
        }
      },
      "transferOwnership(address)": {
        "details": "Transfers ownership of the contract to a new account (`newOwner`). Can only be called by the current owner."
      },
      "uniswapV3SwapCallback(int256,int256,bytes)": {
        "params": {
          "_data": "callback data encoded as SwapCallbackData struct",
          "amount0Delta": "amount of token0",
          "amount1Delta": "amount of token1"
        }
      }
    },
    "stateVariables": {
      "bot": {
        "details": "bot address"
      },
      "ethUsdcPool": {
        "details": "ETH:USDC uniswap pool"
      }
    },
    "title": "FlashHedge",
    "version": 1
  },
  "userdoc": {
    "kind": "user",
    "methods": {
      "hedgeOnUniswap(uint256)": {
        "notice": "Executes delta hedging by Uniswap"
      },
      "setBot(address)": {
        "notice": "set bot address"
      },
      "uniswapV3SwapCallback(int256,int256,bytes)": {
        "notice": "uniswap swap callback function for flashes"
      }
    },
    "notice": "FlashHedge helps to swap underlying assets and USDC tokens with Uniswap for delta hedging. Error codes FH0: no enough usdc amount FH1: no enough usdc amount FH2: profit is less than minUsdc FH3: amounts must not be 0 FH4: caller is not bot",
    "version": 1
  },
  "storageLayout": {
    "storage": [
      {
        "astId": 53,
        "contract": "contracts/FlashHedge.sol:FlashHedge",
        "label": "_owner",
        "offset": 0,
        "slot": "0",
        "type": "t_address"
      },
      {
        "astId": 6444,
        "contract": "contracts/FlashHedge.sol:FlashHedge",
        "label": "perpetualMarket",
        "offset": 0,
        "slot": "1",
        "type": "t_contract(IPerpetualMarket)12014"
      },
      {
        "astId": 6447,
        "contract": "contracts/FlashHedge.sol:FlashHedge",
        "label": "bot",
        "offset": 0,
        "slot": "2",
        "type": "t_address"
      }
    ],
    "types": {
      "t_address": {
        "encoding": "inplace",
        "label": "address",
        "numberOfBytes": "20"
      },
      "t_contract(IPerpetualMarket)12014": {
        "encoding": "inplace",
        "label": "contract IPerpetualMarket",
        "numberOfBytes": "20"
      }
    }
  }
}