{
  "address": "0x17F63ee2551C517260E956B0913daa2cDAC301E4",
  "abi": [
    {
      "inputs": [
        {
          "internalType": "address",
          "name": "_priceFeedAddress",
          "type": "address"
        },
        {
          "internalType": "string",
          "name": "_tokenName",
          "type": "string"
        },
        {
          "internalType": "string",
          "name": "_tokenSymbol",
          "type": "string"
        }
      ],
      "stateMutability": "nonpayable",
      "type": "constructor"
    },
    {
      "anonymous": false,
      "inputs": [
        {
          "indexed": true,
          "internalType": "address",
          "name": "owner",
          "type": "address"
        },
        {
          "indexed": true,
          "internalType": "address",
          "name": "spender",
          "type": "address"
        },
        {
          "indexed": false,
          "internalType": "uint256",
          "name": "value",
          "type": "uint256"
        }
      ],
      "name": "Approval",
      "type": "event"
    },
    {
      "anonymous": false,
      "inputs": [
        {
          "indexed": false,
          "internalType": "uint256",
          "name": "productId",
          "type": "uint256"
        },
        {
          "indexed": false,
          "internalType": "int256",
          "name": "fundingRate",
          "type": "int256"
        },
        {
          "indexed": false,
          "internalType": "int256",
          "name": "amountFundingPaidPerPosition",
          "type": "int256"
        },
        {
          "indexed": false,
          "internalType": "int256",
          "name": "fundingPaidPerPosition",
          "type": "int256"
        },
        {
          "indexed": false,
          "internalType": "int256",
          "name": "poolReceived",
          "type": "int256"
        }
      ],
      "name": "FundingPayment",
      "type": "event"
    },
    {
      "anonymous": false,
      "inputs": [
        {
          "indexed": true,
          "internalType": "address",
          "name": "previousOwner",
          "type": "address"
        },
        {
          "indexed": true,
          "internalType": "address",
          "name": "newOwner",
          "type": "address"
        }
      ],
      "name": "OwnershipTransferred",
      "type": "event"
    },
    {
      "anonymous": false,
      "inputs": [
        {
          "indexed": false,
          "internalType": "uint256",
          "name": "minSlippageToleranceOfHedge",
          "type": "uint256"
        },
        {
          "indexed": false,
          "internalType": "uint256",
          "name": "maxSlippageToleranceOfHedge",
          "type": "uint256"
        },
        {
          "indexed": false,
          "internalType": "uint256",
          "name": "hedgeRateOfReturnThreshold",
          "type": "uint256"
        }
      ],
      "name": "SetHedgeParams",
      "type": "event"
    },
    {
      "anonymous": false,
      "inputs": [
        {
          "indexed": false,
          "internalType": "int256",
          "name": "perpFutureMaxFundingRate",
          "type": "int256"
        }
      ],
      "name": "SetPerpFutureMaxFundingRate",
      "type": "event"
    },
    {
      "anonymous": false,
      "inputs": [
        {
          "indexed": false,
          "internalType": "int256",
          "name": "poolMarginRiskParam",
          "type": "int256"
        }
      ],
      "name": "SetPoolMarginRiskParam",
      "type": "event"
    },
    {
      "anonymous": false,
      "inputs": [
        {
          "indexed": false,
          "internalType": "int256",
          "name": "squaredPerpFundingMultiplier",
          "type": "int256"
        }
      ],
      "name": "SetSquaredPerpFundingMultiplier",
      "type": "event"
    },
    {
      "anonymous": false,
      "inputs": [
        {
          "indexed": false,
          "internalType": "int256",
          "name": "tradeFeeRate",
          "type": "int256"
        },
        {
          "indexed": false,
          "internalType": "int256",
          "name": "protocolFeeRate",
          "type": "int256"
        }
      ],
      "name": "SetTradeFeeRate",
      "type": "event"
    },
    {
      "anonymous": false,
      "inputs": [
        {
          "indexed": true,
          "internalType": "address",
          "name": "from",
          "type": "address"
        },
        {
          "indexed": true,
          "internalType": "address",
          "name": "to",
          "type": "address"
        },
        {
          "indexed": false,
          "internalType": "uint256",
          "name": "value",
          "type": "uint256"
        }
      ],
      "name": "Transfer",
      "type": "event"
    },
    {
      "anonymous": false,
      "inputs": [
        {
          "indexed": false,
          "internalType": "int256",
          "name": "variance",
          "type": "int256"
        },
        {
          "indexed": false,
          "internalType": "int256",
          "name": "underlyingPrice",
          "type": "int256"
        },
        {
          "indexed": false,
          "internalType": "uint256",
          "name": "timestamp",
          "type": "uint256"
        }
      ],
      "name": "VarianceUpdated",
      "type": "event"
    },
    {
      "inputs": [
        {
          "internalType": "uint256",
          "name": "_amount",
          "type": "uint256"
        }
      ],
      "name": "addLiquidity",
      "outputs": [],
      "stateMutability": "nonpayable",
      "type": "function"
    },
    {
      "inputs": [
        {
          "internalType": "address",
          "name": "owner",
          "type": "address"
        },
        {
          "internalType": "address",
          "name": "spender",
          "type": "address"
        }
      ],
      "name": "allowance",
      "outputs": [
        {
          "internalType": "uint256",
          "name": "",
          "type": "uint256"
        }
      ],
      "stateMutability": "view",
      "type": "function"
    },
    {
      "inputs": [],
      "name": "amountLiquidity",
      "outputs": [
        {
          "internalType": "uint256",
          "name": "",
          "type": "uint256"
        }
      ],
      "stateMutability": "view",
      "type": "function"
    },
    {
      "inputs": [
        {
          "internalType": "address",
          "name": "spender",
          "type": "address"
        },
        {
          "internalType": "uint256",
          "name": "amount",
          "type": "uint256"
        }
      ],
      "name": "approve",
      "outputs": [
        {
          "internalType": "bool",
          "name": "",
          "type": "bool"
        }
      ],
      "stateMutability": "nonpayable",
      "type": "function"
    },
    {
      "inputs": [
        {
          "internalType": "address",
          "name": "account",
          "type": "address"
        }
      ],
      "name": "balanceOf",
      "outputs": [
        {
          "internalType": "uint256",
          "name": "",
          "type": "uint256"
        }
      ],
      "stateMutability": "view",
      "type": "function"
    },
    {
      "inputs": [
        {
          "components": [
            {
              "internalType": "uint256",
              "name": "amountUsdc",
              "type": "uint256"
            },
            {
              "internalType": "uint256",
              "name": "amountUnderlying",
              "type": "uint256"
            },
            {
              "internalType": "uint256",
              "name": "futureWeight",
              "type": "uint256"
            },
            {
              "internalType": "bool",
              "name": "isLong",
              "type": "bool"
            }
          ],
          "internalType": "struct NettingLib.CompleteParams",
          "name": "_completeParams",
          "type": "tuple"
        }
      ],
      "name": "completeHedgingProcedure",
      "outputs": [],
      "stateMutability": "nonpayable",
      "type": "function"
    },
    {
      "inputs": [],
      "name": "decimals",
      "outputs": [
        {
          "internalType": "uint8",
          "name": "",
          "type": "uint8"
        }
      ],
      "stateMutability": "view",
      "type": "function"
    },
    {
      "inputs": [
        {
          "internalType": "address",
          "name": "spender",
          "type": "address"
        },
        {
          "internalType": "uint256",
          "name": "subtractedValue",
          "type": "uint256"
        }
      ],
      "name": "decreaseAllowance",
      "outputs": [
        {
          "internalType": "bool",
          "name": "",
          "type": "bool"
        }
      ],
      "stateMutability": "nonpayable",
      "type": "function"
    },
    {
      "inputs": [
        {
          "internalType": "address",
          "name": "_depositor",
          "type": "address"
        },
        {
          "internalType": "uint256",
          "name": "_depositAmount",
          "type": "uint256"
        }
      ],
      "name": "deposit",
      "outputs": [
        {
          "internalType": "uint256",
          "name": "mintAmount",
          "type": "uint256"
        }
      ],
      "stateMutability": "nonpayable",
      "type": "function"
    },
    {
      "inputs": [],
      "name": "executeFundingPayment",
      "outputs": [],
      "stateMutability": "nonpayable",
      "type": "function"
    },
    {
      "inputs": [
        {
          "internalType": "int256",
          "name": "_deltaLiquidityAmount",
          "type": "int256"
        }
      ],
      "name": "getLPTokenPrice",
      "outputs": [
        {
          "internalType": "uint256",
          "name": "",
          "type": "uint256"
        }
      ],
      "stateMutability": "view",
      "type": "function"
    },
    {
      "inputs": [],
      "name": "getNettingInfo",
      "outputs": [
        {
          "components": [
            {
              "internalType": "int256[2]",
              "name": "amountsUsdc",
              "type": "int256[2]"
            },
            {
              "internalType": "uint256",
              "name": "amountUnderlying",
              "type": "uint256"
            }
          ],
          "internalType": "struct NettingLib.Info",
          "name": "",
          "type": "tuple"
        }
      ],
      "stateMutability": "view",
      "type": "function"
    },
    {
      "inputs": [],
      "name": "getTokenAmountForHedging",
      "outputs": [
        {
          "components": [
            {
              "internalType": "uint256",
              "name": "amountUsdc",
              "type": "uint256"
            },
            {
              "internalType": "uint256",
              "name": "amountUnderlying",
              "type": "uint256"
            },
            {
              "internalType": "uint256",
              "name": "futureWeight",
              "type": "uint256"
            },
            {
              "internalType": "bool",
              "name": "isLong",
              "type": "bool"
            }
          ],
          "internalType": "struct NettingLib.CompleteParams",
          "name": "completeParams",
          "type": "tuple"
        }
      ],
      "stateMutability": "view",
      "type": "function"
    },
    {
      "inputs": [
        {
          "internalType": "uint256",
          "name": "_productId",
          "type": "uint256"
        },
        {
          "internalType": "int128",
          "name": "_tradeAmount",
          "type": "int128"
        }
      ],
      "name": "getTradePrice",
      "outputs": [
        {
          "internalType": "int256",
          "name": "",
          "type": "int256"
        },
        {
          "internalType": "int256",
          "name": "",
          "type": "int256"
        },
        {
          "internalType": "int256",
          "name": "",
          "type": "int256"
        },
        {
          "internalType": "int256",
          "name": "",
          "type": "int256"
        },
        {
          "internalType": "int256",
          "name": "",
          "type": "int256"
        }
      ],
      "stateMutability": "view",
      "type": "function"
    },
    {
      "inputs": [
        {
          "internalType": "int128[2]",
          "name": "amountAssets",
          "type": "int128[2]"
        }
      ],
      "name": "getTradePriceInfo",
      "outputs": [
        {
          "components": [
            {
              "internalType": "uint128",
              "name": "spotPrice",
              "type": "uint128"
            },
            {
              "internalType": "int256[2]",
              "name": "tradePrices",
              "type": "int256[2]"
            },
            {
              "internalType": "int256[2]",
              "name": "fundingRates",
              "type": "int256[2]"
            },
            {
              "internalType": "int256[2]",
              "name": "amountsFundingPaidPerPosition",
              "type": "int256[2]"
            }
          ],
          "internalType": "struct IPerpetualMarketCore.TradePriceInfo",
          "name": "",
          "type": "tuple"
        }
      ],
      "stateMutability": "view",
      "type": "function"
    },
    {
      "inputs": [],
      "name": "getUtilizationRatio",
      "outputs": [
        {
          "internalType": "uint256",
          "name": "",
          "type": "uint256"
        }
      ],
      "stateMutability": "view",
      "type": "function"
    },
    {
      "inputs": [
        {
          "internalType": "address",
          "name": "spender",
          "type": "address"
        },
        {
          "internalType": "uint256",
          "name": "addedValue",
          "type": "uint256"
        }
      ],
      "name": "increaseAllowance",
      "outputs": [
        {
          "internalType": "bool",
          "name": "",
          "type": "bool"
        }
      ],
      "stateMutability": "nonpayable",
      "type": "function"
    },
    {
      "inputs": [
        {
          "internalType": "address",
          "name": "_depositor",
          "type": "address"
        },
        {
          "internalType": "uint256",
          "name": "_depositAmount",
          "type": "uint256"
        },
        {
          "internalType": "int256",
          "name": "_initialFundingRate",
          "type": "int256"
        }
      ],
      "name": "initialize",
      "outputs": [
        {
          "internalType": "uint256",
          "name": "mintAmount",
          "type": "uint256"
        }
      ],
      "stateMutability": "nonpayable",
      "type": "function"
    },
    {
      "inputs": [],
      "name": "lastHedgeSpotPrice",
      "outputs": [
        {
          "internalType": "int256",
          "name": "",
          "type": "int256"
        }
      ],
      "stateMutability": "view",
      "type": "function"
    },
    {
      "inputs": [],
      "name": "name",
      "outputs": [
        {
          "internalType": "string",
          "name": "",
          "type": "string"
        }
      ],
      "stateMutability": "view",
      "type": "function"
    },
    {
      "inputs": [],
      "name": "owner",
      "outputs": [
        {
          "internalType": "address",
          "name": "",
          "type": "address"
        }
      ],
      "stateMutability": "view",
      "type": "function"
    },
    {
      "inputs": [],
      "name": "poolSnapshot",
      "outputs": [
        {
          "internalType": "int128",
          "name": "futureBaseFundingRate",
          "type": "int128"
        },
        {
          "internalType": "int128",
          "name": "ethVariance",
          "type": "int128"
        },
        {
          "internalType": "int128",
          "name": "ethPrice",
          "type": "int128"
        },
        {
          "internalType": "uint128",
          "name": "lastSnapshotTime",
          "type": "uint128"
        }
      ],
      "stateMutability": "view",
      "type": "function"
    },
    {
      "inputs": [
        {
          "internalType": "uint256",
          "name": "",
          "type": "uint256"
        }
      ],
      "name": "pools",
      "outputs": [
        {
          "internalType": "uint128",
          "name": "amountLockedLiquidity",
          "type": "uint128"
        },
        {
          "internalType": "int128",
          "name": "positionPerpetuals",
          "type": "int128"
        },
        {
          "internalType": "uint128",
          "name": "entryPrice",
          "type": "uint128"
        },
        {
          "internalType": "int256",
          "name": "amountFundingPaidPerPosition",
          "type": "int256"
        },
        {
          "internalType": "uint128",
          "name": "lastFundingPaymentTime",
          "type": "uint128"
        }
      ],
      "stateMutability": "view",
      "type": "function"
    },
    {
      "inputs": [],
      "name": "rebalance",
      "outputs": [],
      "stateMutability": "nonpayable",
      "type": "function"
    },
    {
      "inputs": [],
      "name": "renounceOwnership",
      "outputs": [],
      "stateMutability": "nonpayable",
      "type": "function"
    },
    {
      "inputs": [
        {
          "internalType": "uint256",
          "name": "_minSlippageToleranceOfHedge",
          "type": "uint256"
        },
        {
          "internalType": "uint256",
          "name": "_maxSlippageToleranceOfHedge",
          "type": "uint256"
        },
        {
          "internalType": "uint256",
          "name": "_hedgeRateOfReturnThreshold",
          "type": "uint256"
        }
      ],
      "name": "setHedgeParams",
      "outputs": [],
      "stateMutability": "nonpayable",
      "type": "function"
    },
    {
      "inputs": [
        {
          "internalType": "int256",
          "name": "_perpFutureMaxFundingRate",
          "type": "int256"
        }
      ],
      "name": "setPerpFutureMaxFundingRate",
      "outputs": [],
      "stateMutability": "nonpayable",
      "type": "function"
    },
    {
      "inputs": [
        {
          "internalType": "address",
          "name": "_perpetualMarket",
          "type": "address"
        }
      ],
      "name": "setPerpetualMarket",
      "outputs": [],
      "stateMutability": "nonpayable",
      "type": "function"
    },
    {
      "inputs": [
        {
          "internalType": "int256",
          "name": "_poolMarginRiskParam",
          "type": "int256"
        }
      ],
      "name": "setPoolMarginRiskParam",
      "outputs": [],
      "stateMutability": "nonpayable",
      "type": "function"
    },
    {
      "inputs": [
        {
          "internalType": "int256",
          "name": "_squaredPerpFundingMultiplier",
          "type": "int256"
        }
      ],
      "name": "setSquaredPerpFundingMultiplier",
      "outputs": [],
      "stateMutability": "nonpayable",
      "type": "function"
    },
    {
      "inputs": [
        {
          "internalType": "int256",
          "name": "_tradeFeeRate",
          "type": "int256"
        },
        {
          "internalType": "int256",
          "name": "_protocolFeeRate",
          "type": "int256"
        }
      ],
      "name": "setTradeFeeRate",
      "outputs": [],
      "stateMutability": "nonpayable",
      "type": "function"
    },
    {
      "inputs": [],
      "name": "symbol",
      "outputs": [
        {
          "internalType": "string",
          "name": "",
          "type": "string"
        }
      ],
      "stateMutability": "view",
      "type": "function"
    },
    {
      "inputs": [],
      "name": "totalSupply",
      "outputs": [
        {
          "internalType": "uint256",
          "name": "",
          "type": "uint256"
        }
      ],
      "stateMutability": "view",
      "type": "function"
    },
    {
      "inputs": [
        {
          "internalType": "address",
          "name": "recipient",
          "type": "address"
        },
        {
          "internalType": "uint256",
          "name": "amount",
          "type": "uint256"
        }
      ],
      "name": "transfer",
      "outputs": [
        {
          "internalType": "bool",
          "name": "",
          "type": "bool"
        }
      ],
      "stateMutability": "nonpayable",
      "type": "function"
    },
    {
      "inputs": [
        {
          "internalType": "address",
          "name": "sender",
          "type": "address"
        },
        {
          "internalType": "address",
          "name": "recipient",
          "type": "address"
        },
        {
          "internalType": "uint256",
          "name": "amount",
          "type": "uint256"
        }
      ],
      "name": "transferFrom",
      "outputs": [
        {
          "internalType": "bool",
          "name": "",
          "type": "bool"
        }
      ],
      "stateMutability": "nonpayable",
      "type": "function"
    },
    {
      "inputs": [
        {
          "internalType": "address",
          "name": "newOwner",
          "type": "address"
        }
      ],
      "name": "transferOwnership",
      "outputs": [],
      "stateMutability": "nonpayable",
      "type": "function"
    },
    {
      "inputs": [
        {
          "internalType": "uint256",
          "name": "_productId",
          "type": "uint256"
        },
        {
          "internalType": "int128",
          "name": "_tradeAmount",
          "type": "int128"
        }
      ],
      "name": "updatePoolPosition",
      "outputs": [
        {
          "internalType": "uint256",
          "name": "tradePrice",
          "type": "uint256"
        },
        {
          "internalType": "int256",
          "name": "",
          "type": "int256"
        },
        {
          "internalType": "uint256",
          "name": "protocolFee",
          "type": "uint256"
        }
      ],
      "stateMutability": "nonpayable",
      "type": "function"
    },
    {
      "inputs": [],
      "name": "updatePoolSnapshot",
      "outputs": [],
      "stateMutability": "nonpayable",
      "type": "function"
    },
    {
      "inputs": [
        {
          "internalType": "address",
          "name": "_withdrawer",
          "type": "address"
        },
        {
          "internalType": "uint256",
          "name": "_withdrawnAmount",
          "type": "uint256"
        }
      ],
      "name": "withdraw",
      "outputs": [
        {
          "internalType": "uint256",
          "name": "burnAmount",
          "type": "uint256"
        }
      ],
      "stateMutability": "nonpayable",
      "type": "function"
    }
  ],
  "transactionHash": "0xad6f08bd4d44ce1f870671af13ea967d1ace22070f35dc754b82d76e8bbe580a",
  "args": [
    "0x639Fe6ab55C921f74e7fac1ee960C0B6293ba612",
    "Predy V2 ETH USDC LP Token",
    "PREDY2-ETH-USDC-LP"
  ],
  "solcInputHash": "bfb76f5afb4f79797fb83aa25fa678c6",
  "bytecode": "0x60806040523480156200001157600080fd5b5060405162004b9b38038062004b9b833981016040819052620000349162000336565b8181600062000042620001ac565b600080546001600160a01b0319166001600160a01b0383169081178255604051929350917f8be0079c531659141344cd1fd0a4f28419497f9722a3daafe3b4186f6b6457e0908290a3508151620000a1906004906020850190620001ef565b508051620000b7906005906020840190620001ef565b50506006805460ff1916601217905550620000d36008620001b0565b601980546001600160a01b0319166001600160a01b03851617905560008052601160209081526200012f907f4ad3b33220dddc71b994a52d72c06b10862965f7d926534c05c00fb7e819e7b790620001c6811b620018c017901c565b60016000526011602090815262000171907f17bc176d2408558f6e4111feebc3cab4e16b63e967be91cde721f4c8a488b55290620018c0620001c6821b17901c565b50506320c855806007555062035b6060085560286009556050600a55622625a0600b55610fa0600c5561c350600d55614e20600e55620003bc565b3390565b6006805460ff191660ff92909216919091179055565b8054600160801b600160ff1b036001600160801b03918216178255600190910180549091169055565b828054600181600116156101000203166002900490600052602060002090601f01602090048101928262000227576000855562000272565b82601f106200024257805160ff191683800117855562000272565b8280016001018555821562000272579182015b828111156200027257825182559160200191906001019062000255565b506200028092915062000284565b5090565b5b8082111562000280576000815560010162000285565b600082601f830112620002ac578081fd5b81516001600160401b0380821115620002c157fe5b6040516020601f8401601f1916820181018381118382101715620002e157fe5b6040528382528584018101871015620002f8578485fd5b8492505b838310156200031b5785830181015182840182015291820191620002fc565b838311156200032c57848185840101525b5095945050505050565b6000806000606084860312156200034b578283fd5b83516001600160a01b038116811462000362578384fd5b60208501519093506001600160401b03808211156200037f578384fd5b6200038d878388016200029b565b93506040860151915080821115620003a3578283fd5b50620003b2868287016200029b565b9150509250925092565b6147cf80620003cc6000396000f3fe608060405234801561001057600080fd5b506004361061023d5760003560e01c80637d8c26591161013b578063ac4afa38116100b8578063dd62ed3e1161007c578063dd62ed3e146104d7578063e7dc45d3146104ea578063f2fde38b146104fd578063f3fef3a314610510578063f844f2a6146105235761023d565b8063ac4afa3814610456578063b02582dc1461047a578063b206ab841461048d578063b4f0332f146104a0578063bfe51951146104c45761023d565b806389633081116100ff578063896330811461040b5780638da5cb5b1461041357806395d89b4114610428578063a457c2d714610430578063a9059cbb146104435761023d565b80637d8c2659146103ae5780637fc38467146103b657806382f3955d146103ce578063854ad1b7146103ee57806387c3a09a146104035761023d565b80633d33bcd5116101c95780635cda497d1161018d5780635cda497d1461036557806370a0823114610378578063715018a61461038b57806373f3489e146103935780637d7c2a1c146103a65761023d565b80633d33bcd5146103005780633ed7e33c1461031557806347e7ef241461033757806351c6590a1461034a578063545ed65a1461035d5761023d565b8063192679ed11610210578063192679ed146102aa57806323a216c1146102bd57806323b872dd146102c5578063313ce567146102d857806339509351146102ed5761023d565b806306fdde0314610242578063095ea7b314610260578063128c113f1461028057806318160ddd14610295575b600080fd5b61024a610536565b60405161025791906142f8565b60405180910390f35b61027361026e366004614013565b6105cc565b6040516102579190614269565b61029361028e36600461412d565b6105ea565b005b61029d61063e565b60405161025791906142be565b6102936102b83660046140f4565b610644565b61029d610703565b6102736102d3366004613fd8565b610761565b6102e06107e9565b60405161025791906144c4565b6102736102fb366004614013565b6107f2565b610308610840565b604051610257919061440e565b610328610323366004614196565b610890565b604051610257939291906144ae565b61029d610345366004614013565b610a39565b6102936103583660046140f4565b610ada565b61029d610b17565b6102936103733660046141b8565b610b1d565b61029d610386366004613f8c565b610bfb565b610293610c1a565b61029d6103a13660046140f4565b610cc6565b610293610dd6565b610293610ebb565b6103be610f10565b6040516102579493929190614274565b6103e16103dc36600461406e565b610f3a565b6040516102579190614431565b6103f661104d565b60405161025791906143e1565b610293611133565b61029d611196565b61041b61119c565b6040516102579190614255565b61024a6111ab565b61027361043e366004614013565b61120c565b610273610451366004614013565b611274565b6104696104643660046140f4565b611288565b60405161025795949392919061447b565b6102936104883660046140f4565b6112c9565b61029361049b36600461410c565b61137e565b6104b36104ae366004614196565b611463565b6040516102579594939291906142d5565b6102936104d23660046140f4565b61149b565b61029d6104e5366004613fa6565b611540565b61029d6104f836600461403c565b61156b565b61029361050b366004613f8c565b611660565b61029d61051e366004614013565b611762565b610293610531366004613f8c565b611812565b60048054604080516020601f60026000196101006001881615020190951694909404938401819004810282018101909252828152606093909290918301828280156105c25780601f10610597576101008083540402835291602001916105c2565b820191906000526020600020905b8154815290600101906020018083116105a557829003601f168201915b5050505050905090565b60006105e06105d96118f2565b84846118f6565b5060015b92915050565b601b546001600160a01b0316331461061d5760405162461bcd60e51b815260040161061490614387565b60405180910390fd5b60006106276119e2565b50601a819055905061063a601683611a9e565b5050565b60035490565b61064c6118f2565b6001600160a01b031661065d61119c565b6001600160a01b0316146106a6576040805162461bcd60e51b81526020600482018190526024820152600080516020614678833981519152604482015290519081900360640190fd5b600081121580156106ba5750620f42408113155b6106c357600080fd5b60088190556040517f0e5502f89db0c53034cbc3f53df6d411d72c6c9b9e711b952d4cc6a30d8ac73d906106f89083906142be565b60405180910390a150565b60008060005b600281101561073f576000818152601060205260409020546107359083906001600160801b0316611bc4565b9150600101610709565b50600f5461075b90610755836305f5e100611c1e565b90611c77565b91505090565b600061076e848484611cde565b6107de8461077a6118f2565b6107d985604051806060016040528060288152602001614650602891396001600160a01b038a166000908152600260205260408120906107b86118f2565b6001600160a01b031681526020810191909152604001600020549190611e3b565b6118f6565b5060015b9392505050565b60065460ff1690565b60006105e06107ff6118f2565b846107d985600260006108106118f2565b6001600160a01b03908116825260208083019390935260409182016000908120918c168152925290205490611bc4565b610848613e9f565b604080516080810180835290916016918391820190839060029082845b8154815260200190600101908083116108655750505050508152602001600282015481525050905090565b601b54600090819081906001600160a01b031633146108c15760405162461bcd60e51b815260040161061490614387565b6000600f54116108e35760405162461bcd60e51b815260040161061490614369565b60006108ed6119e2565b506000878152601060205260409020549091506109249061091f90600160801b9004600f90810b810b9088900b611ed2565b611f37565b60008781526010602052604090208054600f92830b6001600160801b03908116600160801b02911617905561095f908790839088900b611f9c565b6000888152601060205260408120600181015490549397509194509182916109b5916001600160801b03909116906109a890600160801b9004600f90810b810b908b900b61211a565b888a600003600f0b61217f565b915091506109ca6109c5836122b7565b61230e565b600089815260106020526040902060010180546001600160801b0319166001600160801b0392909216919091179055600f54610a1890610a13610a0c87612352565b8490611ed2565b612396565b600f5550505060008581526010602052604090206002015491509250925092565b601b546000906001600160a01b03163314610a665760405162461bcd60e51b815260040161061490614387565b6000610a7061063e565b11610a7a57600080fd5b6000610a886103a184612352565b9050610a9f610a9a6012600184612424565b6122b7565b9050610ab68161075585662386f26fc10000611c1e565b600f54909250610ac69084611bc4565b600f55610ad384836124e8565b5092915050565b601b546001600160a01b03163314610b045760405162461bcd60e51b815260040161061490614387565b600f54610b119082611bc4565b600f5550565b601a5481565b610b256118f2565b6001600160a01b0316610b3661119c565b6001600160a01b031614610b7f576040805162461bcd60e51b81526020600482018190526024820152600080516020614678833981519152604482015290519081900360640190fd5b8183108015610b8f575060c88211155b610bab5760405162461bcd60e51b8152600401610614906143a5565b6009839055600a829055600b8190556040517f40eadc083dad26c82ca6e52052119f861019dc8b168294cc37f793801b6494a090610bee908590859085906144ae565b60405180910390a1505050565b6001600160a01b0381166000908152600160205260409020545b919050565b610c226118f2565b6001600160a01b0316610c3361119c565b6001600160a01b031614610c7c576040805162461bcd60e51b81526020600482018190526024820152600080516020614678833981519152604482015290519081900360640190fd5b600080546040516001600160a01b03909116907f8be0079c531659141344cd1fd0a4f28419497f9722a3daafe3b4186f6b6457e0908390a3600080546001600160a01b0319169055565b600080610cd16119e2565b5090506000610cf7610ce5600184876125da565b610cf1600085886125da565b9061211a565b6040805160808101808352929350600092610d5492869291601691839190820190839060029082845b815481526020019060010190808311610d20575050505050815260200160028201548152505061269990919063ffffffff16565b9050610dcd610d6161063e565b60106020526000805160206144f683398151915254600080526000805160206145ee83398151915254600f5461075592662386f26fc1000092610dc7926001600160801b0392831692610dc192169082908b90610cf1908c908290612352565b906126de565b90611c1e565b95945050505050565b601b546001600160a01b03163314610e005760405162461bcd60e51b815260040161061490614387565b6000610e0a6119e2565b50905060005b600281101561063a576000806000610e28848661273b565b9093509050610e3a8484836002612834565b90945092505081159050610e5857610e54600f5482612396565b600f555b8115610eb157600083815260106020526040902054610e84906109c5906001600160801b031684612396565b600084815260106020526040902080546001600160801b0319166001600160801b03929092169190911790555b5050600101610e10565b601b546001600160a01b03163314610ee55760405162461bcd60e51b815260040161061490614387565b6000610eef6119e2565b50905060005b600281101561063a57610f08818361297a565b600101610ef5565b601454601554600f82810b92600160801b90819004820b929182900b91046001600160801b031684565b610f42613ebf565b6000610f4c6119e2565b509050610f57613f01565b610f5f613f01565b610f67613f01565b60005b600281101561101d576000610f9882878a8560028110610f8657fe5b6020020151600003600f0b6000612abf565b905050878560028110610fa757fe5b60200201878660028110610fb757fe5b60200201919091529190915290506000610fe38383878260028110610fd857fe5b602002015142612c08565b600084815260106020526040902060020154909150611002908261211a565b84846002811061100e57fe5b60200201525050600101610f6a565b50604080516080810182526001600160801b03909516855260208501939093529183015260608201529050919050565b611055613f1f565b600061105f6119e2565b5060106020526000805160206145ee83398151915254600160009081526000805160206144f6833981519152549293509182916110b6918591600160801b90819004600f90810b810b9291909104810b900b612c59565b915091506110c2613f01565b828152602081018290526018546110da908286612ca8565b945060006110e785612d4e565b90508560600151156111155761110e6127106107556111068285611bc4565b895190611c1e565b865261112b565b61112861271061075561110682856126de565b86525b505050505090565b601b546001600160a01b0316331461115d5760405162461bcd60e51b815260040161061490614387565b60155461a8c06001600160801b03600160801b9092048216011642101561118357611194565b61118c42612dcc565b611194612f51565b565b600f5481565b6000546001600160a01b031690565b60058054604080516020601f60026000196101006001881615020190951694909404938401819004810282018101909252828152606093909290918301828280156105c25780601f10610597576101008083540402835291602001916105c2565b60006105e06112196118f2565b846107d98560405180606001604052806025815260200161477560259139600260006112436118f2565b6001600160a01b03908116825260208083019390935260409182016000908120918d16815292529020549190611e3b565b60006105e06112816118f2565b8484611cde565b60106020526000908152604090208054600182015460028301546003909301546001600160801b0380841694600160801b909404600f0b9392811692911685565b6112d16118f2565b6001600160a01b03166112e261119c565b6001600160a01b03161461132b576040805162461bcd60e51b81526020600482018190526024820152600080516020614678833981519152604482015290519081900360640190fd5b60008112158015611340575063773594008113155b61134957600080fd5b60078190556040517ffd74ba77488a6a7a45711e7c3469f918238eb90178880837da4a029a93ccf375906106f89083906142be565b6113866118f2565b6001600160a01b031661139761119c565b6001600160a01b0316146113e0576040805162461bcd60e51b81526020600482018190526024820152600080516020614678833981519152604482015290519081900360640190fd5b806000131580156113f45750620493e08213155b80156113ff57508181125b61141b5760405162461bcd60e51b8152600401610614906143a5565b600d829055600e8190556040517fbacb10fce6db592e49a2f13ebfa4af23c68a1ddc3962bc0818478a518f3fa95f9061145790849084906142c7565b60405180910390a15050565b6000806000806000806114746119e2565b509050611487888289600f0b6000612abf565b939c929b5090995097509095509350505050565b6114a36118f2565b6001600160a01b03166114b461119c565b6001600160a01b0316146114fd576040805162461bcd60e51b81526020600482018190526024820152600080516020614678833981519152604482015290519081900360640190fd5b600081121561150b57600080fd5b600c8190556040517f8e6edd6f6b5a50f0d6a8f356374101e297ba1ac391a14aaa3248ba40d7665e73906106f89083906142be565b6001600160a01b03918216600090815260026020908152604080832093909416825291909152205490565b601b546000906001600160a01b031633146115985760405162461bcd60e51b815260040161061490614387565b6115a061063e565b156115aa57600080fd5b508160006115b66119e2565b5090506115c283611f37565b60148054600f9290920b6001600160801b03908116600160801b0292169190911790556115ee81611f37565b60158054600f9290920b6001600160801b03166001600160801b031990921691909117905561161c4261230e565b601580546001600160801b03928316600160801b029216919091179055601a819055600f5461164b9085611bc4565b600f5561165885836124e8565b509392505050565b6116686118f2565b6001600160a01b031661167961119c565b6001600160a01b0316146116c2576040805162461bcd60e51b81526020600482018190526024820152600080516020614678833981519152604482015290519081900360640190fd5b6001600160a01b0381166117075760405162461bcd60e51b81526004018080602001828103825260268152602001806145386026913960400191505060405180910390fd5b600080546040516001600160a01b03808516939216917f8be0079c531659141344cd1fd0a4f28419497f9722a3daafe3b4186f6b6457e091a3600080546001600160a01b0319166001600160a01b0392909216919091179055565b601b546000906001600160a01b0316331461178f5760405162461bcd60e51b815260040161061490614387565b81611798612f63565b10156117b65760405162461bcd60e51b8152600401610614906143c3565b60006117cc6117c484612352565b600003610cc6565b90506117de610a9a6012600084612424565b90506117f58161075585662386f26fc10000611c1e565b600f5490925061180590846126de565b600f55610ad38483612fe2565b61181a6118f2565b6001600160a01b031661182b61119c565b6001600160a01b031614611874576040805162461bcd60e51b81526020600482018190526024820152600080516020614678833981519152604482015290519081900360640190fd5b601b546001600160a01b031615801561189557506001600160a01b03811615155b61189e57600080fd5b601b80546001600160a01b0319166001600160a01b0392909216919091179055565b80546f7fffffffffffffffffffffffffffffff60801b6001600160801b03918216178255600190910180549091169055565b3390565b6001600160a01b03831661193b5760405162461bcd60e51b81526004018080602001828103825260248152602001806147056024913960400191505060405180910390fd5b6001600160a01b0382166119805760405162461bcd60e51b815260040180806020018281038252602281526020018061455e6022913960400191505060405180910390fd5b6001600160a01b03808416600081815260026020908152604080832094871680845294825291829020859055815185815291517f8c5be1e5ebec7d5bd14f71427d1e84f3dd0314c0f7b2291e5b200ac8c7c3b9259281900390910190a3505050565b600080600080601960009054906101000a90046001600160a01b03166001600160a01b031663feaf968c6040518163ffffffff1660e01b815260040160a06040518083038186803b158015611a3657600080fd5b505afa158015611a4a573d6000803e3d6000fd5b505050506040513d601f19601f82011682018060405250810190611a6e91906141e3565b5093505092505060008213611a955760405162461bcd60e51b81526004016106149061434b565b90925090509091565b6000611ac6662386f26fc1000061075584604001518560000151611c1e90919063ffffffff16565b8251909150600090611ad890836126de565b90506000836020015111611b18576040805162461bcd60e51b81526020600482015260026024820152614e3160f01b604482015290519081900360640190fd5b826060015115611b725760208301516002850154611b3591611bc4565b6002850155611b52611b4683612352565b8560005b015490611ed2565b8455611b68611b6082612352565b856001611b4a565b8460010155611bbe565b60208301516002850154611b85916126de565b6002850155611ba2611b9683612352565b8560005b01549061211a565b8455611bb8611bb082612352565b856001611b9a565b84600101555b50505050565b6000828201838110156107e2576040805162461bcd60e51b815260206004820152601b60248201527f536166654d6174683a206164646974696f6e206f766572666c6f770000000000604482015290519081900360640190fd5b600082611c2d575060006105e4565b82820282848281611c3a57fe5b04146107e25760405162461bcd60e51b815260040180806020018281038252602181526020018061462f6021913960400191505060405180910390fd5b6000808211611ccd576040805162461bcd60e51b815260206004820152601a60248201527f536166654d6174683a206469766973696f6e206279207a65726f000000000000604482015290519081900360640190fd5b818381611cd657fe5b049392505050565b6001600160a01b038316611d235760405162461bcd60e51b81526004018080602001828103825260258152602001806146e06025913960400191505060405180910390fd5b6001600160a01b038216611d685760405162461bcd60e51b81526004018080602001828103825260238152602001806144d36023913960400191505060405180910390fd5b611d738383836130de565b611db081604051806060016040528060268152602001614580602691396001600160a01b0386166000908152600160205260409020549190611e3b565b6001600160a01b038085166000908152600160205260408082209390935590841681522054611ddf9082611bc4565b6001600160a01b0380841660008181526001602090815260409182902094909455805185815290519193928716927fddf252ad1be2c89b69c2b068fc378daa952ba7f163c4a11628f55a4df523b3ef92918290030190a3505050565b60008184841115611eca5760405162461bcd60e51b81526004018080602001828103825283818151815260200191508051906020019080838360005b83811015611e8f578181015183820152602001611e77565b50505050905090810190601f168015611ebc5780820380516001836020036101000a031916815260200191505b509250505060405180910390fd5b505050900390565b6000818303818312801590611ee75750838113155b80611efc5750600083128015611efc57508381135b6107e25760405162461bcd60e51b81526004018080602001828103825260248152602001806147516024913960400191505060405180910390fd5b60006f7fffffffffffffffffffffffffffffff198212158015611f5d57506001607f1b82125b611f985760405162461bcd60e51b81526004018080602001828103825260278152602001806145a66027913960400191505060405180910390fd5b5090565b600080600080600080611faf898961273b565b60008b8152601060205260409020549195509150611fea908a9086908490611fe590600160801b9004600f90810b900b8c6130e3565b612834565b60008c81526010602052604081205492975092955093509091506120269061202090600160801b9004600f90810b900b8961211a565b8a61315b565b90506000806120478b8b60008c1386612040600f54612352565b8a8a6131c6565b9450505050915061207860008a1383601160008f81526020019081526020016000206124249092919063ffffffff16565b915083156120905761208c600f5485612396565b600f555b60008b8152601060205260409020546120b6906109c5906001600160801b031688612396565b60008c815260106020526040902080546001600160801b0319166001600160801b03929092169190911790556120eb826122b7565b6121086305f5e1006107556120ff8d613258565b610dc7866122b7565b97509750505050505050935093915050565b600082820181831280159061212f5750838112155b80612144575060008312801561214457508381125b6107e25760405162461bcd60e51b81526004018080602001828103825260218152602001806145cd6021913960400191505060405180910390fd5b6000808061218d868561211a565b90508515806121a757506000861380156121a75750600084135b806121bd57506000861280156121bd5750600084125b1561220d576122066121d76121d2888761211a565b613258565b6122006121ed6121e688613258565b8990613269565b610cf16121f98b613258565b8c90613269565b90613312565b92506122ad565b60008613801561221d5750600084125b80156122295750600081135b8061224b575060008612801561223f5750600084135b801561224b5750600081125b1561227f578692506305f5e1006122706122658786611ed2565b600087900390613269565b8161227757fe5b0591506122ad565b8015612289578492505b6305f5e1006122a261229b878a611ed2565b8890613269565b816122a957fe5b0591505b5094509492505050565b600080821215611f98576040805162461bcd60e51b815260206004820181905260248201527f53616665436173743a2076616c7565206d75737420626520706f736974697665604482015290519081900360640190fd5b6000600160801b8210611f985760405162461bcd60e51b81526004018080602001828103825260278152602001806145a66027913960400191505060405180910390fd5b6000600160ff1b8210611f985760405162461bcd60e51b81526004018080602001828103825260288152602001806147296028913960400191505060405180910390fd5b6000808212156123e65782826000038403915081106123e1576040805162461bcd60e51b815260206004820152600260248201526104d360f41b604482015290519081900360640190fd5b6105e4565b50808201828110156105e4576040805162461bcd60e51b81526020600482015260026024820152614d3160f01b604482015290519081900360640190fd5b6040805160808101825284546001600160801b038082168352600160801b91829004600f90810b810b602085015260018801549182169484019490945204820b90910b606082015260009061247b818585426133ca565b815186546020840151600f90810b6001600160801b03908116600160801b9081029482166001600160801b0319948516178216949094178a5560408601516001909a01805460609097015190920b8116909302988316949091169390931716959095179055509192915050565b6001600160a01b038216612543576040805162461bcd60e51b815260206004820152601f60248201527f45524332303a206d696e7420746f20746865207a65726f206164647265737300604482015290519081900360640190fd5b61254f600083836130de565b60035461255c9082611bc4565b6003556001600160a01b0382166000908152600160205260409020546125829082611bc4565b6001600160a01b03831660008181526001602090815260408083209490945583518581529351929391927fddf252ad1be2c89b69c2b068fc378daa952ba7f163c4a11628f55a4df523b3ef9281900390910190a35050565b6000838152601060205260408120548190600160801b9004600f90810b900b15612691576000858152601060205260408120546126299087908790600160801b9004600f90810b900b87612abf565b5050506000888152601060205260409020600101549192506305f5e10091612685915061266290610a0c906001600160801b0316612352565b600089815260106020526040902054600160801b9004600f90810b900b90613269565b8161268c57fe5b059150505b949350505050565b6000806126bb6305f5e1006122006126b48760200151612352565b8690613269565b84516020810151919250612691918391610cf1919060005b60200201519061211a565b600082821115612735576040805162461bcd60e51b815260206004820152601e60248201527f536166654d6174683a207375627472616374696f6e206f766572666c6f770000604482015290519081900360640190fd5b50900390565b60106020526000805160206145ee83398151915254600160009081526000805160206144f6833981519152549091829182918291612792918791600160801b91829004600f90810b810b92909104810b900b612c59565b6001600081815260106020526000805160206144f68339815191525493955091935090916305f5e100916127de91600160801b9004600f90810b900b906127d8906135f2565b90613269565b816127e557fe5b059050612826876040518060a00160405280868152602001858152602001848152602001898152602001600c5481525060166136459092919063ffffffff16565b909890975095505050505050565b60008060008086131561291857600085126128785785612852612f63565b10156128705760405162461bcd60e51b815260040161061490614369565b859150612913565b6000878152601060205260409020546128a49061289d906001600160801b0316612352565b8690611ed2565b6000888152601060205260409020546128c5906001600160801b0316612352565b600003925090506128d6868661211a565b6128de612f63565b10156128fc5760405162461bcd60e51b815260040161061490614369565b612910612909878761211a565b839061211a565b91505b612949565b600086121561294957600087815260106020526040902054612944906001600160801b031687876136db565b925090505b60008781526010602052604090205461296e90859084906001600160801b031661370b565b92509450945094915050565b6000828152601060205260409020600301546001600160801b03166129c857600082815260106020526040902060030180546001600160801b031916426001600160801b031617905561063a565b6000828152601060205260409020600301546001600160801b031642116129ee5761063a565b60008060006129fe85854261378a565b6000888152601060205260409020600201549295509093509150612a22908361211a565b6000868152601060205260409020600201558015612a4a57612a46600f5482612396565b600f555b600085815260106020526040908190206003810180546001600160801b031916426001600160801b03161790556002015490517f3e5170eaa3b2dec8bb1a3e32834aed10d5bbdb77abda3b065447543099eaebfa91612ab09188918791879087906142d5565b60405180910390a15050505050565b600080808080808715612b11576000806000612ae48d8d612adf8e611f37565b61382b565b9250925092506000612af88e858585612834565b919650909150612b0a90508b8261211a565b9a50505050505b60008a815260106020526040812054612b3890600160801b9004600f90810b900b8c61315b565b9050612b568b8b60008c1384612b4f600f54612352565b878e6131c6565b939a50919850909550909350612b8990508b612b72838561211a565b612b818b610cf1600f54612352565b6000806139aa565b60008c8152601160209081526040808320815160808101835281546001600160801b038082168352600160801b91829004600f90810b810b810b9684019690965260019093015492831693820193909352919004820b820b90910b6060820152919650612bfa92508a1388426133ca565b955050945094509450945094565b6000612c1c6305f5e1006122008686613269565b600086815260106020526040902060030154909150610dcd90620151809061220090612c529086906001600160801b03166126de565b8490613269565b60008060006305f5e100612c72866127d860008a613a89565b81612c7957fe5b05905060006305f5e100612c92866127d860018b613a89565b81612c9957fe5b92989205965090945050505050565b612cb0613f1f565b6000612cbb85612352565b90506000612cd682610cf187600160200201518860006126d3565b602086015160009182039250612ced9087836126d3565b1315612cfa578160000390505b600081136060840152612d0c81613258565b60208401526305f5e100612d2385610dc784613258565b81612d2a57fe5b04835284516020860151612d4091600091613ac1565b604084015250509392505050565b600080612d776121d2601a546122006305f5e1006127d8601a5489611ed290919063ffffffff16565b9050612da4612d9b600b5461075584600954600a5403611c1e90919063ffffffff16565b60095490611bc4565b9150600954821015612db65760095491505b600a54821115612dc657600a5491505b50919050565b6000612dd66119e2565b50601554909150600090612dfd90600f90810b900b6122006305f5e1006127d88684611ed2565b90506000612e136305f5e1006122008480613269565b601554909150612e4590612e3890600160801b90046001600160801b03168603612352565b6122008362015180613269565b9050612e8c6305f5e100612e7f612e5f625b8d8085613269565b601454610cf19063059a538090600160801b9004600f90810b900b613269565b81612e8657fe5b05611f37565b60148054600f9290920b6001600160801b03908116600160801b029216919091179055612eb883611f37565b60158054600f9290920b6001600160801b03166001600160801b0319909216919091179055612ee68461230e565b601580546001600160801b03908116600160801b93909116830217908190556014546040517fc0286f283c0343297f024da33b37cbae636c6f78d8b29803dd94a72c09d44b1a93612f43939204600f90810b92900b9088906142a0565b60405180910390a150505050565b601480546001600160801b0319169055565b60008060005b6002811015612fd457600081815260106020526040902054612f959083906001600160801b0316611bc4565b9150600060168260028110612fa657fe5b01541215612fcc57612fc98260168360028110612fbf57fe5b0154600003612396565b91505b600101612f69565b50600f5461075b90826126de565b6001600160a01b0382166130275760405162461bcd60e51b81526004018080602001828103825260218152602001806146bf6021913960400191505060405180910390fd5b613033826000836130de565b61307081604051806060016040528060228152602001614516602291396001600160a01b0385166000908152600160205260409020549190611e3b565b6001600160a01b03831660009081526001602052604090205560035461309690826126de565b6003556040805182815290516000916001600160a01b038516917fddf252ad1be2c89b69c2b068fc378daa952ba7f163c4a11628f55a4df523b3ef9181900360200190a35050565b505050565b6000806130f0848461211a565b90506000811380156131025750600084125b156131115760039150506105e4565b6000811280156131215750600084135b156131305760019150506105e4565b60008112158015613142575060008412155b156131515760029150506105e4565b60009150506105e4565b60008261316a575060006105e4565b600083131561319e57600082815260106020526040902054613194906001600160801b0316612352565b60000390506105e4565b6000828152601060205260409020546131bf906001600160801b0316612352565b90506105e4565b6000806000806000806131dc8d8b8b8b8b6139aa565b90506131e88d8d613b68565b94506000613204662386f26fc100006122006121e6828661211a565b90506132118e8d88613b8f565b935061321d818561211a565b90506132298e87613bfe565b925080868361323f61323a88613258565b612352565b9650965096509650505097509750975097509792505050565b600080821215611f98575060000390565b600082613278575060006105e4565b8260001914801561328c5750600160ff1b82145b156132c85760405162461bcd60e51b81526004018080602001828103825260278152602001806146986027913960400191505060405180910390fd5b828202828482816132d557fe5b05146107e25760405162461bcd60e51b81526004018080602001828103825260278152602001806146986027913960400191505060405180910390fd5b600081613366576040805162461bcd60e51b815260206004820181905260248201527f5369676e6564536166654d6174683a206469766973696f6e206279207a65726f604482015290519081900360640190fd5b8160001914801561337a5750600160ff1b83145b156133b65760405162461bcd60e51b815260040180806020018281038252602181526020018061460e6021913960400191505060405180910390fd5b60008284816133c157fe5b05949350505050565b8183156134e357610168820385604001516001600160801b031610613495578460600151600f0b811215613495576000603c86604001516001600160801b031684038161341357fe5b0490506000613423600483611c1e565b90506050811315613432575060505b60608701516127109061344a90600f0b838303613269565b8161345157fe5b0583136134895761347c612710612e7f83612710038a60600151600f0b61326990919063ffffffff16565b600f90810b900b60608801525b5050506060840151600f0b5b808560200151600f0b13806134b7575084516001600160801b03166101680182115b156134d2576134c581611f37565b600f90810b900b60208601525b6001600160801b0382168552612691565b610168820385600001516001600160801b03161061359b578460200151600f0b81131561359b578451603c6001600160801b039091168303046000613529600483611c1e565b90506050811315613538575060505b60208701516127109061355090600f0b838301613269565b8161355757fe5b05831361358f57613582612710612e7f83612710018a60200151600f0b61326990919063ffffffff16565b600f90810b900b60208801525b5050506020840151600f0b5b808560600151600f0b12806135c057508161016886604001516001600160801b031601105b156135db576135ce81611f37565b600f90810b900b60608601525b6001600160801b0382166040860152949350505050565b60008161360157506000610c15565b81600114156136135750614e20610c15565b6040805162461bcd60e51b815260206004820152600260248201526104e560f41b604482015290519081900360640190fd5b60008060006136548585613c3c565b60408051608081018083529293506136a492909189918391820190839060029082845b81548152602001906001019080831161367757505050505081526020016002820154815250508587613ceb565b91506136b08183611ed2565b92506136c283878760028110611b9a57fe5b8686600281106136ce57fe5b0155509094909350915050565b6000806136f5836122006136ee88612352565b8790613269565b90506137018185611ed2565b9150935093915050565b6000600384600381111561371b57fe5b14156137375761373083610cf1846002613269565b90506107e2565b600184600381111561374557fe5b14156137645761375a83610cf1846002613269565b60000390506107e2565b600284600381111561377257fe5b1415613783578260000390506107e2565b50816107e2565b60008060008061379a8787613b68565b6000888152601060205260409020549091506137d59088906137ca90600160801b9004600f90810b900b8261315b565b612b81600f54612352565b93506137e387828688612c08565b60008881526010602052604081205491945061381f91662386f26fc1000091612200918791600160801b909104600f90810b909103900b613269565b91505093509350939050565b60106020526000805160206145ee83398151915254600160009081526000805160206144f683398151915254909182918291829182918291600160801b91829004600f90810b810b92909104810b900b8a6138a05761388e82600f8b900b611ed2565b915061389d828a600f0b6130e3565b95505b8a600114156138c9576138b781600f8b900b611ed2565b90506138c6818a600f0b6130e3565b95505b6138d48a8383612c59565b90955093506305f5e1006138ec826127d860016135f2565b816138f357fe5b059250505060006040518060a001604052808581526020018481526020018381526020018a8152602001600c54815250905060006139318b83613c3c565b604080516080810180835292935061398e9285928f9291601691839190820190839060029082845b8154815260200190600101908083116139595750505050508152602001600282015481525050613ceb9092919063ffffffff16565b965061399a8188611ed2565b9750505050505093509350939050565b6000856139f25760006139d36305f5e1006122006139ca89888a89613d7a565b60085490613269565b6014549091506139ea90600f90810b900b8261211a565b915050610dcd565b8560011415613a7d5783613a2657601454613a1f90600160801b9004600f90810b900b6305f5e100613269565b9050610dcd565b6000613a486305f5e100612200613a3f89888a89613d7a565b60075490613269565b90506139ea6305f5e100612200613a66662386f26fc100008561211a565b601454600160801b9004600f90810b900b90613269565b50600095945050505050565b600082613a9b57506305f5e1006105e4565b826001141561361357612710613ab2836002613269565b81613ab957fe5b0590506105e4565b600080613adf613ad084613258565b613ad986613258565b90611bc4565b905080613af05760009150506107e2565b84613b1557613b0d81610755662386f26fc10000610dc788613258565b9150506107e2565b8460011415613b3657613b0d81610755662386f26fc10000610dc787613258565b6040805162461bcd60e51b815260206004820152600260248201526104e360f41b604482015290519081900360640190fd5b600082613b765750806105e4565b82600114156136135764e8d4a51000613ab28380613269565b6000808213613b9d57600080fd5b8215613bd3576305f5e100613bc4856001016127d8600d548661326990919063ffffffff16565b81613bcb57fe5b0590506107e2565b6305f5e100613bf4856001016127d8600d548661326990919063ffffffff16565b60000381613bcb57fe5b6000808213613c0c57600080fd5b6305f5e100613c2d846001016127d8600e548661326990919063ffffffff16565b81613c3457fe5b059392505050565b600080613c528484600001518560200151613e74565b905060008460011415613c8e57613c8b64e8d4a5100061220086604001516127d88860600151896080015161326990919063ffffffff16565b90505b6000613cbe6305f5e100612200613cb361323a613caa87613258565b613ad989613258565b606089015190613269565b9050613ce16127106122008388608001516127100161326990919063ffffffff16565b9695505050505050565b600080613d116305f5e100612200613d068860200151612352565b606088015190613269565b90506000613d41662386f26fc10000612200613d3a61323a60008a600001518b60200151613ac1565b8590613269565b90508360011415613d5957613d568282611ed2565b90505b6000613d6f82886000015187600281106126d357fe5b979650505050505050565b6000808313613dc5576040805162461bcd60e51b81526020600482015260126024820152716c206d75737420626520706f73697469766560701b604482015290519081900360640190fd5b6000613dd5866127d88180613269565b9050613df7613df0600261220060036127d88a818d80613269565b829061211a565b9050613e0a613df0866127d88982613269565b9050613e22613df06004612200886127d88180613269565b9050613e38846122008181856305f5e100613269565b9050613ce1613e47858561211a565b612200613e54878761211a565b6122006305f5e1006127d861229b613e6d8b6002613312565b8c9061211a565b600080613e81848461211a565b9050610dcd662386f26fc10000612200612c5261323a898989613ac1565b6040518060400160405280613eb2613f01565b8152602001600081525090565b604051806080016040528060006001600160801b03168152602001613ee2613f01565b8152602001613eef613f01565b8152602001613efc613f01565b905290565b60405180604001604052806002906020820280368337509192915050565b60405180608001604052806000815260200160008152602001600081526020016000151581525090565b80356001600160a01b0381168114610c1557600080fd5b8035600f81900b8114610c1557600080fd5b805169ffffffffffffffffffff81168114610c1557600080fd5b600060208284031215613f9d578081fd5b6107e282613f49565b60008060408385031215613fb8578081fd5b613fc183613f49565b9150613fcf60208401613f49565b90509250929050565b600080600060608486031215613fec578081fd5b613ff584613f49565b925061400360208501613f49565b9150604084013590509250925092565b60008060408385031215614025578182fd5b61402e83613f49565b946020939093013593505050565b600080600060608486031215614050578283fd5b61405984613f49565b95602085013595506040909401359392505050565b60006040828403121561407f578081fd5b82601f83011261408d578081fd5b6040516040810181811067ffffffffffffffff821117156140aa57fe5b80604052508083856040860111156140c0578384fd5b835b60028110156140e9576140d482613f60565b835260209283019291909101906001016140c2565b509195945050505050565b600060208284031215614105578081fd5b5035919050565b6000806040838503121561411e578182fd5b50508035926020909101359150565b60006080828403121561413e578081fd5b6040516080810181811067ffffffffffffffff8211171561415b57fe5b80604052508235815260208301356020820152604083013560408201526060830135801515811461418a578283fd5b60608201529392505050565b600080604083850312156141a8578182fd5b82359150613fcf60208401613f60565b6000806000606084860312156141cc578283fd5b505081359360208301359350604090920135919050565b600080600080600060a086880312156141fa578283fd5b61420386613f72565b945060208601519350604086015192506060860151915061422660808701613f72565b90509295509295909350565b8060005b6002811015611bbe578151845260209384019390910190600101614236565b6001600160a01b0391909116815260200190565b901515815260200190565b600f94850b815292840b6020840152920b60408201526001600160801b03909116606082015260800190565b600f93840b81529190920b6020820152604081019190915260600190565b90815260200190565b918252602082015260400190565b948552602085019390935260408401919091526060830152608082015260a00190565b6000602080835283518082850152825b8181101561432457858101830151858201604001528201614308565b818111156143355783604083870101525b50601f01601f1916929092016040019392505050565b602080825260049082015263504d433360e01b604082015260600190565b602080825260049082015263504d433160e01b604082015260600190565b6020808252600490820152632826a19960e11b604082015260600190565b602080825260049082015263504d433560e01b604082015260600190565b6020808252600490820152630504d43360e41b604082015260600190565b81518152602080830151908201526040808301519082015260609182015115159181019190915260800190565b6000606082019050614421828451614232565b6020830151604083015292915050565b81516001600160801b0316815260208083015160e083019161445590840182614232565b5060408301516144686060840182614232565b506060830151610ad360a0840182614232565b6001600160801b039586168152600f9490940b602085015291841660408401526060830152909116608082015260a00190565b9283526020830191909152604082015260600190565b60ff9190911681526020019056fe45524332303a207472616e7366657220746f20746865207a65726f20616464726573738c6065603763fec3f5742441d3833f3f43b982453612d76adb39a885e3006b5f45524332303a206275726e20616d6f756e7420657863656564732062616c616e63654f776e61626c653a206e6577206f776e657220697320746865207a65726f206164647265737345524332303a20617070726f766520746f20746865207a65726f206164647265737345524332303a207472616e7366657220616d6f756e7420657863656564732062616c616e636553616665436173743a2076616c756520646f65736e27742066697420696e2031323820626974735369676e6564536166654d6174683a206164646974696f6e206f766572666c6f776e0956cda88cad152e89927e53611735b61a5c762d1428573c6931b0a5efcb015369676e6564536166654d6174683a206469766973696f6e206f766572666c6f77536166654d6174683a206d756c7469706c69636174696f6e206f766572666c6f7745524332303a207472616e7366657220616d6f756e74206578636565647320616c6c6f77616e63654f776e61626c653a2063616c6c6572206973206e6f7420746865206f776e65725369676e6564536166654d6174683a206d756c7469706c69636174696f6e206f766572666c6f7745524332303a206275726e2066726f6d20746865207a65726f206164647265737345524332303a207472616e736665722066726f6d20746865207a65726f206164647265737345524332303a20617070726f76652066726f6d20746865207a65726f206164647265737353616665436173743a2076616c756520646f65736e27742066697420696e20616e20696e743235365369676e6564536166654d6174683a207375627472616374696f6e206f766572666c6f7745524332303a2064656372656173656420616c6c6f77616e63652062656c6f77207a65726fa2646970667358221220ffa0a8c2fa30bf8b576003ed546da960d22f621aa0b0864c22b447510407c6ae64736f6c63430007060033",
  "devdoc": {
    "kind": "dev",
    "methods": {
      "allowance(address,address)": {
        "details": "See {IERC20-allowance}."
      },
      "approve(address,uint256)": {
        "details": "See {IERC20-approve}. Requirements: - `spender` cannot be the zero address."
      },
      "balanceOf(address)": {
        "details": "See {IERC20-balanceOf}."
      },
      "decimals()": {
        "details": "Returns the number of decimals used to get its user representation. For example, if `decimals` equals `2`, a balance of `505` tokens should be displayed to a user as `5,05` (`505 / 10 ** 2`). Tokens usually opt for a value of 18, imitating the relationship between Ether and Wei. This is the value {ERC20} uses, unless {_setupDecimals} is called. NOTE: This information is only used for _display_ purposes: it in no way affects any of the arithmetic of the contract, including {IERC20-balanceOf} and {IERC20-transfer}."
      },
      "decreaseAllowance(address,uint256)": {
        "details": "Atomically decreases the allowance granted to `spender` by the caller. This is an alternative to {approve} that can be used as a mitigation for problems described in {IERC20-approve}. Emits an {Approval} event indicating the updated allowance. Requirements: - `spender` cannot be the zero address. - `spender` must have allowance for the caller of at least `subtractedValue`."
      },
      "getLPTokenPrice(int256)": {
        "returns": {
          "_0": "LPTokenPrice scaled by 1e16"
        }
      },
      "getTradePrice(uint256,int128)": {
        "params": {
          "_productId": "product id",
          "_tradeAmount": "amount of position to trade. positive for pool short and negative for pool long."
        }
      },
      "getUtilizationRatio()": {
        "returns": {
          "_0": "Utilization Ratio scaled by 1e8"
        }
      },
      "increaseAllowance(address,uint256)": {
        "details": "Atomically increases the allowance granted to `spender` by the caller. This is an alternative to {approve} that can be used as a mitigation for problems described in {IERC20-approve}. Emits an {Approval} event indicating the updated allowance. Requirements: - `spender` cannot be the zero address."
      },
      "name()": {
        "details": "Returns the name of the token."
      },
      "owner()": {
        "details": "Returns the address of the current owner."
      },
      "renounceOwnership()": {
        "details": "Leaves the contract without owner. It will not be possible to call `onlyOwner` functions anymore. Can only be called by the current owner. NOTE: Renouncing ownership will leave the contract without an owner, thereby removing any functionality that is only available to the owner."
      },
      "symbol()": {
        "details": "Returns the symbol of the token, usually a shorter version of the name."
      },
      "totalSupply()": {
        "details": "See {IERC20-totalSupply}."
      },
      "transfer(address,uint256)": {
        "details": "See {IERC20-transfer}. Requirements: - `recipient` cannot be the zero address. - the caller must have a balance of at least `amount`."
      },
      "transferFrom(address,address,uint256)": {
        "details": "See {IERC20-transferFrom}. Emits an {Approval} event indicating the updated allowance. This is not required by the EIP. See the note at the beginning of {ERC20}. Requirements: - `sender` and `recipient` cannot be the zero address. - `sender` must have a balance of at least `amount`. - the caller must have allowance for ``sender``'s tokens of at least `amount`."
      },
      "transferOwnership(address)": {
        "details": "Transfers ownership of the contract to a new account (`newOwner`). Can only be called by the current owner."
      },
      "updatePoolPosition(uint256,int128)": {
        "params": {
          "_productId": "product id",
          "_tradeAmount": "amount of position to trade. positive for pool short and negative for pool long."
        }
      }
    },
    "title": "PerpetualMarketCore",
    "version": 1
  },
  "userdoc": {
    "kind": "user",
    "methods": {
      "completeHedgingProcedure((uint256,uint256,uint256,bool))": {
        "notice": "Update netting info to complete heging procedure"
      },
      "deposit(address,uint256)": {
        "notice": "Provides liquidity"
      },
      "getLPTokenPrice(int256)": {
        "notice": "Gets LP token price LPTokenPrice = (L + UnrealizedPnL_i - AmountLockedLiquidity_i) / Supply"
      },
      "getTokenAmountForHedging()": {
        "notice": "Gets USDC and underlying amount to make the pool delta neutral"
      },
      "getTradePrice(uint256,int128)": {
        "notice": "Gets trade price"
      },
      "getUtilizationRatio()": {
        "notice": "Gets utilization ratio Utilization Ratio = (AmountLockedLiquidity_i) / L"
      },
      "initialize(address,uint256,int256)": {
        "notice": "Initialize pool with initial liquidity and funding rate"
      },
      "rebalance()": {
        "notice": "Locks liquidity if more collateral required and unlocks liquidity if there is unrequied collateral."
      },
      "updatePoolPosition(uint256,int128)": {
        "notice": "Adds or removes positions"
      },
      "updatePoolSnapshot()": {
        "notice": "Updates pool snapshot Calculates ETH variance and base funding rate for future pool."
      },
      "withdraw(address,uint256)": {
        "notice": "xxWithdraws liquidity"
      }
    },
    "notice": "Perpetual Market Core Contract manages perpetual pool positions and calculates amount of collaterals. Error Code PMC0: No available liquidity PMC1: No available liquidity PMC2: caller must be PerpetualMarket contract PMC3: underlying price must not be 0 PMC4: pool delta must be negative PMC5: invalid params",
    "version": 1
  },
  "storageLayout": {
    "storage": [
      {
        "astId": 53,
        "contract": "contracts/PerpetualMarketCore.sol:PerpetualMarketCore",
        "label": "_owner",
        "offset": 0,
        "slot": "0",
        "type": "t_address"
      },
      {
        "astId": 841,
        "contract": "contracts/PerpetualMarketCore.sol:PerpetualMarketCore",
        "label": "_balances",
        "offset": 0,
        "slot": "1",
        "type": "t_mapping(t_address,t_uint256)"
      },
      {
        "astId": 847,
        "contract": "contracts/PerpetualMarketCore.sol:PerpetualMarketCore",
        "label": "_allowances",
        "offset": 0,
        "slot": "2",
        "type": "t_mapping(t_address,t_mapping(t_address,t_uint256))"
      },
      {
        "astId": 849,
        "contract": "contracts/PerpetualMarketCore.sol:PerpetualMarketCore",
        "label": "_totalSupply",
        "offset": 0,
        "slot": "3",
        "type": "t_uint256"
      },
      {
        "astId": 851,
        "contract": "contracts/PerpetualMarketCore.sol:PerpetualMarketCore",
        "label": "_name",
        "offset": 0,
        "slot": "4",
        "type": "t_string_storage"
      },
      {
        "astId": 853,
        "contract": "contracts/PerpetualMarketCore.sol:PerpetualMarketCore",
        "label": "_symbol",
        "offset": 0,
        "slot": "5",
        "type": "t_string_storage"
      },
      {
        "astId": 855,
        "contract": "contracts/PerpetualMarketCore.sol:PerpetualMarketCore",
        "label": "_decimals",
        "offset": 0,
        "slot": "6",
        "type": "t_uint8"
      },
      {
        "astId": 8281,
        "contract": "contracts/PerpetualMarketCore.sol:PerpetualMarketCore",
        "label": "squaredPerpFundingMultiplier",
        "offset": 0,
        "slot": "7",
        "type": "t_int256"
      },
      {
        "astId": 8283,
        "contract": "contracts/PerpetualMarketCore.sol:PerpetualMarketCore",
        "label": "perpFutureMaxFundingRate",
        "offset": 0,
        "slot": "8",
        "type": "t_int256"
      },
      {
        "astId": 8285,
        "contract": "contracts/PerpetualMarketCore.sol:PerpetualMarketCore",
        "label": "minSlippageToleranceOfHedge",
        "offset": 0,
        "slot": "9",
        "type": "t_uint256"
      },
      {
        "astId": 8287,
        "contract": "contracts/PerpetualMarketCore.sol:PerpetualMarketCore",
        "label": "maxSlippageToleranceOfHedge",
        "offset": 0,
        "slot": "10",
        "type": "t_uint256"
      },
      {
        "astId": 8289,
        "contract": "contracts/PerpetualMarketCore.sol:PerpetualMarketCore",
        "label": "hedgeRateOfReturnThreshold",
        "offset": 0,
        "slot": "11",
        "type": "t_uint256"
      },
      {
        "astId": 8291,
        "contract": "contracts/PerpetualMarketCore.sol:PerpetualMarketCore",
        "label": "poolMarginRiskParam",
        "offset": 0,
        "slot": "12",
        "type": "t_int256"
      },
      {
        "astId": 8293,
        "contract": "contracts/PerpetualMarketCore.sol:PerpetualMarketCore",
        "label": "tradeFeeRate",
        "offset": 0,
        "slot": "13",
        "type": "t_int256"
      },
      {
        "astId": 8295,
        "contract": "contracts/PerpetualMarketCore.sol:PerpetualMarketCore",
        "label": "protocolFeeRate",
        "offset": 0,
        "slot": "14",
        "type": "t_int256"
      },
      {
        "astId": 8322,
        "contract": "contracts/PerpetualMarketCore.sol:PerpetualMarketCore",
        "label": "amountLiquidity",
        "offset": 0,
        "slot": "15",
        "type": "t_uint256"
      },
      {
        "astId": 8326,
        "contract": "contracts/PerpetualMarketCore.sol:PerpetualMarketCore",
        "label": "pools",
        "offset": 0,
        "slot": "16",
        "type": "t_mapping(t_uint256,t_struct(Pool)8306_storage)"
      },
      {
        "astId": 8330,
        "contract": "contracts/PerpetualMarketCore.sol:PerpetualMarketCore",
        "label": "spreadInfos",
        "offset": 0,
        "slot": "17",
        "type": "t_mapping(t_uint256,t_struct(Info)13438_storage)"
      },
      {
        "astId": 8332,
        "contract": "contracts/PerpetualMarketCore.sol:PerpetualMarketCore",
        "label": "lpTokenSpreadInfo",
        "offset": 0,
        "slot": "18",
        "type": "t_struct(Info)13438_storage"
      },
      {
        "astId": 8334,
        "contract": "contracts/PerpetualMarketCore.sol:PerpetualMarketCore",
        "label": "poolSnapshot",
        "offset": 0,
        "slot": "20",
        "type": "t_struct(PoolSnapshot)8315_storage"
      },
      {
        "astId": 8336,
        "contract": "contracts/PerpetualMarketCore.sol:PerpetualMarketCore",
        "label": "nettingInfo",
        "offset": 0,
        "slot": "22",
        "type": "t_struct(Info)12671_storage"
      },
      {
        "astId": 8338,
        "contract": "contracts/PerpetualMarketCore.sol:PerpetualMarketCore",
        "label": "priceFeed",
        "offset": 0,
        "slot": "25",
        "type": "t_contract(AggregatorV3Interface)45"
      },
      {
        "astId": 8340,
        "contract": "contracts/PerpetualMarketCore.sol:PerpetualMarketCore",
        "label": "lastHedgeSpotPrice",
        "offset": 0,
        "slot": "26",
        "type": "t_int256"
      },
      {
        "astId": 8342,
        "contract": "contracts/PerpetualMarketCore.sol:PerpetualMarketCore",
        "label": "perpetualMarket",
        "offset": 0,
        "slot": "27",
        "type": "t_address"
      }
    ],
    "types": {
      "t_address": {
        "encoding": "inplace",
        "label": "address",
        "numberOfBytes": "20"
      },
      "t_array(t_int256)2_storage": {
        "base": "t_int256",
        "encoding": "inplace",
        "label": "int256[2]",
        "numberOfBytes": "64"
      },
      "t_contract(AggregatorV3Interface)45": {
        "encoding": "inplace",
        "label": "contract AggregatorV3Interface",
        "numberOfBytes": "20"
      },
      "t_int128": {
        "encoding": "inplace",
        "label": "int128",
        "numberOfBytes": "16"
      },
      "t_int256": {
        "encoding": "inplace",
        "label": "int256",
        "numberOfBytes": "32"
      },
      "t_mapping(t_address,t_mapping(t_address,t_uint256))": {
        "encoding": "mapping",
        "key": "t_address",
        "label": "mapping(address => mapping(address => uint256))",
        "numberOfBytes": "32",
        "value": "t_mapping(t_address,t_uint256)"
      },
      "t_mapping(t_address,t_uint256)": {
        "encoding": "mapping",
        "key": "t_address",
        "label": "mapping(address => uint256)",
        "numberOfBytes": "32",
        "value": "t_uint256"
      },
      "t_mapping(t_uint256,t_struct(Info)13438_storage)": {
        "encoding": "mapping",
        "key": "t_uint256",
        "label": "mapping(uint256 => struct SpreadLib.Info)",
        "numberOfBytes": "32",
        "value": "t_struct(Info)13438_storage"
      },
      "t_mapping(t_uint256,t_struct(Pool)8306_storage)": {
        "encoding": "mapping",
        "key": "t_uint256",
        "label": "mapping(uint256 => struct PerpetualMarketCore.Pool)",
        "numberOfBytes": "32",
        "value": "t_struct(Pool)8306_storage"
      },
      "t_string_storage": {
        "encoding": "bytes",
        "label": "string",
        "numberOfBytes": "32"
      },
      "t_struct(Info)12671_storage": {
        "encoding": "inplace",
        "label": "struct NettingLib.Info",
        "members": [
          {
            "astId": 12668,
            "contract": "contracts/PerpetualMarketCore.sol:PerpetualMarketCore",
            "label": "amountsUsdc",
            "offset": 0,
            "slot": "0",
            "type": "t_array(t_int256)2_storage"
          },
          {
            "astId": 12670,
            "contract": "contracts/PerpetualMarketCore.sol:PerpetualMarketCore",
            "label": "amountUnderlying",
            "offset": 0,
            "slot": "2",
            "type": "t_uint256"
          }
        ],
        "numberOfBytes": "96"
      },
      "t_struct(Info)13438_storage": {
        "encoding": "inplace",
        "label": "struct SpreadLib.Info",
        "members": [
          {
            "astId": 13431,
            "contract": "contracts/PerpetualMarketCore.sol:PerpetualMarketCore",
            "label": "timeLastLongTransaction",
            "offset": 0,
            "slot": "0",
            "type": "t_uint128"
          },
          {
            "astId": 13433,
            "contract": "contracts/PerpetualMarketCore.sol:PerpetualMarketCore",
            "label": "minLongTradePrice",
            "offset": 16,
            "slot": "0",
            "type": "t_int128"
          },
          {
            "astId": 13435,
            "contract": "contracts/PerpetualMarketCore.sol:PerpetualMarketCore",
            "label": "timeLastShortTransaction",
            "offset": 0,
            "slot": "1",
            "type": "t_uint128"
          },
          {
            "astId": 13437,
            "contract": "contracts/PerpetualMarketCore.sol:PerpetualMarketCore",
            "label": "maxShortTradePrice",
            "offset": 16,
            "slot": "1",
            "type": "t_int128"
          }
        ],
        "numberOfBytes": "64"
      },
      "t_struct(Pool)8306_storage": {
        "encoding": "inplace",
        "label": "struct PerpetualMarketCore.Pool",
        "members": [
          {
            "astId": 8297,
            "contract": "contracts/PerpetualMarketCore.sol:PerpetualMarketCore",
            "label": "amountLockedLiquidity",
            "offset": 0,
            "slot": "0",
            "type": "t_uint128"
          },
          {
            "astId": 8299,
            "contract": "contracts/PerpetualMarketCore.sol:PerpetualMarketCore",
            "label": "positionPerpetuals",
            "offset": 16,
            "slot": "0",
            "type": "t_int128"
          },
          {
            "astId": 8301,
            "contract": "contracts/PerpetualMarketCore.sol:PerpetualMarketCore",
            "label": "entryPrice",
            "offset": 0,
            "slot": "1",
            "type": "t_uint128"
          },
          {
            "astId": 8303,
            "contract": "contracts/PerpetualMarketCore.sol:PerpetualMarketCore",
            "label": "amountFundingPaidPerPosition",
            "offset": 0,
            "slot": "2",
            "type": "t_int256"
          },
          {
            "astId": 8305,
            "contract": "contracts/PerpetualMarketCore.sol:PerpetualMarketCore",
            "label": "lastFundingPaymentTime",
            "offset": 0,
            "slot": "3",
            "type": "t_uint128"
          }
        ],
        "numberOfBytes": "128"
      },
      "t_struct(PoolSnapshot)8315_storage": {
        "encoding": "inplace",
        "label": "struct PerpetualMarketCore.PoolSnapshot",
        "members": [
          {
            "astId": 8308,
            "contract": "contracts/PerpetualMarketCore.sol:PerpetualMarketCore",
            "label": "futureBaseFundingRate",
            "offset": 0,
            "slot": "0",
            "type": "t_int128"
          },
          {
            "astId": 8310,
            "contract": "contracts/PerpetualMarketCore.sol:PerpetualMarketCore",
            "label": "ethVariance",
            "offset": 16,
            "slot": "0",
            "type": "t_int128"
          },
          {
            "astId": 8312,
            "contract": "contracts/PerpetualMarketCore.sol:PerpetualMarketCore",
            "label": "ethPrice",
            "offset": 0,
            "slot": "1",
            "type": "t_int128"
          },
          {
            "astId": 8314,
            "contract": "contracts/PerpetualMarketCore.sol:PerpetualMarketCore",
            "label": "lastSnapshotTime",
            "offset": 16,
            "slot": "1",
            "type": "t_uint128"
          }
        ],
        "numberOfBytes": "64"
      },
      "t_uint128": {
        "encoding": "inplace",
        "label": "uint128",
        "numberOfBytes": "16"
      },
      "t_uint256": {
        "encoding": "inplace",
        "label": "uint256",
        "numberOfBytes": "32"
      },
      "t_uint8": {
        "encoding": "inplace",
        "label": "uint8",
        "numberOfBytes": "1"
      }
    }
  }
}