{
  "address": "0xf15109185A25EFa41e79139FCaE59b467B56214a",
  "abi": [
    {
      "inputs": [
        {
          "internalType": "address",
          "name": "_perpetualMarketCoreAddress",
          "type": "address"
        },
        {
          "internalType": "address",
          "name": "_quoteAsset",
          "type": "address"
        },
        {
          "internalType": "address",
          "name": "_underlyingAsset",
          "type": "address"
        },
        {
          "internalType": "address",
          "name": "_feeRecepient",
          "type": "address"
        },
        {
          "internalType": "address",
          "name": "_vaultNFT",
          "type": "address"
        }
      ],
      "stateMutability": "nonpayable",
      "type": "constructor"
    },
    {
      "anonymous": false,
      "inputs": [
        {
          "indexed": true,
          "internalType": "address",
          "name": "account",
          "type": "address"
        },
        {
          "indexed": false,
          "internalType": "uint256",
          "name": "issued",
          "type": "uint256"
        },
        {
          "indexed": false,
          "internalType": "uint256",
          "name": "amount",
          "type": "uint256"
        }
      ],
      "name": "Deposited",
      "type": "event"
    },
    {
      "anonymous": false,
      "inputs": [
        {
          "indexed": true,
          "internalType": "address",
          "name": "trader",
          "type": "address"
        },
        {
          "indexed": false,
          "internalType": "uint256",
          "name": "vaultId",
          "type": "uint256"
        },
        {
          "indexed": false,
          "internalType": "uint256",
          "name": "amount",
          "type": "uint256"
        }
      ],
      "name": "DepositedToVault",
      "type": "event"
    },
    {
      "anonymous": false,
      "inputs": [
        {
          "indexed": false,
          "internalType": "address",
          "name": "hedger",
          "type": "address"
        },
        {
          "indexed": false,
          "internalType": "bool",
          "name": "isBuyingUnderlying",
          "type": "bool"
        },
        {
          "indexed": false,
          "internalType": "uint256",
          "name": "usdcAmount",
          "type": "uint256"
        },
        {
          "indexed": false,
          "internalType": "uint256",
          "name": "underlyingAmount",
          "type": "uint256"
        }
      ],
      "name": "Hedged",
      "type": "event"
    },
    {
      "anonymous": false,
      "inputs": [
        {
          "indexed": false,
          "internalType": "address",
          "name": "liquidator",
          "type": "address"
        },
        {
          "indexed": true,
          "internalType": "uint256",
          "name": "vaultId",
          "type": "uint256"
        },
        {
          "indexed": false,
          "internalType": "uint256",
          "name": "reward",
          "type": "uint256"
        }
      ],
      "name": "Liquidated",
      "type": "event"
    },
    {
      "anonymous": false,
      "inputs": [
        {
          "indexed": true,
          "internalType": "address",
          "name": "previousOwner",
          "type": "address"
        },
        {
          "indexed": true,
          "internalType": "address",
          "name": "newOwner",
          "type": "address"
        }
      ],
      "name": "OwnershipTransferred",
      "type": "event"
    },
    {
      "anonymous": false,
      "inputs": [
        {
          "indexed": true,
          "internalType": "address",
          "name": "trader",
          "type": "address"
        },
        {
          "indexed": false,
          "internalType": "uint256",
          "name": "vaultId",
          "type": "uint256"
        },
        {
          "indexed": false,
          "internalType": "uint256",
          "name": "subVaultIndex",
          "type": "uint256"
        },
        {
          "indexed": false,
          "internalType": "uint256",
          "name": "productId",
          "type": "uint256"
        },
        {
          "indexed": false,
          "internalType": "int256",
          "name": "tradeAmount",
          "type": "int256"
        },
        {
          "indexed": false,
          "internalType": "uint256",
          "name": "tradePrice",
          "type": "uint256"
        },
        {
          "indexed": false,
          "internalType": "int256",
          "name": "fundingFeePerPosition",
          "type": "int256"
        },
        {
          "indexed": false,
          "internalType": "int256",
          "name": "deltaUsdcPosition",
          "type": "int256"
        },
        {
          "indexed": false,
          "internalType": "bytes",
          "name": "metadata",
          "type": "bytes"
        }
      ],
      "name": "PositionUpdated",
      "type": "event"
    },
    {
      "anonymous": false,
      "inputs": [
        {
          "indexed": false,
          "internalType": "address",
          "name": "feeRecepient",
          "type": "address"
        }
      ],
      "name": "SetFeeRecepient",
      "type": "event"
    },
    {
      "anonymous": false,
      "inputs": [
        {
          "indexed": true,
          "internalType": "address",
          "name": "account",
          "type": "address"
        },
        {
          "indexed": false,
          "internalType": "uint256",
          "name": "burned",
          "type": "uint256"
        },
        {
          "indexed": false,
          "internalType": "uint256",
          "name": "amount",
          "type": "uint256"
        }
      ],
      "name": "Withdrawn",
      "type": "event"
    },
    {
      "anonymous": false,
      "inputs": [
        {
          "indexed": true,
          "internalType": "address",
          "name": "trader",
          "type": "address"
        },
        {
          "indexed": false,
          "internalType": "uint256",
          "name": "vaultId",
          "type": "uint256"
        },
        {
          "indexed": false,
          "internalType": "uint256",
          "name": "amount",
          "type": "uint256"
        }
      ],
      "name": "WithdrawnFromVault",
      "type": "event"
    },
    {
      "inputs": [
        {
          "internalType": "uint256",
          "name": "_vaultId",
          "type": "uint256"
        },
        {
          "internalType": "int256",
          "name": "_marginToAdd",
          "type": "int256"
        }
      ],
      "name": "addMargin",
      "outputs": [],
      "stateMutability": "nonpayable",
      "type": "function"
    },
    {
      "inputs": [
        {
          "internalType": "uint256",
          "name": "_depositAmount",
          "type": "uint256"
        }
      ],
      "name": "deposit",
      "outputs": [],
      "stateMutability": "nonpayable",
      "type": "function"
    },
    {
      "inputs": [],
      "name": "execHedge",
      "outputs": [
        {
          "internalType": "uint256",
          "name": "amountUsdc",
          "type": "uint256"
        },
        {
          "internalType": "uint256",
          "name": "amountUnderlying",
          "type": "uint256"
        }
      ],
      "stateMutability": "nonpayable",
      "type": "function"
    },
    {
      "inputs": [],
      "name": "feeRecepient",
      "outputs": [
        {
          "internalType": "contract IFeePool",
          "name": "",
          "type": "address"
        }
      ],
      "stateMutability": "view",
      "type": "function"
    },
    {
      "inputs": [
        {
          "internalType": "int256",
          "name": "_deltaLiquidityAmount",
          "type": "int256"
        }
      ],
      "name": "getLPTokenPrice",
      "outputs": [
        {
          "internalType": "uint256",
          "name": "",
          "type": "uint256"
        }
      ],
      "stateMutability": "view",
      "type": "function"
    },
    {
      "inputs": [
        {
          "internalType": "uint256",
          "name": "_vaultId",
          "type": "uint256"
        },
        {
          "internalType": "int128[2]",
          "name": "_tradeAmounts",
          "type": "int128[2]"
        }
      ],
      "name": "getMinCollateralToAddPosition",
      "outputs": [
        {
          "internalType": "int256",
          "name": "minCollateral",
          "type": "int256"
        }
      ],
      "stateMutability": "view",
      "type": "function"
    },
    {
      "inputs": [],
      "name": "getTokenAmountForHedging",
      "outputs": [
        {
          "internalType": "bool",
          "name": "",
          "type": "bool"
        },
        {
          "internalType": "uint256",
          "name": "",
          "type": "uint256"
        },
        {
          "internalType": "uint256",
          "name": "",
          "type": "uint256"
        }
      ],
      "stateMutability": "view",
      "type": "function"
    },
    {
      "inputs": [
        {
          "internalType": "uint256",
          "name": "_productId",
          "type": "uint256"
        },
        {
          "internalType": "int128",
          "name": "_tradeAmount",
          "type": "int128"
        }
      ],
      "name": "getTradePrice",
      "outputs": [
        {
          "components": [
            {
              "internalType": "int256",
              "name": "tradePrice",
              "type": "int256"
            },
            {
              "internalType": "int256",
              "name": "indexPrice",
              "type": "int256"
            },
            {
              "internalType": "int256",
              "name": "fundingRate",
              "type": "int256"
            },
            {
              "internalType": "int256",
              "name": "tradeFee",
              "type": "int256"
            },
            {
              "internalType": "int256",
              "name": "protocolFee",
              "type": "int256"
            },
            {
              "internalType": "int256",
              "name": "fundingFee",
              "type": "int256"
            },
            {
              "internalType": "uint256",
              "name": "totalValue",
              "type": "uint256"
            },
            {
              "internalType": "uint256",
              "name": "totalFee",
              "type": "uint256"
            }
          ],
          "internalType": "struct IPerpetualMarket.TradeInfo",
          "name": "",
          "type": "tuple"
        }
      ],
      "stateMutability": "view",
      "type": "function"
    },
    {
      "inputs": [
        {
          "internalType": "uint256",
          "name": "_vaultId",
          "type": "uint256"
        }
      ],
      "name": "getTraderVault",
      "outputs": [
        {
          "components": [
            {
              "internalType": "int128",
              "name": "positionUsdc",
              "type": "int128"
            },
            {
              "components": [
                {
                  "internalType": "int128[2]",
                  "name": "positionPerpetuals",
                  "type": "int128[2]"
                },
                {
                  "internalType": "uint128[2]",
                  "name": "entryPrices",
                  "type": "uint128[2]"
                },
                {
                  "internalType": "int256[2]",
                  "name": "entryFundingFee",
                  "type": "int256[2]"
                }
              ],
              "internalType": "struct TraderVaultLib.SubVault[]",
              "name": "subVaults",
              "type": "tuple[]"
            },
            {
              "internalType": "bool",
              "name": "isInsolvent",
              "type": "bool"
            }
          ],
          "internalType": "struct TraderVaultLib.TraderVault",
          "name": "",
          "type": "tuple"
        }
      ],
      "stateMutability": "view",
      "type": "function"
    },
    {
      "inputs": [
        {
          "internalType": "uint256",
          "name": "_vaultId",
          "type": "uint256"
        }
      ],
      "name": "getVaultStatus",
      "outputs": [
        {
          "components": [
            {
              "internalType": "int256",
              "name": "positionValue",
              "type": "int256"
            },
            {
              "internalType": "int256",
              "name": "minCollateral",
              "type": "int256"
            },
            {
              "internalType": "int256[2][]",
              "name": "positionValues",
              "type": "int256[2][]"
            },
            {
              "internalType": "int256[2][]",
              "name": "fundingPaid",
              "type": "int256[2][]"
            },
            {
              "components": [
                {
                  "internalType": "int128",
                  "name": "positionUsdc",
                  "type": "int128"
                },
                {
                  "components": [
                    {
                      "internalType": "int128[2]",
                      "name": "positionPerpetuals",
                      "type": "int128[2]"
                    },
                    {
                      "internalType": "uint128[2]",
                      "name": "entryPrices",
                      "type": "uint128[2]"
                    },
                    {
                      "internalType": "int256[2]",
                      "name": "entryFundingFee",
                      "type": "int256[2]"
                    }
                  ],
                  "internalType": "struct TraderVaultLib.SubVault[]",
                  "name": "subVaults",
                  "type": "tuple[]"
                },
                {
                  "internalType": "bool",
                  "name": "isInsolvent",
                  "type": "bool"
                }
              ],
              "internalType": "struct TraderVaultLib.TraderVault",
              "name": "rawVaultData",
              "type": "tuple"
            }
          ],
          "internalType": "struct IPerpetualMarket.VaultStatus",
          "name": "",
          "type": "tuple"
        }
      ],
      "stateMutability": "view",
      "type": "function"
    },
    {
      "inputs": [
        {
          "internalType": "uint256",
          "name": "_depositAmount",
          "type": "uint256"
        },
        {
          "internalType": "int256",
          "name": "_initialFundingRate",
          "type": "int256"
        }
      ],
      "name": "initialize",
      "outputs": [],
      "stateMutability": "nonpayable",
      "type": "function"
    },
    {
      "inputs": [
        {
          "internalType": "uint256",
          "name": "_vaultId",
          "type": "uint256"
        }
      ],
      "name": "liquidateByPool",
      "outputs": [],
      "stateMutability": "nonpayable",
      "type": "function"
    },
    {
      "inputs": [],
      "name": "owner",
      "outputs": [
        {
          "internalType": "address",
          "name": "",
          "type": "address"
        }
      ],
      "stateMutability": "view",
      "type": "function"
    },
    {
      "inputs": [],
      "name": "quoteAsset",
      "outputs": [
        {
          "internalType": "address",
          "name": "",
          "type": "address"
        }
      ],
      "stateMutability": "view",
      "type": "function"
    },
    {
      "inputs": [],
      "name": "renounceOwnership",
      "outputs": [],
      "stateMutability": "nonpayable",
      "type": "function"
    },
    {
      "inputs": [
        {
          "internalType": "address",
          "name": "_feeRecepient",
          "type": "address"
        }
      ],
      "name": "setFeeRecepient",
      "outputs": [],
      "stateMutability": "nonpayable",
      "type": "function"
    },
    {
      "inputs": [
        {
          "components": [
            {
              "internalType": "uint256",
              "name": "vaultId",
              "type": "uint256"
            },
            {
              "components": [
                {
                  "internalType": "uint256",
                  "name": "productId",
                  "type": "uint256"
                },
                {
                  "internalType": "uint256",
                  "name": "subVaultIndex",
                  "type": "uint256"
                },
                {
                  "internalType": "int128",
                  "name": "tradeAmount",
                  "type": "int128"
                },
                {
                  "internalType": "uint256",
                  "name": "limitPrice",
                  "type": "uint256"
                },
                {
                  "internalType": "bytes",
                  "name": "metadata",
                  "type": "bytes"
                }
              ],
              "internalType": "struct IPerpetualMarket.TradeParams[]",
              "name": "trades",
              "type": "tuple[]"
            },
            {
              "internalType": "int256",
              "name": "marginAmount",
              "type": "int256"
            },
            {
              "internalType": "uint256",
              "name": "deadline",
              "type": "uint256"
            }
          ],
          "internalType": "struct IPerpetualMarket.MultiTradeParams",
          "name": "_tradeParams",
          "type": "tuple"
        }
      ],
      "name": "trade",
      "outputs": [],
      "stateMutability": "nonpayable",
      "type": "function"
    },
    {
      "inputs": [
        {
          "internalType": "address",
          "name": "newOwner",
          "type": "address"
        }
      ],
      "name": "transferOwnership",
      "outputs": [],
      "stateMutability": "nonpayable",
      "type": "function"
    },
    {
      "inputs": [],
      "name": "underlyingAsset",
      "outputs": [
        {
          "internalType": "address",
          "name": "",
          "type": "address"
        }
      ],
      "stateMutability": "view",
      "type": "function"
    },
    {
      "inputs": [
        {
          "internalType": "uint128",
          "name": "_withdrawnAmount",
          "type": "uint128"
        }
      ],
      "name": "withdraw",
      "outputs": [],
      "stateMutability": "nonpayable",
      "type": "function"
    }
  ],
  "transactionHash": "0x08d235750c3c789f6d83d423b1a69ae54e5b32c56d544c829d362255ba234b3e",
  "args": [
    "0x6282336687B0CE5b82292b86996Bb26411517B84",
    "0xff970a61a04b1ca14834a43f5de4533ebddb5cc8",
    "0x82af49447d8a07e3bd95bd0d56f35241523fbab1",
    "0xE17B52958aa4a3cEa4202B9893A0C7ae5bDaCEa5",
    "0xE2FF3D10A1288d508272E1f5142230693c580b19"
  ],
  "solcInputHash": "228a463cd5d6e4e6e63a99951ad2e9be",
  "bytecode": "0x60e06040523480156200001157600080fd5b5060405162004bb738038062004bb783398101604081905262000034916200014c565b83836001600160a01b0382166200004a57600080fd5b6001600160a01b0381166200005e57600080fd5b6001600160601b0319606092831b8116608052911b1660a0526000620000836200012b565b600080546001600160a01b0319166001600160a01b0383169081178255604051929350917f8be0079c531659141344cd1fd0a4f28419497f9722a3daafe3b4186f6b6457e0908290a3506001600160a01b038216620000e157600080fd5b60609490941b6001600160601b03191660c052600180546001600160a01b03199081166001600160a01b039384161790915560028054909116919094161790925550620001bb9050565b3390565b80516001600160a01b03811681146200014757600080fd5b919050565b600080600080600060a0868803121562000164578081fd5b6200016f866200012f565b94506200017f602087016200012f565b93506200018f604087016200012f565b92506200019f606087016200012f565b9150620001af608087016200012f565b90509295509295909350565b60805160601c60a05160601c60c05160601c61491c6200029b600039806102e1528061036b528061045952806104cc528061053f52806105b4528061065d52806109f05280610f0d5280610fa052806110c5528061117d528061184952806118d15280611acd5280611bdf5280611d465280611dd0528061203852806123175280612552528061291b52806130e85250806106d952806107895280610ed152806110515280612df35250806107cd5280610da152806119655280611b6a5280611e6c52806121a152806125d55280612c735280612ca2525061491c6000f3fe608060405234801561001057600080fd5b506004361061012c5760003560e01c806399be545a116100ad578063d392357311610071578063d392357314610268578063dae0f6d91461027b578063eea484d81461028e578063f2fde38b146102ae578063fdf262b7146102c15761012c565b806399be545a146101fc578063a0642dfd1461020f578063b4f0332f14610222578063b6b55f2514610242578063c9d48a96146102555761012c565b8063715018a6116100f4578063715018a6146101ad5780637158da7c146101b557806373f3489e146101bd578063854ad1b7146101dd5780638da5cb5b146101f45761012c565b806302387a7b146101315780631b4707101461014657806324fe71ea1461016557806349ebb77d1461017a5780636124fa8e1461019a575b600080fd5b61014461013f3660046140b7565b6102c9565b005b61014e610454565b60405161015c92919061454f565b60405180910390f35b61016d610845565b60405161015c9190614342565b61018d610188366004613e05565b610854565b60405161015c91906145fe565b6101446101a836600461418c565b610c4a565b610144610e11565b61016d610ecf565b6101d06101cb366004613e05565b610ef3565b60405161015c91906143fe565b6101e5610f98565b60405161015c939291906143e6565b61016d6110b4565b61014461020a366004613e05565b6110c3565b61014461021d36600461418c565b611a9a565b610235610230366004614161565b611bcd565b60405161015c91906144e3565b610144610250366004613e05565b611d37565b610144610263366004613edf565b611ecf565b610144610276366004613db3565b6126a7565b6101d06102893660046140d3565b612784565b6102a161029c366004613e05565b6129c9565b60405161015c919061453c565b6101446102bc366004613db3565b612b5d565b61016d612c71565b6000816001600160801b0316116102df57600080fd5b7f00000000000000000000000000000000000000000000000000000000000000006001600160a01b0316637d8c26596040518163ffffffff1660e01b8152600401600060405180830381600087803b15801561033a57600080fd5b505af115801561034e573d6000803e3d6000fd5b505060405163f3fef3a360e01b8152600092506001600160a01b037f000000000000000000000000000000000000000000000000000000000000000016915063f3fef3a3906103a6903390606487029060040161437c565b602060405180830381600087803b1580156103c057600080fd5b505af11580156103d4573d6000803e3d6000fd5b505050506040513d601f19601f820116820180604052508101906103f89190613e1d565b905061040d33836001600160801b0316612c95565b336001600160a01b03167f92ccf450a286a957af52509bc1c9939d1a6a481783e142e41e2499f0bb66ebc6828460405161044892919061467b565b60405180910390a25050565b6000807f00000000000000000000000000000000000000000000000000000000000000006001600160a01b0316637d8c26596040518163ffffffff1660e01b8152600401600060405180830381600087803b1580156104b257600080fd5b505af11580156104c6573d6000803e3d6000fd5b505050507f00000000000000000000000000000000000000000000000000000000000000006001600160a01b03166387c3a09a6040518163ffffffff1660e01b8152600401600060405180830381600087803b15801561052557600080fd5b505af1158015610539573d6000803e3d6000fd5b505050507f00000000000000000000000000000000000000000000000000000000000000006001600160a01b0316637d7c2a1c6040518163ffffffff1660e01b8152600401600060405180830381600087803b15801561059857600080fd5b505af11580156105ac573d6000803e3d6000fd5b5050505060007f00000000000000000000000000000000000000000000000000000000000000006001600160a01b031663854ad1b76040518163ffffffff1660e01b815260040160a06040518083038186803b15801561060b57600080fd5b505afa15801561061f573d6000803e3d6000fd5b505050506040513d601f19601f820116820180604052508101906106439190613e74565b604051636de98dd160e11b81529091506001600160a01b037f0000000000000000000000000000000000000000000000000000000000000000169063dbd31ba2906106929084906004016144a8565b600060405180830381600087803b1580156106ac57600080fd5b505af11580156106c0573d6000803e3d6000fd5b50508251606492509050049250610770816020015160087f00000000000000000000000000000000000000000000000000000000000000006001600160a01b031663313ce5676040518163ffffffff1660e01b815260040160206040518083038186803b15801561073057600080fd5b505afa158015610744573d6000803e3d6000fd5b505050506040513d601f19601f8201168201806040525081019061076891906141da565b60ff16612ccd565b91508060600151156107c0576107b16001600160a01b037f000000000000000000000000000000000000000000000000000000000000000016333085612d86565b6107bb3384612c95565b6107ff565b6107f56001600160a01b037f000000000000000000000000000000000000000000000000000000000000000016333086612d86565b6107ff3383612de6565b7f97ecad77f31756d3d2f581bf1acec77dbdb445bf9b69afff2c62d02d4d2547de33826060015185856040516108389493929190614356565b60405180910390a1509091565b6001546001600160a01b031681565b61085c613c00565b600082815260036020908152604080832081516060810183528154600f90810b810b900b81526001820180548451818702810187019095528085529194929385840193909290879084015b828210156109c9576000848152602090206040805160a0810190915290600484020181606081018260028282826020028201916000905b82829054906101000a9004600f0b600f0b81526020019060100190602082600f010492830192600103820291508084116108de575050509284525050604080518082019182905260209093019291506001840190600290826000855b82829054906101000a90046001600160801b03166001600160801b031681526020019060100190602082600f0104928301926001038202915080841161093a5750505092845250506040805180820191829052602090930192915060028481019182845b81548152602001906001019080831161099e57505050505081525050815260200190600101906108a7565b505050908252506002919091015460ff161515602090910152905060006001600160a01b037f0000000000000000000000000000000000000000000000000000000000000000166382f3955d610a1e84612e1a565b6040518263ffffffff1660e01b8152600401610a3a91906143d8565b60e06040518083038186803b158015610a5257600080fd5b505afa158015610a66573d6000803e3d6000fd5b505050506040513d601f19601f82011682018060405250810190610a8a9190614048565b9050600082602001515167ffffffffffffffff81118015610aaa57600080fd5b50604051908082528060200260200182016040528015610ae457816020015b610ad1613c34565b815260200190600190039081610ac95790505b509050600083602001515167ffffffffffffffff81118015610b0557600080fd5b50604051908082528060200260200182016040528015610b3f57816020015b610b2c613c34565b815260200190600190039081610b245790505b50905060005b846020015151811015610c035760005b6002811015610bfa57610b8086602001518381518110610b7157fe5b60200260200101518287612e61565b848381518110610b8c57fe5b60200260200101518260028110610b9f57fe5b602002018181525050610bce86602001518381518110610bbb57fe5b6020026020010151828760600151612ed9565b838381518110610bda57fe5b60200260200101518260028110610bed57fe5b6020020152600101610b55565b50600101610b45565b506040805160a0810190915280610c1a8686612f37565b8152602001610c298686612f8b565b8152602001838152602001828152602001858152509450505050505b919050565b600082118015610ce05750600260009054906101000a90046001600160a01b03166001600160a01b03166361b8ce8c6040518163ffffffff1660e01b8152600401602060405180830381600087803b158015610ca557600080fd5b505af1158015610cb9573d6000803e3d6000fd5b505050506040513d601f19601f82011682018060405250810190610cdd9190613e1d565b82105b610d055760405162461bcd60e51b8152600401610cfc9061448b565b60405180910390fd5b6000828152600360205260409020733eA022AB5e5703EEC733Edb55Ac9AB48Ebd32D0B906369e2bed090610d3a846064612fab565b6040518363ffffffff1660e01b8152600401610d5792919061454f565b60006040518083038186803b158015610d6f57600080fd5b505af4158015610d83573d6000803e3d6000fd5b505050506000610d9282613054565b9050610dc96001600160a01b037f000000000000000000000000000000000000000000000000000000000000000016333084612d86565b336001600160a01b03167ffc3608744ea5805574f007540fe37736bbebd81365de55991f3b17a16295521d8483604051610e0492919061454f565b60405180910390a2505050565b610e196130af565b6001600160a01b0316610e2a6110b4565b6001600160a01b031614610e85576040805162461bcd60e51b815260206004820181905260248201527f4f776e61626c653a2063616c6c6572206973206e6f7420746865206f776e6572604482015290519081900360640190fd5b600080546040516001600160a01b03909116907f8be0079c531659141344cd1fd0a4f28419497f9722a3daafe3b4186f6b6457e0908390a3600080546001600160a01b0319169055565b7f000000000000000000000000000000000000000000000000000000000000000081565b6040516339f9a44f60e11b81526000906001600160a01b037f000000000000000000000000000000000000000000000000000000000000000016906373f3489e90610f429085906004016143fe565b60206040518083038186803b158015610f5a57600080fd5b505afa158015610f6e573d6000803e3d6000fd5b505050506040513d601f19601f82011682018060405250810190610f929190613e1d565b92915050565b6000806000807f00000000000000000000000000000000000000000000000000000000000000006001600160a01b031663854ad1b76040518163ffffffff1660e01b815260040160a06040518083038186803b158015610ff757600080fd5b505afa15801561100b573d6000803e3d6000fd5b505050506040513d601f19601f8201168201806040525081019061102f9190613e74565b90508060600151606482600001518161104457fe5b046110a8836020015160087f00000000000000000000000000000000000000000000000000000000000000006001600160a01b031663313ce5676040518163ffffffff1660e01b815260040160206040518083038186803b15801561073057600080fd5b93509350935050909192565b6000546001600160a01b031690565b7f00000000000000000000000000000000000000000000000000000000000000006001600160a01b0316637d8c26596040518163ffffffff1660e01b8152600401600060405180830381600087803b15801561111e57600080fd5b505af1158015611132573d6000803e3d6000fd5b505050600082815260036020908152604080832081516060810183528154600f90810b810b900b81526001820180548451818702810187019095528085529296506001600160a01b037f000000000000000000000000000000000000000000000000000000000000000016946382f3955d946112f6948993858401939091908a9084015b828210156112d8576000848152602090206040805160a0810190915290600484020181606081018260028282826020028201916000905b82829054906101000a9004600f0b600f0b81526020019060100190602082600f010492830192600103820291508084116111ed575050509284525050604080518082019182905260209093019291506001840190600290826000855b82829054906101000a90046001600160801b03166001600160801b031681526020019060100190602082600f010492830192600103820291508084116112495750505092845250506040805180820191829052602090930192915060028481019182845b8154815260200190600101908083116112ad57505050505081525050815260200190600101906111b6565b505050908252506002919091015460ff161515602090910152612e1a565b6040518263ffffffff1660e01b815260040161131291906143d8565b60e06040518083038186803b15801561132a57600080fd5b505afa15801561133e573d6000803e3d6000fd5b505050506040513d601f19601f820116820180604052508101906113629190614048565b604080516060810182528454600f90810b810b900b815260018501805483516020828102820181019095528181529495506114e8948694889381860193909160009084015b828210156114c9576000848152602090206040805160a0810190915290600484020181606081018260028282826020028201916000905b82829054906101000a9004600f0b600f0b81526020019060100190602082600f010492830192600103820291508084116113de575050509284525050604080518082019182905260209093019291506001840190600290826000855b82829054906101000a90046001600160801b03166001600160801b031681526020019060100190602082600f0104928301926001038202915080841161143a5750505092845250506040805180820191829052602090930192915060028481019182845b81548152602001906001019080831161149e57505050505081525050815260200190600101906113a7565b505050908252506002919091015460ff161515602090910152906130b3565b6115045760405162461bcd60e51b8152600401610cfc90614441565b600061169982846040518060600160405290816000820160009054906101000a9004600f0b600f0b600f0b815260200160018201805480602002602001604051908101604052809291908181526020016000905b8282101561167a576000848152602090206040805160a0810190915290600484020181606081018260028282826020028201916000905b82829054906101000a9004600f0b600f0b81526020019060100190602082600f0104928301926001038202915080841161158f575050509284525050604080518082019182905260209093019291506001840190600290826000855b82829054906101000a90046001600160801b03166001600160801b031681526020019060100190602082600f010492830192600103820291508084116115eb5750505092845250506040805180820191829052602090930192915060028481019182845b81548152602001906001019080831161164f5750505050508152505081526020019060010190611558565b505050908252506002919091015460ff16151560209091015290612f8b565b90506000805b600185015481101561173f5760005b60028110156117365760008660010183815481106116c857fe5b906000526020600020906004020160000182600281106116e457fe5b600291828204019190066010029054906101000a9004600f0b905061172b61172488848b87866000036000604051806020016040528060008152506130d4565b85906132bd565b9350506001016116ae565b5060010161169f565b50604051630de022c160e11b8152733eA022AB5e5703EEC733Edb55Ac9AB48Ebd32D0B90631bc04582906117779087906004016143fe565b60006040518083038186803b15801561178f57600080fd5b505af41580156117a3573d6000803e3d6000fd5b505060405163652aa48360e01b815260009250733eA022AB5e5703EEC733Edb55Ac9AB48Ebd32D0B915063652aa483906117e790889087906107d09060040161455d565b60206040518083038186803b1580156117ff57600080fd5b505af4158015611813573d6000803e3d6000fd5b505050506040513d601f19601f820116820180604052508101906118379190613e1d565b6040516328e32c8560e11b81529091507f00000000000000000000000000000000000000000000000000000000000000006001600160a01b0316906351c6590a906118899060028504906004016143fe565b600060405180830381600087803b1580156118a357600080fd5b505af11580156118b7573d6000803e3d6000fd5b505050506118cf3360c883816118c957fe5b04612c95565b7f00000000000000000000000000000000000000000000000000000000000000006001600160a01b03166387c3a09a6040518163ffffffff1660e01b8152600401600060405180830381600087803b15801561192a57600080fd5b505af115801561193e573d6000803e3d6000fd5b505050506000821115611a585760015460405163095ea7b360e01b81526001600160a01b037f000000000000000000000000000000000000000000000000000000000000000081169263095ea7b3926119a0929190911690869060040161439e565b602060405180830381600087803b1580156119ba57600080fd5b505af11580156119ce573d6000803e3d6000fd5b505050506040513d601f19601f820116820180604052508101906119f29190613deb565b506001546040516301acfa2360e51b81526001600160a01b039091169063359f446090611a25903090869060040161439e565b600060405180830381600087803b158015611a3f57600080fd5b505af1158015611a53573d6000803e3d6000fd5b505050505b857f09c223cfcd8c93e245f558f5f8de755fc0930fd9bc257441155ef5d54a170e0f3383604051611a8a92919061439e565b60405180910390a2505050505050565b600082118015611aaa5750600081135b611ab357600080fd5b60405163e7dc45d360e01b81526000906001600160a01b037f0000000000000000000000000000000000000000000000000000000000000000169063e7dc45d390611b09903390606488029087906004016143b7565b602060405180830381600087803b158015611b2357600080fd5b505af1158015611b37573d6000803e3d6000fd5b505050506040513d601f19601f82011682018060405250810190611b5b9190613e1d565b9050611b926001600160a01b037f000000000000000000000000000000000000000000000000000000000000000016333086612d86565b336001600160a01b03167f73a19dd210f1a7f902193214c0ee91dd35ee5b4d920cba8d519eca65a7b488ca8285604051610e0492919061454f565b611bd5613c52565b60008060008060007f00000000000000000000000000000000000000000000000000000000000000006001600160a01b031663b4f0332f89896040518363ffffffff1660e01b8152600401611c2b92919061466a565b60a06040518083038186803b158015611c4357600080fd5b505afa158015611c57573d6000803e3d6000fd5b505050506040513d601f19601f82011682018060405250810190611c7b9190613e35565b94509450945094509450604051806101000160405280868152602001858152602001848152602001838152602001828152602001611cd3662386f26fc10000611ccd8789612fab90919063ffffffff16565b90613317565b8152602001611d046305f5e100611cfe611cef8c600f0b6133cf565b611cf88b613054565b906133e2565b9061343b565b8152602001611d296305f5e100611cfe611d208c600f0b6133cf565b611cf888613054565b905298975050505050505050565b60008111611d4457600080fd5b7f00000000000000000000000000000000000000000000000000000000000000006001600160a01b0316637d8c26596040518163ffffffff1660e01b8152600401600060405180830381600087803b158015611d9f57600080fd5b505af1158015611db3573d6000803e3d6000fd5b50506040516311f9fbc960e21b8152600092506001600160a01b037f00000000000000000000000000000000000000000000000000000000000000001691506347e7ef2490611e0b903390606487029060040161439e565b602060405180830381600087803b158015611e2557600080fd5b505af1158015611e39573d6000803e3d6000fd5b505050506040513d601f19601f82011682018060405250810190611e5d9190613e1d565b9050611e946001600160a01b037f000000000000000000000000000000000000000000000000000000000000000016333085612d86565b336001600160a01b03167f73a19dd210f1a7f902193214c0ee91dd35ee5b4d920cba8d519eca65a7b488ca828460405161044892919061454f565b60608101511580611ee4575043816060015110155b611f005760405162461bcd60e51b8152600401610cfc90614424565b8051611f8f576002546040516354ba0f2760e01b81526001600160a01b03909116906354ba0f2790611f36903390600401614342565b602060405180830381600087803b158015611f5057600080fd5b505af1158015611f64573d6000803e3d6000fd5b505050506040513d601f19601f82011682018060405250810190611f889190613e1d565b8152612036565b60025481516040516331a9108f60e11b815233926001600160a01b031691636352211e91611fc091906004016143fe565b60206040518083038186803b158015611fd857600080fd5b505afa158015611fec573d6000803e3d6000fd5b505050506040513d601f19601f820116820180604052508101906120109190613dcf565b6001600160a01b0316146120365760405162461bcd60e51b8152600401610cfc90614407565b7f00000000000000000000000000000000000000000000000000000000000000006001600160a01b0316637d8c26596040518163ffffffff1660e01b8152600401600060405180830381600087803b15801561209157600080fd5b505af11580156120a5573d6000803e3d6000fd5b5060009250829150505b8260200151518110156121805761217661216f6003600086600001518152602001908152602001600020856020015184815181106120e957fe5b60200260200101516000015186600001518760200151868151811061210a57fe5b6020026020010151602001518860200151878151811061212657fe5b6020026020010151604001518960200151888151811061214257fe5b6020026020010151606001518a60200151898151811061215e57fe5b6020026020010151608001516130d4565b83906132bd565b91506001016120af565b5080156122945760015460405163095ea7b360e01b81526001600160a01b037f000000000000000000000000000000000000000000000000000000000000000081169263095ea7b3926121dc929190911690859060040161439e565b602060405180830381600087803b1580156121f657600080fd5b505af115801561220a573d6000803e3d6000fd5b505050506040513d601f19601f8201168201806040525081019061222e9190613deb565b506001546040516301acfa2360e51b81526001600160a01b039091169063359f446090612261903090859060040161439e565b600060405180830381600087803b15801561227b57600080fd5b505af115801561228f573d6000803e3d6000fd5b505050505b815160009081526003602052604080822090840151733eA022AB5e5703EEC733Edb55Ac9AB48Ebd32D0B9163e69e266d916122d0906064612fab565b8651600090815260036020908152604080832081516060810183528154600f90810b810b900b81526001820180548451818702810187019095528085526001600160a01b037f000000000000000000000000000000000000000000000000000000000000000016966382f3955d96612474969495948682019490939092909184015b828210156112d8576000848152602090206040805160a0810190915290600484020181606081018260028282826020028201916000905b82829054906101000a9004600f0b600f0b81526020019060100190602082600f01049283019260010382029150808411612389575050509284525050604080518082019182905260209093019291506001840190600290826000855b82829054906101000a90046001600160801b03166001600160801b031681526020019060100190602082600f010492830192600103820291508084116123e55750505092845250506040805180820191829052602090930192915060028481019182845b8154815260200190600101908083116124495750505050508152505081526020019060010190612352565b6040518263ffffffff1660e01b815260040161249091906143d8565b60e06040518083038186803b1580156124a857600080fd5b505afa1580156124bc573d6000803e3d6000fd5b505050506040513d601f19601f820116820180604052508101906124e09190614048565b6040518463ffffffff1660e01b81526004016124fe93929190614573565b60206040518083038186803b15801561251657600080fd5b505af415801561252a573d6000803e3d6000fd5b505050506040513d601f19601f8201168201806040525081019061254e9190613e1d565b90507f00000000000000000000000000000000000000000000000000000000000000006001600160a01b03166387c3a09a6040518163ffffffff1660e01b8152600401600060405180830381600087803b1580156125ab57600080fd5b505af11580156125bf573d6000803e3d6000fd5b50505050600081131561264857606481056126057f00000000000000000000000000000000000000000000000000000000000000006001600160a01b0316333084612d86565b835160405133917ffc3608744ea5805574f007540fe37736bbebd81365de55991f3b17a16295521d9161263a9190859061454f565b60405180910390a2506126a2565b60008112156126a25760646000829003046126633382612c95565b835160405133917f41d0e87fb7cc3fb87474e510116fbe22a7658539f639b5de6d9c0bdae606d3eb916126989190859061454f565b60405180910390a2505b505050565b6126af6130af565b6001600160a01b03166126c06110b4565b6001600160a01b03161461271b576040805162461bcd60e51b815260206004820181905260248201527f4f776e61626c653a2063616c6c6572206973206e6f7420746865206f776e6572604482015290519081900360640190fd5b6001600160a01b03811661272e57600080fd5b600180546001600160a01b0319166001600160a01b0383161790556040517fa10652b59c38f986e02273779b46014194b54d90e963da79e87af931cf6a484890612779908390614342565b60405180910390a150565b600082815260036020908152604080832081516060810183528154600f90810b810b900b8152600182018054845181870281018701909552808552869592948584019390929190879084015b828210156128f2576000848152602090206040805160a0810190915290600484020181606081018260028282826020028201916000905b82829054906101000a9004600f0b600f0b81526020019060100190602082600f01049283019260010382029150808411612807575050509284525050604080518082019182905260209093019291506001840190600290826000855b82829054906101000a90046001600160801b03166001600160801b031681526020019060100190602082600f010492830192600103820291508084116128635750505092845250506040805180820191829052602090930192915060028481019182845b8154815260200190600101908083116128c757505050505081525050815260200190600101906127d0565b505050908252506002919091015460ff16151560209091015290506129bd836001600160a01b037f0000000000000000000000000000000000000000000000000000000000000000166382f3955d61294985612e1a565b6040518263ffffffff1660e01b815260040161296591906143d8565b60e06040518083038186803b15801561297d57600080fd5b505afa158015612991573d6000803e3d6000fd5b505050506040513d601f19601f820116820180604052508101906129b59190614048565b8391906134a2565b60649005949350505050565b6129d1613c97565b600082815260036020908152604080832081516060810183528154600f90810b810b900b81526001820180548451818702810187019095528085529195929486810194939192919084015b82821015612b3e576000848152602090206040805160a0810190915290600484020181606081018260028282826020028201916000905b82829054906101000a9004600f0b600f0b81526020019060100190602082600f01049283019260010382029150808411612a53575050509284525050604080518082019182905260209093019291506001840190600290826000855b82829054906101000a90046001600160801b03166001600160801b031681526020019060100190602082600f01049283019260010382029150808411612aaf5750505092845250506040805180820191829052602090930192915060028481019182845b815481526020019060010190808311612b135750505050508152505081526020019060010190612a1c565b505050908252506002919091015460ff16151560209091015292915050565b612b656130af565b6001600160a01b0316612b766110b4565b6001600160a01b031614612bd1576040805162461bcd60e51b815260206004820181905260248201527f4f776e61626c653a2063616c6c6572206973206e6f7420746865206f776e6572604482015290519081900360640190fd5b6001600160a01b038116612c165760405162461bcd60e51b81526004018080602001828103825260268152602001806147746026913960400191505060405180910390fd5b600080546040516001600160a01b03808516939216917f8be0079c531659141344cd1fd0a4f28419497f9722a3daafe3b4186f6b6457e091a3600080546001600160a01b0319166001600160a01b0392909216919091179055565b7f000000000000000000000000000000000000000000000000000000000000000081565b612cc96001600160a01b037f0000000000000000000000000000000000000000000000000000000000000000168383613523565b5050565b600081831115612d2957604682840310612d13576040805162461bcd60e51b8152602060048201526002602482015261269960f11b604482015290519081900360640190fd5b612d2284838503600a0a61343b565b9050612d7f565b81831015612d7c57604683830310612d6d576040805162461bcd60e51b8152602060048201526002602482015261269960f11b604482015290519081900360640190fd5b612d2284848403600a0a6133e2565b50825b9392505050565b604080516001600160a01b0380861660248301528416604482015260648082018490528251808303909101815260849091019091526020810180516001600160e01b03166323b872dd60e01b179052612de0908590613571565b50505050565b612cc96001600160a01b037f0000000000000000000000000000000000000000000000000000000000000000168383613523565b612e22613c34565b60005b6002811015612e5b57612e388382613622565b828260028110612e4457fe5b600f92830b90920b60209092020152600101612e25565b50919050565b600080612ec985600001518560028110612e7757fe5b6020020151600f0b612ec3612ea888602001518860028110612e9557fe5b60200201516001600160801b0316613683565b86602001518860028110612eb857fe5b6020020151906136c7565b90612fab565b6305f5e100900595945050505050565b600080612f1b85600001518560028110612eef57fe5b6020020151600f0b612ec3858760028110612f0657fe5b602002015188604001518860028110612eb857fe5b9050612f2e81662386f26fc10000613317565b95945050505050565b8151600090600f0b815b846020015151811015612f8357612f79612f7286602001518381518110612f6457fe5b60200260200101518661372c565b839061374b565b9150600101612f41565b509392505050565b600080612f9784612e1a565b9050612fa381846137b0565b949350505050565b600082612fba57506000610f92565b82600019148015612fce5750600160ff1b82145b1561300a5760405162461bcd60e51b815260040180806020018281038252602781526020018061484a6027913960400191505060405180910390fd5b8282028284828161301757fe5b0514612d7f5760405162461bcd60e51b815260040180806020018281038252602781526020018061484a6027913960400191505060405180910390fd5b6000808212156130ab576040805162461bcd60e51b815260206004820181905260248201527f53616665436173743a2076616c7565206d75737420626520706f736974697665604482015290519081900360640190fd5b5090565b3390565b6000806130c08484612f37565b90506130cc8484612f8b565b139392505050565b600083600f0b6000146132ae5760008060007f00000000000000000000000000000000000000000000000000000000000000006001600160a01b0316633ed7e33c8b896040518363ffffffff1660e01b815260040161313492919061466a565b606060405180830381600087803b15801561314e57600080fd5b505af1158015613162573d6000803e3d6000fd5b505050506040513d601f19601f8201168201806040525081019061318691906141ad565b92509250925061319d600088600f0b13848861391f565b6131b95760405162461bcd60e51b8152600401610cfc9061446e565b60008b733eA022AB5e5703EEC733Edb55Ac9AB48Ebd32D0B63a8ffb3b990918b8e8c89896040518763ffffffff1660e01b81526004016131fe969594939291906145d3565b60206040518083038186803b15801561321657600080fd5b505af415801561322a573d6000803e3d6000fd5b505050506040513d601f19601f8201168201806040525081019061324e9190613e1d565b9050336001600160a01b03167fbfb264ae14733b7c7f6701d57d6a0dbaf244d34bf5912958835dccf887b4beea8b8b8e8c8989888e604051613297989796959493929190614692565b60405180910390a2606482049450505050506132b2565b5060005b979650505050505050565b600082820183811015612d7f576040805162461bcd60e51b815260206004820152601b60248201527f536166654d6174683a206164646974696f6e206f766572666c6f770000000000604482015290519081900360640190fd5b60008161336b576040805162461bcd60e51b815260206004820181905260248201527f5369676e6564536166654d6174683a206469766973696f6e206279207a65726f604482015290519081900360640190fd5b8160001914801561337f5750600160ff1b83145b156133bb5760405162461bcd60e51b81526004018080602001828103825260218152602001806148086021913960400191505060405180910390fd5b60008284816133c657fe5b05949350505050565b6000808212156130ab5781600003610f92565b6000826133f157506000610f92565b828202828482816133fe57fe5b0414612d7f5760405162461bcd60e51b81526004018080602001828103825260218152602001806148296021913960400191505060405180910390fd5b6000808211613491576040805162461bcd60e51b815260206004820152601a60248201527f536166654d6174683a206469766973696f6e206279207a65726f000000000000604482015290519081900360640190fd5b81838161349a57fe5b049392505050565b6000806134ae85612e1a565b905060005b6002811015613518576134f56134f08683600281106134ce57fe5b6020020151600f0b8484600281106134e257fe5b6020020151600f0b9061374b565b613948565b82826002811061350157fe5b600f92830b90920b602090920201526001016134b3565b50612f2e81846137b0565b604080516001600160a01b038416602482015260448082018490528251808303909101815260649091019091526020810180516001600160e01b031663a9059cbb60e01b1790526126a29084905b60006135c6826040518060400160405280602081526020017f5361666545524332303a206c6f772d6c6576656c2063616c6c206661696c6564815250856001600160a01b03166139a99092919063ffffffff16565b8051909150156126a2578080602001905160208110156135e557600080fd5b50516126a25760405162461bcd60e51b815260040180806020018281038252602a8152602001806148bd602a913960400191505060405180910390fd5b6000805b83602001515181101561367c576136726134f08560200151838151811061364957fe5b602002602001015160000151856002811061366057fe5b6020020151600f85810b91900b61374b565b9150600101613626565b5092915050565b6000600160ff1b82106130ab5760405162461bcd60e51b81526004018080602001828103825260288152602001806148716028913960400191505060405180910390fd5b60008183038183128015906136dc5750838113155b806136f157506000831280156136f157508381135b612d7f5760405162461bcd60e51b81526004018080602001828103825260248152602001806148996024913960400191505060405180910390fd5b6000612d7f61373f8484606001516139b8565b61374985856139df565b905b60008282018183128015906137605750838112155b80613775575060008312801561377557508381125b612d7f5760405162461bcd60e51b81526004018080602001828103825260218152602001806147c16021913960400191505060405180910390fd5b6000806137f66305f5e100611ccd6137e5662386f26fc1000087604001516001600281106137da57fe5b60200201519061374b565b86516001600160801b031690612fab565b9050600061386161385c613835662386f26fc10000611ccd61382a662386f26fc100008a604001516000600281106137da57fe5b8a51600f0b90612fab565b61374968056bc75e2d63100000611ccd6002612ec38c600160200201518a90600f0b612fab565b6133cf565b905061389b61389461385c69d3c21bcecceda1000000611ccd8960016020020151600f0b612ec36002816101f48b612fab565b82906132bd565b9050600064e8d4a510006138cb83611cf888600001516001600160801b03166101f46133e290919063ffffffff16565b816138d257fe5b87519190049150600f0b1515806138ef57506020860151600f0b15155b80156138ff57506404a817c80081105b1561390c57506404a817c8005b61391581613683565b9695505050505050565b60008161392e57506001612d7f565b831561393e575080821115612d7f565b5080821015612d7f565b60006f7fffffffffffffffffffffffffffffff19821215801561396e57506001607f1b82125b6130ab5760405162461bcd60e51b815260040180806020018281038252602781526020018061479a6027913960400191505060405180910390fd5b6060612fa38484600085613a06565b60008060005b6002811015612f83576139d5612f72868387612ed9565b91506001016139be565b60008060005b6002811015612f83576139fc612f72868387612e61565b91506001016139e5565b606082471015613a475760405162461bcd60e51b81526004018080602001828103825260268152602001806147e26026913960400191505060405180910390fd5b613a5085613b56565b613aa1576040805162461bcd60e51b815260206004820152601d60248201527f416464726573733a2063616c6c20746f206e6f6e2d636f6e7472616374000000604482015290519081900360640190fd5b600080866001600160a01b031685876040518082805190602001908083835b60208310613adf5780518252601f199092019160209182019101613ac0565b6001836020036101000a03801982511681845116808217855250505050505090500191505060006040518083038185875af1925050503d8060008114613b41576040519150601f19603f3d011682016040523d82523d6000602084013e613b46565b606091505b50915091506132b2828286613b5c565b3b151590565b60608315613b6b575081612d7f565b825115613b7b5782518084602001fd5b8160405162461bcd60e51b81526004018080602001828103825283818151815260200191508051906020019080838360005b83811015613bc5578181015183820152602001613bad565b50505050905090810190601f168015613bf25780820380516001836020036101000a031916815260200191505b509250505060405180910390fd5b6040518060a0016040528060008152602001600081526020016060815260200160608152602001613c2f613c97565b905290565b60405180604001604052806002906020820280368337509192915050565b60405180610100016040528060008152602001600081526020016000815260200160008152602001600081526020016000815260200160008152602001600081525090565b60405180606001604052806000600f0b8152602001606081526020016000151581525090565b600082601f830112613ccd578081fd5b6040516040810181811067ffffffffffffffff82111715613cea57fe5b8060405250808385604086011115613d00578384fd5b835b6002811015613d21578151835260209283019290910190600101613d02565b509195945050505050565b80518015158114610c4557600080fd5b600082601f830112613d4c578081fd5b813567ffffffffffffffff811115613d6057fe5b613d73601f8201601f1916602001614722565b818152846020838601011115613d87578283fd5b816020850160208301379081016020019190915292915050565b8035600f81900b8114610c4557600080fd5b600060208284031215613dc4578081fd5b8135612d7f81614746565b600060208284031215613de0578081fd5b8151612d7f81614746565b600060208284031215613dfc578081fd5b612d7f82613d2c565b600060208284031215613e16578081fd5b5035919050565b600060208284031215613e2e578081fd5b5051919050565b600080600080600060a08688031215613e4c578081fd5b5050835160208501516040860151606087015160809097015192989197509594509092509050565b600060a08284031215613e85578081fd5b6040516080810181811067ffffffffffffffff82111715613ea257fe5b80604052508251815260208301516020820152613ec28460408501613cbd565b6040820152613ed360808401613d2c565b60608201529392505050565b600060208284031215613ef0578081fd5b67ffffffffffffffff8083351115613f06578182fd5b8235830160808186031215613f19578283fd5b604051608081018181108482111715613f2e57fe5b60405281358152602082013583811115613f46578485fd5b8201601f81018713613f56578485fd5b803584811115613f6257fe5b613f70602080830201614722565b818152602080820191908401885b8481101561401f578135860160a0818e03601f19011215613f9d578a8bfd5b60405160a081018181108c82111715613fb257fe5b80604052506020820135815260408201356020820152613fd460608301613da1565b60408201526080820135606082015260a08201358b811115613ff4578c8dfd5b6140038f602083860101613d3c565b6080830152508552506020938401939190910190600101613f7e565b505060208501525050506040828101359082015260609182013591810191909152949350505050565b600060e08284031215614059578081fd5b6040516080810181811067ffffffffffffffff8211171561407657fe5b60405282516140848161475e565b81526140938460208501613cbd565b60208201526140a58460608501613cbd565b6040820152613ed38460a08501613cbd565b6000602082840312156140c8578081fd5b8135612d7f8161475e565b600080606083850312156140e5578182fd5b82359150602084603f8501126140f9578182fd5b6040516040810181811067ffffffffffffffff8211171561411657fe5b604052808583016060870188101561412c578485fd5b845b60028110156141525761414082613da1565b8352918401919084019060010161412e565b50505080925050509250929050565b60008060408385031215614173578182fd5b8235915061418360208401613da1565b90509250929050565b6000806040838503121561419e578182fd5b50508035926020909101359150565b6000806000606084860312156141c1578081fd5b8351925060208401519150604084015190509250925092565b6000602082840312156141eb578081fd5b815160ff81168114612d7f578182fd5b6000815180845260208085019450808401835b8381101561423457614221878351614265565b604096909601959082019060010161420e565b509495945050505050565b8060005b6002811015612de0578151600f0b845260209384019390910190600101614243565b8060005b6002811015612de0578151845260209384019390910190600101614269565b15159052565b6000606083018251600f0b84526020808401516060828701528281518085526080945084880191508383019250855b8181101561432c5783516142d284825161423f565b8581015160408086018a5b60028110156143035783516001600160801b0316825292890192908901906001016142dd565b50509190910151905061431884880182614265565b509284019260c092909201916001016142bd565b5050604086015193506139156040880185614288565b6001600160a01b0391909116815260200190565b6001600160a01b0394909416845291151560208401526040830152606082015260800190565b6001600160a01b039290921682526001600160801b0316602082015260400190565b6001600160a01b03929092168252602082015260400190565b6001600160a01b039390931683526020830191909152604082015260600190565b60408101610f92828461423f565b92151583526020830191909152604082015260600190565b90815260200190565b60208082526003908201526228269960e91b604082015260600190565b6020808252600390820152620504d360ec1b604082015260600190565b6020808252601390820152723b30bab63a1034b9903737ba103230b733b2b960691b604082015260600190565b602080825260039082015262504d3160e81b604082015260600190565b602080825260039082015262504d3360e81b604082015260600190565b600060a082019050825182526020830151602083015260408301516144d06040840182614265565b5060608301511515608083015292915050565b600061010082019050825182526020830151602083015260408301516040830152606083015160608301526080830151608083015260a083015160a083015260c083015160c083015260e083015160e083015292915050565b600060208252612d7f602083018461428e565b918252602082015260400190565b9283526020830191909152604082015260600190565b838152602080820184905282516001600160801b031660408301528201516101208201906145a46060840182614265565b5060408301516145b760a0840182614265565b5060608301516145ca60e0840182614265565b50949350505050565b95865260208601949094526040850192909252600f0b6060840152608083015260a082015260c00190565b6000602082528251602083015260208301516040830152604083015160a0606084015261462e60c08401826141fb565b90506060840151601f198085840301608086015261464c83836141fb565b925060808601519150808584030160a086015250612f2e828261428e565b918252600f0b602082015260400190565b9182526001600160801b0316602082015260400190565b60006101008a835260208a8185015289604085015288600f0b60608501528760808501528660a08501528560c08501528160e0850152845180838601528392505b808310156146f2578583018201518584016101200152918101916146d3565b80831115614704578361012082870101525b601f01601f191693909301610120019b9a5050505050505050505050565b60405181810167ffffffffffffffff8111828210171561473e57fe5b604052919050565b6001600160a01b038116811461475b57600080fd5b50565b6001600160801b038116811461475b57600080fdfe4f776e61626c653a206e6577206f776e657220697320746865207a65726f206164647265737353616665436173743a2076616c756520646f65736e27742066697420696e2031323820626974735369676e6564536166654d6174683a206164646974696f6e206f766572666c6f77416464726573733a20696e73756666696369656e742062616c616e636520666f722063616c6c5369676e6564536166654d6174683a206469766973696f6e206f766572666c6f77536166654d6174683a206d756c7469706c69636174696f6e206f766572666c6f775369676e6564536166654d6174683a206d756c7469706c69636174696f6e206f766572666c6f7753616665436173743a2076616c756520646f65736e27742066697420696e20616e20696e743235365369676e6564536166654d6174683a207375627472616374696f6e206f766572666c6f775361666545524332303a204552433230206f7065726174696f6e20646964206e6f742073756363656564a2646970667358221220767f56330e223e055fe271f57c9827d52f684700657a27b3fc92a677531ce47a64736f6c63430007060033",
  "deployedBytecode": "0x608060405234801561001057600080fd5b506004361061012c5760003560e01c806399be545a116100ad578063d392357311610071578063d392357314610268578063dae0f6d91461027b578063eea484d81461028e578063f2fde38b146102ae578063fdf262b7146102c15761012c565b806399be545a146101fc578063a0642dfd1461020f578063b4f0332f14610222578063b6b55f2514610242578063c9d48a96146102555761012c565b8063715018a6116100f4578063715018a6146101ad5780637158da7c146101b557806373f3489e146101bd578063854ad1b7146101dd5780638da5cb5b146101f45761012c565b806302387a7b146101315780631b4707101461014657806324fe71ea1461016557806349ebb77d1461017a5780636124fa8e1461019a575b600080fd5b61014461013f3660046140b7565b6102c9565b005b61014e610454565b60405161015c92919061454f565b60405180910390f35b61016d610845565b60405161015c9190614342565b61018d610188366004613e05565b610854565b60405161015c91906145fe565b6101446101a836600461418c565b610c4a565b610144610e11565b61016d610ecf565b6101d06101cb366004613e05565b610ef3565b60405161015c91906143fe565b6101e5610f98565b60405161015c939291906143e6565b61016d6110b4565b61014461020a366004613e05565b6110c3565b61014461021d36600461418c565b611a9a565b610235610230366004614161565b611bcd565b60405161015c91906144e3565b610144610250366004613e05565b611d37565b610144610263366004613edf565b611ecf565b610144610276366004613db3565b6126a7565b6101d06102893660046140d3565b612784565b6102a161029c366004613e05565b6129c9565b60405161015c919061453c565b6101446102bc366004613db3565b612b5d565b61016d612c71565b6000816001600160801b0316116102df57600080fd5b7f00000000000000000000000000000000000000000000000000000000000000006001600160a01b0316637d8c26596040518163ffffffff1660e01b8152600401600060405180830381600087803b15801561033a57600080fd5b505af115801561034e573d6000803e3d6000fd5b505060405163f3fef3a360e01b8152600092506001600160a01b037f000000000000000000000000000000000000000000000000000000000000000016915063f3fef3a3906103a6903390606487029060040161437c565b602060405180830381600087803b1580156103c057600080fd5b505af11580156103d4573d6000803e3d6000fd5b505050506040513d601f19601f820116820180604052508101906103f89190613e1d565b905061040d33836001600160801b0316612c95565b336001600160a01b03167f92ccf450a286a957af52509bc1c9939d1a6a481783e142e41e2499f0bb66ebc6828460405161044892919061467b565b60405180910390a25050565b6000807f00000000000000000000000000000000000000000000000000000000000000006001600160a01b0316637d8c26596040518163ffffffff1660e01b8152600401600060405180830381600087803b1580156104b257600080fd5b505af11580156104c6573d6000803e3d6000fd5b505050507f00000000000000000000000000000000000000000000000000000000000000006001600160a01b03166387c3a09a6040518163ffffffff1660e01b8152600401600060405180830381600087803b15801561052557600080fd5b505af1158015610539573d6000803e3d6000fd5b505050507f00000000000000000000000000000000000000000000000000000000000000006001600160a01b0316637d7c2a1c6040518163ffffffff1660e01b8152600401600060405180830381600087803b15801561059857600080fd5b505af11580156105ac573d6000803e3d6000fd5b5050505060007f00000000000000000000000000000000000000000000000000000000000000006001600160a01b031663854ad1b76040518163ffffffff1660e01b815260040160a06040518083038186803b15801561060b57600080fd5b505afa15801561061f573d6000803e3d6000fd5b505050506040513d601f19601f820116820180604052508101906106439190613e74565b604051636de98dd160e11b81529091506001600160a01b037f0000000000000000000000000000000000000000000000000000000000000000169063dbd31ba2906106929084906004016144a8565b600060405180830381600087803b1580156106ac57600080fd5b505af11580156106c0573d6000803e3d6000fd5b50508251606492509050049250610770816020015160087f00000000000000000000000000000000000000000000000000000000000000006001600160a01b031663313ce5676040518163ffffffff1660e01b815260040160206040518083038186803b15801561073057600080fd5b505afa158015610744573d6000803e3d6000fd5b505050506040513d601f19601f8201168201806040525081019061076891906141da565b60ff16612ccd565b91508060600151156107c0576107b16001600160a01b037f000000000000000000000000000000000000000000000000000000000000000016333085612d86565b6107bb3384612c95565b6107ff565b6107f56001600160a01b037f000000000000000000000000000000000000000000000000000000000000000016333086612d86565b6107ff3383612de6565b7f97ecad77f31756d3d2f581bf1acec77dbdb445bf9b69afff2c62d02d4d2547de33826060015185856040516108389493929190614356565b60405180910390a1509091565b6001546001600160a01b031681565b61085c613c00565b600082815260036020908152604080832081516060810183528154600f90810b810b900b81526001820180548451818702810187019095528085529194929385840193909290879084015b828210156109c9576000848152602090206040805160a0810190915290600484020181606081018260028282826020028201916000905b82829054906101000a9004600f0b600f0b81526020019060100190602082600f010492830192600103820291508084116108de575050509284525050604080518082019182905260209093019291506001840190600290826000855b82829054906101000a90046001600160801b03166001600160801b031681526020019060100190602082600f0104928301926001038202915080841161093a5750505092845250506040805180820191829052602090930192915060028481019182845b81548152602001906001019080831161099e57505050505081525050815260200190600101906108a7565b505050908252506002919091015460ff161515602090910152905060006001600160a01b037f0000000000000000000000000000000000000000000000000000000000000000166382f3955d610a1e84612e1a565b6040518263ffffffff1660e01b8152600401610a3a91906143d8565b60e06040518083038186803b158015610a5257600080fd5b505afa158015610a66573d6000803e3d6000fd5b505050506040513d601f19601f82011682018060405250810190610a8a9190614048565b9050600082602001515167ffffffffffffffff81118015610aaa57600080fd5b50604051908082528060200260200182016040528015610ae457816020015b610ad1613c34565b815260200190600190039081610ac95790505b509050600083602001515167ffffffffffffffff81118015610b0557600080fd5b50604051908082528060200260200182016040528015610b3f57816020015b610b2c613c34565b815260200190600190039081610b245790505b50905060005b846020015151811015610c035760005b6002811015610bfa57610b8086602001518381518110610b7157fe5b60200260200101518287612e61565b848381518110610b8c57fe5b60200260200101518260028110610b9f57fe5b602002018181525050610bce86602001518381518110610bbb57fe5b6020026020010151828760600151612ed9565b838381518110610bda57fe5b60200260200101518260028110610bed57fe5b6020020152600101610b55565b50600101610b45565b506040805160a0810190915280610c1a8686612f37565b8152602001610c298686612f8b565b8152602001838152602001828152602001858152509450505050505b919050565b600082118015610ce05750600260009054906101000a90046001600160a01b03166001600160a01b03166361b8ce8c6040518163ffffffff1660e01b8152600401602060405180830381600087803b158015610ca557600080fd5b505af1158015610cb9573d6000803e3d6000fd5b505050506040513d601f19601f82011682018060405250810190610cdd9190613e1d565b82105b610d055760405162461bcd60e51b8152600401610cfc9061448b565b60405180910390fd5b600082815260036020526040902073__$b139f62619843504e83620ab3c72958bdd$__906369e2bed090610d3a846064612fab565b6040518363ffffffff1660e01b8152600401610d5792919061454f565b60006040518083038186803b158015610d6f57600080fd5b505af4158015610d83573d6000803e3d6000fd5b505050506000610d9282613054565b9050610dc96001600160a01b037f000000000000000000000000000000000000000000000000000000000000000016333084612d86565b336001600160a01b03167ffc3608744ea5805574f007540fe37736bbebd81365de55991f3b17a16295521d8483604051610e0492919061454f565b60405180910390a2505050565b610e196130af565b6001600160a01b0316610e2a6110b4565b6001600160a01b031614610e85576040805162461bcd60e51b815260206004820181905260248201527f4f776e61626c653a2063616c6c6572206973206e6f7420746865206f776e6572604482015290519081900360640190fd5b600080546040516001600160a01b03909116907f8be0079c531659141344cd1fd0a4f28419497f9722a3daafe3b4186f6b6457e0908390a3600080546001600160a01b0319169055565b7f000000000000000000000000000000000000000000000000000000000000000081565b6040516339f9a44f60e11b81526000906001600160a01b037f000000000000000000000000000000000000000000000000000000000000000016906373f3489e90610f429085906004016143fe565b60206040518083038186803b158015610f5a57600080fd5b505afa158015610f6e573d6000803e3d6000fd5b505050506040513d601f19601f82011682018060405250810190610f929190613e1d565b92915050565b6000806000807f00000000000000000000000000000000000000000000000000000000000000006001600160a01b031663854ad1b76040518163ffffffff1660e01b815260040160a06040518083038186803b158015610ff757600080fd5b505afa15801561100b573d6000803e3d6000fd5b505050506040513d601f19601f8201168201806040525081019061102f9190613e74565b90508060600151606482600001518161104457fe5b046110a8836020015160087f00000000000000000000000000000000000000000000000000000000000000006001600160a01b031663313ce5676040518163ffffffff1660e01b815260040160206040518083038186803b15801561073057600080fd5b93509350935050909192565b6000546001600160a01b031690565b7f00000000000000000000000000000000000000000000000000000000000000006001600160a01b0316637d8c26596040518163ffffffff1660e01b8152600401600060405180830381600087803b15801561111e57600080fd5b505af1158015611132573d6000803e3d6000fd5b505050600082815260036020908152604080832081516060810183528154600f90810b810b900b81526001820180548451818702810187019095528085529296506001600160a01b037f000000000000000000000000000000000000000000000000000000000000000016946382f3955d946112f6948993858401939091908a9084015b828210156112d8576000848152602090206040805160a0810190915290600484020181606081018260028282826020028201916000905b82829054906101000a9004600f0b600f0b81526020019060100190602082600f010492830192600103820291508084116111ed575050509284525050604080518082019182905260209093019291506001840190600290826000855b82829054906101000a90046001600160801b03166001600160801b031681526020019060100190602082600f010492830192600103820291508084116112495750505092845250506040805180820191829052602090930192915060028481019182845b8154815260200190600101908083116112ad57505050505081525050815260200190600101906111b6565b505050908252506002919091015460ff161515602090910152612e1a565b6040518263ffffffff1660e01b815260040161131291906143d8565b60e06040518083038186803b15801561132a57600080fd5b505afa15801561133e573d6000803e3d6000fd5b505050506040513d601f19601f820116820180604052508101906113629190614048565b604080516060810182528454600f90810b810b900b815260018501805483516020828102820181019095528181529495506114e8948694889381860193909160009084015b828210156114c9576000848152602090206040805160a0810190915290600484020181606081018260028282826020028201916000905b82829054906101000a9004600f0b600f0b81526020019060100190602082600f010492830192600103820291508084116113de575050509284525050604080518082019182905260209093019291506001840190600290826000855b82829054906101000a90046001600160801b03166001600160801b031681526020019060100190602082600f0104928301926001038202915080841161143a5750505092845250506040805180820191829052602090930192915060028481019182845b81548152602001906001019080831161149e57505050505081525050815260200190600101906113a7565b505050908252506002919091015460ff161515602090910152906130b3565b6115045760405162461bcd60e51b8152600401610cfc90614441565b600061169982846040518060600160405290816000820160009054906101000a9004600f0b600f0b600f0b815260200160018201805480602002602001604051908101604052809291908181526020016000905b8282101561167a576000848152602090206040805160a0810190915290600484020181606081018260028282826020028201916000905b82829054906101000a9004600f0b600f0b81526020019060100190602082600f0104928301926001038202915080841161158f575050509284525050604080518082019182905260209093019291506001840190600290826000855b82829054906101000a90046001600160801b03166001600160801b031681526020019060100190602082600f010492830192600103820291508084116115eb5750505092845250506040805180820191829052602090930192915060028481019182845b81548152602001906001019080831161164f5750505050508152505081526020019060010190611558565b505050908252506002919091015460ff16151560209091015290612f8b565b90506000805b600185015481101561173f5760005b60028110156117365760008660010183815481106116c857fe5b906000526020600020906004020160000182600281106116e457fe5b600291828204019190066010029054906101000a9004600f0b905061172b61172488848b87866000036000604051806020016040528060008152506130d4565b85906132bd565b9350506001016116ae565b5060010161169f565b50604051630de022c160e11b815273__$b139f62619843504e83620ab3c72958bdd$__90631bc04582906117779087906004016143fe565b60006040518083038186803b15801561178f57600080fd5b505af41580156117a3573d6000803e3d6000fd5b505060405163652aa48360e01b81526000925073__$b139f62619843504e83620ab3c72958bdd$__915063652aa483906117e790889087906107d09060040161455d565b60206040518083038186803b1580156117ff57600080fd5b505af4158015611813573d6000803e3d6000fd5b505050506040513d601f19601f820116820180604052508101906118379190613e1d565b6040516328e32c8560e11b81529091507f00000000000000000000000000000000000000000000000000000000000000006001600160a01b0316906351c6590a906118899060028504906004016143fe565b600060405180830381600087803b1580156118a357600080fd5b505af11580156118b7573d6000803e3d6000fd5b505050506118cf3360c883816118c957fe5b04612c95565b7f00000000000000000000000000000000000000000000000000000000000000006001600160a01b03166387c3a09a6040518163ffffffff1660e01b8152600401600060405180830381600087803b15801561192a57600080fd5b505af115801561193e573d6000803e3d6000fd5b505050506000821115611a585760015460405163095ea7b360e01b81526001600160a01b037f000000000000000000000000000000000000000000000000000000000000000081169263095ea7b3926119a0929190911690869060040161439e565b602060405180830381600087803b1580156119ba57600080fd5b505af11580156119ce573d6000803e3d6000fd5b505050506040513d601f19601f820116820180604052508101906119f29190613deb565b506001546040516301acfa2360e51b81526001600160a01b039091169063359f446090611a25903090869060040161439e565b600060405180830381600087803b158015611a3f57600080fd5b505af1158015611a53573d6000803e3d6000fd5b505050505b857f09c223cfcd8c93e245f558f5f8de755fc0930fd9bc257441155ef5d54a170e0f3383604051611a8a92919061439e565b60405180910390a2505050505050565b600082118015611aaa5750600081135b611ab357600080fd5b60405163e7dc45d360e01b81526000906001600160a01b037f0000000000000000000000000000000000000000000000000000000000000000169063e7dc45d390611b09903390606488029087906004016143b7565b602060405180830381600087803b158015611b2357600080fd5b505af1158015611b37573d6000803e3d6000fd5b505050506040513d601f19601f82011682018060405250810190611b5b9190613e1d565b9050611b926001600160a01b037f000000000000000000000000000000000000000000000000000000000000000016333086612d86565b336001600160a01b03167f73a19dd210f1a7f902193214c0ee91dd35ee5b4d920cba8d519eca65a7b488ca8285604051610e0492919061454f565b611bd5613c52565b60008060008060007f00000000000000000000000000000000000000000000000000000000000000006001600160a01b031663b4f0332f89896040518363ffffffff1660e01b8152600401611c2b92919061466a565b60a06040518083038186803b158015611c4357600080fd5b505afa158015611c57573d6000803e3d6000fd5b505050506040513d601f19601f82011682018060405250810190611c7b9190613e35565b94509450945094509450604051806101000160405280868152602001858152602001848152602001838152602001828152602001611cd3662386f26fc10000611ccd8789612fab90919063ffffffff16565b90613317565b8152602001611d046305f5e100611cfe611cef8c600f0b6133cf565b611cf88b613054565b906133e2565b9061343b565b8152602001611d296305f5e100611cfe611d208c600f0b6133cf565b611cf888613054565b905298975050505050505050565b60008111611d4457600080fd5b7f00000000000000000000000000000000000000000000000000000000000000006001600160a01b0316637d8c26596040518163ffffffff1660e01b8152600401600060405180830381600087803b158015611d9f57600080fd5b505af1158015611db3573d6000803e3d6000fd5b50506040516311f9fbc960e21b8152600092506001600160a01b037f00000000000000000000000000000000000000000000000000000000000000001691506347e7ef2490611e0b903390606487029060040161439e565b602060405180830381600087803b158015611e2557600080fd5b505af1158015611e39573d6000803e3d6000fd5b505050506040513d601f19601f82011682018060405250810190611e5d9190613e1d565b9050611e946001600160a01b037f000000000000000000000000000000000000000000000000000000000000000016333085612d86565b336001600160a01b03167f73a19dd210f1a7f902193214c0ee91dd35ee5b4d920cba8d519eca65a7b488ca828460405161044892919061454f565b60608101511580611ee4575043816060015110155b611f005760405162461bcd60e51b8152600401610cfc90614424565b8051611f8f576002546040516354ba0f2760e01b81526001600160a01b03909116906354ba0f2790611f36903390600401614342565b602060405180830381600087803b158015611f5057600080fd5b505af1158015611f64573d6000803e3d6000fd5b505050506040513d601f19601f82011682018060405250810190611f889190613e1d565b8152612036565b60025481516040516331a9108f60e11b815233926001600160a01b031691636352211e91611fc091906004016143fe565b60206040518083038186803b158015611fd857600080fd5b505afa158015611fec573d6000803e3d6000fd5b505050506040513d601f19601f820116820180604052508101906120109190613dcf565b6001600160a01b0316146120365760405162461bcd60e51b8152600401610cfc90614407565b7f00000000000000000000000000000000000000000000000000000000000000006001600160a01b0316637d8c26596040518163ffffffff1660e01b8152600401600060405180830381600087803b15801561209157600080fd5b505af11580156120a5573d6000803e3d6000fd5b5060009250829150505b8260200151518110156121805761217661216f6003600086600001518152602001908152602001600020856020015184815181106120e957fe5b60200260200101516000015186600001518760200151868151811061210a57fe5b6020026020010151602001518860200151878151811061212657fe5b6020026020010151604001518960200151888151811061214257fe5b6020026020010151606001518a60200151898151811061215e57fe5b6020026020010151608001516130d4565b83906132bd565b91506001016120af565b5080156122945760015460405163095ea7b360e01b81526001600160a01b037f000000000000000000000000000000000000000000000000000000000000000081169263095ea7b3926121dc929190911690859060040161439e565b602060405180830381600087803b1580156121f657600080fd5b505af115801561220a573d6000803e3d6000fd5b505050506040513d601f19601f8201168201806040525081019061222e9190613deb565b506001546040516301acfa2360e51b81526001600160a01b039091169063359f446090612261903090859060040161439e565b600060405180830381600087803b15801561227b57600080fd5b505af115801561228f573d6000803e3d6000fd5b505050505b81516000908152600360205260408082209084015173__$b139f62619843504e83620ab3c72958bdd$__9163e69e266d916122d0906064612fab565b8651600090815260036020908152604080832081516060810183528154600f90810b810b900b81526001820180548451818702810187019095528085526001600160a01b037f000000000000000000000000000000000000000000000000000000000000000016966382f3955d96612474969495948682019490939092909184015b828210156112d8576000848152602090206040805160a0810190915290600484020181606081018260028282826020028201916000905b82829054906101000a9004600f0b600f0b81526020019060100190602082600f01049283019260010382029150808411612389575050509284525050604080518082019182905260209093019291506001840190600290826000855b82829054906101000a90046001600160801b03166001600160801b031681526020019060100190602082600f010492830192600103820291508084116123e55750505092845250506040805180820191829052602090930192915060028481019182845b8154815260200190600101908083116124495750505050508152505081526020019060010190612352565b6040518263ffffffff1660e01b815260040161249091906143d8565b60e06040518083038186803b1580156124a857600080fd5b505afa1580156124bc573d6000803e3d6000fd5b505050506040513d601f19601f820116820180604052508101906124e09190614048565b6040518463ffffffff1660e01b81526004016124fe93929190614573565b60206040518083038186803b15801561251657600080fd5b505af415801561252a573d6000803e3d6000fd5b505050506040513d601f19601f8201168201806040525081019061254e9190613e1d565b90507f00000000000000000000000000000000000000000000000000000000000000006001600160a01b03166387c3a09a6040518163ffffffff1660e01b8152600401600060405180830381600087803b1580156125ab57600080fd5b505af11580156125bf573d6000803e3d6000fd5b50505050600081131561264857606481056126057f00000000000000000000000000000000000000000000000000000000000000006001600160a01b0316333084612d86565b835160405133917ffc3608744ea5805574f007540fe37736bbebd81365de55991f3b17a16295521d9161263a9190859061454f565b60405180910390a2506126a2565b60008112156126a25760646000829003046126633382612c95565b835160405133917f41d0e87fb7cc3fb87474e510116fbe22a7658539f639b5de6d9c0bdae606d3eb916126989190859061454f565b60405180910390a2505b505050565b6126af6130af565b6001600160a01b03166126c06110b4565b6001600160a01b03161461271b576040805162461bcd60e51b815260206004820181905260248201527f4f776e61626c653a2063616c6c6572206973206e6f7420746865206f776e6572604482015290519081900360640190fd5b6001600160a01b03811661272e57600080fd5b600180546001600160a01b0319166001600160a01b0383161790556040517fa10652b59c38f986e02273779b46014194b54d90e963da79e87af931cf6a484890612779908390614342565b60405180910390a150565b600082815260036020908152604080832081516060810183528154600f90810b810b900b8152600182018054845181870281018701909552808552869592948584019390929190879084015b828210156128f2576000848152602090206040805160a0810190915290600484020181606081018260028282826020028201916000905b82829054906101000a9004600f0b600f0b81526020019060100190602082600f01049283019260010382029150808411612807575050509284525050604080518082019182905260209093019291506001840190600290826000855b82829054906101000a90046001600160801b03166001600160801b031681526020019060100190602082600f010492830192600103820291508084116128635750505092845250506040805180820191829052602090930192915060028481019182845b8154815260200190600101908083116128c757505050505081525050815260200190600101906127d0565b505050908252506002919091015460ff16151560209091015290506129bd836001600160a01b037f0000000000000000000000000000000000000000000000000000000000000000166382f3955d61294985612e1a565b6040518263ffffffff1660e01b815260040161296591906143d8565b60e06040518083038186803b15801561297d57600080fd5b505afa158015612991573d6000803e3d6000fd5b505050506040513d601f19601f820116820180604052508101906129b59190614048565b8391906134a2565b60649005949350505050565b6129d1613c97565b600082815260036020908152604080832081516060810183528154600f90810b810b900b81526001820180548451818702810187019095528085529195929486810194939192919084015b82821015612b3e576000848152602090206040805160a0810190915290600484020181606081018260028282826020028201916000905b82829054906101000a9004600f0b600f0b81526020019060100190602082600f01049283019260010382029150808411612a53575050509284525050604080518082019182905260209093019291506001840190600290826000855b82829054906101000a90046001600160801b03166001600160801b031681526020019060100190602082600f01049283019260010382029150808411612aaf5750505092845250506040805180820191829052602090930192915060028481019182845b815481526020019060010190808311612b135750505050508152505081526020019060010190612a1c565b505050908252506002919091015460ff16151560209091015292915050565b612b656130af565b6001600160a01b0316612b766110b4565b6001600160a01b031614612bd1576040805162461bcd60e51b815260206004820181905260248201527f4f776e61626c653a2063616c6c6572206973206e6f7420746865206f776e6572604482015290519081900360640190fd5b6001600160a01b038116612c165760405162461bcd60e51b81526004018080602001828103825260268152602001806147746026913960400191505060405180910390fd5b600080546040516001600160a01b03808516939216917f8be0079c531659141344cd1fd0a4f28419497f9722a3daafe3b4186f6b6457e091a3600080546001600160a01b0319166001600160a01b0392909216919091179055565b7f000000000000000000000000000000000000000000000000000000000000000081565b612cc96001600160a01b037f0000000000000000000000000000000000000000000000000000000000000000168383613523565b5050565b600081831115612d2957604682840310612d13576040805162461bcd60e51b8152602060048201526002602482015261269960f11b604482015290519081900360640190fd5b612d2284838503600a0a61343b565b9050612d7f565b81831015612d7c57604683830310612d6d576040805162461bcd60e51b8152602060048201526002602482015261269960f11b604482015290519081900360640190fd5b612d2284848403600a0a6133e2565b50825b9392505050565b604080516001600160a01b0380861660248301528416604482015260648082018490528251808303909101815260849091019091526020810180516001600160e01b03166323b872dd60e01b179052612de0908590613571565b50505050565b612cc96001600160a01b037f0000000000000000000000000000000000000000000000000000000000000000168383613523565b612e22613c34565b60005b6002811015612e5b57612e388382613622565b828260028110612e4457fe5b600f92830b90920b60209092020152600101612e25565b50919050565b600080612ec985600001518560028110612e7757fe5b6020020151600f0b612ec3612ea888602001518860028110612e9557fe5b60200201516001600160801b0316613683565b86602001518860028110612eb857fe5b6020020151906136c7565b90612fab565b6305f5e100900595945050505050565b600080612f1b85600001518560028110612eef57fe5b6020020151600f0b612ec3858760028110612f0657fe5b602002015188604001518860028110612eb857fe5b9050612f2e81662386f26fc10000613317565b95945050505050565b8151600090600f0b815b846020015151811015612f8357612f79612f7286602001518381518110612f6457fe5b60200260200101518661372c565b839061374b565b9150600101612f41565b509392505050565b600080612f9784612e1a565b9050612fa381846137b0565b949350505050565b600082612fba57506000610f92565b82600019148015612fce5750600160ff1b82145b1561300a5760405162461bcd60e51b815260040180806020018281038252602781526020018061484a6027913960400191505060405180910390fd5b8282028284828161301757fe5b0514612d7f5760405162461bcd60e51b815260040180806020018281038252602781526020018061484a6027913960400191505060405180910390fd5b6000808212156130ab576040805162461bcd60e51b815260206004820181905260248201527f53616665436173743a2076616c7565206d75737420626520706f736974697665604482015290519081900360640190fd5b5090565b3390565b6000806130c08484612f37565b90506130cc8484612f8b565b139392505050565b600083600f0b6000146132ae5760008060007f00000000000000000000000000000000000000000000000000000000000000006001600160a01b0316633ed7e33c8b896040518363ffffffff1660e01b815260040161313492919061466a565b606060405180830381600087803b15801561314e57600080fd5b505af1158015613162573d6000803e3d6000fd5b505050506040513d601f19601f8201168201806040525081019061318691906141ad565b92509250925061319d600088600f0b13848861391f565b6131b95760405162461bcd60e51b8152600401610cfc9061446e565b60008b73__$b139f62619843504e83620ab3c72958bdd$__63a8ffb3b990918b8e8c89896040518763ffffffff1660e01b81526004016131fe969594939291906145d3565b60206040518083038186803b15801561321657600080fd5b505af415801561322a573d6000803e3d6000fd5b505050506040513d601f19601f8201168201806040525081019061324e9190613e1d565b9050336001600160a01b03167fbfb264ae14733b7c7f6701d57d6a0dbaf244d34bf5912958835dccf887b4beea8b8b8e8c8989888e604051613297989796959493929190614692565b60405180910390a2606482049450505050506132b2565b5060005b979650505050505050565b600082820183811015612d7f576040805162461bcd60e51b815260206004820152601b60248201527f536166654d6174683a206164646974696f6e206f766572666c6f770000000000604482015290519081900360640190fd5b60008161336b576040805162461bcd60e51b815260206004820181905260248201527f5369676e6564536166654d6174683a206469766973696f6e206279207a65726f604482015290519081900360640190fd5b8160001914801561337f5750600160ff1b83145b156133bb5760405162461bcd60e51b81526004018080602001828103825260218152602001806148086021913960400191505060405180910390fd5b60008284816133c657fe5b05949350505050565b6000808212156130ab5781600003610f92565b6000826133f157506000610f92565b828202828482816133fe57fe5b0414612d7f5760405162461bcd60e51b81526004018080602001828103825260218152602001806148296021913960400191505060405180910390fd5b6000808211613491576040805162461bcd60e51b815260206004820152601a60248201527f536166654d6174683a206469766973696f6e206279207a65726f000000000000604482015290519081900360640190fd5b81838161349a57fe5b049392505050565b6000806134ae85612e1a565b905060005b6002811015613518576134f56134f08683600281106134ce57fe5b6020020151600f0b8484600281106134e257fe5b6020020151600f0b9061374b565b613948565b82826002811061350157fe5b600f92830b90920b602090920201526001016134b3565b50612f2e81846137b0565b604080516001600160a01b038416602482015260448082018490528251808303909101815260649091019091526020810180516001600160e01b031663a9059cbb60e01b1790526126a29084905b60006135c6826040518060400160405280602081526020017f5361666545524332303a206c6f772d6c6576656c2063616c6c206661696c6564815250856001600160a01b03166139a99092919063ffffffff16565b8051909150156126a2578080602001905160208110156135e557600080fd5b50516126a25760405162461bcd60e51b815260040180806020018281038252602a8152602001806148bd602a913960400191505060405180910390fd5b6000805b83602001515181101561367c576136726134f08560200151838151811061364957fe5b602002602001015160000151856002811061366057fe5b6020020151600f85810b91900b61374b565b9150600101613626565b5092915050565b6000600160ff1b82106130ab5760405162461bcd60e51b81526004018080602001828103825260288152602001806148716028913960400191505060405180910390fd5b60008183038183128015906136dc5750838113155b806136f157506000831280156136f157508381135b612d7f5760405162461bcd60e51b81526004018080602001828103825260248152602001806148996024913960400191505060405180910390fd5b6000612d7f61373f8484606001516139b8565b61374985856139df565b905b60008282018183128015906137605750838112155b80613775575060008312801561377557508381125b612d7f5760405162461bcd60e51b81526004018080602001828103825260218152602001806147c16021913960400191505060405180910390fd5b6000806137f66305f5e100611ccd6137e5662386f26fc1000087604001516001600281106137da57fe5b60200201519061374b565b86516001600160801b031690612fab565b9050600061386161385c613835662386f26fc10000611ccd61382a662386f26fc100008a604001516000600281106137da57fe5b8a51600f0b90612fab565b61374968056bc75e2d63100000611ccd6002612ec38c600160200201518a90600f0b612fab565b6133cf565b905061389b61389461385c69d3c21bcecceda1000000611ccd8960016020020151600f0b612ec36002816101f48b612fab565b82906132bd565b9050600064e8d4a510006138cb83611cf888600001516001600160801b03166101f46133e290919063ffffffff16565b816138d257fe5b87519190049150600f0b1515806138ef57506020860151600f0b15155b80156138ff57506404a817c80081105b1561390c57506404a817c8005b61391581613683565b9695505050505050565b60008161392e57506001612d7f565b831561393e575080821115612d7f565b5080821015612d7f565b60006f7fffffffffffffffffffffffffffffff19821215801561396e57506001607f1b82125b6130ab5760405162461bcd60e51b815260040180806020018281038252602781526020018061479a6027913960400191505060405180910390fd5b6060612fa38484600085613a06565b60008060005b6002811015612f83576139d5612f72868387612ed9565b91506001016139be565b60008060005b6002811015612f83576139fc612f72868387612e61565b91506001016139e5565b606082471015613a475760405162461bcd60e51b81526004018080602001828103825260268152602001806147e26026913960400191505060405180910390fd5b613a5085613b56565b613aa1576040805162461bcd60e51b815260206004820152601d60248201527f416464726573733a2063616c6c20746f206e6f6e2d636f6e7472616374000000604482015290519081900360640190fd5b600080866001600160a01b031685876040518082805190602001908083835b60208310613adf5780518252601f199092019160209182019101613ac0565b6001836020036101000a03801982511681845116808217855250505050505090500191505060006040518083038185875af1925050503d8060008114613b41576040519150601f19603f3d011682016040523d82523d6000602084013e613b46565b606091505b50915091506132b2828286613b5c565b3b151590565b60608315613b6b575081612d7f565b825115613b7b5782518084602001fd5b8160405162461bcd60e51b81526004018080602001828103825283818151815260200191508051906020019080838360005b83811015613bc5578181015183820152602001613bad565b50505050905090810190601f168015613bf25780820380516001836020036101000a031916815260200191505b509250505060405180910390fd5b6040518060a0016040528060008152602001600081526020016060815260200160608152602001613c2f613c97565b905290565b60405180604001604052806002906020820280368337509192915050565b60405180610100016040528060008152602001600081526020016000815260200160008152602001600081526020016000815260200160008152602001600081525090565b60405180606001604052806000600f0b8152602001606081526020016000151581525090565b600082601f830112613ccd578081fd5b6040516040810181811067ffffffffffffffff82111715613cea57fe5b8060405250808385604086011115613d00578384fd5b835b6002811015613d21578151835260209283019290910190600101613d02565b509195945050505050565b80518015158114610c4557600080fd5b600082601f830112613d4c578081fd5b813567ffffffffffffffff811115613d6057fe5b613d73601f8201601f1916602001614722565b818152846020838601011115613d87578283fd5b816020850160208301379081016020019190915292915050565b8035600f81900b8114610c4557600080fd5b600060208284031215613dc4578081fd5b8135612d7f81614746565b600060208284031215613de0578081fd5b8151612d7f81614746565b600060208284031215613dfc578081fd5b612d7f82613d2c565b600060208284031215613e16578081fd5b5035919050565b600060208284031215613e2e578081fd5b5051919050565b600080600080600060a08688031215613e4c578081fd5b5050835160208501516040860151606087015160809097015192989197509594509092509050565b600060a08284031215613e85578081fd5b6040516080810181811067ffffffffffffffff82111715613ea257fe5b80604052508251815260208301516020820152613ec28460408501613cbd565b6040820152613ed360808401613d2c565b60608201529392505050565b600060208284031215613ef0578081fd5b67ffffffffffffffff8083351115613f06578182fd5b8235830160808186031215613f19578283fd5b604051608081018181108482111715613f2e57fe5b60405281358152602082013583811115613f46578485fd5b8201601f81018713613f56578485fd5b803584811115613f6257fe5b613f70602080830201614722565b818152602080820191908401885b8481101561401f578135860160a0818e03601f19011215613f9d578a8bfd5b60405160a081018181108c82111715613fb257fe5b80604052506020820135815260408201356020820152613fd460608301613da1565b60408201526080820135606082015260a08201358b811115613ff4578c8dfd5b6140038f602083860101613d3c565b6080830152508552506020938401939190910190600101613f7e565b505060208501525050506040828101359082015260609182013591810191909152949350505050565b600060e08284031215614059578081fd5b6040516080810181811067ffffffffffffffff8211171561407657fe5b60405282516140848161475e565b81526140938460208501613cbd565b60208201526140a58460608501613cbd565b6040820152613ed38460a08501613cbd565b6000602082840312156140c8578081fd5b8135612d7f8161475e565b600080606083850312156140e5578182fd5b82359150602084603f8501126140f9578182fd5b6040516040810181811067ffffffffffffffff8211171561411657fe5b604052808583016060870188101561412c578485fd5b845b60028110156141525761414082613da1565b8352918401919084019060010161412e565b50505080925050509250929050565b60008060408385031215614173578182fd5b8235915061418360208401613da1565b90509250929050565b6000806040838503121561419e578182fd5b50508035926020909101359150565b6000806000606084860312156141c1578081fd5b8351925060208401519150604084015190509250925092565b6000602082840312156141eb578081fd5b815160ff81168114612d7f578182fd5b6000815180845260208085019450808401835b8381101561423457614221878351614265565b604096909601959082019060010161420e565b509495945050505050565b8060005b6002811015612de0578151600f0b845260209384019390910190600101614243565b8060005b6002811015612de0578151845260209384019390910190600101614269565b15159052565b6000606083018251600f0b84526020808401516060828701528281518085526080945084880191508383019250855b8181101561432c5783516142d284825161423f565b8581015160408086018a5b60028110156143035783516001600160801b0316825292890192908901906001016142dd565b50509190910151905061431884880182614265565b509284019260c092909201916001016142bd565b5050604086015193506139156040880185614288565b6001600160a01b0391909116815260200190565b6001600160a01b0394909416845291151560208401526040830152606082015260800190565b6001600160a01b039290921682526001600160801b0316602082015260400190565b6001600160a01b03929092168252602082015260400190565b6001600160a01b039390931683526020830191909152604082015260600190565b60408101610f92828461423f565b92151583526020830191909152604082015260600190565b90815260200190565b60208082526003908201526228269960e91b604082015260600190565b6020808252600390820152620504d360ec1b604082015260600190565b6020808252601390820152723b30bab63a1034b9903737ba103230b733b2b960691b604082015260600190565b602080825260039082015262504d3160e81b604082015260600190565b602080825260039082015262504d3360e81b604082015260600190565b600060a082019050825182526020830151602083015260408301516144d06040840182614265565b5060608301511515608083015292915050565b600061010082019050825182526020830151602083015260408301516040830152606083015160608301526080830151608083015260a083015160a083015260c083015160c083015260e083015160e083015292915050565b600060208252612d7f602083018461428e565b918252602082015260400190565b9283526020830191909152604082015260600190565b838152602080820184905282516001600160801b031660408301528201516101208201906145a46060840182614265565b5060408301516145b760a0840182614265565b5060608301516145ca60e0840182614265565b50949350505050565b95865260208601949094526040850192909252600f0b6060840152608083015260a082015260c00190565b6000602082528251602083015260208301516040830152604083015160a0606084015261462e60c08401826141fb565b90506060840151601f198085840301608086015261464c83836141fb565b925060808601519150808584030160a086015250612f2e828261428e565b918252600f0b602082015260400190565b9182526001600160801b0316602082015260400190565b60006101008a835260208a8185015289604085015288600f0b60608501528760808501528660a08501528560c08501528160e0850152845180838601528392505b808310156146f2578583018201518584016101200152918101916146d3565b80831115614704578361012082870101525b601f01601f191693909301610120019b9a5050505050505050505050565b60405181810167ffffffffffffffff8111828210171561473e57fe5b604052919050565b6001600160a01b038116811461475b57600080fd5b50565b6001600160801b038116811461475b57600080fdfe4f776e61626c653a206e6577206f776e657220697320746865207a65726f206164647265737353616665436173743a2076616c756520646f65736e27742066697420696e2031323820626974735369676e6564536166654d6174683a206164646974696f6e206f766572666c6f77416464726573733a20696e73756666696369656e742062616c616e636520666f722063616c6c5369676e6564536166654d6174683a206469766973696f6e206f766572666c6f77536166654d6174683a206d756c7469706c69636174696f6e206f766572666c6f775369676e6564536166654d6174683a206d756c7469706c69636174696f6e206f766572666c6f7753616665436173743a2076616c756520646f65736e27742066697420696e20616e20696e743235365369676e6564536166654d6174683a207375627472616374696f6e206f766572666c6f775361666545524332303a204552433230206f7065726174696f6e20646964206e6f742073756363656564a2646970667358221220767f56330e223e055fe271f57c9827d52f684700657a27b3fc92a677531ce47a64736f6c63430007060033",
  "libraries": {
    "TraderVaultLib": "0x3eA022AB5e5703EEC733Edb55Ac9AB48Ebd32D0B"
  },
  "devdoc": {
    "kind": "dev",
    "methods": {
      "addMargin(uint256,int256)": {
        "params": {
          "_marginToAdd": "amount of margin to add",
          "_vaultId": "id of the vault"
        }
      },
      "getLPTokenPrice(int256)": {
        "params": {
          "_deltaLiquidityAmount": "difference of liquidity If LPs want LP token price of deposit, _deltaLiquidityAmount is positive number of amount to deposit. On the other hand, if LPs want LP token price of withdrawal, _deltaLiquidityAmount is negative number of amount to withdraw."
        },
        "returns": {
          "_0": "LP token price scaled by 1e6"
        }
      },
      "getMinCollateralToAddPosition(uint256,int128[2])": {
        "params": {
          "_tradeAmounts": "amounts to trade",
          "_vaultId": "The id of target vault"
        },
        "returns": {
          "minCollateral": "scaled by 1e6"
        }
      },
      "getTokenAmountForHedging()": {
        "returns": {
          "_0": "Amount of USDC and underlying reqired for hedging"
        }
      },
      "getTradePrice(uint256,int128)": {
        "params": {
          "_productId": "product id",
          "_tradeAmount": "amount of position to trade. positive to get long price and negative to get short price."
        },
        "returns": {
          "_0": "trade info"
        }
      },
      "getVaultStatus(uint256)": {
        "params": {
          "_vaultId": "The id of target vault"
        },
        "returns": {
          "_0": "vault status"
        }
      },
      "initialize(uint256,int256)": {
        "params": {
          "_depositAmount": "deposit amount",
          "_initialFundingRate": "initial funding rate"
        }
      },
      "liquidateByPool(uint256)": {
        "params": {
          "_vaultId": "The id of target vault"
        }
      },
      "owner()": {
        "details": "Returns the address of the current owner."
      },
      "renounceOwnership()": {
        "details": "Leaves the contract without owner. It will not be possible to call `onlyOwner` functions anymore. Can only be called by the current owner. NOTE: Renouncing ownership will leave the contract without an owner, thereby removing any functionality that is only available to the owner."
      },
      "setFeeRecepient(address)": {
        "params": {
          "_feeRecepient": "The address of new fee recepient"
        }
      },
      "trade((uint256,(uint256,uint256,int128,uint256,bytes)[],int256,uint256))": {
        "params": {
          "_tradeParams": "trade parameters"
        }
      },
      "transferOwnership(address)": {
        "details": "Transfers ownership of the contract to a new account (`newOwner`). Can only be called by the current owner."
      }
    },
    "stateVariables": {
      "LIQUIDATION_FEE": {
        "details": "liquidation fee is 20%"
      }
    },
    "title": "Perpetual Market",
    "version": 1
  },
  "userdoc": {
    "kind": "user",
    "methods": {
      "addMargin(uint256,int256)": {
        "notice": "Add margin to the vault"
      },
      "constructor": {
        "notice": "Constructor of Perpetual Market contract"
      },
      "deposit(uint256)": {
        "notice": "Provides liquidity to the pool and mints LP tokens"
      },
      "execHedge()": {
        "notice": "Executes hedging"
      },
      "getLPTokenPrice(int256)": {
        "notice": "Gets current LP token price"
      },
      "getMinCollateralToAddPosition(uint256,int128[2])": {
        "notice": "Gets value of min collateral to add positions"
      },
      "getTokenAmountForHedging()": {
        "notice": "Gets token amount for hedging"
      },
      "getTradePrice(uint256,int128)": {
        "notice": "Gets trade price"
      },
      "getVaultStatus(uint256)": {
        "notice": "Gets position value of a vault"
      },
      "initialize(uint256,int256)": {
        "notice": "Initializes Perpetual Pool"
      },
      "liquidateByPool(uint256)": {
        "notice": "Liquidates a vault by Pool Anyone can liquidate a vault whose PositionValue is less than MinCollateral. The caller gets a portion of the margin as reward."
      },
      "setFeeRecepient(address)": {
        "notice": "Sets new fee recepient"
      },
      "trade((uint256,(uint256,uint256,int128,uint256,bytes)[],int256,uint256))": {
        "notice": "Opens new positions or closes hold position of the perpetual contracts and manage margin in the vault at the same time."
      },
      "withdraw(uint128)": {
        "notice": "Withdraws liquidity from the pool and burn LP tokens"
      }
    },
    "notice": "Perpetual Market Contract is entry point of traders and liquidity providers. It manages traders' vault storage and holds funds from traders and liquidity providers. Error Codes PM0: tx exceed deadline PM1: limit price PM2: caller is not vault owner PM3: vault not found",
    "version": 1
  },
  "storageLayout": {
    "storage": [
      {
        "astId": 53,
        "contract": "contracts/PerpetualMarket.sol:PerpetualMarket",
        "label": "_owner",
        "offset": 0,
        "slot": "0",
        "type": "t_address"
      },
      {
        "astId": 6840,
        "contract": "contracts/PerpetualMarket.sol:PerpetualMarket",
        "label": "feeRecepient",
        "offset": 0,
        "slot": "1",
        "type": "t_contract(IFeePool)11672"
      },
      {
        "astId": 6842,
        "contract": "contracts/PerpetualMarket.sol:PerpetualMarket",
        "label": "vaultNFT",
        "offset": 0,
        "slot": "2",
        "type": "t_address"
      },
      {
        "astId": 6846,
        "contract": "contracts/PerpetualMarket.sol:PerpetualMarket",
        "label": "traderVaults",
        "offset": 0,
        "slot": "3",
        "type": "t_mapping(t_uint256,t_struct(TraderVault)13742_storage)"
      }
    ],
    "types": {
      "t_address": {
        "encoding": "inplace",
        "label": "address",
        "numberOfBytes": "20"
      },
      "t_array(t_int128)2_storage": {
        "base": "t_int128",
        "encoding": "inplace",
        "label": "int128[2]",
        "numberOfBytes": "32"
      },
      "t_array(t_int256)2_storage": {
        "base": "t_int256",
        "encoding": "inplace",
        "label": "int256[2]",
        "numberOfBytes": "64"
      },
      "t_array(t_struct(SubVault)13734_storage)dyn_storage": {
        "base": "t_struct(SubVault)13734_storage",
        "encoding": "dynamic_array",
        "label": "struct TraderVaultLib.SubVault[]",
        "numberOfBytes": "32"
      },
      "t_array(t_uint128)2_storage": {
        "base": "t_uint128",
        "encoding": "inplace",
        "label": "uint128[2]",
        "numberOfBytes": "32"
      },
      "t_bool": {
        "encoding": "inplace",
        "label": "bool",
        "numberOfBytes": "1"
      },
      "t_contract(IFeePool)11672": {
        "encoding": "inplace",
        "label": "contract IFeePool",
        "numberOfBytes": "20"
      },
      "t_int128": {
        "encoding": "inplace",
        "label": "int128",
        "numberOfBytes": "16"
      },
      "t_int256": {
        "encoding": "inplace",
        "label": "int256",
        "numberOfBytes": "32"
      },
      "t_mapping(t_uint256,t_struct(TraderVault)13742_storage)": {
        "encoding": "mapping",
        "key": "t_uint256",
        "label": "mapping(uint256 => struct TraderVaultLib.TraderVault)",
        "numberOfBytes": "32",
        "value": "t_struct(TraderVault)13742_storage"
      },
      "t_struct(SubVault)13734_storage": {
        "encoding": "inplace",
        "label": "struct TraderVaultLib.SubVault",
        "members": [
          {
            "astId": 13725,
            "contract": "contracts/PerpetualMarket.sol:PerpetualMarket",
            "label": "positionPerpetuals",
            "offset": 0,
            "slot": "0",
            "type": "t_array(t_int128)2_storage"
          },
          {
            "astId": 13729,
            "contract": "contracts/PerpetualMarket.sol:PerpetualMarket",
            "label": "entryPrices",
            "offset": 0,
            "slot": "1",
            "type": "t_array(t_uint128)2_storage"
          },
          {
            "astId": 13733,
            "contract": "contracts/PerpetualMarket.sol:PerpetualMarket",
            "label": "entryFundingFee",
            "offset": 0,
            "slot": "2",
            "type": "t_array(t_int256)2_storage"
          }
        ],
        "numberOfBytes": "128"
      },
      "t_struct(TraderVault)13742_storage": {
        "encoding": "inplace",
        "label": "struct TraderVaultLib.TraderVault",
        "members": [
          {
            "astId": 13736,
            "contract": "contracts/PerpetualMarket.sol:PerpetualMarket",
            "label": "positionUsdc",
            "offset": 0,
            "slot": "0",
            "type": "t_int128"
          },
          {
            "astId": 13739,
            "contract": "contracts/PerpetualMarket.sol:PerpetualMarket",
            "label": "subVaults",
            "offset": 0,
            "slot": "1",
            "type": "t_array(t_struct(SubVault)13734_storage)dyn_storage"
          },
          {
            "astId": 13741,
            "contract": "contracts/PerpetualMarket.sol:PerpetualMarket",
            "label": "isInsolvent",
            "offset": 0,
            "slot": "2",
            "type": "t_bool"
          }
        ],
        "numberOfBytes": "96"
      },
      "t_uint128": {
        "encoding": "inplace",
        "label": "uint128",
        "numberOfBytes": "16"
      },
      "t_uint256": {
        "encoding": "inplace",
        "label": "uint256",
        "numberOfBytes": "32"
      }
    }
  }
}