{
  "address": "0x8B98991EEd7C25280BE5532C3b23a095654868c0",
  "abi": [
    {
      "inputs": [
        {
          "internalType": "address",
          "name": "_priceFeedAddress",
          "type": "address"
        },
        {
          "internalType": "string",
          "name": "_tokenName",
          "type": "string"
        },
        {
          "internalType": "string",
          "name": "_tokenSymbol",
          "type": "string"
        },
        {
          "internalType": "address",
          "name": "_arbSysAddress",
          "type": "address"
        }
      ],
      "stateMutability": "nonpayable",
      "type": "constructor"
    },
    {
      "anonymous": false,
      "inputs": [
        {
          "indexed": true,
          "internalType": "address",
          "name": "owner",
          "type": "address"
        },
        {
          "indexed": true,
          "internalType": "address",
          "name": "spender",
          "type": "address"
        },
        {
          "indexed": false,
          "internalType": "uint256",
          "name": "value",
          "type": "uint256"
        }
      ],
      "name": "Approval",
      "type": "event"
    },
    {
      "anonymous": false,
      "inputs": [
        {
          "indexed": false,
          "internalType": "uint256",
          "name": "productId",
          "type": "uint256"
        },
        {
          "indexed": false,
          "internalType": "int256",
          "name": "fundingRate",
          "type": "int256"
        },
        {
          "indexed": false,
          "internalType": "int256",
          "name": "amountFundingPaidPerPosition",
          "type": "int256"
        },
        {
          "indexed": false,
          "internalType": "int256",
          "name": "fundingPaidPerPosition",
          "type": "int256"
        },
        {
          "indexed": false,
          "internalType": "int256",
          "name": "poolReceived",
          "type": "int256"
        }
      ],
      "name": "FundingPayment",
      "type": "event"
    },
    {
      "anonymous": false,
      "inputs": [
        {
          "indexed": true,
          "internalType": "address",
          "name": "previousOwner",
          "type": "address"
        },
        {
          "indexed": true,
          "internalType": "address",
          "name": "newOwner",
          "type": "address"
        }
      ],
      "name": "OwnershipTransferred",
      "type": "event"
    },
    {
      "anonymous": false,
      "inputs": [
        {
          "indexed": false,
          "internalType": "uint256",
          "name": "minSlippageToleranceOfHedge",
          "type": "uint256"
        },
        {
          "indexed": false,
          "internalType": "uint256",
          "name": "maxSlippageToleranceOfHedge",
          "type": "uint256"
        },
        {
          "indexed": false,
          "internalType": "uint256",
          "name": "hedgeRateOfReturnThreshold",
          "type": "uint256"
        }
      ],
      "name": "SetHedgeParams",
      "type": "event"
    },
    {
      "anonymous": false,
      "inputs": [
        {
          "indexed": false,
          "internalType": "int256",
          "name": "perpFutureMaxFundingRate",
          "type": "int256"
        }
      ],
      "name": "SetPerpFutureMaxFundingRate",
      "type": "event"
    },
    {
      "anonymous": false,
      "inputs": [
        {
          "indexed": false,
          "internalType": "int256",
          "name": "poolMarginRiskParam",
          "type": "int256"
        }
      ],
      "name": "SetPoolMarginRiskParam",
      "type": "event"
    },
    {
      "anonymous": false,
      "inputs": [
        {
          "indexed": false,
          "internalType": "uint256",
          "name": "safetyPeriod",
          "type": "uint256"
        },
        {
          "indexed": false,
          "internalType": "uint256",
          "name": "numBlocksPerSpreadDecreasing",
          "type": "uint256"
        }
      ],
      "name": "SetSpreadParams",
      "type": "event"
    },
    {
      "anonymous": false,
      "inputs": [
        {
          "indexed": false,
          "internalType": "int256",
          "name": "squaredPerpFundingMultiplier",
          "type": "int256"
        }
      ],
      "name": "SetSquaredPerpFundingMultiplier",
      "type": "event"
    },
    {
      "anonymous": false,
      "inputs": [
        {
          "indexed": false,
          "internalType": "int256",
          "name": "tradeFeeRate",
          "type": "int256"
        },
        {
          "indexed": false,
          "internalType": "int256",
          "name": "protocolFeeRate",
          "type": "int256"
        }
      ],
      "name": "SetTradeFeeRate",
      "type": "event"
    },
    {
      "anonymous": false,
      "inputs": [
        {
          "indexed": true,
          "internalType": "address",
          "name": "from",
          "type": "address"
        },
        {
          "indexed": true,
          "internalType": "address",
          "name": "to",
          "type": "address"
        },
        {
          "indexed": false,
          "internalType": "uint256",
          "name": "value",
          "type": "uint256"
        }
      ],
      "name": "Transfer",
      "type": "event"
    },
    {
      "anonymous": false,
      "inputs": [
        {
          "indexed": false,
          "internalType": "int256",
          "name": "variance",
          "type": "int256"
        },
        {
          "indexed": false,
          "internalType": "int256",
          "name": "underlyingPrice",
          "type": "int256"
        },
        {
          "indexed": false,
          "internalType": "uint256",
          "name": "timestamp",
          "type": "uint256"
        }
      ],
      "name": "VarianceUpdated",
      "type": "event"
    },
    {
      "inputs": [
        {
          "internalType": "uint256",
          "name": "_amount",
          "type": "uint256"
        }
      ],
      "name": "addLiquidity",
      "outputs": [],
      "stateMutability": "nonpayable",
      "type": "function"
    },
    {
      "inputs": [
        {
          "internalType": "address",
          "name": "owner",
          "type": "address"
        },
        {
          "internalType": "address",
          "name": "spender",
          "type": "address"
        }
      ],
      "name": "allowance",
      "outputs": [
        {
          "internalType": "uint256",
          "name": "",
          "type": "uint256"
        }
      ],
      "stateMutability": "view",
      "type": "function"
    },
    {
      "inputs": [],
      "name": "amountLiquidity",
      "outputs": [
        {
          "internalType": "uint256",
          "name": "",
          "type": "uint256"
        }
      ],
      "stateMutability": "view",
      "type": "function"
    },
    {
      "inputs": [
        {
          "internalType": "address",
          "name": "spender",
          "type": "address"
        },
        {
          "internalType": "uint256",
          "name": "amount",
          "type": "uint256"
        }
      ],
      "name": "approve",
      "outputs": [
        {
          "internalType": "bool",
          "name": "",
          "type": "bool"
        }
      ],
      "stateMutability": "nonpayable",
      "type": "function"
    },
    {
      "inputs": [
        {
          "internalType": "address",
          "name": "account",
          "type": "address"
        }
      ],
      "name": "balanceOf",
      "outputs": [
        {
          "internalType": "uint256",
          "name": "",
          "type": "uint256"
        }
      ],
      "stateMutability": "view",
      "type": "function"
    },
    {
      "inputs": [
        {
          "components": [
            {
              "internalType": "uint256",
              "name": "amountUsdc",
              "type": "uint256"
            },
            {
              "internalType": "uint256",
              "name": "amountUnderlying",
              "type": "uint256"
            },
            {
              "internalType": "uint256",
              "name": "futureWeight",
              "type": "uint256"
            },
            {
              "internalType": "bool",
              "name": "isLong",
              "type": "bool"
            }
          ],
          "internalType": "struct NettingLib.CompleteParams",
          "name": "_completeParams",
          "type": "tuple"
        }
      ],
      "name": "completeHedgingProcedure",
      "outputs": [],
      "stateMutability": "nonpayable",
      "type": "function"
    },
    {
      "inputs": [],
      "name": "decimals",
      "outputs": [
        {
          "internalType": "uint8",
          "name": "",
          "type": "uint8"
        }
      ],
      "stateMutability": "view",
      "type": "function"
    },
    {
      "inputs": [
        {
          "internalType": "address",
          "name": "spender",
          "type": "address"
        },
        {
          "internalType": "uint256",
          "name": "subtractedValue",
          "type": "uint256"
        }
      ],
      "name": "decreaseAllowance",
      "outputs": [
        {
          "internalType": "bool",
          "name": "",
          "type": "bool"
        }
      ],
      "stateMutability": "nonpayable",
      "type": "function"
    },
    {
      "inputs": [
        {
          "internalType": "address",
          "name": "_depositor",
          "type": "address"
        },
        {
          "internalType": "uint256",
          "name": "_depositAmount",
          "type": "uint256"
        }
      ],
      "name": "deposit",
      "outputs": [
        {
          "internalType": "uint256",
          "name": "mintAmount",
          "type": "uint256"
        }
      ],
      "stateMutability": "nonpayable",
      "type": "function"
    },
    {
      "inputs": [],
      "name": "executeFundingPayment",
      "outputs": [],
      "stateMutability": "nonpayable",
      "type": "function"
    },
    {
      "inputs": [
        {
          "internalType": "int256",
          "name": "_deltaLiquidityAmount",
          "type": "int256"
        }
      ],
      "name": "getLPTokenPrice",
      "outputs": [
        {
          "internalType": "uint256",
          "name": "",
          "type": "uint256"
        }
      ],
      "stateMutability": "view",
      "type": "function"
    },
    {
      "inputs": [],
      "name": "getNettingInfo",
      "outputs": [
        {
          "components": [
            {
              "internalType": "int256[2]",
              "name": "amountsUsdc",
              "type": "int256[2]"
            },
            {
              "internalType": "uint256",
              "name": "amountUnderlying",
              "type": "uint256"
            }
          ],
          "internalType": "struct NettingLib.Info",
          "name": "",
          "type": "tuple"
        }
      ],
      "stateMutability": "view",
      "type": "function"
    },
    {
      "inputs": [],
      "name": "getTokenAmountForHedging",
      "outputs": [
        {
          "components": [
            {
              "internalType": "uint256",
              "name": "amountUsdc",
              "type": "uint256"
            },
            {
              "internalType": "uint256",
              "name": "amountUnderlying",
              "type": "uint256"
            },
            {
              "internalType": "uint256",
              "name": "futureWeight",
              "type": "uint256"
            },
            {
              "internalType": "bool",
              "name": "isLong",
              "type": "bool"
            }
          ],
          "internalType": "struct NettingLib.CompleteParams",
          "name": "completeParams",
          "type": "tuple"
        }
      ],
      "stateMutability": "view",
      "type": "function"
    },
    {
      "inputs": [
        {
          "internalType": "uint256",
          "name": "_productId",
          "type": "uint256"
        },
        {
          "internalType": "int256[2]",
          "name": "_tradeAmounts",
          "type": "int256[2]"
        }
      ],
      "name": "getTradePrice",
      "outputs": [
        {
          "internalType": "int256",
          "name": "",
          "type": "int256"
        },
        {
          "internalType": "int256",
          "name": "",
          "type": "int256"
        },
        {
          "internalType": "int256",
          "name": "",
          "type": "int256"
        },
        {
          "internalType": "int256",
          "name": "",
          "type": "int256"
        },
        {
          "internalType": "int256",
          "name": "",
          "type": "int256"
        }
      ],
      "stateMutability": "view",
      "type": "function"
    },
    {
      "inputs": [
        {
          "internalType": "int256[2]",
          "name": "_tradeAmounts",
          "type": "int256[2]"
        }
      ],
      "name": "getTradePriceInfo",
      "outputs": [
        {
          "components": [
            {
              "internalType": "uint128",
              "name": "spotPrice",
              "type": "uint128"
            },
            {
              "internalType": "int256[2]",
              "name": "tradePrices",
              "type": "int256[2]"
            },
            {
              "internalType": "int256[2]",
              "name": "fundingRates",
              "type": "int256[2]"
            },
            {
              "internalType": "int256[2]",
              "name": "amountsFundingPaidPerPosition",
              "type": "int256[2]"
            }
          ],
          "internalType": "struct IPerpetualMarketCore.TradePriceInfo",
          "name": "",
          "type": "tuple"
        }
      ],
      "stateMutability": "view",
      "type": "function"
    },
    {
      "inputs": [],
      "name": "getUtilizationRatio",
      "outputs": [
        {
          "internalType": "uint256",
          "name": "",
          "type": "uint256"
        }
      ],
      "stateMutability": "view",
      "type": "function"
    },
    {
      "inputs": [
        {
          "internalType": "address",
          "name": "spender",
          "type": "address"
        },
        {
          "internalType": "uint256",
          "name": "addedValue",
          "type": "uint256"
        }
      ],
      "name": "increaseAllowance",
      "outputs": [
        {
          "internalType": "bool",
          "name": "",
          "type": "bool"
        }
      ],
      "stateMutability": "nonpayable",
      "type": "function"
    },
    {
      "inputs": [
        {
          "internalType": "address",
          "name": "_depositor",
          "type": "address"
        },
        {
          "internalType": "uint256",
          "name": "_depositAmount",
          "type": "uint256"
        },
        {
          "internalType": "int256",
          "name": "_initialFundingRate",
          "type": "int256"
        }
      ],
      "name": "initialize",
      "outputs": [
        {
          "internalType": "uint256",
          "name": "mintAmount",
          "type": "uint256"
        }
      ],
      "stateMutability": "nonpayable",
      "type": "function"
    },
    {
      "inputs": [],
      "name": "lastHedgeSpotPrice",
      "outputs": [
        {
          "internalType": "int256",
          "name": "",
          "type": "int256"
        }
      ],
      "stateMutability": "view",
      "type": "function"
    },
    {
      "inputs": [],
      "name": "name",
      "outputs": [
        {
          "internalType": "string",
          "name": "",
          "type": "string"
        }
      ],
      "stateMutability": "view",
      "type": "function"
    },
    {
      "inputs": [],
      "name": "owner",
      "outputs": [
        {
          "internalType": "address",
          "name": "",
          "type": "address"
        }
      ],
      "stateMutability": "view",
      "type": "function"
    },
    {
      "inputs": [],
      "name": "poolSnapshot",
      "outputs": [
        {
          "internalType": "int128",
          "name": "futureBaseFundingRate",
          "type": "int128"
        },
        {
          "internalType": "int128",
          "name": "ethVariance",
          "type": "int128"
        },
        {
          "internalType": "int128",
          "name": "ethPrice",
          "type": "int128"
        },
        {
          "internalType": "uint128",
          "name": "lastSnapshotTime",
          "type": "uint128"
        }
      ],
      "stateMutability": "view",
      "type": "function"
    },
    {
      "inputs": [
        {
          "internalType": "uint256",
          "name": "",
          "type": "uint256"
        }
      ],
      "name": "pools",
      "outputs": [
        {
          "internalType": "uint128",
          "name": "amountLockedLiquidity",
          "type": "uint128"
        },
        {
          "internalType": "int128",
          "name": "positionPerpetuals",
          "type": "int128"
        },
        {
          "internalType": "uint128",
          "name": "entryPrice",
          "type": "uint128"
        },
        {
          "internalType": "int256",
          "name": "amountFundingPaidPerPosition",
          "type": "int256"
        },
        {
          "internalType": "uint128",
          "name": "lastFundingPaymentTime",
          "type": "uint128"
        }
      ],
      "stateMutability": "view",
      "type": "function"
    },
    {
      "inputs": [],
      "name": "rebalance",
      "outputs": [],
      "stateMutability": "nonpayable",
      "type": "function"
    },
    {
      "inputs": [],
      "name": "renounceOwnership",
      "outputs": [],
      "stateMutability": "nonpayable",
      "type": "function"
    },
    {
      "inputs": [
        {
          "internalType": "uint256",
          "name": "_minSlippageToleranceOfHedge",
          "type": "uint256"
        },
        {
          "internalType": "uint256",
          "name": "_maxSlippageToleranceOfHedge",
          "type": "uint256"
        },
        {
          "internalType": "uint256",
          "name": "_hedgeRateOfReturnThreshold",
          "type": "uint256"
        }
      ],
      "name": "setHedgeParams",
      "outputs": [],
      "stateMutability": "nonpayable",
      "type": "function"
    },
    {
      "inputs": [
        {
          "internalType": "int256",
          "name": "_perpFutureMaxFundingRate",
          "type": "int256"
        }
      ],
      "name": "setPerpFutureMaxFundingRate",
      "outputs": [],
      "stateMutability": "nonpayable",
      "type": "function"
    },
    {
      "inputs": [
        {
          "internalType": "address",
          "name": "_perpetualMarket",
          "type": "address"
        }
      ],
      "name": "setPerpetualMarket",
      "outputs": [],
      "stateMutability": "nonpayable",
      "type": "function"
    },
    {
      "inputs": [
        {
          "internalType": "int256",
          "name": "_poolMarginRiskParam",
          "type": "int256"
        }
      ],
      "name": "setPoolMarginRiskParam",
      "outputs": [],
      "stateMutability": "nonpayable",
      "type": "function"
    },
    {
      "inputs": [
        {
          "internalType": "uint256",
          "name": "_safetyPeriod",
          "type": "uint256"
        },
        {
          "internalType": "uint256",
          "name": "_numBlocksPerSpreadDecreasing",
          "type": "uint256"
        }
      ],
      "name": "setSpreadParams",
      "outputs": [],
      "stateMutability": "nonpayable",
      "type": "function"
    },
    {
      "inputs": [
        {
          "internalType": "int256",
          "name": "_squaredPerpFundingMultiplier",
          "type": "int256"
        }
      ],
      "name": "setSquaredPerpFundingMultiplier",
      "outputs": [],
      "stateMutability": "nonpayable",
      "type": "function"
    },
    {
      "inputs": [
        {
          "internalType": "int256",
          "name": "_tradeFeeRate",
          "type": "int256"
        },
        {
          "internalType": "int256",
          "name": "_protocolFeeRate",
          "type": "int256"
        }
      ],
      "name": "setTradeFeeRate",
      "outputs": [],
      "stateMutability": "nonpayable",
      "type": "function"
    },
    {
      "inputs": [],
      "name": "symbol",
      "outputs": [
        {
          "internalType": "string",
          "name": "",
          "type": "string"
        }
      ],
      "stateMutability": "view",
      "type": "function"
    },
    {
      "inputs": [],
      "name": "totalSupply",
      "outputs": [
        {
          "internalType": "uint256",
          "name": "",
          "type": "uint256"
        }
      ],
      "stateMutability": "view",
      "type": "function"
    },
    {
      "inputs": [
        {
          "internalType": "address",
          "name": "recipient",
          "type": "address"
        },
        {
          "internalType": "uint256",
          "name": "amount",
          "type": "uint256"
        }
      ],
      "name": "transfer",
      "outputs": [
        {
          "internalType": "bool",
          "name": "",
          "type": "bool"
        }
      ],
      "stateMutability": "nonpayable",
      "type": "function"
    },
    {
      "inputs": [
        {
          "internalType": "address",
          "name": "sender",
          "type": "address"
        },
        {
          "internalType": "address",
          "name": "recipient",
          "type": "address"
        },
        {
          "internalType": "uint256",
          "name": "amount",
          "type": "uint256"
        }
      ],
      "name": "transferFrom",
      "outputs": [
        {
          "internalType": "bool",
          "name": "",
          "type": "bool"
        }
      ],
      "stateMutability": "nonpayable",
      "type": "function"
    },
    {
      "inputs": [
        {
          "internalType": "address",
          "name": "newOwner",
          "type": "address"
        }
      ],
      "name": "transferOwnership",
      "outputs": [],
      "stateMutability": "nonpayable",
      "type": "function"
    },
    {
      "inputs": [
        {
          "internalType": "int256[2]",
          "name": "_tradeAmounts",
          "type": "int256[2]"
        }
      ],
      "name": "updatePoolPositions",
      "outputs": [
        {
          "internalType": "uint256[2]",
          "name": "tradePrice",
          "type": "uint256[2]"
        },
        {
          "internalType": "int256[2]",
          "name": "fundingPaidPerPosition",
          "type": "int256[2]"
        },
        {
          "internalType": "uint256",
          "name": "protocolFee",
          "type": "uint256"
        }
      ],
      "stateMutability": "nonpayable",
      "type": "function"
    },
    {
      "inputs": [],
      "name": "updatePoolSnapshot",
      "outputs": [],
      "stateMutability": "nonpayable",
      "type": "function"
    },
    {
      "inputs": [
        {
          "internalType": "address",
          "name": "_withdrawer",
          "type": "address"
        },
        {
          "internalType": "uint256",
          "name": "_withdrawnAmount",
          "type": "uint256"
        }
      ],
      "name": "withdraw",
      "outputs": [
        {
          "internalType": "uint256",
          "name": "burnAmount",
          "type": "uint256"
        }
      ],
      "stateMutability": "nonpayable",
      "type": "function"
    }
  ],
  "transactionHash": "0xe493b98aedf736ffd1895616aa9f23b4f7b084309eff851885b5d4d80551ff0e",
  "args": [
    "0x639Fe6ab55C921f74e7fac1ee960C0B6293ba612",
    "Predy V202 ETH USDC LP Token",
    "PREDY2-ETH-USDC-LP",
    "0x0000000000000000000000000000000000000064"
  ],
  "solcInputHash": "4053827aa146c622da7f45f0acacb57f",
  "bytecode": "0x60806040523480156200001157600080fd5b50604051620053343803806200533483398101604081905262000034916200038c565b8282600062000042620001d9565b600080546001600160a01b0319166001600160a01b0383169081178255604051929350917f8be0079c531659141344cd1fd0a4f28419497f9722a3daafe3b4186f6b6457e0908290a3508151620000a190600490602085019062000228565b508051620000b790600590602084019062000228565b50506006805460ff1916601217905550620000d36008620001dd565b601b80546001600160a01b038087166001600160a01b031992831617909255601c805492841692909116919091179055600080526011602090815262000144907f4ad3b33220dddc71b994a52d72c06b10862965f7d926534c05c00fb7e819e7b79062001b3b620001f3821b17901c565b60016000526011602090815262000186907f17bc176d2408558f6e4111feebc3cab4e16b63e967be91cde721f4c8a488b5529062001b3b620001f3821b17901c565b6200019d6012620001f360201b62001b3b1760201c565b50506320c85580600755505062035b6060085560286009556050600a55622625a0600b55610fa0600c5561c350600d55612710600e5562000419565b3390565b6006805460ff191660ff92909216919091179055565b8054600160801b600160ff1b036001600160801b03918216178255600182018054909116905560056002820155600390810155565b828054600181600116156101000203166002900490600052602060002090601f016020900481019282620002605760008555620002ab565b82601f106200027b57805160ff1916838001178555620002ab565b82800160010185558215620002ab579182015b82811115620002ab5782518255916020019190600101906200028e565b50620002b9929150620002bd565b5090565b5b80821115620002b95760008155600101620002be565b80516001600160a01b0381168114620002ec57600080fd5b919050565b600082601f83011262000302578081fd5b81516001600160401b03808211156200031757fe5b6040516020601f8401601f19168201810183811183821017156200033757fe5b60405283825285840181018710156200034e578485fd5b8492505b8383101562000371578583018101518284018201529182019162000352565b838311156200038257848185840101525b5095945050505050565b60008060008060808587031215620003a2578384fd5b620003ad85620002d4565b60208601519094506001600160401b0380821115620003ca578485fd5b620003d888838901620002f1565b94506040870151915080821115620003ee578384fd5b50620003fd87828801620002f1565b9250506200040e60608601620002d4565b905092959194509250565b614f0b80620004296000396000f3fe608060405234801561001057600080fd5b50600436106102485760003560e01c80637d7c2a1c1161013b578063ac4afa38116100b8578063dd62ed3e1161007c578063dd62ed3e146104f5578063e7dc45d314610508578063f2fde38b1461051b578063f3fef3a31461052e578063f844f2a61461054157610248565b8063ac4afa3814610485578063b02582dc146104a9578063b206ab84146104bc578063bfe51951146104cf578063d0209f96146104e257610248565b806389633081116100ff578063896330811461043a5780638da5cb5b1461044257806395d89b4114610457578063a457c2d71461045f578063a9059cbb1461047257610248565b80637d7c2a1c146103f55780637d8c2659146103fd5780637fc3846714610405578063854ad1b71461041d57806387c3a09a1461043257610248565b806333a37ffb116101c9578063545ed65a1161018d578063545ed65a146103ac5780635cda497d146103b457806370a08231146103c7578063715018a6146103da57806373f3489e146103e257610248565b806333a37ffb1461033a578063395093511461035e5780633d33bcd51461037157806347e7ef241461038657806351c6590a1461039957610248565b80631c2f4e97116102105780631c2f4e97146102c857806323a216c1146102e857806323b872dd146102f05780632e06396414610303578063313ce5671461032557610248565b806306fdde031461024d578063095ea7b31461026b578063128c113f1461028b57806318160ddd146102a0578063192679ed146102b5575b600080fd5b610255610554565b6040516102629190614a34565b60405180910390f35b61027e61027936600461475b565b6105ea565b60405161026291906149a5565b61029e61029936600461480a565b610608565b005b6102a861065c565b60405161026291906149fa565b61029e6102c33660046147d1565b610662565b6102db6102d63660046147b6565b610721565b6040516102629190614b6d565b6102a861081d565b61027e6102fe366004614720565b61087b565b6103166103113660046147b6565b610903565b6040516102629392919061495f565b61032d610afa565b6040516102629190614c00565b61034d61034836600461488b565b610b03565b604051610262959493929190614a11565b61027e61036c36600461475b565b610b38565b610379610b86565b6040516102629190614b4a565b6102a861039436600461475b565b610bd6565b61029e6103a73660046147d1565b610d00565b6102a8610d3d565b61029e6103c23660046148ae565b610d43565b6102a86103d53660046146d4565b610e21565b61029e610e3c565b6102a86103f03660046147d1565b610ee8565b61029e610ff8565b61029e6110e2565b61040d611137565b60405161026294939291906149b0565b610425611161565b6040516102629190614b1d565b61029e611247565b6102a86112aa565b61044a6112b0565b604051610262919061494b565b6102556112bf565b61027e61046d36600461475b565b611320565b61027e61048036600461475b565b611388565b6104986104933660046147d1565b61139c565b604051610262959493929190614bb7565b61029e6104b73660046147d1565b6113dd565b61029e6104ca3660046147e9565b611492565b61029e6104dd3660046147d1565b611577565b61029e6104f03660046147e9565b61161c565b6102a86105033660046146ee565b611774565b6102a8610516366004614784565b61179f565b61029e6105293660046146d4565b611894565b6102a861053c36600461475b565b611996565b61029e61054f3660046146d4565b611a8d565b60048054604080516020601f60026000196101006001881615020190951694909404938401819004810282018101909252828152606093909290918301828280156105e05780601f106105b5576101008083540402835291602001916105e0565b820191906000526020600020905b8154815290600101906020018083116105c357829003601f168201915b5050505050905090565b60006105fe6105f7611b79565b8484611b7d565b5060015b92915050565b601e546001600160a01b0316331461063b5760405162461bcd60e51b815260040161063290614ac3565b60405180910390fd5b6000610645611c69565b50601d8190559050610658601883611d25565b5050565b60035490565b61066a611b79565b6001600160a01b031661067b6112b0565b6001600160a01b0316146106c4576040805162461bcd60e51b81526020600482018190526024820152600080516020614db4833981519152604482015290519081900360640190fd5b600081121580156106d85750620f42408113155b6106e157600080fd5b60088190556040517f0e5502f89db0c53034cbc3f53df6d411d72c6c9b9e711b952d4cc6a30d8ac73d906107169083906149fa565b60405180910390a150565b61072961458a565b6000610733611c69565b50905061073e6145cc565b6107466145cc565b61074e6145cc565b60005b60028110156107ec57600061076982878a6000611e4b565b90505087856002811061077857fe5b6020020187866002811061078857fe5b602002019190915291909152905060006107a183611fd7565b905060006107b18484844261200f565b6000858152601060205260409020600201549091506107d09082612066565b8585600281106107dc57fe5b6020020152505050600101610751565b50604080516080810182526001600160801b039095168552602085019390935291830152606082015290505b919050565b60008060005b60028110156108595760008181526010602052604090205461084f9083906001600160801b03166120cb565b9150600101610823565b50600f546108759061086f836305f5e100612125565b9061217e565b91505090565b60006108888484846121e5565b6108f884610894611b79565b6108f385604051806060016040528060288152602001614d8c602891396001600160a01b038a166000908152600260205260408120906108d2611b79565b6001600160a01b031681526020810191909152604001600020549190612342565b611b7d565b5060015b9392505050565b61090b6145cc565b6109136145cc565b601e546000906001600160a01b031633146109405760405162461bcd60e51b815260040161063290614ac3565b6000600f54116109625760405162461bcd60e51b815260040161063290614aa5565b835160008080526010602052600080516020614d2a8339815191525490916109a29161099d91600160801b909104600f90810b900b906123d9565b61243e565b600080805260106020908152600080516020614d2a83398151915280546001600160801b03908116600160801b600f96870b92909216820217909155908801516001909252600080516020614c3283398151915254610a0d9361099d9392909104810b900b906123d9565b60016000526010602052600080516020614c328339815191528054600f9290920b6001600160801b03908116600160801b029216919091179055845115610a8857600080610a628188815b60200201516124a3565b9188529188529092509050610a7784836120cb565b9350610a838382612066565b925050505b602085015115610ad157600080610aa160018881610a58565b602089810193909352918901929092529092509050610ac084836120cb565b9350610acc8382612066565b925050505b610aef600f54610aea610ae385612561565b84906123d9565b6125a5565b600f55509193909250565b60065460ff1690565b600080600080600080610b14611c69565b509050610b248882896000611e4b565b939c929b5090995097509095509350505050565b60006105fe610b45611b79565b846108f38560026000610b56611b79565b6001600160a01b03908116825260208083019390935260409182016000908120918c1681529252902054906120cb565b610b8e6145ea565b604080516080810180835290916018918391820190839060029082845b815481526020019060010190808311610bab5750505050508152602001600282015481525050905090565b601e546000906001600160a01b03163314610c035760405162461bcd60e51b815260040161063290614ac3565b6000610c0d61065c565b11610c1757600080fd5b6000610c256103f084612561565b9050610cc5610cc0600183601c60009054906101000a90046001600160a01b03166001600160a01b031663a3b1b31d6040518163ffffffff1660e01b815260040160206040518083038186803b158015610c7e57600080fd5b505afa158015610c92573d6000803e3d6000fd5b505050506040513d601f19601f82011682018060405250810190610cb69190614873565b6012929190612633565b61270c565b9050610cdc8161086f85662386f26fc10000612125565b600f54909250610cec90846120cb565b600f55610cf98483612763565b5092915050565b601e546001600160a01b03163314610d2a5760405162461bcd60e51b815260040161063290614ac3565b600f54610d3790826120cb565b600f5550565b601d5481565b610d4b611b79565b6001600160a01b0316610d5c6112b0565b6001600160a01b031614610da5576040805162461bcd60e51b81526020600482018190526024820152600080516020614db4833981519152604482015290519081900360640190fd5b8183108015610db5575060c88211155b610dd15760405162461bcd60e51b815260040161063290614ae1565b6009839055600a829055600b8190556040517f40eadc083dad26c82ca6e52052119f861019dc8b168294cc37f793801b6494a090610e1490859085908590614bea565b60405180910390a1505050565b6001600160a01b031660009081526001602052604090205490565b610e44611b79565b6001600160a01b0316610e556112b0565b6001600160a01b031614610e9e576040805162461bcd60e51b81526020600482018190526024820152600080516020614db4833981519152604482015290519081900360640190fd5b600080546040516001600160a01b03909116907f8be0079c531659141344cd1fd0a4f28419497f9722a3daafe3b4186f6b6457e0908390a3600080546001600160a01b0319169055565b600080610ef3611c69565b5090506000610f19610f0760018487612855565b610f1360008588612855565b90612066565b6040805160808101808352929350600092610f7692869291601891839190820190839060029082845b815481526020019060010190808311610f42575050505050815260200160028201548152505061293d90919063ffffffff16565b9050610fef610f8361065c565b6010602052600080516020614c328339815191525460008052600080516020614d2a83398151915254600f5461086f92662386f26fc1000092610fe9926001600160801b0392831692610fe392169082908b90610f13908c908290612561565b9061298a565b90612125565b95945050505050565b601e546001600160a01b031633146110225760405162461bcd60e51b815260040161063290614ac3565b600061102c611c69565b50905060005b600281101561065857600080600061104a84866129e7565b909350905061105c8484836002612ae0565b9094509250508115905061107a57611076600f54826125a5565b600f555b81156110d8576000838152601060205260409020546110ab906110a6906001600160801b0316846125a5565b612c26565b600084815260106020526040902080546001600160801b0319166001600160801b03929092169190911790555b5050600101611032565b601e546001600160a01b0316331461110c5760405162461bcd60e51b815260040161063290614ac3565b6000611116611c69565b50905060005b60028110156106585761112f8183612c6a565b60010161111c565b601654601754600f82810b92600160801b90819004820b929182900b91046001600160801b031684565b61116961460a565b6000611173611c69565b506010602052600080516020614d2a8339815191525460016000908152600080516020614c32833981519152549293509182916111ca918591600160801b90819004600f90810b810b9291909104810b900b612daf565b915091506111d66145cc565b82815260208101829052601a546111ee908286612dfe565b945060006111fb85612ea4565b90508560600151156112295761122261271061086f61121a82856120cb565b895190612125565b865261123f565b61123c61271061086f61121a828561298a565b86525b505050505090565b601e546001600160a01b031633146112715760405162461bcd60e51b815260040161063290614ac3565b60175461a8c06001600160801b03600160801b90920482160116421015611297576112a8565b6112a042612f27565b6112a86130ac565b565b600f5481565b6000546001600160a01b031690565b60058054604080516020601f60026000196101006001881615020190951694909404938401819004810282018101909252828152606093909290918301828280156105e05780601f106105b5576101008083540402835291602001916105e0565b60006105fe61132d611b79565b846108f385604051806060016040528060258152602001614eb16025913960026000611357611b79565b6001600160a01b03908116825260208083019390935260409182016000908120918d16815292529020549190612342565b60006105fe611395611b79565b84846121e5565b60106020526000908152604090208054600182015460028301546003909301546001600160801b0380841694600160801b909404600f0b9392811692911685565b6113e5611b79565b6001600160a01b03166113f66112b0565b6001600160a01b03161461143f576040805162461bcd60e51b81526020600482018190526024820152600080516020614db4833981519152604482015290519081900360640190fd5b60008112158015611454575063773594008113155b61145d57600080fd5b60078190556040517ffd74ba77488a6a7a45711e7c3469f918238eb90178880837da4a029a93ccf375906107169083906149fa565b61149a611b79565b6001600160a01b03166114ab6112b0565b6001600160a01b0316146114f4576040805162461bcd60e51b81526020600482018190526024820152600080516020614db4833981519152604482015290519081900360640190fd5b806000131580156115085750620493e08213155b801561151357508181125b61152f5760405162461bcd60e51b815260040161063290614ae1565b600d829055600e8190556040517fbacb10fce6db592e49a2f13ebfa4af23c68a1ddc3962bc0818478a518f3fa95f9061156b9084908490614a03565b60405180910390a15050565b61157f611b79565b6001600160a01b03166115906112b0565b6001600160a01b0316146115d9576040805162461bcd60e51b81526020600482018190526024820152600080516020614db4833981519152604482015290519081900360640190fd5b60008112156115e757600080fd5b600c8190556040517f8e6edd6f6b5a50f0d6a8f356374101e297ba1ac391a14aaa3248ba40d7665e73906107169083906149fa565b611624611b79565b6001600160a01b03166116356112b0565b6001600160a01b03161461167e576040805162461bcd60e51b81526020600482018190526024820152600080516020614db4833981519152604482015290519081900360640190fd5b6102588211156116a05760405162461bcd60e51b815260040161063290614ae1565b8060001080156116b257506102588111155b6116ce5760405162461bcd60e51b815260040161063290614ae1565b6000805260116020526117027f4ad3b33220dddc71b994a52d72c06b10862965f7d926534c05c00fb7e819e7b783836130be565b600160005260116020526117377f17bc176d2408558f6e4111feebc3cab4e16b63e967be91cde721f4c8a488b55283836130be565b611743601283836130be565b7ff2450f3986de0a389b21b7df0371586ea26c539d4a18d0b39542308db22a48c2828260405161156b929190614a03565b6001600160a01b03918216600090815260026020908152604080832093909416825291909152205490565b601e546000906001600160a01b031633146117cc5760405162461bcd60e51b815260040161063290614ac3565b6117d461065c565b156117de57600080fd5b508160006117ea611c69565b5090506117f68361243e565b60168054600f9290920b6001600160801b03908116600160801b0292169190911790556118228161243e565b60178054600f9290920b6001600160801b03166001600160801b031990921691909117905561185042612c26565b601780546001600160801b03928316600160801b029216919091179055601d819055600f5461187f90856120cb565b600f5561188c8583612763565b509392505050565b61189c611b79565b6001600160a01b03166118ad6112b0565b6001600160a01b0316146118f6576040805162461bcd60e51b81526020600482018190526024820152600080516020614db4833981519152604482015290519081900360640190fd5b6001600160a01b03811661193b5760405162461bcd60e51b8152600401808060200182810382526026815260200180614c746026913960400191505060405180910390fd5b600080546040516001600160a01b03808516939216917f8be0079c531659141344cd1fd0a4f28419497f9722a3daafe3b4186f6b6457e091a3600080546001600160a01b0319166001600160a01b0392909216919091179055565b601e546000906001600160a01b031633146119c35760405162461bcd60e51b815260040161063290614ac3565b816119cc6130ce565b10156119ea5760405162461bcd60e51b815260040161063290614aff565b6000611a006119f884612561565b600003610ee8565b9050611a59610cc0600083601c60009054906101000a90046001600160a01b03166001600160a01b031663a3b1b31d6040518163ffffffff1660e01b815260040160206040518083038186803b158015610c7e57600080fd5b9050611a708161086f85662386f26fc10000612125565b600f54909250611a80908461298a565b600f55610cf9848361314d565b611a95611b79565b6001600160a01b0316611aa66112b0565b6001600160a01b031614611aef576040805162461bcd60e51b81526020600482018190526024820152600080516020614db4833981519152604482015290519081900360640190fd5b601e546001600160a01b0316158015611b1057506001600160a01b03811615155b611b1957600080fd5b601e80546001600160a01b0319166001600160a01b0392909216919091179055565b80546f7fffffffffffffffffffffffffffffff60801b6001600160801b03918216178255600182018054909116905560056002820155600390810155565b3390565b6001600160a01b038316611bc25760405162461bcd60e51b8152600401808060200182810382526024815260200180614e416024913960400191505060405180910390fd5b6001600160a01b038216611c075760405162461bcd60e51b8152600401808060200182810382526022815260200180614c9a6022913960400191505060405180910390fd5b6001600160a01b03808416600081815260026020908152604080832094871680845294825291829020859055815185815291517f8c5be1e5ebec7d5bd14f71427d1e84f3dd0314c0f7b2291e5b200ac8c7c3b9259281900390910190a3505050565b600080600080601b60009054906101000a90046001600160a01b03166001600160a01b031663feaf968c6040518163ffffffff1660e01b815260040160a06040518083038186803b158015611cbd57600080fd5b505afa158015611cd1573d6000803e3d6000fd5b505050506040513d601f19601f82011682018060405250810190611cf591906148d9565b5093505092505060008213611d1c5760405162461bcd60e51b815260040161063290614a87565b90925090509091565b6000611d4d662386f26fc1000061086f8460400151856000015161212590919063ffffffff16565b8251909150600090611d5f908361298a565b90506000836020015111611d9f576040805162461bcd60e51b81526020600482015260026024820152614e3160f01b604482015290519081900360640190fd5b826060015115611df95760208301516002850154611dbc916120cb565b6002850155611dd9611dcd83612561565b8560005b0154906123d9565b8455611def611de782612561565b856001611dd1565b8460010155611e45565b60208301516002850154611e0c9161298a565b6002850155611e29611e1d83612561565b8560005b015490612066565b8455611e3f611e3782612561565b856001611e21565b84600101555b50505050565b600080600080600080878a60028110611e6057fe5b602002015115611ea7576000806000611e7a8d8d8d613249565b9250925092506000611e8e8e858585612ae0565b919650909150611ea090508b82612066565b9a50505050505b60008a815260106020526040812054611ece90600160801b9004600f90810b900b8c6133d0565b9050611efc8b8b60008c8f60028110611ee357fe5b60200201511384611ef5600f54612561565b878e61343b565b939a50919850909550909350611f2f90508b611f188385612066565b611f278b610f13600f54612561565b6000806134d4565b945050611fc96000898c60028110611f4357fe5b6020908102919091015160008e815260118352604090819020815160c08101835281546001600160801b038082168352600160801b91829004600f90810b810b810b97840197909752600184015490811694830194909452909204840b840b90930b60608201526002830154608082015260039092015460a083015290911288426135b3565b955050945094509450945094565b60008181526010602052604081205461060290839061200490600160801b9004600f90810b900b826133d0565b611f27600f54612561565b60006120296305f5e10061202386866137e8565b90613891565b600086815260106020526040902060030154909150610fef9062015180906120239061205f9086906001600160801b031661298a565b84906137e8565b600082820181831280159061207b5750838112155b80612090575060008312801561209057508381125b6108fc5760405162461bcd60e51b8152600401808060200182810382526021815260200180614d096021913960400191505060405180910390fd5b6000828201838110156108fc576040805162461bcd60e51b815260206004820152601b60248201527f536166654d6174683a206164646974696f6e206f766572666c6f770000000000604482015290519081900360640190fd5b60008261213457506000610602565b8282028284828161214157fe5b04146108fc5760405162461bcd60e51b8152600401808060200182810382526021815260200180614d6b6021913960400191505060405180910390fd5b60008082116121d4576040805162461bcd60e51b815260206004820152601a60248201527f536166654d6174683a206469766973696f6e206279207a65726f000000000000604482015290519081900360640190fd5b8183816121dd57fe5b049392505050565b6001600160a01b03831661222a5760405162461bcd60e51b8152600401808060200182810382526025815260200180614e1c6025913960400191505060405180910390fd5b6001600160a01b03821661226f5760405162461bcd60e51b8152600401808060200182810382526023815260200180614c0f6023913960400191505060405180910390fd5b61227a838383613949565b6122b781604051806060016040528060268152602001614cbc602691396001600160a01b0386166000908152600160205260409020549190612342565b6001600160a01b0380851660009081526001602052604080822093909355908416815220546122e690826120cb565b6001600160a01b0380841660008181526001602090815260409182902094909455805185815290519193928716927fddf252ad1be2c89b69c2b068fc378daa952ba7f163c4a11628f55a4df523b3ef92918290030190a3505050565b600081848411156123d15760405162461bcd60e51b81526004018080602001828103825283818151815260200191508051906020019080838360005b8381101561239657818101518382015260200161237e565b50505050905090810190601f1680156123c35780820380516001836020036101000a031916815260200191505b509250505060405180910390fd5b505050900390565b60008183038183128015906123ee5750838113155b80612403575060008312801561240357508381135b6108fc5760405162461bcd60e51b8152600401808060200182810382526024815260200180614e8d6024913960400191505060405180910390fd5b60006f7fffffffffffffffffffffffffffffff19821215801561246457506001607f1b82125b61249f5760405162461bcd60e51b8152600401808060200182810382526027815260200180614ce26027913960400191505060405180910390fd5b5090565b60008060008060006124b3611c69565b5090506124c187828861394e565b6000898152601060205260408120600181015490549398509195509161250d916001600160801b03169061250390600160801b9004600f90810b900b8a612066565b888a600003613a91565b9350905061251d6110a68261270c565b60008981526010602052604090206001810180546001600160801b03939093166001600160801b031990931692909217909155600201549450505092959194509250565b6000600160ff1b821061249f5760405162461bcd60e51b8152600401808060200182810382526028815260200180614e656028913960400191505060405180910390fd5b6000808212156125f55782826000038403915081106125f0576040805162461bcd60e51b815260206004820152600260248201526104d360f41b604482015290519081900360640190fd5b610602565b5080820182811015610602576040805162461bcd60e51b81526020600482015260026024820152614d3160f01b604482015290519081900360640190fd5b6040805160c08101825285546001600160801b038082168352600160801b91829004600f90810b810b602085015260018901549182169484019490945204820b90910b606082015260028501546080820152600385015460a082015260009061269e818686866135b3565b815187546020840151600f90810b6001600160801b03908116600160801b9081029482166001600160801b0319948516178216949094178b5560408601516001909b01805460609097015190920b811690930299831694909116939093171696909617905550929392505050565b60008082121561249f576040805162461bcd60e51b815260206004820181905260248201527f53616665436173743a2076616c7565206d75737420626520706f736974697665604482015290519081900360640190fd5b6001600160a01b0382166127be576040805162461bcd60e51b815260206004820152601f60248201527f45524332303a206d696e7420746f20746865207a65726f206164647265737300604482015290519081900360640190fd5b6127ca60008383613949565b6003546127d790826120cb565b6003556001600160a01b0382166000908152600160205260409020546127fd90826120cb565b6001600160a01b03831660008181526001602090815260408083209490945583518581529351929391927fddf252ad1be2c89b69c2b068fc378daa952ba7f163c4a11628f55a4df523b3ef9281900390910190a35050565b6000806128606145cc565b600080516020614d2a83398151915254600160801b90819004600f90810b810b8352600080516020614c3283398151915254829004810b810b60208481019190915260008981526010909152604090205491909104810b900b156129345760006128cc87878488611e4b565b5050506000898152601060205260409020600101549192506305f5e10091612928915061290590610ae3906001600160801b0316612561565b60008a815260106020526040902054600160801b9004600f90810b900b906137e8565b8161292f57fe5b059250505b50949350505050565b60008061295f6305f5e1006120236129588760200151612561565b86906137e8565b84516020810151919250612982918391610f13919060005b602002015190612066565b949350505050565b6000828211156129e1576040805162461bcd60e51b815260206004820152601e60248201527f536166654d6174683a207375627472616374696f6e206f766572666c6f770000604482015290519081900360640190fd5b50900390565b6010602052600080516020614d2a8339815191525460016000908152600080516020614c32833981519152549091829182918291612a3e918791600160801b91829004600f90810b810b92909104810b900b612daf565b600160008181526010602052600080516020614c328339815191525493955091935090916305f5e10091612a8a91600160801b9004600f90810b900b90612a8490613bb7565b906137e8565b81612a9157fe5b059050612ad2876040518060a00160405280868152602001858152602001848152602001898152602001600c548152506018613c0a9092919063ffffffff16565b909890975095505050505050565b600080600080861315612bc45760008512612b245785612afe6130ce565b1015612b1c5760405162461bcd60e51b815260040161063290614aa5565b859150612bbf565b600087815260106020526040902054612b5090612b49906001600160801b0316612561565b86906123d9565b600088815260106020526040902054612b71906001600160801b0316612561565b60000392509050612b828686612066565b612b8a6130ce565b1015612ba85760405162461bcd60e51b815260040161063290614aa5565b612bbc612bb58787612066565b8390612066565b91505b612bf5565b6000861215612bf557600087815260106020526040902054612bf0906001600160801b03168787613ca0565b925090505b600087815260106020526040902054612c1a90859084906001600160801b0316613cd0565b92509450945094915050565b6000600160801b821061249f5760405162461bcd60e51b8152600401808060200182810382526027815260200180614ce26027913960400191505060405180910390fd5b6000828152601060205260409020600301546001600160801b0316612cb857600082815260106020526040902060030180546001600160801b031916426001600160801b0316179055610658565b6000828152601060205260409020600301546001600160801b03164211612cde57610658565b6000806000612cee858542613d4f565b6000888152601060205260409020600201549295509093509150612d129083612066565b6000868152601060205260409020600201558015612d3a57612d36600f54826125a5565b600f555b600085815260106020526040908190206003810180546001600160801b031916426001600160801b03161790556002015490517f3e5170eaa3b2dec8bb1a3e32834aed10d5bbdb77abda3b065447543099eaebfa91612da0918891879187908790614a11565b60405180910390a15050505050565b60008060006305f5e100612dc886612a8460008a613dc0565b81612dcf57fe5b05905060006305f5e100612de886612a8460018b613dc0565b81612def57fe5b92989205965090945050505050565b612e0661460a565b6000612e1185612561565b90506000612e2c82610f138760016020020151886000612977565b602086015160009182039250612e43908783612977565b1315612e50578160000390505b600081136060840152612e6281613df8565b60208401526305f5e100612e7985610fe984613df8565b81612e8057fe5b04835284516020860151612e9691600091613e0b565b604084015250509392505050565b600080612ed2612ecd601d546120236305f5e100612a84601d54896123d990919063ffffffff16565b613df8565b9050612eff612ef6600b5461086f84600954600a540361212590919063ffffffff16565b600954906120cb565b9150600954821015612f115760095491505b600a54821115612f2157600a5491505b50919050565b6000612f31611c69565b50601754909150600090612f5890600f90810b900b6120236305f5e100612a8486846123d9565b90506000612f6e6305f5e10061202384806137e8565b601754909150612fa090612f9390600160801b90046001600160801b03168603612561565b61202383620151806137e8565b9050612fe76305f5e100612fda612fba625b8d80856137e8565b601654610f139063059a538090600160801b9004600f90810b900b6137e8565b81612fe157fe5b0561243e565b60168054600f9290920b6001600160801b03908116600160801b0292169190911790556130138361243e565b60178054600f9290920b6001600160801b03166001600160801b031990921691909117905561304184612c26565b601780546001600160801b03908116600160801b93909116830217908190556016546040517fc0286f283c0343297f024da33b37cbae636c6f78d8b29803dd94a72c09d44b1a9361309e939204600f90810b92900b9088906149dc565b60405180910390a150505050565b601680546001600160801b0319169055565b6002830191909155600390910155565b60008060005b600281101561313f576000818152601060205260409020546131009083906001600160801b03166120cb565b915060006018826002811061311157fe5b0154121561313757613134826018836002811061312a57fe5b01546000036125a5565b91505b6001016130d4565b50600f54610875908261298a565b6001600160a01b0382166131925760405162461bcd60e51b8152600401808060200182810382526021815260200180614dfb6021913960400191505060405180910390fd5b61319e82600083613949565b6131db81604051806060016040528060228152602001614c52602291396001600160a01b0385166000908152600160205260409020549190612342565b6001600160a01b038316600090815260016020526040902055600354613201908261298a565b6003556040805182815290516000916001600160a01b038516917fddf252ad1be2c89b69c2b068fc378daa952ba7f163c4a11628f55a4df523b3ef9181900360200190a35050565b6010602052600080516020614d2a8339815191525460016000908152600080516020614c32833981519152548351919283928392839283928392600160801b92839004600f90810b810b93909104810b900b906132a79083906123d9565b91506132bb896001602002015182906123d9565b90508a6132d7576132d4828a60005b6020020151613eb2565b95505b8a600114156132ef576132ec818a60016132ca565b95505b6132fa8a8383612daf565b90955093506305f5e10061331282612a846001613bb7565b8161331957fe5b059250505060006040518060a001604052808581526020018481526020018381526020018a8152602001600c54815250905060006133578b83613f2a565b60408051608081018083529293506133b49285928f9291601891839190820190839060029082845b81548152602001906001019080831161337f5750505050508152602001600282015481525050613fd99092919063ffffffff16565b96506133c081886123d9565b9750505050505093509350939050565b6000826133df57506000610602565b600083131561341357600082815260106020526040902054613409906001600160801b0316612561565b6000039050610602565b600082815260106020526040902054613434906001600160801b0316612561565b9050610602565b6000806000806000806134518d8b8b8b8b6134d4565b905061345d8d8d614068565b94506000613480662386f26fc100006120236134798286612066565b89906137e8565b905061348d8e8d8861408f565b93506134998185612066565b90506134a58e876140fe565b92508086836134bb6134b688613df8565b612561565b9650965096509650505097509750975097509792505050565b60008561351c5760006134fd6305f5e1006120236134f489888a8961413c565b600854906137e8565b60165490915061351490600f90810b900b82612066565b915050610fef565b85600114156135a757836135505760165461354990600160801b9004600f90810b900b6305f5e1006137e8565b9050610fef565b60006135726305f5e10061202361356989888a8961413c565b600754906137e8565b90506135146305f5e100612023613590662386f26fc1000085612066565b601654600160801b9004600f90810b900b906137e8565b50600095945050505050565b608084015182906135c5575081612982565b83156136d8578460800151820385604001516001600160801b031610613688578460600151600f0b81121561368857600061361b8660a0015187604001516001600160801b031685038161361557fe5b04612561565b905061271061363e82612710038860600151600f0b6137e890919063ffffffff16565b8161364557fe5b05821361367d57613670612710612fda83612710038960600151600f0b6137e890919063ffffffff16565b600f90810b900b60608701525b50506060840151600f0b5b808560200151600f0b13806136ac5750608085015185516001600160801b03160182115b156136c7576136ba8161243e565b600f90810b900b60208601525b6001600160801b0382168552612982565b8460800151820385600001516001600160801b03161061378f578460200151600f0b81131561378f5760006137228660a0015187600001516001600160801b031685038161361557fe5b905061271061374582612710018860200151600f0b6137e890919063ffffffff16565b8161374c57fe5b05821261378457613777612710612fda83612710018960200151600f0b6137e890919063ffffffff16565b600f90810b900b60208701525b50506020840151600f0b5b808560600151600f0b12806137b6575081856080015186604001516001600160801b031601105b156137d1576137c48161243e565b600f90810b900b60608601525b6001600160801b0382166040860152949350505050565b6000826137f757506000610602565b8260001914801561380b5750600160ff1b82145b156138475760405162461bcd60e51b8152600401808060200182810382526027815260200180614dd46027913960400191505060405180910390fd5b8282028284828161385457fe5b05146108fc5760405162461bcd60e51b8152600401808060200182810382526027815260200180614dd46027913960400191505060405180910390fd5b6000816138e5576040805162461bcd60e51b815260206004820181905260248201527f5369676e6564536166654d6174683a206469766973696f6e206279207a65726f604482015290519081900360640190fd5b816000191480156138f95750600160ff1b83145b156139355760405162461bcd60e51b8152600401808060200182810382526021815260200180614d4a6021913960400191505060405180910390fd5b600082848161394057fe5b05949350505050565b505050565b60008060008060008061396189896129e7565b60008b815260106020526040902054919550915061399c908a908690849061399790600160801b9004600f90810b900b8c613eb2565b612ae0565b60008c81526010602052604081205492975092955093509091506139d8906139d290600160801b9004600f90810b900b89612066565b8a6133d0565b90506000806139eb8b8b8b8689896141bd565b9150915083600014613a0757613a03600f54856125a5565b600f555b60008b815260106020526040902054613a2d906110a6906001600160801b0316886125a5565b60008c815260106020526040902080546001600160801b0319166001600160801b0392909216919091179055613a628261270c565b613a7f6305f5e10061086f613a768d613df8565b610fe98661270c565b97509750505050505050935093915050565b60008080613a9f8685612066565b9050851580613ab95750600086138015613ab95750600084135b80613acf5750600086128015613acf5750600084125b15613b0d57613b06613ae4612ecd8887612066565b612023613af361347988613df8565b610f13613aff8b613df8565b8c906137e8565b9250613bad565b600086138015613b1d5750600084125b8015613b295750600081135b80613b4b5750600086128015613b3f5750600084135b8015613b4b5750600081125b15613b7f578692506305f5e100613b70613b6587866123d9565b6000879003906137e8565b81613b7757fe5b059150613bad565b8015613b89578492505b6305f5e100613ba2613b9b878a6123d9565b88906137e8565b81613ba957fe5b0591505b5094509492505050565b600081613bc657506000610818565b8160011415613bd85750614e20610818565b6040805162461bcd60e51b815260206004820152600260248201526104e560f41b604482015290519081900360640190fd5b6000806000613c198585613f2a565b6040805160808101808352929350613c6992909189918391820190839060029082845b815481526020019060010190808311613c3c57505050505081526020016002820154815250508587613fd9565b9150613c7581836123d9565b9250613c8783878760028110611e2157fe5b868660028110613c9357fe5b0155509094909350915050565b600080613cba83612023613cb388612561565b87906137e8565b9050613cc681856123d9565b9150935093915050565b60006003846003811115613ce057fe5b1415613cfc57613cf583610f138460026137e8565b90506108fc565b6001846003811115613d0a57fe5b1415613d2957613d1f83610f138460026137e8565b60000390506108fc565b6002846003811115613d3757fe5b1415613d48578260000390506108fc565b50816108fc565b600080600080613d5f8787614068565b9050613d6a87611fd7565b9350613d788782868861200f565b600088815260106020526040812054919450613db491662386f26fc1000091612023918791600160801b909104600f90810b909103900b6137e8565b91505093509350939050565b600082613dd257506305f5e100610602565b8260011415613bd857612710613de98360026137e8565b81613df057fe5b059050610602565b60008082121561249f5781600003610602565b600080613e29613e1a84613df8565b613e2386613df8565b906120cb565b905080613e3a5760009150506108fc565b84613e5f57613e578161086f662386f26fc10000610fe988613df8565b9150506108fc565b8460011415613e8057613e578161086f662386f26fc10000610fe987613df8565b6040805162461bcd60e51b815260206004820152600260248201526104e360f41b604482015290519081900360640190fd5b600080613ebf8484612066565b9050600081138015613ed15750600084125b15613ee0576003915050610602565b600081128015613ef05750600084135b15613eff576001915050610602565b60008112158015613f11575060008412155b15613f20576002915050610602565b6000915050610602565b600080613f408484600001518560200151614290565b905060008460011415613f7c57613f7964e8d4a510006120238660400151612a84886060015189608001516137e890919063ffffffff16565b90505b6000613fac6305f5e100612023613fa16134b6613f9887613df8565b613e2389613df8565b6060890151906137e8565b9050613fcf612710612023838860800151612710016137e890919063ffffffff16565b9695505050505050565b600080613fff6305f5e100612023613ff48860200151612561565b6060880151906137e8565b9050600061402f662386f26fc100006120236140286134b660008a600001518b60200151613e0b565b85906137e8565b905083600114156140475761404482826123d9565b90505b600061405d828860000151876002811061297757fe5b979650505050505050565b600082614076575080610602565b8260011415613bd85764e8d4a51000613de983806137e8565b600080821361409d57600080fd5b82156140d3576305f5e1006140c485600101612a84600d54866137e890919063ffffffff16565b816140cb57fe5b0590506108fc565b6305f5e1006140f485600101612a84600d54866137e890919063ffffffff16565b600003816140cb57fe5b600080821361410c57600080fd5b6305f5e10061412d84600101612a84600e54866137e890919063ffffffff16565b8161413457fe5b059392505050565b6000808313614187576040805162461bcd60e51b81526020600482015260126024820152716c206d75737420626520706f73697469766560701b604482015290519081900360640190fd5b610fef600a6120236141a661419e898989896142bb565b6007906137e8565b610f136141b58a8a8a8a61436b565b6003906137e8565b6000806141dc888860008913886141d5600f54612561565b898961343b565b601c546040805163a3b1b31d60e01b815290519698509196506142839560008d1395508894506001600160a01b03909116925063a3b1b31d91600480820192602092909190829003018186803b15801561423557600080fd5b505afa158015614249573d6000803e3d6000fd5b505050506040513d601f19601f8201168201806040525081019061426d9190614873565b60008c8152601160205260409020929190612633565b9150965096945050505050565b60008061429d8484612066565b9050610fef662386f26fc1000061202361205f6134b6898989613e0b565b6000806142cc86612a8481806137e8565b90506142ee6142e760026120236003612a848a818d806137e8565b8290612066565b90506143016142e786612a8489826137e8565b90506143196142e7600461202388612a8481806137e8565b905061432f846120238181856305f5e1006137e8565b9050613fcf61433e8585612066565b61202361434b8787612066565b6120236305f5e100612a84613b9b6143648b6002613891565b8c90612066565b6000816143955761438e83612023662386f26fc10000612a848960028a05612066565b9050612982565b61438e826120236305f5e100612a846143bd6143b8610cc08a868686838b612066565b6143ca565b612a848b60028c05612066565b60008080805b60088110156144305760006143e484614439565b905061441261440b6143f68884612066565b6120236305f5e100612a846002818d896123d9565b8590612066565b9250838314156144225750614430565b5090915081906001016143d0565b50909392505050565b6000816000136144535761444c82614486565b9050610818565b640177825eff1982121561446957506000610818565b61444c61447883600003614486565b61086f6305f5e10080612125565b60008161449857506305f5e100610818565b6402540be4008211156144d7576040805162461bcd60e51b8152602060048201526002602482015261134d60f21b604482015290519081900360640190fd5b60006305f5e1006144f86144f3630421a89e61086f8785612125565b61457e565b816144ff57fe5b049050600281900a600061452161451a84630421a89e612125565b869061298a565b90506305f5e100600060105b8015614573576145586305f5e100613e236305f5e10061086f85898161454f57fe5b89919004612125565b92508183141561456757614573565b8291506000190161452d565b5061405d8483612125565b6305f5e1008106900390565b604051806080016040528060006001600160801b031681526020016145ad6145cc565b81526020016145ba6145cc565b81526020016145c76145cc565b905290565b60405180604001604052806002906020820280368337509192915050565b60405180604001604052806145fd6145cc565b8152602001600081525090565b60405180608001604052806000815260200160008152602001600081526020016000151581525090565b80356001600160a01b038116811461081857600080fd5b600082601f83011261465b578081fd5b6040516040810181811067ffffffffffffffff8211171561467857fe5b806040525080838560408601111561468e578384fd5b835b60028110156146af578135835260209283019290910190600101614690565b509195945050505050565b805169ffffffffffffffffffff8116811461081857600080fd5b6000602082840312156146e5578081fd5b6108fc82614634565b60008060408385031215614700578081fd5b61470983614634565b915061471760208401614634565b90509250929050565b600080600060608486031215614734578081fd5b61473d84614634565b925061474b60208501614634565b9150604084013590509250925092565b6000806040838503121561476d578182fd5b61477683614634565b946020939093013593505050565b600080600060608486031215614798578283fd5b6147a184614634565b95602085013595506040909401359392505050565b6000604082840312156147c7578081fd5b6108fc838361464b565b6000602082840312156147e2578081fd5b5035919050565b600080604083850312156147fb578182fd5b50508035926020909101359150565b60006080828403121561481b578081fd5b6040516080810181811067ffffffffffffffff8211171561483857fe5b806040525082358152602083013560208201526040830135604082015260608301358015158114614867578283fd5b60608201529392505050565b600060208284031215614884578081fd5b5051919050565b6000806060838503121561489d578182fd5b82359150614717846020850161464b565b6000806000606084860312156148c2578081fd5b505081359360208301359350604090920135919050565b600080600080600060a086880312156148f0578283fd5b6148f9866146ba565b945060208601519350604086015192506060860151915061491c608087016146ba565b90509295509295909350565b8060005b6002811015611e4557815184526020938401939091019060010161492c565b6001600160a01b0391909116815260200190565b60a08101818560005b6002811015614987578151835260209283019290910190600101614968565b5050506149976040830185614928565b826080830152949350505050565b901515815260200190565b600f94850b815292840b6020840152920b60408201526001600160801b03909116606082015260800190565b600f93840b81529190920b6020820152604081019190915260600190565b90815260200190565b918252602082015260400190565b948552602085019390935260408401919091526060830152608082015260a00190565b6000602080835283518082850152825b81811015614a6057858101830151858201604001528201614a44565b81811115614a715783604083870101525b50601f01601f1916929092016040019392505050565b602080825260049082015263504d433360e01b604082015260600190565b602080825260049082015263504d433160e01b604082015260600190565b6020808252600490820152632826a19960e11b604082015260600190565b602080825260049082015263504d433560e01b604082015260600190565b6020808252600490820152630504d43360e41b604082015260600190565b81518152602080830151908201526040808301519082015260609182015115159181019190915260800190565b6000606082019050614b5d828451614928565b6020830151604083015292915050565b81516001600160801b0316815260208083015160e0830191614b9190840182614928565b506040830151614ba46060840182614928565b506060830151610cf960a0840182614928565b6001600160801b039586168152600f9490940b602085015291841660408401526060830152909116608082015260a00190565b9283526020830191909152604082015260600190565b60ff9190911681526020019056fe45524332303a207472616e7366657220746f20746865207a65726f20616464726573738c6065603763fec3f5742441d3833f3f43b982453612d76adb39a885e3006b5f45524332303a206275726e20616d6f756e7420657863656564732062616c616e63654f776e61626c653a206e6577206f776e657220697320746865207a65726f206164647265737345524332303a20617070726f766520746f20746865207a65726f206164647265737345524332303a207472616e7366657220616d6f756e7420657863656564732062616c616e636553616665436173743a2076616c756520646f65736e27742066697420696e2031323820626974735369676e6564536166654d6174683a206164646974696f6e206f766572666c6f776e0956cda88cad152e89927e53611735b61a5c762d1428573c6931b0a5efcb015369676e6564536166654d6174683a206469766973696f6e206f766572666c6f77536166654d6174683a206d756c7469706c69636174696f6e206f766572666c6f7745524332303a207472616e7366657220616d6f756e74206578636565647320616c6c6f77616e63654f776e61626c653a2063616c6c6572206973206e6f7420746865206f776e65725369676e6564536166654d6174683a206d756c7469706c69636174696f6e206f766572666c6f7745524332303a206275726e2066726f6d20746865207a65726f206164647265737345524332303a207472616e736665722066726f6d20746865207a65726f206164647265737345524332303a20617070726f76652066726f6d20746865207a65726f206164647265737353616665436173743a2076616c756520646f65736e27742066697420696e20616e20696e743235365369676e6564536166654d6174683a207375627472616374696f6e206f766572666c6f7745524332303a2064656372656173656420616c6c6f77616e63652062656c6f77207a65726fa2646970667358221220ac6894026d05d6f527ccf41fee0fe8cde301a3c735fc5a80cf0a6c912de968a064736f6c63430007060033",
  "devdoc": {
    "kind": "dev",
    "methods": {
      "allowance(address,address)": {
        "details": "See {IERC20-allowance}."
      },
      "approve(address,uint256)": {
        "details": "See {IERC20-approve}. Requirements: - `spender` cannot be the zero address."
      },
      "balanceOf(address)": {
        "details": "See {IERC20-balanceOf}."
      },
      "decimals()": {
        "details": "Returns the number of decimals used to get its user representation. For example, if `decimals` equals `2`, a balance of `505` tokens should be displayed to a user as `5,05` (`505 / 10 ** 2`). Tokens usually opt for a value of 18, imitating the relationship between Ether and Wei. This is the value {ERC20} uses, unless {_setupDecimals} is called. NOTE: This information is only used for _display_ purposes: it in no way affects any of the arithmetic of the contract, including {IERC20-balanceOf} and {IERC20-transfer}."
      },
      "decreaseAllowance(address,uint256)": {
        "details": "Atomically decreases the allowance granted to `spender` by the caller. This is an alternative to {approve} that can be used as a mitigation for problems described in {IERC20-approve}. Emits an {Approval} event indicating the updated allowance. Requirements: - `spender` cannot be the zero address. - `spender` must have allowance for the caller of at least `subtractedValue`."
      },
      "getLPTokenPrice(int256)": {
        "returns": {
          "_0": "LPTokenPrice scaled by 1e16"
        }
      },
      "getTradePrice(uint256,int256[2])": {
        "params": {
          "_productId": "product id",
          "_tradeAmounts": "amount of position to trade. positive for pool short and negative for pool long."
        }
      },
      "getUtilizationRatio()": {
        "returns": {
          "_0": "Utilization Ratio scaled by 1e8"
        }
      },
      "increaseAllowance(address,uint256)": {
        "details": "Atomically increases the allowance granted to `spender` by the caller. This is an alternative to {approve} that can be used as a mitigation for problems described in {IERC20-approve}. Emits an {Approval} event indicating the updated allowance. Requirements: - `spender` cannot be the zero address."
      },
      "name()": {
        "details": "Returns the name of the token."
      },
      "owner()": {
        "details": "Returns the address of the current owner."
      },
      "renounceOwnership()": {
        "details": "Leaves the contract without owner. It will not be possible to call `onlyOwner` functions anymore. Can only be called by the current owner. NOTE: Renouncing ownership will leave the contract without an owner, thereby removing any functionality that is only available to the owner."
      },
      "symbol()": {
        "details": "Returns the symbol of the token, usually a shorter version of the name."
      },
      "totalSupply()": {
        "details": "See {IERC20-totalSupply}."
      },
      "transfer(address,uint256)": {
        "details": "See {IERC20-transfer}. Requirements: - `recipient` cannot be the zero address. - the caller must have a balance of at least `amount`."
      },
      "transferFrom(address,address,uint256)": {
        "details": "See {IERC20-transferFrom}. Emits an {Approval} event indicating the updated allowance. This is not required by the EIP. See the note at the beginning of {ERC20}. Requirements: - `sender` and `recipient` cannot be the zero address. - `sender` must have a balance of at least `amount`. - the caller must have allowance for ``sender``'s tokens of at least `amount`."
      },
      "transferOwnership(address)": {
        "details": "Transfers ownership of the contract to a new account (`newOwner`). Can only be called by the current owner."
      },
      "updatePoolPositions(int256[2])": {
        "params": {
          "_tradeAmounts": "amount of positions to trade. positive for pool short and negative for pool long."
        }
      }
    },
    "title": "PerpetualMarketCore",
    "version": 1
  },
  "userdoc": {
    "kind": "user",
    "methods": {
      "completeHedgingProcedure((uint256,uint256,uint256,bool))": {
        "notice": "Update netting info to complete heging procedure"
      },
      "deposit(address,uint256)": {
        "notice": "Provides liquidity"
      },
      "getLPTokenPrice(int256)": {
        "notice": "Gets LP token price LPTokenPrice = (L + UnrealizedPnL_i - AmountLockedLiquidity_i) / Supply"
      },
      "getTokenAmountForHedging()": {
        "notice": "Gets USDC and underlying amount to make the pool delta neutral"
      },
      "getTradePrice(uint256,int256[2])": {
        "notice": "Gets trade price"
      },
      "getUtilizationRatio()": {
        "notice": "Gets utilization ratio Utilization Ratio = (AmountLockedLiquidity_i) / L"
      },
      "initialize(address,uint256,int256)": {
        "notice": "Initialize pool with initial liquidity and funding rate"
      },
      "rebalance()": {
        "notice": "Locks liquidity if more collateral required and unlocks liquidity if there is unrequied collateral."
      },
      "updatePoolPositions(int256[2])": {
        "notice": "Adds or removes pool positions"
      },
      "updatePoolSnapshot()": {
        "notice": "Updates pool snapshot Calculates ETH variance and base funding rate for future pool."
      },
      "withdraw(address,uint256)": {
        "notice": "xxWithdraws liquidity"
      }
    },
    "notice": "Perpetual Market Core Contract manages perpetual pool positions and calculates amount of collaterals. Error Code PMC0: No available liquidity PMC1: No available liquidity PMC2: caller must be PerpetualMarket contract PMC3: underlying price must not be 0 PMC4: pool delta must be negative PMC5: invalid params",
    "version": 1
  },
  "storageLayout": {
    "storage": [
      {
        "astId": 53,
        "contract": "src/PerpetualMarketCore.sol:PerpetualMarketCore",
        "label": "_owner",
        "offset": 0,
        "slot": "0",
        "type": "t_address"
      },
      {
        "astId": 841,
        "contract": "src/PerpetualMarketCore.sol:PerpetualMarketCore",
        "label": "_balances",
        "offset": 0,
        "slot": "1",
        "type": "t_mapping(t_address,t_uint256)"
      },
      {
        "astId": 847,
        "contract": "src/PerpetualMarketCore.sol:PerpetualMarketCore",
        "label": "_allowances",
        "offset": 0,
        "slot": "2",
        "type": "t_mapping(t_address,t_mapping(t_address,t_uint256))"
      },
      {
        "astId": 849,
        "contract": "src/PerpetualMarketCore.sol:PerpetualMarketCore",
        "label": "_totalSupply",
        "offset": 0,
        "slot": "3",
        "type": "t_uint256"
      },
      {
        "astId": 851,
        "contract": "src/PerpetualMarketCore.sol:PerpetualMarketCore",
        "label": "_name",
        "offset": 0,
        "slot": "4",
        "type": "t_string_storage"
      },
      {
        "astId": 853,
        "contract": "src/PerpetualMarketCore.sol:PerpetualMarketCore",
        "label": "_symbol",
        "offset": 0,
        "slot": "5",
        "type": "t_string_storage"
      },
      {
        "astId": 855,
        "contract": "src/PerpetualMarketCore.sol:PerpetualMarketCore",
        "label": "_decimals",
        "offset": 0,
        "slot": "6",
        "type": "t_uint8"
      },
      {
        "astId": 8920,
        "contract": "src/PerpetualMarketCore.sol:PerpetualMarketCore",
        "label": "squaredPerpFundingMultiplier",
        "offset": 0,
        "slot": "7",
        "type": "t_int256"
      },
      {
        "astId": 8922,
        "contract": "src/PerpetualMarketCore.sol:PerpetualMarketCore",
        "label": "perpFutureMaxFundingRate",
        "offset": 0,
        "slot": "8",
        "type": "t_int256"
      },
      {
        "astId": 8924,
        "contract": "src/PerpetualMarketCore.sol:PerpetualMarketCore",
        "label": "minSlippageToleranceOfHedge",
        "offset": 0,
        "slot": "9",
        "type": "t_uint256"
      },
      {
        "astId": 8926,
        "contract": "src/PerpetualMarketCore.sol:PerpetualMarketCore",
        "label": "maxSlippageToleranceOfHedge",
        "offset": 0,
        "slot": "10",
        "type": "t_uint256"
      },
      {
        "astId": 8928,
        "contract": "src/PerpetualMarketCore.sol:PerpetualMarketCore",
        "label": "hedgeRateOfReturnThreshold",
        "offset": 0,
        "slot": "11",
        "type": "t_uint256"
      },
      {
        "astId": 8930,
        "contract": "src/PerpetualMarketCore.sol:PerpetualMarketCore",
        "label": "poolMarginRiskParam",
        "offset": 0,
        "slot": "12",
        "type": "t_int256"
      },
      {
        "astId": 8932,
        "contract": "src/PerpetualMarketCore.sol:PerpetualMarketCore",
        "label": "tradeFeeRate",
        "offset": 0,
        "slot": "13",
        "type": "t_int256"
      },
      {
        "astId": 8934,
        "contract": "src/PerpetualMarketCore.sol:PerpetualMarketCore",
        "label": "protocolFeeRate",
        "offset": 0,
        "slot": "14",
        "type": "t_int256"
      },
      {
        "astId": 8961,
        "contract": "src/PerpetualMarketCore.sol:PerpetualMarketCore",
        "label": "amountLiquidity",
        "offset": 0,
        "slot": "15",
        "type": "t_uint256"
      },
      {
        "astId": 8965,
        "contract": "src/PerpetualMarketCore.sol:PerpetualMarketCore",
        "label": "pools",
        "offset": 0,
        "slot": "16",
        "type": "t_mapping(t_uint256,t_struct(Pool)8945_storage)"
      },
      {
        "astId": 8969,
        "contract": "src/PerpetualMarketCore.sol:PerpetualMarketCore",
        "label": "spreadInfos",
        "offset": 0,
        "slot": "17",
        "type": "t_mapping(t_uint256,t_struct(Info)14816_storage)"
      },
      {
        "astId": 8971,
        "contract": "src/PerpetualMarketCore.sol:PerpetualMarketCore",
        "label": "lpTokenSpreadInfo",
        "offset": 0,
        "slot": "18",
        "type": "t_struct(Info)14816_storage"
      },
      {
        "astId": 8973,
        "contract": "src/PerpetualMarketCore.sol:PerpetualMarketCore",
        "label": "poolSnapshot",
        "offset": 0,
        "slot": "22",
        "type": "t_struct(PoolSnapshot)8954_storage"
      },
      {
        "astId": 8975,
        "contract": "src/PerpetualMarketCore.sol:PerpetualMarketCore",
        "label": "nettingInfo",
        "offset": 0,
        "slot": "24",
        "type": "t_struct(Info)13935_storage"
      },
      {
        "astId": 8977,
        "contract": "src/PerpetualMarketCore.sol:PerpetualMarketCore",
        "label": "priceFeed",
        "offset": 0,
        "slot": "27",
        "type": "t_contract(AggregatorV3Interface)45"
      },
      {
        "astId": 8979,
        "contract": "src/PerpetualMarketCore.sol:PerpetualMarketCore",
        "label": "arbSys",
        "offset": 0,
        "slot": "28",
        "type": "t_contract(ArbSys)6456"
      },
      {
        "astId": 8981,
        "contract": "src/PerpetualMarketCore.sol:PerpetualMarketCore",
        "label": "lastHedgeSpotPrice",
        "offset": 0,
        "slot": "29",
        "type": "t_int256"
      },
      {
        "astId": 8983,
        "contract": "src/PerpetualMarketCore.sol:PerpetualMarketCore",
        "label": "perpetualMarket",
        "offset": 0,
        "slot": "30",
        "type": "t_address"
      }
    ],
    "types": {
      "t_address": {
        "encoding": "inplace",
        "label": "address",
        "numberOfBytes": "20"
      },
      "t_array(t_int256)2_storage": {
        "base": "t_int256",
        "encoding": "inplace",
        "label": "int256[2]",
        "numberOfBytes": "64"
      },
      "t_contract(AggregatorV3Interface)45": {
        "encoding": "inplace",
        "label": "contract AggregatorV3Interface",
        "numberOfBytes": "20"
      },
      "t_contract(ArbSys)6456": {
        "encoding": "inplace",
        "label": "contract ArbSys",
        "numberOfBytes": "20"
      },
      "t_int128": {
        "encoding": "inplace",
        "label": "int128",
        "numberOfBytes": "16"
      },
      "t_int256": {
        "encoding": "inplace",
        "label": "int256",
        "numberOfBytes": "32"
      },
      "t_mapping(t_address,t_mapping(t_address,t_uint256))": {
        "encoding": "mapping",
        "key": "t_address",
        "label": "mapping(address => mapping(address => uint256))",
        "numberOfBytes": "32",
        "value": "t_mapping(t_address,t_uint256)"
      },
      "t_mapping(t_address,t_uint256)": {
        "encoding": "mapping",
        "key": "t_address",
        "label": "mapping(address => uint256)",
        "numberOfBytes": "32",
        "value": "t_uint256"
      },
      "t_mapping(t_uint256,t_struct(Info)14816_storage)": {
        "encoding": "mapping",
        "key": "t_uint256",
        "label": "mapping(uint256 => struct SpreadLib.Info)",
        "numberOfBytes": "32",
        "value": "t_struct(Info)14816_storage"
      },
      "t_mapping(t_uint256,t_struct(Pool)8945_storage)": {
        "encoding": "mapping",
        "key": "t_uint256",
        "label": "mapping(uint256 => struct PerpetualMarketCore.Pool)",
        "numberOfBytes": "32",
        "value": "t_struct(Pool)8945_storage"
      },
      "t_string_storage": {
        "encoding": "bytes",
        "label": "string",
        "numberOfBytes": "32"
      },
      "t_struct(Info)13935_storage": {
        "encoding": "inplace",
        "label": "struct NettingLib.Info",
        "members": [
          {
            "astId": 13932,
            "contract": "src/PerpetualMarketCore.sol:PerpetualMarketCore",
            "label": "amountsUsdc",
            "offset": 0,
            "slot": "0",
            "type": "t_array(t_int256)2_storage"
          },
          {
            "astId": 13934,
            "contract": "src/PerpetualMarketCore.sol:PerpetualMarketCore",
            "label": "amountUnderlying",
            "offset": 0,
            "slot": "2",
            "type": "t_uint256"
          }
        ],
        "numberOfBytes": "96"
      },
      "t_struct(Info)14816_storage": {
        "encoding": "inplace",
        "label": "struct SpreadLib.Info",
        "members": [
          {
            "astId": 14805,
            "contract": "src/PerpetualMarketCore.sol:PerpetualMarketCore",
            "label": "blockLastLongTransaction",
            "offset": 0,
            "slot": "0",
            "type": "t_uint128"
          },
          {
            "astId": 14807,
            "contract": "src/PerpetualMarketCore.sol:PerpetualMarketCore",
            "label": "minLongTradePrice",
            "offset": 16,
            "slot": "0",
            "type": "t_int128"
          },
          {
            "astId": 14809,
            "contract": "src/PerpetualMarketCore.sol:PerpetualMarketCore",
            "label": "blockLastShortTransaction",
            "offset": 0,
            "slot": "1",
            "type": "t_uint128"
          },
          {
            "astId": 14811,
            "contract": "src/PerpetualMarketCore.sol:PerpetualMarketCore",
            "label": "maxShortTradePrice",
            "offset": 16,
            "slot": "1",
            "type": "t_int128"
          },
          {
            "astId": 14813,
            "contract": "src/PerpetualMarketCore.sol:PerpetualMarketCore",
            "label": "safetyBlockPeriod",
            "offset": 0,
            "slot": "2",
            "type": "t_uint256"
          },
          {
            "astId": 14815,
            "contract": "src/PerpetualMarketCore.sol:PerpetualMarketCore",
            "label": "numBlocksPerSpreadDecreasing",
            "offset": 0,
            "slot": "3",
            "type": "t_uint256"
          }
        ],
        "numberOfBytes": "128"
      },
      "t_struct(Pool)8945_storage": {
        "encoding": "inplace",
        "label": "struct PerpetualMarketCore.Pool",
        "members": [
          {
            "astId": 8936,
            "contract": "src/PerpetualMarketCore.sol:PerpetualMarketCore",
            "label": "amountLockedLiquidity",
            "offset": 0,
            "slot": "0",
            "type": "t_uint128"
          },
          {
            "astId": 8938,
            "contract": "src/PerpetualMarketCore.sol:PerpetualMarketCore",
            "label": "positionPerpetuals",
            "offset": 16,
            "slot": "0",
            "type": "t_int128"
          },
          {
            "astId": 8940,
            "contract": "src/PerpetualMarketCore.sol:PerpetualMarketCore",
            "label": "entryPrice",
            "offset": 0,
            "slot": "1",
            "type": "t_uint128"
          },
          {
            "astId": 8942,
            "contract": "src/PerpetualMarketCore.sol:PerpetualMarketCore",
            "label": "amountFundingPaidPerPosition",
            "offset": 0,
            "slot": "2",
            "type": "t_int256"
          },
          {
            "astId": 8944,
            "contract": "src/PerpetualMarketCore.sol:PerpetualMarketCore",
            "label": "lastFundingPaymentTime",
            "offset": 0,
            "slot": "3",
            "type": "t_uint128"
          }
        ],
        "numberOfBytes": "128"
      },
      "t_struct(PoolSnapshot)8954_storage": {
        "encoding": "inplace",
        "label": "struct PerpetualMarketCore.PoolSnapshot",
        "members": [
          {
            "astId": 8947,
            "contract": "src/PerpetualMarketCore.sol:PerpetualMarketCore",
            "label": "futureBaseFundingRate",
            "offset": 0,
            "slot": "0",
            "type": "t_int128"
          },
          {
            "astId": 8949,
            "contract": "src/PerpetualMarketCore.sol:PerpetualMarketCore",
            "label": "ethVariance",
            "offset": 16,
            "slot": "0",
            "type": "t_int128"
          },
          {
            "astId": 8951,
            "contract": "src/PerpetualMarketCore.sol:PerpetualMarketCore",
            "label": "ethPrice",
            "offset": 0,
            "slot": "1",
            "type": "t_int128"
          },
          {
            "astId": 8953,
            "contract": "src/PerpetualMarketCore.sol:PerpetualMarketCore",
            "label": "lastSnapshotTime",
            "offset": 16,
            "slot": "1",
            "type": "t_uint128"
          }
        ],
        "numberOfBytes": "64"
      },
      "t_uint128": {
        "encoding": "inplace",
        "label": "uint128",
        "numberOfBytes": "16"
      },
      "t_uint256": {
        "encoding": "inplace",
        "label": "uint256",
        "numberOfBytes": "32"
      },
      "t_uint8": {
        "encoding": "inplace",
        "label": "uint8",
        "numberOfBytes": "1"
      }
    }
  }
}