{
  "address": "0x6282336687B0CE5b82292b86996Bb26411517B84",
  "abi": [
    {
      "inputs": [
        {
          "internalType": "address",
          "name": "_priceFeedAddress",
          "type": "address"
        },
        {
          "internalType": "string",
          "name": "_tokenName",
          "type": "string"
        },
        {
          "internalType": "string",
          "name": "_tokenSymbol",
          "type": "string"
        }
      ],
      "stateMutability": "nonpayable",
      "type": "constructor"
    },
    {
      "anonymous": false,
      "inputs": [
        {
          "indexed": true,
          "internalType": "address",
          "name": "owner",
          "type": "address"
        },
        {
          "indexed": true,
          "internalType": "address",
          "name": "spender",
          "type": "address"
        },
        {
          "indexed": false,
          "internalType": "uint256",
          "name": "value",
          "type": "uint256"
        }
      ],
      "name": "Approval",
      "type": "event"
    },
    {
      "anonymous": false,
      "inputs": [
        {
          "indexed": false,
          "internalType": "uint256",
          "name": "productId",
          "type": "uint256"
        },
        {
          "indexed": false,
          "internalType": "int256",
          "name": "fundingRate",
          "type": "int256"
        },
        {
          "indexed": false,
          "internalType": "int256",
          "name": "amountFundingPaidPerPosition",
          "type": "int256"
        },
        {
          "indexed": false,
          "internalType": "int256",
          "name": "fundingPaidPerPosition",
          "type": "int256"
        },
        {
          "indexed": false,
          "internalType": "int256",
          "name": "poolReceived",
          "type": "int256"
        }
      ],
      "name": "FundingPayment",
      "type": "event"
    },
    {
      "anonymous": false,
      "inputs": [
        {
          "indexed": true,
          "internalType": "address",
          "name": "previousOwner",
          "type": "address"
        },
        {
          "indexed": true,
          "internalType": "address",
          "name": "newOwner",
          "type": "address"
        }
      ],
      "name": "OwnershipTransferred",
      "type": "event"
    },
    {
      "anonymous": false,
      "inputs": [
        {
          "indexed": false,
          "internalType": "uint256",
          "name": "minSlippageToleranceOfHedge",
          "type": "uint256"
        },
        {
          "indexed": false,
          "internalType": "uint256",
          "name": "maxSlippageToleranceOfHedge",
          "type": "uint256"
        },
        {
          "indexed": false,
          "internalType": "uint256",
          "name": "hedgeRateOfReturnThreshold",
          "type": "uint256"
        }
      ],
      "name": "SetHedgeParams",
      "type": "event"
    },
    {
      "anonymous": false,
      "inputs": [
        {
          "indexed": false,
          "internalType": "int256",
          "name": "perpFutureMaxFundingRate",
          "type": "int256"
        }
      ],
      "name": "SetPerpFutureMaxFundingRate",
      "type": "event"
    },
    {
      "anonymous": false,
      "inputs": [
        {
          "indexed": false,
          "internalType": "int256",
          "name": "poolMarginRiskParam",
          "type": "int256"
        }
      ],
      "name": "SetPoolMarginRiskParam",
      "type": "event"
    },
    {
      "anonymous": false,
      "inputs": [
        {
          "indexed": false,
          "internalType": "int256",
          "name": "squaredPerpFundingMultiplier",
          "type": "int256"
        }
      ],
      "name": "SetSquaredPerpFundingMultiplier",
      "type": "event"
    },
    {
      "anonymous": false,
      "inputs": [
        {
          "indexed": false,
          "internalType": "int256",
          "name": "tradeFeeRate",
          "type": "int256"
        },
        {
          "indexed": false,
          "internalType": "int256",
          "name": "protocolFeeRate",
          "type": "int256"
        }
      ],
      "name": "SetTradeFeeRate",
      "type": "event"
    },
    {
      "anonymous": false,
      "inputs": [
        {
          "indexed": true,
          "internalType": "address",
          "name": "from",
          "type": "address"
        },
        {
          "indexed": true,
          "internalType": "address",
          "name": "to",
          "type": "address"
        },
        {
          "indexed": false,
          "internalType": "uint256",
          "name": "value",
          "type": "uint256"
        }
      ],
      "name": "Transfer",
      "type": "event"
    },
    {
      "anonymous": false,
      "inputs": [
        {
          "indexed": false,
          "internalType": "int256",
          "name": "variance",
          "type": "int256"
        },
        {
          "indexed": false,
          "internalType": "int256",
          "name": "underlyingPrice",
          "type": "int256"
        },
        {
          "indexed": false,
          "internalType": "uint256",
          "name": "timestamp",
          "type": "uint256"
        }
      ],
      "name": "VarianceUpdated",
      "type": "event"
    },
    {
      "inputs": [
        {
          "internalType": "uint256",
          "name": "_amount",
          "type": "uint256"
        }
      ],
      "name": "addLiquidity",
      "outputs": [],
      "stateMutability": "nonpayable",
      "type": "function"
    },
    {
      "inputs": [
        {
          "internalType": "address",
          "name": "owner",
          "type": "address"
        },
        {
          "internalType": "address",
          "name": "spender",
          "type": "address"
        }
      ],
      "name": "allowance",
      "outputs": [
        {
          "internalType": "uint256",
          "name": "",
          "type": "uint256"
        }
      ],
      "stateMutability": "view",
      "type": "function"
    },
    {
      "inputs": [],
      "name": "amountLiquidity",
      "outputs": [
        {
          "internalType": "uint256",
          "name": "",
          "type": "uint256"
        }
      ],
      "stateMutability": "view",
      "type": "function"
    },
    {
      "inputs": [
        {
          "internalType": "address",
          "name": "spender",
          "type": "address"
        },
        {
          "internalType": "uint256",
          "name": "amount",
          "type": "uint256"
        }
      ],
      "name": "approve",
      "outputs": [
        {
          "internalType": "bool",
          "name": "",
          "type": "bool"
        }
      ],
      "stateMutability": "nonpayable",
      "type": "function"
    },
    {
      "inputs": [
        {
          "internalType": "address",
          "name": "account",
          "type": "address"
        }
      ],
      "name": "balanceOf",
      "outputs": [
        {
          "internalType": "uint256",
          "name": "",
          "type": "uint256"
        }
      ],
      "stateMutability": "view",
      "type": "function"
    },
    {
      "inputs": [
        {
          "components": [
            {
              "internalType": "uint256",
              "name": "amountUsdc",
              "type": "uint256"
            },
            {
              "internalType": "uint256",
              "name": "amountUnderlying",
              "type": "uint256"
            },
            {
              "internalType": "int256[2]",
              "name": "amountsRequiredUnderlying",
              "type": "int256[2]"
            },
            {
              "internalType": "bool",
              "name": "isLong",
              "type": "bool"
            }
          ],
          "internalType": "struct NettingLib.CompleteParams",
          "name": "_completeParams",
          "type": "tuple"
        }
      ],
      "name": "completeHedgingProcedure",
      "outputs": [],
      "stateMutability": "nonpayable",
      "type": "function"
    },
    {
      "inputs": [],
      "name": "decimals",
      "outputs": [
        {
          "internalType": "uint8",
          "name": "",
          "type": "uint8"
        }
      ],
      "stateMutability": "view",
      "type": "function"
    },
    {
      "inputs": [
        {
          "internalType": "address",
          "name": "spender",
          "type": "address"
        },
        {
          "internalType": "uint256",
          "name": "subtractedValue",
          "type": "uint256"
        }
      ],
      "name": "decreaseAllowance",
      "outputs": [
        {
          "internalType": "bool",
          "name": "",
          "type": "bool"
        }
      ],
      "stateMutability": "nonpayable",
      "type": "function"
    },
    {
      "inputs": [
        {
          "internalType": "address",
          "name": "_depositor",
          "type": "address"
        },
        {
          "internalType": "uint256",
          "name": "_depositAmount",
          "type": "uint256"
        }
      ],
      "name": "deposit",
      "outputs": [
        {
          "internalType": "uint256",
          "name": "mintAmount",
          "type": "uint256"
        }
      ],
      "stateMutability": "nonpayable",
      "type": "function"
    },
    {
      "inputs": [],
      "name": "executeFundingPayment",
      "outputs": [],
      "stateMutability": "nonpayable",
      "type": "function"
    },
    {
      "inputs": [
        {
          "internalType": "int256",
          "name": "_deltaLiquidityAmount",
          "type": "int256"
        }
      ],
      "name": "getLPTokenPrice",
      "outputs": [
        {
          "internalType": "uint256",
          "name": "",
          "type": "uint256"
        }
      ],
      "stateMutability": "view",
      "type": "function"
    },
    {
      "inputs": [],
      "name": "getTokenAmountForHedging",
      "outputs": [
        {
          "components": [
            {
              "internalType": "uint256",
              "name": "amountUsdc",
              "type": "uint256"
            },
            {
              "internalType": "uint256",
              "name": "amountUnderlying",
              "type": "uint256"
            },
            {
              "internalType": "int256[2]",
              "name": "amountsRequiredUnderlying",
              "type": "int256[2]"
            },
            {
              "internalType": "bool",
              "name": "isLong",
              "type": "bool"
            }
          ],
          "internalType": "struct NettingLib.CompleteParams",
          "name": "completeParams",
          "type": "tuple"
        }
      ],
      "stateMutability": "view",
      "type": "function"
    },
    {
      "inputs": [
        {
          "internalType": "uint256",
          "name": "_productId",
          "type": "uint256"
        },
        {
          "internalType": "int128",
          "name": "_tradeAmount",
          "type": "int128"
        }
      ],
      "name": "getTradePrice",
      "outputs": [
        {
          "internalType": "int256",
          "name": "",
          "type": "int256"
        },
        {
          "internalType": "int256",
          "name": "",
          "type": "int256"
        },
        {
          "internalType": "int256",
          "name": "",
          "type": "int256"
        },
        {
          "internalType": "int256",
          "name": "",
          "type": "int256"
        },
        {
          "internalType": "int256",
          "name": "",
          "type": "int256"
        }
      ],
      "stateMutability": "view",
      "type": "function"
    },
    {
      "inputs": [
        {
          "internalType": "int128[2]",
          "name": "amountAssets",
          "type": "int128[2]"
        }
      ],
      "name": "getTradePriceInfo",
      "outputs": [
        {
          "components": [
            {
              "internalType": "uint128",
              "name": "spotPrice",
              "type": "uint128"
            },
            {
              "internalType": "int256[2]",
              "name": "tradePrices",
              "type": "int256[2]"
            },
            {
              "internalType": "int256[2]",
              "name": "fundingRates",
              "type": "int256[2]"
            },
            {
              "internalType": "int256[2]",
              "name": "amountsFundingPaidPerPosition",
              "type": "int256[2]"
            }
          ],
          "internalType": "struct IPerpetualMarketCore.TradePriceInfo",
          "name": "",
          "type": "tuple"
        }
      ],
      "stateMutability": "view",
      "type": "function"
    },
    {
      "inputs": [],
      "name": "getUtilizationRatio",
      "outputs": [
        {
          "internalType": "uint256",
          "name": "",
          "type": "uint256"
        }
      ],
      "stateMutability": "view",
      "type": "function"
    },
    {
      "inputs": [
        {
          "internalType": "address",
          "name": "spender",
          "type": "address"
        },
        {
          "internalType": "uint256",
          "name": "addedValue",
          "type": "uint256"
        }
      ],
      "name": "increaseAllowance",
      "outputs": [
        {
          "internalType": "bool",
          "name": "",
          "type": "bool"
        }
      ],
      "stateMutability": "nonpayable",
      "type": "function"
    },
    {
      "inputs": [
        {
          "internalType": "address",
          "name": "_depositor",
          "type": "address"
        },
        {
          "internalType": "uint256",
          "name": "_depositAmount",
          "type": "uint256"
        },
        {
          "internalType": "int256",
          "name": "_initialFundingRate",
          "type": "int256"
        }
      ],
      "name": "initialize",
      "outputs": [
        {
          "internalType": "uint256",
          "name": "mintAmount",
          "type": "uint256"
        }
      ],
      "stateMutability": "nonpayable",
      "type": "function"
    },
    {
      "inputs": [],
      "name": "lastHedgeSpotPrice",
      "outputs": [
        {
          "internalType": "int256",
          "name": "",
          "type": "int256"
        }
      ],
      "stateMutability": "view",
      "type": "function"
    },
    {
      "inputs": [],
      "name": "name",
      "outputs": [
        {
          "internalType": "string",
          "name": "",
          "type": "string"
        }
      ],
      "stateMutability": "view",
      "type": "function"
    },
    {
      "inputs": [],
      "name": "owner",
      "outputs": [
        {
          "internalType": "address",
          "name": "",
          "type": "address"
        }
      ],
      "stateMutability": "view",
      "type": "function"
    },
    {
      "inputs": [
        {
          "internalType": "uint256",
          "name": "",
          "type": "uint256"
        }
      ],
      "name": "pools",
      "outputs": [
        {
          "internalType": "uint128",
          "name": "amountLockedLiquidity",
          "type": "uint128"
        },
        {
          "internalType": "int128",
          "name": "positionPerpetuals",
          "type": "int128"
        },
        {
          "internalType": "uint128",
          "name": "entryPrice",
          "type": "uint128"
        },
        {
          "internalType": "int256",
          "name": "amountFundingPaidPerPosition",
          "type": "int256"
        },
        {
          "internalType": "uint128",
          "name": "lastFundingPaymentTime",
          "type": "uint128"
        }
      ],
      "stateMutability": "view",
      "type": "function"
    },
    {
      "inputs": [],
      "name": "rebalance",
      "outputs": [],
      "stateMutability": "nonpayable",
      "type": "function"
    },
    {
      "inputs": [],
      "name": "renounceOwnership",
      "outputs": [],
      "stateMutability": "nonpayable",
      "type": "function"
    },
    {
      "inputs": [
        {
          "internalType": "uint256",
          "name": "_minSlippageToleranceOfHedge",
          "type": "uint256"
        },
        {
          "internalType": "uint256",
          "name": "_maxSlippageToleranceOfHedge",
          "type": "uint256"
        },
        {
          "internalType": "uint256",
          "name": "_hedgeRateOfReturnThreshold",
          "type": "uint256"
        }
      ],
      "name": "setHedgeParams",
      "outputs": [],
      "stateMutability": "nonpayable",
      "type": "function"
    },
    {
      "inputs": [
        {
          "internalType": "int256",
          "name": "_perpFutureMaxFundingRate",
          "type": "int256"
        }
      ],
      "name": "setPerpFutureMaxFundingRate",
      "outputs": [],
      "stateMutability": "nonpayable",
      "type": "function"
    },
    {
      "inputs": [
        {
          "internalType": "address",
          "name": "_perpetualMarket",
          "type": "address"
        }
      ],
      "name": "setPerpetualMarket",
      "outputs": [],
      "stateMutability": "nonpayable",
      "type": "function"
    },
    {
      "inputs": [
        {
          "internalType": "int256",
          "name": "_poolMarginRiskParam",
          "type": "int256"
        }
      ],
      "name": "setPoolMarginRiskParam",
      "outputs": [],
      "stateMutability": "nonpayable",
      "type": "function"
    },
    {
      "inputs": [
        {
          "internalType": "int256",
          "name": "_squaredPerpFundingMultiplier",
          "type": "int256"
        }
      ],
      "name": "setSquaredPerpFundingMultiplier",
      "outputs": [],
      "stateMutability": "nonpayable",
      "type": "function"
    },
    {
      "inputs": [
        {
          "internalType": "int256",
          "name": "_tradeFeeRate",
          "type": "int256"
        },
        {
          "internalType": "int256",
          "name": "_protocolFeeRate",
          "type": "int256"
        }
      ],
      "name": "setTradeFeeRate",
      "outputs": [],
      "stateMutability": "nonpayable",
      "type": "function"
    },
    {
      "inputs": [],
      "name": "symbol",
      "outputs": [
        {
          "internalType": "string",
          "name": "",
          "type": "string"
        }
      ],
      "stateMutability": "view",
      "type": "function"
    },
    {
      "inputs": [],
      "name": "totalSupply",
      "outputs": [
        {
          "internalType": "uint256",
          "name": "",
          "type": "uint256"
        }
      ],
      "stateMutability": "view",
      "type": "function"
    },
    {
      "inputs": [
        {
          "internalType": "address",
          "name": "recipient",
          "type": "address"
        },
        {
          "internalType": "uint256",
          "name": "amount",
          "type": "uint256"
        }
      ],
      "name": "transfer",
      "outputs": [
        {
          "internalType": "bool",
          "name": "",
          "type": "bool"
        }
      ],
      "stateMutability": "nonpayable",
      "type": "function"
    },
    {
      "inputs": [
        {
          "internalType": "address",
          "name": "sender",
          "type": "address"
        },
        {
          "internalType": "address",
          "name": "recipient",
          "type": "address"
        },
        {
          "internalType": "uint256",
          "name": "amount",
          "type": "uint256"
        }
      ],
      "name": "transferFrom",
      "outputs": [
        {
          "internalType": "bool",
          "name": "",
          "type": "bool"
        }
      ],
      "stateMutability": "nonpayable",
      "type": "function"
    },
    {
      "inputs": [
        {
          "internalType": "address",
          "name": "newOwner",
          "type": "address"
        }
      ],
      "name": "transferOwnership",
      "outputs": [],
      "stateMutability": "nonpayable",
      "type": "function"
    },
    {
      "inputs": [
        {
          "internalType": "uint256",
          "name": "_productId",
          "type": "uint256"
        },
        {
          "internalType": "int128",
          "name": "_tradeAmount",
          "type": "int128"
        }
      ],
      "name": "updatePoolPosition",
      "outputs": [
        {
          "internalType": "uint256",
          "name": "tradePrice",
          "type": "uint256"
        },
        {
          "internalType": "int256",
          "name": "",
          "type": "int256"
        },
        {
          "internalType": "uint256",
          "name": "protocolFee",
          "type": "uint256"
        }
      ],
      "stateMutability": "nonpayable",
      "type": "function"
    },
    {
      "inputs": [],
      "name": "updatePoolSnapshot",
      "outputs": [],
      "stateMutability": "nonpayable",
      "type": "function"
    },
    {
      "inputs": [
        {
          "internalType": "address",
          "name": "_withdrawer",
          "type": "address"
        },
        {
          "internalType": "uint256",
          "name": "_withdrawnAmount",
          "type": "uint256"
        }
      ],
      "name": "withdraw",
      "outputs": [
        {
          "internalType": "uint256",
          "name": "burnAmount",
          "type": "uint256"
        }
      ],
      "stateMutability": "nonpayable",
      "type": "function"
    }
  ],
  "transactionHash": "0x3728840e6652f1a5a944ba16cc89f9146d8ffbe74ef6a3e925c9cd92b8fe6f37",
  "args": [
    "0x639Fe6ab55C921f74e7fac1ee960C0B6293ba612",
    "Predy V2 LP Token",
    "PREDY-V2-LP"
  ],
  "solcInputHash": "228a463cd5d6e4e6e63a99951ad2e9be",
  "bytecode": "0x60806040523480156200001157600080fd5b5060405162004f7e38038062004f7e833981016040819052620000349162000336565b8181600062000042620001ac565b600080546001600160a01b0319166001600160a01b0383169081178255604051929350917f8be0079c531659141344cd1fd0a4f28419497f9722a3daafe3b4186f6b6457e0908290a3508151620000a1906004906020850190620001ef565b508051620000b7906005906020840190620001ef565b50506006805460ff1916601217905550620000d36008620001b0565b601980546001600160a01b0319166001600160a01b03851617905560008052601160209081526200012f907f4ad3b33220dddc71b994a52d72c06b10862965f7d926534c05c00fb7e819e7b790620001c6811b620017c117901c565b60016000526011602090815262000171907f17bc176d2408558f6e4111feebc3cab4e16b63e967be91cde721f4c8a488b55290620017c1620001c6821b17901c565b50506320c855806007555062035b6060085560286009556050600a55622625a0600b55610fa0600c5561c350600d55614e20600e55620003bc565b3390565b6006805460ff191660ff92909216919091179055565b8054600160801b600160ff1b036001600160801b03918216178255600190910180549091169055565b828054600181600116156101000203166002900490600052602060002090601f01602090048101928262000227576000855562000272565b82601f106200024257805160ff191683800117855562000272565b8280016001018555821562000272579182015b828111156200027257825182559160200191906001019062000255565b506200028092915062000284565b5090565b5b8082111562000280576000815560010162000285565b600082601f830112620002ac578081fd5b81516001600160401b0380821115620002c157fe5b6040516020601f8401601f1916820181018381118382101715620002e157fe5b6040528382528584018101871015620002f8578485fd5b8492505b838310156200031b5785830181015182840182015291820191620002fc565b838311156200032c57848185840101525b5095945050505050565b6000806000606084860312156200034b578283fd5b83516001600160a01b038116811462000362578384fd5b60208501519093506001600160401b03808211156200037f578384fd5b6200038d878388016200029b565b93506040860151915080821115620003a3578283fd5b50620003b2868287016200029b565b9150509250925092565b614bb280620003cc6000396000f3fe608060405234801561001057600080fd5b50600436106102275760003560e01c806382f3955d11610130578063b02582dc116100b8578063dd62ed3e1161007c578063dd62ed3e14610494578063e7dc45d3146104a7578063f2fde38b146104ba578063f3fef3a3146104cd578063f844f2a6146104e057610227565b8063b02582dc14610424578063b206ab8414610437578063b4f0332f1461044a578063bfe519511461046e578063dbd31ba21461048157610227565b80638da5cb5b116100ff5780638da5cb5b146103bd57806395d89b41146103d2578063a457c2d7146103da578063a9059cbb146103ed578063ac4afa381461040057610227565b806382f3955d14610378578063854ad1b71461039857806387c3a09a146103ad57806389633081146103b557610227565b806347e7ef24116101b357806370a082311161018257806370a082311461033a578063715018a61461034d57806373f3489e146103555780637d7c2a1c146103685780637d8c26591461037057610227565b806347e7ef24146102f957806351c6590a1461030c578063545ed65a1461031f5780635cda497d1461032757610227565b806323a216c1116101fa57806323a216c11461029457806323b872dd1461029c578063313ce567146102af57806339509351146102c45780633ed7e33c146102d757610227565b806306fdde031461022c578063095ea7b31461024a57806318160ddd1461026a578063192679ed1461027f575b600080fd5b6102346104f3565b60405161024191906146b1565b60405180910390f35b61025d6102583660046143ab565b610589565b604051610241919061464e565b6102726105a7565b6040516102419190614677565b61029261028d36600461448c565b6105ad565b005b61027261066c565b61025d6102aa366004614370565b6106ca565b6102b7610752565b6040516102419190614868565b61025d6102d23660046143ab565b61075b565b6102ea6102e536600461457b565b6107a9565b60405161024193929190614852565b6102726103073660046143ab565b61092d565b61029261031a36600461448c565b6109ce565b610272610a0b565b61029261033536600461459d565b610a11565b610272610348366004614324565b610aef565b610292610b0e565b61027261036336600461448c565b610bba565b610292610c68565b610292610d51565b61038b610386366004614406565b610da6565b60405161024191906147d5565b6103a0610eb9565b604051610241919061479a565b610292610fed565b610272611050565b6103c5611056565b604051610241919061463a565b610234611065565b61025d6103e83660046143ab565b6110c6565b61025d6103fb3660046143ab565b61112e565b61041361040e36600461448c565b611142565b60405161024195949392919061481f565b61029261043236600461448c565b611183565b6102926104453660046144a4565b611238565b61045d61045836600461457b565b61131d565b60405161024195949392919061468e565b61029261047c36600461448c565b611355565b61029261048f3660046144c5565b6113fa565b6102726104a236600461433e565b611441565b6102726104b53660046143d4565b61146c565b6102926104c8366004614324565b611561565b6102726104db3660046143ab565b611663565b6102926104ee366004614324565b611713565b60048054604080516020601f600260001961010060018816150201909516949094049384018190048102820181019092528281526060939092909183018282801561057f5780601f106105545761010080835404028352916020019161057f565b820191906000526020600020905b81548152906001019060200180831161056257829003601f168201915b5050505050905090565b600061059d6105966117f3565b84846117f7565b5060015b92915050565b60035490565b6105b56117f3565b6001600160a01b03166105c6611056565b6001600160a01b03161461060f576040805162461bcd60e51b81526020600482018190526024820152600080516020614a5b833981519152604482015290519081900360640190fd5b600081121580156106235750620f42408113155b61062c57600080fd5b60088190556040517f0e5502f89db0c53034cbc3f53df6d411d72c6c9b9e711b952d4cc6a30d8ac73d90610661908390614677565b60405180910390a150565b60008060005b60028110156106a85760008181526010602052604090205461069e9083906001600160801b03166118e3565b9150600101610672565b50600f546106c4906106be836305f5e10061193d565b90611996565b91505090565b60006106d78484846119fd565b610747846106e36117f3565b61074285604051806060016040528060288152602001614a33602891396001600160a01b038a166000908152600260205260408120906107216117f3565b6001600160a01b031681526020810191909152604001600020549190611b5a565b6117f7565b5060015b9392505050565b60065460ff1690565b600061059d6107686117f3565b8461074285600260006107796117f3565b6001600160a01b03908116825260208083019390935260409182016000908120918c1681529252902054906118e3565b601b54600090819081906001600160a01b031633146107e35760405162461bcd60e51b81526004016107da90614740565b60405180910390fd5b6000600f54116108055760405162461bcd60e51b81526004016107da90614722565b600061080f611bf1565b5060008781526010602052604090208054600160801b808204600f90810b8a9003810b6001600160801b03908116909202919092161790915590915061085b908790839088900b611cad565b6000888152601060205260408120600181015490549397509194509182916108b1916001600160801b03909116906108a490600160801b9004600f90810b810b908b900b611e2b565b888a600003600f0b611e90565b915091506108c66108c183611fc8565b612023565b600089815260106020526040902060010180546001600160801b0319166001600160801b0392909216919091179055600f5461090c9061090586612067565b83036120ab565b600f5550505060008581526010602052604090206002015491509250925092565b601b546000906001600160a01b0316331461095a5760405162461bcd60e51b81526004016107da90614740565b60006109646105a7565b1161096e57600080fd5b600061097c61036384612067565b905061099361098e6012600184612139565b611fc8565b90506109aa816106be85662386f26fc1000061193d565b600f549092506109ba90846118e3565b600f556109c784836121fd565b5092915050565b601b546001600160a01b031633146109f85760405162461bcd60e51b81526004016107da90614740565b600f54610a0590826118e3565b600f5550565b601a5481565b610a196117f3565b6001600160a01b0316610a2a611056565b6001600160a01b031614610a73576040805162461bcd60e51b81526020600482018190526024820152600080516020614a5b833981519152604482015290519081900360640190fd5b8183108015610a83575060c88211155b610a9f5760405162461bcd60e51b81526004016107da9061475e565b6009839055600a829055600b8190556040517f40eadc083dad26c82ca6e52052119f861019dc8b168294cc37f793801b6494a090610ae290859085908590614852565b60405180910390a1505050565b6001600160a01b0381166000908152600160205260409020545b919050565b610b166117f3565b6001600160a01b0316610b27611056565b6001600160a01b031614610b70576040805162461bcd60e51b81526020600482018190526024820152600080516020614a5b833981519152604482015290519081900360640190fd5b600080546040516001600160a01b03909116907f8be0079c531659141344cd1fd0a4f28419497f9722a3daafe3b4186f6b6457e0908390a3600080546001600160a01b0319169055565b600080610bc5611bf1565b5090506000610beb610bd9600184876122ef565b610be5600085886122ef565b90611e2b565b9050610c60610bf86105a7565b60106020526000805160206148d983398151915254600080526000805160206149d183398151915254600f546106be92662386f26fc1000092610c5a926001600160801b0392831692610c5492169082908a90610be590612067565b906124b9565b9061193d565b949350505050565b601b546001600160a01b03163314610c925760405162461bcd60e51b81526004016107da90614740565b6000610c9c611bf1565b50905060005b6002811015610d4d576000806000610cba8486612516565b9093509050610ccc848483600261260f565b90945092505081159050610cea57610ce6600f54826120ab565b600f555b8115610d4357600083815260106020526040902054610d16906108c1906001600160801b0316846120ab565b600084815260106020526040902080546001600160801b0319166001600160801b03929092169190911790555b5050600101610ca2565b5050565b601b546001600160a01b03163314610d7b5760405162461bcd60e51b81526004016107da90614740565b6000610d85611bf1565b50905060005b6002811015610d4d57610d9e81836126ad565b600101610d8b565b610dae614243565b6000610db8611bf1565b509050610dc3614285565b610dcb614285565b610dd3614285565b60005b6002811015610e89576000610e0482878a8560028110610df257fe5b6020020151600003600f0b60006127f2565b905050878560028110610e1357fe5b60200201878660028110610e2357fe5b60200201919091529190915290506000610e4f8383878260028110610e4457fe5b60200201514261297b565b600084815260106020526040902060020154909150610e6e9082611e2b565b848460028110610e7a57fe5b60200201525050600101610dd6565b50604080516080810182526001600160801b03909516855260208501939093529183015260608201529050919050565b610ec16142a3565b6000610ecb611bf1565b5060106020526000805160206149d183398151915254600160009081526000805160206148d983398151915254929350918291610f22918591600160801b90819004600f90810b810b9291909104810b900b6129d5565b91509150610f2e614285565b828152602081018290526040805180820191829052610f9491601890600290826000855b82829054906101000a9004600f0b600f0b81526020019060100190602082600f01049283019260010382029150808411610f5257905050505050508286612a24565b94506000610fa185612b07565b9050856060015115610fcf57610fc86127106106be610fc082856118e3565b89519061193d565b8652610fe5565b610fe26127106106be610fc082856124b9565b86525b505050505090565b601b546001600160a01b031633146110175760405162461bcd60e51b81526004016107da90614740565b60155461a8c06001600160801b03600160801b9092048216011642101561103d5761104e565b61104642612b85565b61104e612d0a565b565b600f5481565b6000546001600160a01b031690565b60058054604080516020601f600260001961010060018816150201909516949094049384018190048102820181019092528281526060939092909183018282801561057f5780601f106105545761010080835404028352916020019161057f565b600061059d6110d36117f3565b8461074285604051806060016040528060258152602001614b5860259139600260006110fd6117f3565b6001600160a01b03908116825260208083019390935260409182016000908120918d16815292529020549190611b5a565b600061059d61113b6117f3565b84846119fd565b60106020526000908152604090208054600182015460028301546003909301546001600160801b0380841694600160801b909404600f0b9392811692911685565b61118b6117f3565b6001600160a01b031661119c611056565b6001600160a01b0316146111e5576040805162461bcd60e51b81526020600482018190526024820152600080516020614a5b833981519152604482015290519081900360640190fd5b600081121580156111fa575063773594008113155b61120357600080fd5b60078190556040517ffd74ba77488a6a7a45711e7c3469f918238eb90178880837da4a029a93ccf37590610661908390614677565b6112406117f3565b6001600160a01b0316611251611056565b6001600160a01b03161461129a576040805162461bcd60e51b81526020600482018190526024820152600080516020614a5b833981519152604482015290519081900360640190fd5b806000131580156112ae5750620493e08213155b80156112b957508181125b6112d55760405162461bcd60e51b81526004016107da9061475e565b600d829055600e8190556040517fbacb10fce6db592e49a2f13ebfa4af23c68a1ddc3962bc0818478a518f3fa95f906113119084908490614680565b60405180910390a15050565b60008060008060008061132e611bf1565b509050611341888289600f0b60006127f2565b939c929b5090995097509095509350505050565b61135d6117f3565b6001600160a01b031661136e611056565b6001600160a01b0316146113b7576040805162461bcd60e51b81526020600482018190526024820152600080516020614a5b833981519152604482015290519081900360640190fd5b60008112156113c557600080fd5b600c8190556040517f8e6edd6f6b5a50f0d6a8f356374101e297ba1ac391a14aaa3248ba40d7665e7390610661908390614677565b601b546001600160a01b031633146114245760405162461bcd60e51b81526004016107da90614740565b600061142e611bf1565b50601a8190559050610d4d601683612d1c565b6001600160a01b03918216600090815260026020908152604080832093909416825291909152205490565b601b546000906001600160a01b031633146114995760405162461bcd60e51b81526004016107da90614740565b6114a16105a7565b156114ab57600080fd5b508160006114b7611bf1565b5090506114c383612fe0565b60148054600f9290920b6001600160801b03908116600160801b0292169190911790556114ef81612fe0565b60158054600f9290920b6001600160801b03166001600160801b031990921691909117905561151d42612023565b601580546001600160801b03928316600160801b029216919091179055601a819055600f5461154c90856118e3565b600f5561155985836121fd565b509392505050565b6115696117f3565b6001600160a01b031661157a611056565b6001600160a01b0316146115c3576040805162461bcd60e51b81526020600482018190526024820152600080516020614a5b833981519152604482015290519081900360640190fd5b6001600160a01b0381166116085760405162461bcd60e51b815260040180806020018281038252602681526020018061491b6026913960400191505060405180910390fd5b600080546040516001600160a01b03808516939216917f8be0079c531659141344cd1fd0a4f28419497f9722a3daafe3b4186f6b6457e091a3600080546001600160a01b0319166001600160a01b0392909216919091179055565b601b546000906001600160a01b031633146116905760405162461bcd60e51b81526004016107da90614740565b81611699613041565b10156116b75760405162461bcd60e51b81526004016107da9061477c565b60006116cd6116c584612067565b600003610bba565b90506116df61098e6012600084612139565b90506116f6816106be85662386f26fc1000061193d565b600f5490925061170690846124b9565b600f556109c7848361308b565b61171b6117f3565b6001600160a01b031661172c611056565b6001600160a01b031614611775576040805162461bcd60e51b81526020600482018190526024820152600080516020614a5b833981519152604482015290519081900360640190fd5b601b546001600160a01b031615801561179657506001600160a01b03811615155b61179f57600080fd5b601b80546001600160a01b0319166001600160a01b0392909216919091179055565b80546f7fffffffffffffffffffffffffffffff60801b6001600160801b03918216178255600190910180549091169055565b3390565b6001600160a01b03831661183c5760405162461bcd60e51b8152600401808060200182810382526024815260200180614ae86024913960400191505060405180910390fd5b6001600160a01b0382166118815760405162461bcd60e51b81526004018080602001828103825260228152602001806149416022913960400191505060405180910390fd5b6001600160a01b03808416600081815260026020908152604080832094871680845294825291829020859055815185815291517f8c5be1e5ebec7d5bd14f71427d1e84f3dd0314c0f7b2291e5b200ac8c7c3b9259281900390910190a3505050565b60008282018381101561074b576040805162461bcd60e51b815260206004820152601b60248201527f536166654d6174683a206164646974696f6e206f766572666c6f770000000000604482015290519081900360640190fd5b60008261194c575060006105a1565b8282028284828161195957fe5b041461074b5760405162461bcd60e51b8152600401808060200182810382526021815260200180614a126021913960400191505060405180910390fd5b60008082116119ec576040805162461bcd60e51b815260206004820152601a60248201527f536166654d6174683a206469766973696f6e206279207a65726f000000000000604482015290519081900360640190fd5b8183816119f557fe5b049392505050565b6001600160a01b038316611a425760405162461bcd60e51b8152600401808060200182810382526025815260200180614ac36025913960400191505060405180910390fd5b6001600160a01b038216611a875760405162461bcd60e51b81526004018080602001828103825260238152602001806148b66023913960400191505060405180910390fd5b611a92838383613187565b611acf81604051806060016040528060268152602001614963602691396001600160a01b0386166000908152600160205260409020549190611b5a565b6001600160a01b038085166000908152600160205260408082209390935590841681522054611afe90826118e3565b6001600160a01b0380841660008181526001602090815260409182902094909455805185815290519193928716927fddf252ad1be2c89b69c2b068fc378daa952ba7f163c4a11628f55a4df523b3ef92918290030190a3505050565b60008184841115611be95760405162461bcd60e51b81526004018080602001828103825283818151815260200191508051906020019080838360005b83811015611bae578181015183820152602001611b96565b50505050905090810190601f168015611bdb5780820380516001836020036101000a031916815260200191505b509250505060405180910390fd5b505050900390565b600080600080601960009054906101000a90046001600160a01b03166001600160a01b031663feaf968c6040518163ffffffff1660e01b815260040160a06040518083038186803b158015611c4557600080fd5b505afa158015611c59573d6000803e3d6000fd5b505050506040513d601f19601f82011682018060405250810190611c7d91906145c8565b5093505092505060008213611ca45760405162461bcd60e51b81526004016107da90614704565b90925090509091565b600080600080600080611cc08989612516565b60008b8152601060205260409020549195509150611cfb908a9086908490611cf690600160801b9004600f90810b900b8c61318c565b61260f565b60008c8152601060205260408120549297509295509350909150611d3790611d3190600160801b9004600f90810b900b89611e2b565b8a613204565b9050600080611d588b8b60008c1386611d51600f54612067565b8a8a61326f565b94505050509150611d8960008a1383601160008f81526020019081526020016000206121399092919063ffffffff16565b91508315611da157611d9d600f54856120ab565b600f555b60008b815260106020526040902054611dc7906108c1906001600160801b0316886120ab565b60008c815260106020526040902080546001600160801b0319166001600160801b0392909216919091179055611dfc82611fc8565b611e196305f5e1006106be611e108d613301565b610c5a86611fc8565b97509750505050505050935093915050565b6000828201818312801590611e405750838112155b80611e555750600083128015611e5557508381125b61074b5760405162461bcd60e51b81526004018080602001828103825260218152602001806149b06021913960400191505060405180910390fd5b60008080611e9e8685611e2b565b9050851580611eb85750600086138015611eb85750600084135b80611ece5750600086128015611ece5750600084125b15611f1e57611f17611ee8611ee38887611e2b565b613301565b611f11611efe611ef788613301565b8990613312565b610be5611f0a8b613301565b8c90613312565b906133bb565b9250611fbe565b600086138015611f2e5750600084125b8015611f3a5750600081135b80611f5c5750600086128015611f505750600084135b8015611f5c5750600081125b15611f90578692506305f5e100611f81611f768786613473565b600087900390613312565b81611f8857fe5b059150611fbe565b8015611f9a578492505b6305f5e100611fb3611fac878a613473565b8890613312565b81611fba57fe5b0591505b5094509492505050565b60008082121561201f576040805162461bcd60e51b815260206004820181905260248201527f53616665436173743a2076616c7565206d75737420626520706f736974697665604482015290519081900360640190fd5b5090565b6000600160801b821061201f5760405162461bcd60e51b81526004018080602001828103825260278152602001806149896027913960400191505060405180910390fd5b6000600160ff1b821061201f5760405162461bcd60e51b8152600401808060200182810382526028815260200180614b0c6028913960400191505060405180910390fd5b6000808212156120fb5782826000038403915081106120f6576040805162461bcd60e51b815260206004820152600260248201526104d360f41b604482015290519081900360640190fd5b6105a1565b50808201828110156105a1576040805162461bcd60e51b81526020600482015260026024820152614d3160f01b604482015290519081900360640190fd5b6040805160808101825284546001600160801b038082168352600160801b91829004600f90810b810b602085015260018801549182169484019490945204820b90910b6060820152600090612190818585426134d8565b815186546020840151600f90810b6001600160801b03908116600160801b9081029482166001600160801b0319948516178216949094178a5560408601516001909a01805460609097015190920b8116909302988316949091169390931716959095179055509192915050565b6001600160a01b038216612258576040805162461bcd60e51b815260206004820152601f60248201527f45524332303a206d696e7420746f20746865207a65726f206164647265737300604482015290519081900360640190fd5b61226460008383613187565b60035461227190826118e3565b6003556001600160a01b03821660009081526001602052604090205461229790826118e3565b6001600160a01b03831660008181526001602090815260408083209490945583518581529351929391927fddf252ad1be2c89b69c2b068fc378daa952ba7f163c4a11628f55a4df523b3ef9281900390910190a35050565b6000838152601060205260408120548190600160801b9004600f90810b900b156123ad5760008581526010602052604081205461233e9087908790600160801b9004600f90810b900b876127f2565b5050506000888152601060205260409020600101549192506305f5e100916123a1915061237e90612377906001600160801b0316612067565b8490613473565b600089815260106020526040902054600160801b9004600f90810b900b90613312565b816123a857fe5b059150505b60408051606081018252601680546001600160801b0316825282518084019093526000926124a39288928a926020830190601760028282826020028201916000905b82829054906101000a90046001600160801b03166001600160801b031681526020019060100190602082600f010492830192600103820291508084116123ef57505050928452505060408051808201918290526020909301929150600284810191826000855b82829054906101000a9004600f0b600f0b81526020019060100190602082600f010492830192600103820291508084116124555790505050505050815250506137009092919063ffffffff16565b90506124af8282611e2b565b9695505050505050565b600082821115612510576040805162461bcd60e51b815260206004820152601e60248201527f536166654d6174683a207375627472616374696f6e206f766572666c6f770000604482015290519081900360640190fd5b50900390565b60106020526000805160206149d183398151915254600160009081526000805160206148d983398151915254909182918291829161256d918791600160801b91829004600f90810b810b92909104810b900b6129d5565b6001600081815260106020526000805160206148d98339815191525493955091935090916305f5e100916125b991600160801b9004600f90810b900b906125b39061375e565b90613312565b816125c057fe5b059050612601876040518060a00160405280868152602001858152602001848152602001898152602001600c5481525060166137b19092919063ffffffff16565b909890975095505050505050565b60008060008086131561264b5785612625613041565b10156126435760405162461bcd60e51b81526004016107da90614722565b85915061267c565b600086121561267c57600087815260106020526040902054612677906001600160801b031687876139a8565b925090505b6000878152601060205260409020546126a190859084906001600160801b03166139d3565b92509450945094915050565b6000828152601060205260409020600301546001600160801b03166126fb57600082815260106020526040902060030180546001600160801b031916426001600160801b0316179055610d4d565b6000828152601060205260409020600301546001600160801b0316421161272157610d4d565b6000806000612731858542613a52565b60008881526010602052604090206002015492955090935091506127559083611e2b565b600086815260106020526040902060020155801561277d57612779600f54826120ab565b600f555b600085815260106020526040908190206003810180546001600160801b031916426001600160801b03161790556002015490517f3e5170eaa3b2dec8bb1a3e32834aed10d5bbdb77abda3b065447543099eaebfa916127e391889187918790879061468e565b60405180910390a15050505050565b6000808080808087156128445760008060006128178d8d6128128e612fe0565b613afb565b925092509250600061282b8e85858561260f565b91965090915061283d90508b82611e2b565b9a50505050505b60008a81526010602052604081205461286b90600160801b9004600f90810b900b8c613204565b90506128898b8b60008c1384612882600f54612067565b878e61326f565b809750819850829950839a50849b5050505050505061296d600089138742601160008f81526020019081526020016000206040518060800160405290816000820160009054906101000a90046001600160801b03166001600160801b03166001600160801b031681526020016000820160109054906101000a9004600f0b600f0b600f0b81526020016001820160009054906101000a90046001600160801b03166001600160801b03166001600160801b031681526020016001820160109054906101000a9004600f0b600f0b600f0b815250506134d8909392919063ffffffff16565b955050945094509450945094565b600061298f6305f5e100611f118686613312565b6000868152601060205260409020600301549091506129cc906201518090611f11906129c59086906001600160801b03166124b9565b8490613312565b95945050505050565b60008060006305f5e1006129ee866125b360008a613ce0565b816129f557fe5b05905060006305f5e100612a0e866125b360018b613ce0565b81612a1557fe5b92989205965090945050505050565b612a2c6142a3565b825184516040830180516000928303600f90810b9490940390526020808701519088015191519190920390920b0390600160200201526000612a6d85613d18565b90506000612a8f82610be587600160200201518860005b602002015190611e2b565b602086015160009182039250612aa6908783612a84565b1315612acb57506020840151855160408401516000918203600f0b9092019091528190035b600081136060840152612add81613301565b60208401526305f5e100612af485610c5a84613301565b81612afb57fe5b04835250509392505050565b600080612b30611ee3601a54611f116305f5e1006125b3601a548961347390919063ffffffff16565b9050612b5d612b54600b546106be84600954600a540361193d90919063ffffffff16565b600954906118e3565b9150600954821015612b6f5760095491505b600a54821115612b7f57600a5491505b50919050565b6000612b8f611bf1565b50601554909150600090612bb690600f90810b900b611f116305f5e1006125b38684613473565b90506000612bcc6305f5e100611f118480613312565b601554909150612bfe90612bf190600160801b90046001600160801b03168603612067565b611f118362015180613312565b9050612c456305f5e100612c38612c18625b8d8085613312565b601454610be59063059a538090600160801b9004600f90810b900b613312565b81612c3f57fe5b05612fe0565b60148054600f9290920b6001600160801b03908116600160801b029216919091179055612c7183612fe0565b60158054600f9290920b6001600160801b03166001600160801b0319909216919091179055612c9f84612023565b601580546001600160801b03908116600160801b93909116830217908190556014546040517fc0286f283c0343297f024da33b37cbae636c6f78d8b29803dd94a72c09d44b1a93612cfc939204600f90810b92900b908890614659565b60405180910390a150505050565b601480546001600160801b0319169055565b6000612d55612d3f8360400151600160028110612d3557fe5b6020020151613301565b6040840151612d4f906000612d35565b906118e3565b905060008111612d91576040805162461bcd60e51b81526020600482015260026024820152614e3160f01b604482015290519081900360640190fd5b60005b6002811015612fda57612df6612df184604001518360028110612db357fe5b6020020151866002018460028110612dc757fe5b600291828204019190066010029054906101000a9004600f0b600f0b611e2b90919063ffffffff16565b612fe0565b846002018260028110612e0557fe5b600291828204019190066010026101000a8154816001600160801b030219169083600f0b6001600160801b031602179055506000612e5b836106be612e5387604001518660028110612d3557fe5b87519061193d565b9050836060015115612f565780856001018360028110612e7757fe5b600291828204019190066010029054906101000a90046001600160801b03166001600160801b03161015612ed7576040805162461bcd60e51b8152602060048201526002602482015261271960f11b604482015290519081900360640190fd5b612f136108c182876001018560028110612eed57fe5b60028104919091015460019091166010026101000a90046001600160801b0316906124b9565b856001018360028110612f2257fe5b600291828204019190066010026101000a8154816001600160801b0302191690836001600160801b03160217905550612fd1565b612f926108c182876001018560028110612f6c57fe5b60028104919091015460019091166010026101000a90046001600160801b0316906118e3565b856001018360028110612fa157fe5b600291828204019190066010026101000a8154816001600160801b0302191690836001600160801b031602179055505b50600101612d94565b50505050565b60006f7fffffffffffffffffffffffffffffff19821215801561300657506001607f1b82125b61201f5760405162461bcd60e51b81526004018080602001828103825260278152602001806149896027913960400191505060405180910390fd5b60008060005b600281101561307d576000818152601060205260409020546130739083906001600160801b03166118e3565b9150600101613047565b50600f546106c490826124b9565b6001600160a01b0382166130d05760405162461bcd60e51b8152600401808060200182810382526021815260200180614aa26021913960400191505060405180910390fd5b6130dc82600083613187565b613119816040518060600160405280602281526020016148f9602291396001600160a01b0385166000908152600160205260409020549190611b5a565b6001600160a01b03831660009081526001602052604090205560035461313f90826124b9565b6003556040805182815290516000916001600160a01b038516917fddf252ad1be2c89b69c2b068fc378daa952ba7f163c4a11628f55a4df523b3ef9181900360200190a35050565b505050565b6000806131998484611e2b565b90506000811380156131ab5750600084125b156131ba5760039150506105a1565b6000811280156131ca5750600084135b156131d95760019150506105a1565b600081121580156131eb575060008412155b156131fa5760029150506105a1565b60009150506105a1565b600082613213575060006105a1565b60008313156132475760008281526010602052604090205461323d906001600160801b0316612067565b60000390506105a1565b600082815260106020526040902054613268906001600160801b0316612067565b90506105a1565b6000806000806000806132858d8b8b8b8b613d4d565b90506132918d8d613e2c565b945060006132ad662386f26fc10000611f11611ef78286611e2b565b90506132ba8e8d88613e53565b93506132c68185611e2b565b90506132d28e87613ec2565b92508086836132e86132e388613301565b612067565b9650965096509650505097509750975097509792505050565b60008082121561201f575060000390565b600082613321575060006105a1565b826000191480156133355750600160ff1b82145b156133715760405162461bcd60e51b8152600401808060200182810382526027815260200180614a7b6027913960400191505060405180910390fd5b8282028284828161337e57fe5b051461074b5760405162461bcd60e51b8152600401808060200182810382526027815260200180614a7b6027913960400191505060405180910390fd5b60008161340f576040805162461bcd60e51b815260206004820181905260248201527f5369676e6564536166654d6174683a206469766973696f6e206279207a65726f604482015290519081900360640190fd5b816000191480156134235750600160ff1b83145b1561345f5760405162461bcd60e51b81526004018080602001828103825260218152602001806149f16021913960400191505060405180910390fd5b600082848161346a57fe5b05949350505050565b60008183038183128015906134885750838113155b8061349d575060008312801561349d57508381135b61074b5760405162461bcd60e51b8152600401808060200182810382526024815260200180614b346024913960400191505060405180910390fd5b8183156135f157610168820385604001516001600160801b0316106135a3578460600151600f0b8112156135a3576000603c86604001516001600160801b031684038161352157fe5b049050600061353160088361193d565b90506050811315613540575060505b60608701516127109061355890600f0b838303613312565b8161355f57fe5b0583136135975761358a612710612c3883612710038a60600151600f0b61331290919063ffffffff16565b600f90810b900b60608801525b5050506060840151600f0b5b808560200151600f0b13806135c5575084516001600160801b03166101680182115b156135e0576135d381612fe0565b600f90810b900b60208601525b6001600160801b0382168552610c60565b610168820385600001516001600160801b0316106136a9578460200151600f0b8113156136a9578451603c6001600160801b03909116830304600061363760088361193d565b90506050811315613646575060505b60208701516127109061365e90600f0b838301613312565b8161366557fe5b05831361369d57613690612710612c3883612710018a60200151600f0b61331290919063ffffffff16565b600f90810b900b60208801525b5050506020840151600f0b5b808560600151600f0b12806136ce57508161016886604001516001600160801b031601105b156136e9576136dc81612fe0565b600f90810b900b60608601525b6001600160801b0382166040860152949350505050565b6000806305f5e10061372a8660400151856002811061371b57fe5b60200201518690600f0b613312565b8161373157fe5b0590506129cc81610be58760200151866002811061374b57fe5b60200201516001600160801b0316612067565b60008161376d57506000610b09565b816001141561377f5750614e20610b09565b6040805162461bcd60e51b815260206004820152600260248201526104e560f41b604482015290519081900360640190fd5b60008060006137c08585613f00565b6040805160608101825288546001600160801b031681528151808301928390529293506138ad929091899160208401916001840190600290826000855b82829054906101000a90046001600160801b03166001600160801b031681526020019060100190602082600f010492830192600103820291508084116137fd57505050928452505060408051808201918290526020909301929150600284810191826000855b82829054906101000a9004600f0b600f0b81526020019060100190602082600f01049283019260010382029150808411613863579050505050505081525050856060015187613700565b91506138b98183613473565b9250600061390084610be58960010189600281106138d357fe5b600291828204019190066010029054906101000a90046001600160801b03166001600160801b0316612067565b121561391e576139188660010186600281106138d357fe5b60000392505b6139616108c187600101876002811061393357fe5b600291828204019190066010029054906101000a90046001600160801b03166001600160801b0316856120ab565b86600101866002811061397057fe5b600291828204019190066010026101000a8154816001600160801b0302191690836001600160801b0316021790555050935093915050565b6000806139c283611f116139bb88612067565b8790613312565b600094909403840195939450505050565b600060038460038111156139e357fe5b14156139ff576139f883610be5846002613312565b905061074b565b6001846003811115613a0d57fe5b1415613a2c57613a2283610be5846002613312565b600003905061074b565b6002846003811115613a3a57fe5b1415613a4b5782600003905061074b565b508161074b565b600080600080613a628787613e2c565b600088815260106020526040902054909150613aa5908890613a9290600160801b9004600f90810b900b82613204565b613a9d600f54612067565b600080613d4d565b9350613ab38782868861297b565b600088815260106020526040812054919450613aef91662386f26fc1000091611f11918791600160801b909104600f90810b909103900b613312565b91505093509350939050565b60106020526000805160206149d183398151915254600160009081526000805160206148d983398151915254909182918291829182918291600160801b91829004600f90810b92909104900b8a613b64578882039150613b6182600f0b8a600f0b61318c565b95505b8a60011415613b85578881039050613b8281600f0b8a600f0b61318c565b95505b613b968a83600f0b83600f0b6129d5565b90955093506305f5e100613bb2600f83900b6125b3600161375e565b81613bb957fe5b05925050506000613bf28a6040518060a001604052808781526020018681526020018581526020018c8152602001600c54815250613f00565b60408051606081018252601680546001600160801b031682528251808401909352929350613ccc928c928e92919060208301906017600282828260200282019160009082829054906101000a90046001600160801b03166001600160801b031681526020019060100190602082600f010492830192600103820291508084116123ef575050509284525050604080518082019182905260028581018054600f90810b900b8352602095860195929450929091839060109086018084116124555790505050505050815250506137009092919063ffffffff16565b955085810396505050505093509350939050565b600082613cf257506305f5e1006105a1565b826001141561377f57612710613d09836002613312565b81613d1057fe5b0590506105a1565b6000805b6002811015612b7f57613d43838260028110613d3457fe5b60200201518390600f0b611e2b565b9150600101613d1c565b600085613d95576000613d766305f5e100611f11613d6d89888a89613f74565b60085490613312565b601454909150613d8d90600f90810b900b82611e2b565b9150506129cc565b8560011415613e205783613dc957601454613dc290600160801b9004600f90810b900b6305f5e100613312565b90506129cc565b6000613deb6305f5e100611f11613de289888a89613f74565b60075490613312565b9050613d8d6305f5e100611f11613e09662386f26fc1000085611e2b565b601454600160801b9004600f90810b900b90613312565b50600095945050505050565b600082613e3a5750806105a1565b826001141561377f5764e8d4a51000613d098380613312565b6000808213613e6157600080fd5b8215613e97576305f5e100613e88856001016125b3600d548661331290919063ffffffff16565b81613e8f57fe5b05905061074b565b6305f5e100613eb8856001016125b3600d548661331290919063ffffffff16565b60000381613e8f57fe5b6000808213613ed057600080fd5b6305f5e100613ef1846001016125b3600e548661331290919063ffffffff16565b81613ef857fe5b059392505050565b600080613f16848460000151856020015161406e565b905083613f2f57613f278382614123565b9150506105a1565b8360011415613f4257613f278382614174565b6040805162461bcd60e51b815260206004820152600260248201526104e360f41b604482015290519081900360640190fd5b6000808313613fbf576040805162461bcd60e51b81526020600482015260126024820152716c206d75737420626520706f73697469766560701b604482015290519081900360640190fd5b6000613fcf866125b38180613312565b9050613ff1613fea6002611f1160036125b38a818d80613312565b8290611e2b565b9050614004613fea866125b38982613312565b905061401c613fea6004611f11886125b38180613312565b905061403284611f118181856305f5e100613312565b90506124af6140418585611e2b565b611f1161404e8787611e2b565b611f116305f5e1006125b3611fac6140678b60026133bb565b8c90611e2b565b60008061407b8484611e2b565b905060006140976132e361408e86613301565b612d4f88613301565b905060008112156140d4576040805162461bcd60e51b81526020600482015260026024820152614e3160f01b604482015290519081900360640190fd5b806140e45760009250505061074b565b85614106576140fd81611f11846125b36132e38a613301565b9250505061074b565b8560011415613f42576140fd81611f11846125b36132e389613301565b6000806305f5e10061414561413a6132e386613301565b606087015190613312565b8161414c57fe5b05905061271061416d8286608001516127100161331290919063ffffffff16565b8161346a57fe5b60008064e8d4a510006141a085604001516125b38760600151886080015161331290919063ffffffff16565b816141a757fe5b059050610c6064e8d4a510006141e56141c66132e3611ee38887613473565b6125b3886060015189608001516127100361331290919063ffffffff16565b816141ec57fe5b0564e8d4a510006142256142066132e3611ee38988611e2b565b6125b389606001518a608001516127100161331290919063ffffffff16565b8161422c57fe5b05600081831361423c578161074b565b5090919050565b604051806080016040528060006001600160801b03168152602001614266614285565b8152602001614273614285565b8152602001614280614285565b905290565b60405180604001604052806002906020820280368337509192915050565b604051806080016040528060008152602001600081526020016142c4614285565b8152600060209091015290565b80356001600160a01b0381168114610b0957600080fd5b80358015158114610b0957600080fd5b8035600f81900b8114610b0957600080fd5b805169ffffffffffffffffffff81168114610b0957600080fd5b600060208284031215614335578081fd5b61074b826142d1565b60008060408385031215614350578081fd5b614359836142d1565b9150614367602084016142d1565b90509250929050565b600080600060608486031215614384578081fd5b61438d846142d1565b925061439b602085016142d1565b9150604084013590509250925092565b600080604083850312156143bd578182fd5b6143c6836142d1565b946020939093013593505050565b6000806000606084860312156143e8578283fd5b6143f1846142d1565b95602085013595506040909401359392505050565b600060408284031215614417578081fd5b82601f830112614425578081fd5b6040516040810181811067ffffffffffffffff8211171561444257fe5b8060405250808385604086011115614458578384fd5b835b60028110156144815761446c826142f8565b8352602092830192919091019060010161445a565b509195945050505050565b60006020828403121561449d578081fd5b5035919050565b600080604083850312156144b6578182fd5b50508035926020909101359150565b600060a082840312156144d6578081fd5b6040516080810181811067ffffffffffffffff821117156144f357fe5b6040528235815260208084013581830152605f84018513614512578283fd5b60026145256145208261489a565b614876565b8060408701608088018981111561453a578788fd5b875b858110156145585782358552938601939186019160010161453c565b50826040880152614568816142e8565b6060880152509498975050505050505050565b6000806040838503121561458d578182fd5b82359150614367602084016142f8565b6000806000606084860312156145b1578081fd5b505081359360208301359350604090920135919050565b600080600080600060a086880312156145df578283fd5b6145e88661430a565b945060208601519350604086015192506060860151915061460b6080870161430a565b90509295509295909350565b8060005b6002811015612fda57815184526020938401939091019060010161461b565b6001600160a01b0391909116815260200190565b901515815260200190565b600f93840b81529190920b6020820152604081019190915260600190565b90815260200190565b918252602082015260400190565b948552602085019390935260408401919091526060830152608082015260a00190565b6000602080835283518082850152825b818110156146dd578581018301518582016040015282016146c1565b818111156146ee5783604083870101525b50601f01601f1916929092016040019392505050565b602080825260049082015263504d433360e01b604082015260600190565b602080825260049082015263504d433160e01b604082015260600190565b6020808252600490820152632826a19960e11b604082015260600190565b602080825260049082015263504d433560e01b604082015260600190565b6020808252600490820152630504d43360e41b604082015260600190565b600060a082019050825182526020830151602083015260408301516147c26040840182614617565b5060608301511515608083015292915050565b81516001600160801b0316815260208083015160e08301916147f990840182614617565b50604083015161480c6060840182614617565b5060608301516109c760a0840182614617565b6001600160801b039586168152600f9490940b602085015291841660408401526060830152909116608082015260a00190565b9283526020830191909152604082015260600190565b60ff91909116815260200190565b60405181810167ffffffffffffffff8111828210171561489257fe5b604052919050565b600067ffffffffffffffff8211156148ae57fe5b506020029056fe45524332303a207472616e7366657220746f20746865207a65726f20616464726573738c6065603763fec3f5742441d3833f3f43b982453612d76adb39a885e3006b5f45524332303a206275726e20616d6f756e7420657863656564732062616c616e63654f776e61626c653a206e6577206f776e657220697320746865207a65726f206164647265737345524332303a20617070726f766520746f20746865207a65726f206164647265737345524332303a207472616e7366657220616d6f756e7420657863656564732062616c616e636553616665436173743a2076616c756520646f65736e27742066697420696e2031323820626974735369676e6564536166654d6174683a206164646974696f6e206f766572666c6f776e0956cda88cad152e89927e53611735b61a5c762d1428573c6931b0a5efcb015369676e6564536166654d6174683a206469766973696f6e206f766572666c6f77536166654d6174683a206d756c7469706c69636174696f6e206f766572666c6f7745524332303a207472616e7366657220616d6f756e74206578636565647320616c6c6f77616e63654f776e61626c653a2063616c6c6572206973206e6f7420746865206f776e65725369676e6564536166654d6174683a206d756c7469706c69636174696f6e206f766572666c6f7745524332303a206275726e2066726f6d20746865207a65726f206164647265737345524332303a207472616e736665722066726f6d20746865207a65726f206164647265737345524332303a20617070726f76652066726f6d20746865207a65726f206164647265737353616665436173743a2076616c756520646f65736e27742066697420696e20616e20696e743235365369676e6564536166654d6174683a207375627472616374696f6e206f766572666c6f7745524332303a2064656372656173656420616c6c6f77616e63652062656c6f77207a65726fa2646970667358221220efa41a82de903fb761f64038b138a88aeabccc3ea2d625194e7e0846b9fceabb64736f6c63430007060033",
  "devdoc": {
    "kind": "dev",
    "methods": {
      "allowance(address,address)": {
        "details": "See {IERC20-allowance}."
      },
      "approve(address,uint256)": {
        "details": "See {IERC20-approve}. Requirements: - `spender` cannot be the zero address."
      },
      "balanceOf(address)": {
        "details": "See {IERC20-balanceOf}."
      },
      "decimals()": {
        "details": "Returns the number of decimals used to get its user representation. For example, if `decimals` equals `2`, a balance of `505` tokens should be displayed to a user as `5,05` (`505 / 10 ** 2`). Tokens usually opt for a value of 18, imitating the relationship between Ether and Wei. This is the value {ERC20} uses, unless {_setupDecimals} is called. NOTE: This information is only used for _display_ purposes: it in no way affects any of the arithmetic of the contract, including {IERC20-balanceOf} and {IERC20-transfer}."
      },
      "decreaseAllowance(address,uint256)": {
        "details": "Atomically decreases the allowance granted to `spender` by the caller. This is an alternative to {approve} that can be used as a mitigation for problems described in {IERC20-approve}. Emits an {Approval} event indicating the updated allowance. Requirements: - `spender` cannot be the zero address. - `spender` must have allowance for the caller of at least `subtractedValue`."
      },
      "getLPTokenPrice(int256)": {
        "returns": {
          "_0": "LPTokenPrice scaled by 1e16"
        }
      },
      "getTradePrice(uint256,int128)": {
        "params": {
          "_productId": "product id",
          "_tradeAmount": "amount of position to trade. positive for pool short and negative for pool long."
        }
      },
      "getUtilizationRatio()": {
        "returns": {
          "_0": "Utilization Ratio scaled by 1e8"
        }
      },
      "increaseAllowance(address,uint256)": {
        "details": "Atomically increases the allowance granted to `spender` by the caller. This is an alternative to {approve} that can be used as a mitigation for problems described in {IERC20-approve}. Emits an {Approval} event indicating the updated allowance. Requirements: - `spender` cannot be the zero address."
      },
      "name()": {
        "details": "Returns the name of the token."
      },
      "owner()": {
        "details": "Returns the address of the current owner."
      },
      "renounceOwnership()": {
        "details": "Leaves the contract without owner. It will not be possible to call `onlyOwner` functions anymore. Can only be called by the current owner. NOTE: Renouncing ownership will leave the contract without an owner, thereby removing any functionality that is only available to the owner."
      },
      "symbol()": {
        "details": "Returns the symbol of the token, usually a shorter version of the name."
      },
      "totalSupply()": {
        "details": "See {IERC20-totalSupply}."
      },
      "transfer(address,uint256)": {
        "details": "See {IERC20-transfer}. Requirements: - `recipient` cannot be the zero address. - the caller must have a balance of at least `amount`."
      },
      "transferFrom(address,address,uint256)": {
        "details": "See {IERC20-transferFrom}. Emits an {Approval} event indicating the updated allowance. This is not required by the EIP. See the note at the beginning of {ERC20}. Requirements: - `sender` and `recipient` cannot be the zero address. - `sender` must have a balance of at least `amount`. - the caller must have allowance for ``sender``'s tokens of at least `amount`."
      },
      "transferOwnership(address)": {
        "details": "Transfers ownership of the contract to a new account (`newOwner`). Can only be called by the current owner."
      },
      "updatePoolPosition(uint256,int128)": {
        "params": {
          "_productId": "product id",
          "_tradeAmount": "amount of position to trade. positive for pool short and negative for pool long."
        }
      }
    },
    "title": "PerpetualMarketCore",
    "version": 1
  },
  "userdoc": {
    "kind": "user",
    "methods": {
      "completeHedgingProcedure((uint256,uint256,int256[2],bool))": {
        "notice": "Update netting info to complete heging procedure"
      },
      "deposit(address,uint256)": {
        "notice": "Provides liquidity"
      },
      "getLPTokenPrice(int256)": {
        "notice": "Gets LP token price LPTokenPrice = (L + UnrealizedPnL_i - AmountLockedLiquidity_i) / Supply"
      },
      "getTokenAmountForHedging()": {
        "notice": "Gets USDC and underlying amount to make the pool delta neutral"
      },
      "getTradePrice(uint256,int128)": {
        "notice": "Gets trade price"
      },
      "getUtilizationRatio()": {
        "notice": "Gets utilization ratio Utilization Ratio = (AmountLockedLiquidity_i) / L"
      },
      "initialize(address,uint256,int256)": {
        "notice": "Initialize pool with initial liquidity and funding rate"
      },
      "rebalance()": {
        "notice": "Locks liquidity if more collateral required and unlocks liquidity if there is unrequied collateral."
      },
      "updatePoolPosition(uint256,int128)": {
        "notice": "Adds or removes positions"
      },
      "updatePoolSnapshot()": {
        "notice": "Updates pool snapshot Calculates ETH variance and base funding rate for future pool."
      },
      "withdraw(address,uint256)": {
        "notice": "xxWithdraws liquidity"
      }
    },
    "notice": "Perpetual Market Core Contract manages perpetual pool positions and calculates amount of collaterals. Error Code PMC0: No available liquidity PMC1: No available liquidity PMC2: caller must be PerpetualMarket contract PMC3: underlying price must not be 0 PMC4: pool delta must be negative PMC5: invalid params",
    "version": 1
  },
  "storageLayout": {
    "storage": [
      {
        "astId": 53,
        "contract": "contracts/PerpetualMarketCore.sol:PerpetualMarketCore",
        "label": "_owner",
        "offset": 0,
        "slot": "0",
        "type": "t_address"
      },
      {
        "astId": 841,
        "contract": "contracts/PerpetualMarketCore.sol:PerpetualMarketCore",
        "label": "_balances",
        "offset": 0,
        "slot": "1",
        "type": "t_mapping(t_address,t_uint256)"
      },
      {
        "astId": 847,
        "contract": "contracts/PerpetualMarketCore.sol:PerpetualMarketCore",
        "label": "_allowances",
        "offset": 0,
        "slot": "2",
        "type": "t_mapping(t_address,t_mapping(t_address,t_uint256))"
      },
      {
        "astId": 849,
        "contract": "contracts/PerpetualMarketCore.sol:PerpetualMarketCore",
        "label": "_totalSupply",
        "offset": 0,
        "slot": "3",
        "type": "t_uint256"
      },
      {
        "astId": 851,
        "contract": "contracts/PerpetualMarketCore.sol:PerpetualMarketCore",
        "label": "_name",
        "offset": 0,
        "slot": "4",
        "type": "t_string_storage"
      },
      {
        "astId": 853,
        "contract": "contracts/PerpetualMarketCore.sol:PerpetualMarketCore",
        "label": "_symbol",
        "offset": 0,
        "slot": "5",
        "type": "t_string_storage"
      },
      {
        "astId": 855,
        "contract": "contracts/PerpetualMarketCore.sol:PerpetualMarketCore",
        "label": "_decimals",
        "offset": 0,
        "slot": "6",
        "type": "t_uint8"
      },
      {
        "astId": 8203,
        "contract": "contracts/PerpetualMarketCore.sol:PerpetualMarketCore",
        "label": "squaredPerpFundingMultiplier",
        "offset": 0,
        "slot": "7",
        "type": "t_int256"
      },
      {
        "astId": 8205,
        "contract": "contracts/PerpetualMarketCore.sol:PerpetualMarketCore",
        "label": "perpFutureMaxFundingRate",
        "offset": 0,
        "slot": "8",
        "type": "t_int256"
      },
      {
        "astId": 8207,
        "contract": "contracts/PerpetualMarketCore.sol:PerpetualMarketCore",
        "label": "minSlippageToleranceOfHedge",
        "offset": 0,
        "slot": "9",
        "type": "t_uint256"
      },
      {
        "astId": 8209,
        "contract": "contracts/PerpetualMarketCore.sol:PerpetualMarketCore",
        "label": "maxSlippageToleranceOfHedge",
        "offset": 0,
        "slot": "10",
        "type": "t_uint256"
      },
      {
        "astId": 8211,
        "contract": "contracts/PerpetualMarketCore.sol:PerpetualMarketCore",
        "label": "hedgeRateOfReturnThreshold",
        "offset": 0,
        "slot": "11",
        "type": "t_uint256"
      },
      {
        "astId": 8213,
        "contract": "contracts/PerpetualMarketCore.sol:PerpetualMarketCore",
        "label": "poolMarginRiskParam",
        "offset": 0,
        "slot": "12",
        "type": "t_int256"
      },
      {
        "astId": 8215,
        "contract": "contracts/PerpetualMarketCore.sol:PerpetualMarketCore",
        "label": "tradeFeeRate",
        "offset": 0,
        "slot": "13",
        "type": "t_int256"
      },
      {
        "astId": 8217,
        "contract": "contracts/PerpetualMarketCore.sol:PerpetualMarketCore",
        "label": "protocolFeeRate",
        "offset": 0,
        "slot": "14",
        "type": "t_int256"
      },
      {
        "astId": 8244,
        "contract": "contracts/PerpetualMarketCore.sol:PerpetualMarketCore",
        "label": "amountLiquidity",
        "offset": 0,
        "slot": "15",
        "type": "t_uint256"
      },
      {
        "astId": 8248,
        "contract": "contracts/PerpetualMarketCore.sol:PerpetualMarketCore",
        "label": "pools",
        "offset": 0,
        "slot": "16",
        "type": "t_mapping(t_uint256,t_struct(Pool)8228_storage)"
      },
      {
        "astId": 8252,
        "contract": "contracts/PerpetualMarketCore.sol:PerpetualMarketCore",
        "label": "spreadInfos",
        "offset": 0,
        "slot": "17",
        "type": "t_mapping(t_uint256,t_struct(Info)13351_storage)"
      },
      {
        "astId": 8254,
        "contract": "contracts/PerpetualMarketCore.sol:PerpetualMarketCore",
        "label": "lpTokenSpreadInfo",
        "offset": 0,
        "slot": "18",
        "type": "t_struct(Info)13351_storage"
      },
      {
        "astId": 8256,
        "contract": "contracts/PerpetualMarketCore.sol:PerpetualMarketCore",
        "label": "poolSnapshot",
        "offset": 0,
        "slot": "20",
        "type": "t_struct(PoolSnapshot)8237_storage"
      },
      {
        "astId": 8258,
        "contract": "contracts/PerpetualMarketCore.sol:PerpetualMarketCore",
        "label": "nettingInfo",
        "offset": 0,
        "slot": "22",
        "type": "t_struct(Info)12500_storage"
      },
      {
        "astId": 8260,
        "contract": "contracts/PerpetualMarketCore.sol:PerpetualMarketCore",
        "label": "priceFeed",
        "offset": 0,
        "slot": "25",
        "type": "t_contract(AggregatorV3Interface)45"
      },
      {
        "astId": 8262,
        "contract": "contracts/PerpetualMarketCore.sol:PerpetualMarketCore",
        "label": "lastHedgeSpotPrice",
        "offset": 0,
        "slot": "26",
        "type": "t_int256"
      },
      {
        "astId": 8264,
        "contract": "contracts/PerpetualMarketCore.sol:PerpetualMarketCore",
        "label": "perpetualMarket",
        "offset": 0,
        "slot": "27",
        "type": "t_address"
      }
    ],
    "types": {
      "t_address": {
        "encoding": "inplace",
        "label": "address",
        "numberOfBytes": "20"
      },
      "t_array(t_int128)2_storage": {
        "base": "t_int128",
        "encoding": "inplace",
        "label": "int128[2]",
        "numberOfBytes": "32"
      },
      "t_array(t_uint128)2_storage": {
        "base": "t_uint128",
        "encoding": "inplace",
        "label": "uint128[2]",
        "numberOfBytes": "32"
      },
      "t_contract(AggregatorV3Interface)45": {
        "encoding": "inplace",
        "label": "contract AggregatorV3Interface",
        "numberOfBytes": "20"
      },
      "t_int128": {
        "encoding": "inplace",
        "label": "int128",
        "numberOfBytes": "16"
      },
      "t_int256": {
        "encoding": "inplace",
        "label": "int256",
        "numberOfBytes": "32"
      },
      "t_mapping(t_address,t_mapping(t_address,t_uint256))": {
        "encoding": "mapping",
        "key": "t_address",
        "label": "mapping(address => mapping(address => uint256))",
        "numberOfBytes": "32",
        "value": "t_mapping(t_address,t_uint256)"
      },
      "t_mapping(t_address,t_uint256)": {
        "encoding": "mapping",
        "key": "t_address",
        "label": "mapping(address => uint256)",
        "numberOfBytes": "32",
        "value": "t_uint256"
      },
      "t_mapping(t_uint256,t_struct(Info)13351_storage)": {
        "encoding": "mapping",
        "key": "t_uint256",
        "label": "mapping(uint256 => struct SpreadLib.Info)",
        "numberOfBytes": "32",
        "value": "t_struct(Info)13351_storage"
      },
      "t_mapping(t_uint256,t_struct(Pool)8228_storage)": {
        "encoding": "mapping",
        "key": "t_uint256",
        "label": "mapping(uint256 => struct PerpetualMarketCore.Pool)",
        "numberOfBytes": "32",
        "value": "t_struct(Pool)8228_storage"
      },
      "t_string_storage": {
        "encoding": "bytes",
        "label": "string",
        "numberOfBytes": "32"
      },
      "t_struct(Info)12500_storage": {
        "encoding": "inplace",
        "label": "struct NettingLib.Info",
        "members": [
          {
            "astId": 12491,
            "contract": "contracts/PerpetualMarketCore.sol:PerpetualMarketCore",
            "label": "amountAaveCollateral",
            "offset": 0,
            "slot": "0",
            "type": "t_uint128"
          },
          {
            "astId": 12495,
            "contract": "contracts/PerpetualMarketCore.sol:PerpetualMarketCore",
            "label": "amountsUsdc",
            "offset": 0,
            "slot": "1",
            "type": "t_array(t_uint128)2_storage"
          },
          {
            "astId": 12499,
            "contract": "contracts/PerpetualMarketCore.sol:PerpetualMarketCore",
            "label": "amountsUnderlying",
            "offset": 0,
            "slot": "2",
            "type": "t_array(t_int128)2_storage"
          }
        ],
        "numberOfBytes": "96"
      },
      "t_struct(Info)13351_storage": {
        "encoding": "inplace",
        "label": "struct SpreadLib.Info",
        "members": [
          {
            "astId": 13344,
            "contract": "contracts/PerpetualMarketCore.sol:PerpetualMarketCore",
            "label": "timeLastLongTransaction",
            "offset": 0,
            "slot": "0",
            "type": "t_uint128"
          },
          {
            "astId": 13346,
            "contract": "contracts/PerpetualMarketCore.sol:PerpetualMarketCore",
            "label": "minLongTradePrice",
            "offset": 16,
            "slot": "0",
            "type": "t_int128"
          },
          {
            "astId": 13348,
            "contract": "contracts/PerpetualMarketCore.sol:PerpetualMarketCore",
            "label": "timeLastShortTransaction",
            "offset": 0,
            "slot": "1",
            "type": "t_uint128"
          },
          {
            "astId": 13350,
            "contract": "contracts/PerpetualMarketCore.sol:PerpetualMarketCore",
            "label": "maxShortTradePrice",
            "offset": 16,
            "slot": "1",
            "type": "t_int128"
          }
        ],
        "numberOfBytes": "64"
      },
      "t_struct(Pool)8228_storage": {
        "encoding": "inplace",
        "label": "struct PerpetualMarketCore.Pool",
        "members": [
          {
            "astId": 8219,
            "contract": "contracts/PerpetualMarketCore.sol:PerpetualMarketCore",
            "label": "amountLockedLiquidity",
            "offset": 0,
            "slot": "0",
            "type": "t_uint128"
          },
          {
            "astId": 8221,
            "contract": "contracts/PerpetualMarketCore.sol:PerpetualMarketCore",
            "label": "positionPerpetuals",
            "offset": 16,
            "slot": "0",
            "type": "t_int128"
          },
          {
            "astId": 8223,
            "contract": "contracts/PerpetualMarketCore.sol:PerpetualMarketCore",
            "label": "entryPrice",
            "offset": 0,
            "slot": "1",
            "type": "t_uint128"
          },
          {
            "astId": 8225,
            "contract": "contracts/PerpetualMarketCore.sol:PerpetualMarketCore",
            "label": "amountFundingPaidPerPosition",
            "offset": 0,
            "slot": "2",
            "type": "t_int256"
          },
          {
            "astId": 8227,
            "contract": "contracts/PerpetualMarketCore.sol:PerpetualMarketCore",
            "label": "lastFundingPaymentTime",
            "offset": 0,
            "slot": "3",
            "type": "t_uint128"
          }
        ],
        "numberOfBytes": "128"
      },
      "t_struct(PoolSnapshot)8237_storage": {
        "encoding": "inplace",
        "label": "struct PerpetualMarketCore.PoolSnapshot",
        "members": [
          {
            "astId": 8230,
            "contract": "contracts/PerpetualMarketCore.sol:PerpetualMarketCore",
            "label": "futureBaseFundingRate",
            "offset": 0,
            "slot": "0",
            "type": "t_int128"
          },
          {
            "astId": 8232,
            "contract": "contracts/PerpetualMarketCore.sol:PerpetualMarketCore",
            "label": "ethVariance",
            "offset": 16,
            "slot": "0",
            "type": "t_int128"
          },
          {
            "astId": 8234,
            "contract": "contracts/PerpetualMarketCore.sol:PerpetualMarketCore",
            "label": "ethPrice",
            "offset": 0,
            "slot": "1",
            "type": "t_int128"
          },
          {
            "astId": 8236,
            "contract": "contracts/PerpetualMarketCore.sol:PerpetualMarketCore",
            "label": "lastSnapshotTime",
            "offset": 16,
            "slot": "1",
            "type": "t_uint128"
          }
        ],
        "numberOfBytes": "64"
      },
      "t_uint128": {
        "encoding": "inplace",
        "label": "uint128",
        "numberOfBytes": "16"
      },
      "t_uint256": {
        "encoding": "inplace",
        "label": "uint256",
        "numberOfBytes": "32"
      },
      "t_uint8": {
        "encoding": "inplace",
        "label": "uint8",
        "numberOfBytes": "1"
      }
    }
  }
}